:020000040800F2
:1000000068040020010100087D100008E10D0008CF
:100010007910000877070008CF1A000800000000D8
:1000200000000000000000000000000001170008B0
:10003000490A0008000000007B1400081518000899
:100040001B0100081B0100081B0100081B01000820
:100050001B0100081B0100081B0100081B01000810
:10006000850A00081B0100081B0100081B0100088D
:100070001B0100081B0100081B0100081B010008F0
:100080001B0100081B0100081B0100081B010008E0
:100090001B0100081B0100081B010008970A00084B
:1000A0001B0100081B0100081B0100081B010008C0
:1000B0001B0100081B0100081B0100081B010008B0
:1000C0001B0100081B0100081B0100081B010008A0
:1000D0001B010008791800081B0100081B0100081B
:1000E0004B0A00081B0100081B010008DFF80CD0B8
:1000F00000F01CFA00480047971F00086804002021
:100100000648804706480047FEE7FEE7FEE7FEE7B1
:10011000FEE7FEE7FEE7FEE7FEE7FEE71918000848
:10012000ED000008D2B201E000F8012B491EFBD21D
:1001300070470022F6E710B513460A4604461946F2
:10014000FFF7F0FF204610BD2DE9FE4F81EA0304C2
:1001500004F0004421F0004100944FF0000B23F024
:10016000004350EA01045ED052EA03045BD0C3F3BB
:100170000A54C1F30A552C44A4F2F3340194A0FBB1
:100180000254C1F3130141F48011C3F3130343F488
:10019000801301FB024400FB034E840A970A44EAE1
:1001A000815447EA8357A4FB076802958D0A05FB33
:1001B00007854FEA932C04FB0C542705029D4FEA58
:1001C000065847EA1637B5EB08056EEB070C870EA5
:1001D000920E47EA811742EA8312A7FB0201B6EBAF
:1001E0000B0164EB00042B0D43EA0C335E1844EB67
:1001F0001C50DA465146E7FB0201C5F313044FEAEF
:100200000B3343EA14534FEA0432019C43EA0603DA
:10021000A4F10C040294009CCDE900B400F037F97D
:1002200003B0BDE8F08F00200146F9E72DE9F04D5D
:1002300081EA030404F0004B21F0004514464FF01E
:10024000000A23F0004150EA050220D054EA0102DE
:100250001DD0C5F30A570246C5F31303C1F31300BB
:10026000C1F30A5640F4801543F48013A7EB060847
:10027000101BD64608F2FD3873EB050002D308F1D7
:10028000010801E092185B41B8F1000F03DA002089
:100290000146BDE8F08D00204FF4801106468446EB
:1002A0000EE0171B73EB050705D3121B63EB050369
:1002B00006434CEA010C49084FEA300092185B41B2
:1002C00050EA0107EDD152EA030012D082EA04009D
:1002D00083EA0501084305D0101BAB4106D2012279
:1002E000002306E000224FF0004302E06FF001021D
:1002F00053101AEB06004CEB085110EB0A0041EBCF
:100300000B01BDE8F04D00F0B3B8C10F80EAE0701A
:100310000844CA079623002100F07CB870B5C1F3E9
:100320000A5201F000450024C1F3130140F2FF33EB
:1003300041F480119A4201DA002070BD40F233434B
:100340009A42A2F2334203DC524200F04AF800E043
:1003500090402C43F1D0404270BD00F0004230F09C
:1003600000400AD0C10D01F56071C0F3160042EAE9
:100370000151C208400711437047002001467047F1
:100380002DE9F05F0546002092469B4688460646CA
:10039000814640241BE0284641464746224600F05D
:1003A00020F853465A46C01A914110D311461846B8
:1003B000224600F0CDF82D1A67EB01084F46224681
:1003C0000120002100F0C4F817EB00094E41201E67
:1003D000A4F10104DFDC484631462A464346BDE825
:1003E000F09F202A04DB203A21FA02F00021704716
:1003F00021FA02F3D040C2F120029140084319468D
:1004000070470029A8BF7047401C490008BF20F072
:100410000100704710B4B0FA80FC00FA0CF050EA0A
:10042000010404BF10BC704749B1CCF1200421FA8B
:1004300004F411FA0CF118BF012121430843A3EB86
:100440000C01CB1D4FEA00614FEA102042BF002093
:1004500010BC704700EBC35010440029A4BF10BC6F
:100460007047401C490008BF20F0010010BC7047D5
:1004700010B5141E73F1000408DA401C41F10001AC
:1004800092185B411A4301D120F0010010BD2DE903
:10049000F04D92469B4611B1B1FA81F202E0B0FAFA
:1004A00080F22032904600F053F804460F4640EAAE
:1004B0000A0041EA0B0153465A46084313D011463D
:1004C00053EA010019D0C8F140025046FFF789FFF6
:1004D00005460E4650465946424600F039F8084354
:1004E00005D0012004E020463946BDE8F08D00200B
:1004F000054346EAE0762C4337430A986305E40A4D
:10050000A0EB08000022FD0A44EA47540A3002D555
:1005100000200146E9E7010510196941DDE90845B8
:1005200000196941BDE8F04DA2E70000064C074DF7
:1005300006E0E06840F0010394E8070098471034B3
:10054000AC42F6D3FFF7D6FD6C2F00088C2F0008C5
:10055000202A04DB203A00FA02F100207047914083
:10056000C2F1200320FA03F319439040704721B1F0
:10057000826842F00102826003E0826822F0010298
:100580008260704721B1826842F48072826003E029
:10059000826822F4807282607047000010B50446C1
:1005A0001248844208D10121401500F093FF002138
:1005B000601500F08FFF17E00D48844208D101213B
:1005C000001500F087FF0021201500F083FF0BE0ED
:1005D0000848844208D10121C80300F07BFF0021B4
:1005E0004FF4004000F076FF10BD000000240140F1
:1005F00000280140003C0140014600208A6802F0CA
:1006000004020AB1012000E00020704701460020EA
:100610008A6802F008020AB1012000E00020704759
:1006200030B502460020002350680F4C20400D7961
:100630000C6844EA05242043506090680B4C20402D
:10064000D1E902542C434D7944EA4504204390609B
:10065000D06A20F470000C7C641EE4B2234340EAAC
:100660000350D06230BD0000FFFEF0FFFDF7F1FF48
:10067000F0B504460D4600200021092D11DDE0688B
:10068000A5F10A0606EB4607072606FA07F1884396
:10069000A5F10A0606EB460603FA06F10843E060F8
:1006A0000CE0206905EB4507072606FA07F18843A9
:1006B00005EB450603FA06F108432061072A0FDA25
:1006C000606B561E06EB86071F2606FA07F1884365
:1006D000561E06EB860605FA06F10843606322E023
:1006E0000D2A0FDA206BD61F06EB86071F2606FAA7
:1006F00007F18843D61F06EB860605FA06F1084384
:10070000206310E0E06AA2F10D0606EB86071F26C3
:1007100006FA07F18843A2F10D0606EB860605FAF4
:1007200006F10843E062F0BD816841F00801816094
:10073000704721B1826842F4A002826003E08268BF
:1007400022F4A00282607047816841F00401816058
:10075000704710B501F0AEF800F072FC01F0CCFB70
:1007600000F08EFC00F03CFC00F0D0FB00F066F8DE
:1007700000F07EFD10BD00BFFEE71CB5012108465C
:1007800000F098FE00208DF804000C208DF8050084
:1007900001208DF8060004200090684600F0A0F9C2
:1007A0004FF480700090684600F09AF94FF40060B2
:1007B0000090684600F094F94FF48040009068463D
:1007C00000F08EF94FF400400090684600F088F980
:1007D0000221002000F0CEF90821002000F0CAF923
:1007E0000B21002000F0C6F90E21012000F0C2F913
:1007F0000F21012000F0BEF91CBD000008B5012149
:100800000C2000F057FE48208DF8030003208DF8DF
:10081000020040F60410ADF800006946054800F0FB
:10082000C9F94FF44040ADF800006946024800F0B5
:10083000C1F908BD00080140000C014010B5FFF7E8
:10084000DDFFFFF79AFF00F001F810BD08B50820A2
:100850008DF8000002208DF801008DF802000120C3
:100860008DF80300684600F04DFC17208DF800005D
:1008700002208DF8010001208DF802008DF80300A0
:10088000684600F03FFC28208DF8000002208DF81B
:10089000010000208DF8020001208DF80300684659
:1008A00000F030FC08BD21B1026842F00102026094
:1008B00004E002684FF6FE731A40026070470000C1
:1008C00001684FF6FE721140016000210160416035
:1008D0008160C1604B49884208D14A49083949685A
:1008E00041F00F01474A083A51608AE04549143106
:1008F000884208D143490839496841F0F001414A2A
:10090000083A51607DE03F492831884208D13D498D
:100910000839496841F470613A4A083A516070E018
:1009200038493C31884208D136490839496841F490
:100930007041344A083A516063E03249503188428C
:1009400008D130490839496841F470212D4A083AE4
:10095000516056E02B496431884208D12949083951
:10096000496841F47001274A083A516049E0254935
:100970007831884208D123490839496841F07061CB
:10098000204A083A51603CE01F49884206D1011FC5
:10099000096841F00F01021F116032E01A49143159
:1009A000884208D11849091F096841F0F001164A28
:1009B000121F116025E014492831884208D11249DC
:1009C000091F096841F470610F4A121F116018E095
:1009D0000D493C31884208D10B49091F096841F48F
:1009E0007041094A121F11600BE0074950318842DB
:1009F00007D10549091F096841F47021024A121FF5
:100A000011607047080002400804024010B500223F
:100A1000026847F6F0739A430C6A8B6823430C69AB
:100A200023434C6923438C692343CC6923434C6A99
:100A300023438C6A23431A430260CB6843600B68EC
:100A400083604B68C36010BD704710B54FF4006001
:100A500000F032F818B14FF4006000F027F84FF4BE
:100A6000804000F029F818B14FF4804000F01EF8E3
:100A70004FF4004000F020F818B14FF4004000F0AF
:100A800015F810BD10B5042000F016F810B10420C0
:100A900000F00CF810BD10B54FF4807000F00CF8A9
:100AA00018B14FF4807000F001F810BD01490860E2
:100AB0007047000014040140014600200022074B4B
:100AC0001B6803EA0102054B14331B680B4013B18A
:100AD0000AB1012000E0002070470000000401403E
:100AE000002123498279002A3AD00A461268036815
:100AF0009A430B461A600A1D126803689A430B1D3D
:100B00001A60027911440A6803681A430A60184A95
:100B10000832126803689A43154B08331A601A1D8D
:100B2000126803689A43124B0C331A604279102AF8
:100B30000ED11A1F126803681A430D4B08331A604E
:100B40001A1D126803681A43094B0C331A600DE032
:100B50000749427911440A6803681A430A6005E0AC
:100B6000027911440A6803689A430A6070470000DA
:100B70000004014030B500228B071C0F0F2303FA3D
:100B800004F20B4B8C1053F824309343084C8D1017
:100B900044F8253023468C1053F824308C07240F5A
:100BA00000FA04F42343024C8D1044F8253030BD84
:100BB000080001402DE9F0410246002500260020F2
:100BC00000230024002791F803C00CF00F0591F8D2
:100BD00003C00CF0100CBCF1000F03D091F802C060
:100BE0004CEA050591F800C0BCF1000F31D0146843
:100BF00000202BE04FF0010C0CFA00F3B1F800C01C
:100C00000CEA03069E4220D183004FF00F0C0CFA31
:100C100003F7BC4305FA03FC4CEA040491F803C053
:100C2000BCF1280F06D14FF0010C0CFA00FCC2F801
:100C300014C00AE091F803C0BCF1480F05D14FF091
:100C4000010C0CFA00FCC2F810C0401C0828D1D3DB
:100C50001460B1F800C0BCF1FF0F34DD546800200F
:100C60002EE000F1080C4FF0010808FA0CF3B1F87F
:100C700000C00CEA03069E4221D183004FF00F0C06
:100C80000CFA03F7BC4305FA03FC4CEA040491F8A0
:100C900003C0BCF1280F05D100F1080C08FA0CF8CC
:100CA000C2F8148091F803C0BCF1480F07D100F1DD
:100CB000080C4FF0010808FA0CF8C2F81080401C2C
:100CC0000828CED35460BDE8F081416170470161CE
:100CD0007047000010B500F02DF8114A128891B24B
:100CE000104A128890B2002200F066F80E4A12886C
:100CF00091B20E4A128890B2012200F05DF80C4ABF
:100D000092F9011092F90000002200F05DFA084A01
:100D100092F9031092F90200012200F055FA10BD79
:100D2000300000202C00002038000020340000207B
:100D30003C00002070B500252C462B462A4629464B
:100D4000002017E08500174E36F81550294401257C
:100D500005EB800536F815502A44022505EB800581
:100D600036F815502B44032505EB800536F8155051
:100D70002C44401C0528E5DB052591FBF5F50A4EC2
:100D80003560052592FBF5F5084E3560052593FB8A
:100D9000F5F5074E3560052594FBF5F5054E3560F4
:100DA00070BD00004000002034000020380000200A
:100DB0002C0000203000002070B506460D46144679
:100DC000064800EB4401304601F03AF80348401C65
:100DD00000EB4401284601F033F870BD3C000020D0
:100DE00000BFFEE708B50121082000F063FB4FF4C7
:100DF0004050ADF8000010208DF8030003208DF85E
:100E0000020069460448FFF7D5FE01200349086047
:100E10000349C1F8B00108BD000C0140B481214272
:100E20000080214200B500220D4B1A60002114E021
:100E3000C2090B4B1B1F1A604206100E01F0A4F8EA
:100E40000122084BC3F8B42101F09EF80022044BA4
:100E50001A6001F099F84A1CD1B20829E8DB00BDFC
:100E6000B48121420080214200B501200849086078
:100E70000849C1F8B40101F087F80020044908606E
:100E800001F082F800200349C1F8B40100BD000060
:100E9000B08121420080214200B50020074908604E
:100EA0000749C1F8B00101F06FF80120034908605B
:100EB0000349C1F8B00101F067F800BDB4812142D7
:100EC0000080214200B5002201200E49086001F097
:100ED0005BF801200C49C1F8B40101F055F807E0B6
:100EE000501CC2B2FA2A03DDFFF7D6FF012000BD75
:100EF0000448803800680028F2D10249091D0860C2
:100F000000BFF4E7B08121420080214200B587B0E4
:100F100001214FF4017000F0CDFA4FF4004000F0D1
:100F2000ADFA1B20ADF8180000208DF81B0003203F
:100F30008DF81A0006A92848FFF73CFE2748FFF75E
:100F40002DFB0020019001208DF808008DF809008C
:100F50004FF4602003900020049004208DF81400CA
:100F600001A91E48FFF75CFB0623012200211B4854
:100F7000FFF77EFB0623022201211848FFF778FBCA
:100F80000623032211461548FFF772FB06230422AD
:100F900011461248FFF76CFB01211048FFF7F2FAE7
:100FA00001210E48FFF7E3FA0C48FFF7BDFB00BF35
:100FB0000A48FFF72BFB0028FAD10848FFF7C4FBCB
:100FC00000BF0648FFF718FB0028FAD101210348AB
:100FD000FFF7AFFB07B000BD00080140002401404F
:100FE00000B58BB00121084600F054FA1148FFF714
:100FF00067FC1148009011480190002002901420D5
:10100000039000200490802005904000069080000E
:101010000790202008900002099000200A9069465D
:101020000448FFF7F3FC01210248FFF73CFC0BB03A
:1010300000BD0000080002404C2401404000002098
:1010400008B50121102000F035FA4FF40050ADF83A
:10105000000010208DF8030003208DF8020069467F
:101060000448FFF7A7FD4FF400510248FFF72FFE99
:1010700008BD00000010014000BFFEE770470000FF
:1010800008B50121082000F015FA10208DF80300A2
:1010900003208DF8020040F20140ADF800006946DF
:1010A0000B48FFF787FD48208DF803000220ADF8BC
:1010B000000069460648FFF77DFD012005490860EC
:1010C00000F082FA00200449C1F8800108BD000048
:1010D000000C0140A88121420080214208B54FF454
:1010E000A06000F047F825208DF8000001208DF861
:1010F00001008DF802008DF80300684600F002F848
:1011000008BD000070B5002100230F22C47804B38D
:10111000154C246804F4E064C4F5E064210AC1F1CC
:101120000403CA40447804FA03F18478144021434C
:1011300009010E4C0678A155047804F01F0501241E
:10114000AC4005786D11AD0005F1E025C5F8004112
:1011500009E0047804F01F050124AC40044D067832
:10116000761145F8264070BD0CED00E000E400E08B
:1011700080E100E002490143024A1160704700002B
:101180000000FA050CED00E070B5002418E004F151
:10119000B000002100F065F90021084600F061F977
:1011A0000021102000F05DF9002505E0012100205C
:1011B00000F057F9681CC5B2802DF7DB601CC4B283
:1011C000082CE4DB70BD000070B586B004460D4607
:1011D0001646142101A8FEF7ACFF002C05DA624286
:1011E00019A101A800F0A2FC04E0224619A101A85F
:1011F00000F09CFC06EB4601002202EB0111C8B294
:10120000102301AA012100F00FF9142101A8FEF713
:1012100090FF002D05DA6A4210A101A800F086FCBB
:1012200004E02A4610A101A800F080FC06EB46016C
:10123000002202EB0111C8B2102301AA042100F020
:10124000F3F806B070BD0000583A2D256420202028
:1012500000000000583A256420202000593A2D252E
:101260006420202000000000593A2564202020003E
:1012700010B5FFF7B7FD642000F060FE0021AE203E
:1012800000F0EFF80021084600F0EBF800211020F4
:1012900000F0E7F80021402000F0E3F80021B02042
:1012A00000F0DFF80021812000F0DBF80021FF20B2
:1012B00000F0D7F80021A12000F0D3F80021A620EB
:1012C00000F0CFF80021A82000F0CBF800213F204B
:1012D00000F0C7F80021C82000F0C3F80021D32097
:1012E00000F0BFF80021084600F0BBF80021D5202F
:1012F00000F0B7F80021802000F0B3F80021D820DA
:1013000000F0AFF80021052000F0ABF80021D92053
:1013100000F0A7F80021F12000F0A3F80021DA2066
:1013200000F09FF80021122000F09BF80021DB2044
:1013300000F097F80021302000F093F800218D2074
:1013400000F08FF80021142000F08BF80021AF206E
:1013500000F087F8FFF718FF10BD70B504460D4682
:1013600005F1B000002100F07CF8102141EA1410D2
:10137000002100F076F804F00F00002100F071F871
:1013800070BD00002DE9F04707460E46904699468D
:1013900000250024A8F12000C5B27F2F02DD002720
:1013A000B01CC6B2B9F1100F24D131463846FFF750
:1013B000D4FF002408E004EB0511194A505C012118
:1013C00000F04FF8601CC4B2082CF4DB701CC1B2F2
:1013D0003846FFF7C2FF002409E004EB051108318D
:1013E0000F4A505C012100F03CF8601CC4B2082C8C
:1013F000F3DB12E031463846FFF7AFFF00240AE086
:1014000005EB4501074A02EB4101085D012100F0AF
:1014100028F8601CC4B2062CF2DBBDE8F08700009F
:10142000FC210008D41F00082DE9F04104460F46B6
:101430001546984600260FE0AA5D434639462046E9
:10144000FFF7A0FF04F10800C4B2782C02DD0024ED
:10145000B81CC7B2701CC6B2A85D0028ECD1BDE8AC
:10146000F08170B504460D461DB1E0B200F047FBB7
:1014700002E0E0B200F02DFB70BD70470146002095
:10148000034A506820F44040084350607047000011
:101490000010024029B1064A52690243044B5A61C6
:1014A00004E0034A52698243014B5A6170470000CD
:1014B0000010024029B1064A92690243044B9A6126
:1014C00004E0034A92698243014B9A61704700002D
:1014D0000010024029B1064AD2680243044BDA6088
:1014E00004E0034AD2688243014BDA60704700008F
:1014F0000010024030B500210022002400232D4DB1
:101500006D6805F00C0121B1042905D0082923D10B
:1015100005E0294D056022E0274D05601FE0254DBF
:101520006D6805F47012234D6D6805F48034022552
:1015300005EB92421CB9214D554305600BE01D4D52
:101540006D6805F400351DB11C4D5543056002E082
:10155000194D5543056002E0174D056000BF00BFFF
:10156000144D6D6805F0F0010909154D6B5C0568B7
:10157000DD4045600F4D6D6805F4E061090A104DCE
:101580006B5C4568DD4085600A4D6D6805F460510F
:10159000C90A0B4D6B5C4568DD40C560054D6D6843
:1015A00005F44041890B074D6B5CC568B5FBF3F54D
:1015B000056130BD0010024000127A0000093D00B4
:1015C000140000202400002000B587B00121042071
:1015D000FFF770FF01210803FFF76CFF01210846A8
:1015E000FFF768FFE020ADF8180018208DF81B0009
:1015F00003208DF81A0006A91548FFF7DBFA002032
:10160000ADF804004FF48270ADF806000020ADF88C
:101610000800ADF80A00ADF80C004FF40070ADF80A
:101620000E002820ADF810000020ADF812000720B1
:10163000ADF8140001A9074800F044F8012105485D
:1016400000F026F8FF2000F007F807B000BD00000A
:10165000000801400030014010B5044600BF0221DF
:101660000A4800F021F80028F9D02146074800F088
:1016700027F800BF0121054800F016F80028F9D02E
:10168000024800F01AF8C0B210BD0000003001405E
:1016900021B1028842F04002028004E002884FF645
:1016A000BF731A40028070470246002013890B4026
:1016B0000BB1012000E00020704701468889704787
:1016C0008181704710B50022028802F441520B88D4
:1016D0004C8823438C882343CC8823430C892343A1
:1016E0004C8923438C892343CC8923431A430280AA
:1016F000838B4FF2FF74234083830B8A038210BDD8
:10170000704710B500F002F810BD00000CB50020C5
:10171000019000903348006840F4803031490860FF
:1017200000BF3048006800F4003000900198401C71
:101730000190009818B90198B0F5A06FF1D129482F
:10174000006800F4003010B10120009001E000209A
:1017500000900098012843D12348006840F0100011
:10176000214908600846006820F003000860084628
:10177000006840F0020008601A4840681949486053
:101780000846406848600846406840F48060486009
:101790000846406820F47C1048600846406840F4E1
:1017A000E81048600846006840F08070086000BF9C
:1017B0000C48006800F000700028F9D00948406823
:1017C00020F00300074948600846406840F00200E6
:1017D000486000BF0348406800F00C000828F9D1B9
:1017E0000CBD00000010024000200240042808D177
:1017F0004FF0E021096941F004014FF0E02211614E
:1018000007E04FF0E021096921F004014FF0E022E8
:10181000116170477047000010B51348006840F030
:1018200001001149086008464068104908400E4907
:101830004860084600680E4908400B4908600846A1
:10184000006820F4802008600846406820F4FE000C
:1018500048604FF41F008860FFF753FF4FF00060AF
:101860000449086010BD0000001002400000FFF8AD
:10187000FFFFF6FE08ED00E010B540F225510648E6
:1018800000F060F838B1044800F018F9C4B22146FD
:10189000014800F018F910BD0038014021B18289DB
:1018A00042F40052828104E082894DF6FF731A40AF
:1018B0008281704700B585B0012144F20500FFF731
:1018C000F9FD4FF40070ADF8100018208DF81300EA
:1018D00003208DF8120004A91848FFF76BF94FF4A4
:1018E0008060ADF8100004208DF8130003208DF8FF
:1018F000120004A91148FFF75DF94FF4E1300090A0
:101900000020ADF80400ADF80600ADF80800ADF811
:101910000C000C20ADF80A006946094800F062F896
:10192000FFF7DCFB012240F22551054800F034F8B6
:1019300001210348FFF7B2FF05B000BD00080140D8
:101940000038014070B50246002400230025002025
:1019500040F66A16B14200D100BFC1F3421501F052
:101960001F03012606FA03F3012D02D196893340A5
:1019700006E0022D02D1168A334001E0968A3340F8
:101980000C12012606FA04F41688344013B10CB187
:10199000012000E0002070BDF0B5034600240026C1
:1019A0000025002040F66A17B94200D100BF184652
:1019B000C1F3421401F01F06012707FA06F5012CB6
:1019C00001D10C3004E0022C01D1103000E01430C1
:1019D0001AB107682F43076002E00768AF4307604A
:1019E000F0BD00002DE9F04786B005460E46002404
:1019F000A24600BFA1460027B08900B100BF2F4614
:101A00002C8A4CF6FF700440F08804432C82AC8989
:101A10004EF6F3100440B0883189084371890843B9
:101A20000443AC81AC8A4FF6FF400440B0890443C4
:101A3000AC8201A8FFF75EFD1F48874202D1DDF8A6
:101A400010A001E0DDF80CA0A88900F4004040B12E
:101A50000AEBCA0000EB0A1031684900B0FBF1F84C
:101A600007E00AEBCA0000EB0A1031688900B0FBFE
:101A7000F1F86420B8FBF0F004012009642101FBB7
:101A80001089A88900F4004040B1322000EBC90061
:101A9000B0FBF1F000F00700044308E0322000EB57
:101AA00009106421B0FBF1F000F00F0004432C8119
:101AB00006B0BDE8F0870000003801400146888884
:101AC000C0F308007047C1F308028280704700BF6E
:101AD000FEE710B50446FFF7C7F97820FFF7A2F933
:101AE000FFF7F0F90020FFF79DF9FFF7EBF920462B
:101AF000FFF798F9FFF7E6F9FFF7CEF910BD10B53B
:101B00000446FFF7B1F97820FFF78CF9FFF7DAF90F
:101B10004020FFF787F9FFF7D5F92046FFF782F954
:101B2000FFF7D0F9FFF7B8F910BD00000FB4084B6C
:101B300010B504A902AA039800F01CF8044602A9F3
:101B4000002000F077F9204610BC5DF814FB00007F
:101B5000351E000802E008C8121F08C1002AFAD189
:101B600070477047002001E001C1121F002AFBD11D
:101B7000704700002DE9FF4F8DB09B460F4604468D
:101B8000002606E025280BD05A460F999047641C82
:101B9000761C20780028F5D111B03046BDE8F08FD2
:101BA0000025A8460122984900E0054314F8013FAA
:101BB000203B02FA03F00842F7D120782E2817D1F3
:101BC00014F8010F45F004052A280ED06FF02F02FB
:101BD0002078A0F1300109290AD808EB880102EB2E
:101BE000410100EB0108641CF2E757F8048B641C08
:101BF00020786C280DD004DC4C2812D06A2811D132
:101C000004E074280DD07A280CD10AE045F40015C0
:101C100007E0617845F48015814202D1641C05F526
:101C20008015641C2278692A45D008DC002AB3D0CC
:101C3000582A69D0632A10D0642A08D13BE0702A60
:101C400067D0732A13D0752A5CD0782A5CD01046EE
:101C50005A460F999047761CD3E017F8040B8DF87D
:101C6000000000208DF80100E946012003E057F84C
:101C7000049B4FF0FF3069074FF0000501D40AE0E4
:101C80006D1C45450DDA8542FADB19F8051000296F
:101C9000F6D106E06D1C8542FCDB19F80510002921
:101CA000F8D12E4404E019F8010B5A460F999047D9
:101CB0006D1EF8D2A5E00A200021CDE90801C5F388
:101CC000025002280DD001CFC117031E71F100038D
:101CD0000DDA4FF0000CD0EB0C006CEB01012D2362
:101CE00008E0FF1D27F00707F7E80201EDE72B05E5
:101CF00004D52B238DF8283001233BE0EB0739D0A6
:101D00002023F7E70A2000E010200021CDE9080198
:101D100007E01020002145F00405CDE908014FF04F
:101D20000808C5F3025002280FD001CF00214FF060
:101D3000000A2B071FD5702A0DD0DDE908C38CF0EF
:101D4000100C5CEA030C0CD015E0FF1D27F0070710
:101D5000F7E80201EBE740228DF828204FF0010A56
:101D60000BE050EA010306D030238DF828308DF8BF
:101D7000292002239A46582A04D024A20DF12009D2
:101D80000B9209E026A2F9E7DDE90823FEF7F8FA4D
:101D90000B9B9B5C09F8013D50EA0102F4D1ADEBCD
:101DA000090020300890680701D44FF00108089915
:101DB000884502DDA8EB010000E0002080460025F8
:101DC00006E00AA85A46405D0F9990476D1C761CA4
:101DD0005545F6DB04E030205A460F999047761CB3
:101DE000B8F10001A8F10108F5DC05E019F8010BD4
:101DF0005A460F999047761C0899481E089000296A
:101E0000F4DC641CC5E600000928010030313233DF
:101E10003435363738396162636465660000000026
:101E20003031323334353637383941424344454610
:101E3000000000000A68531C0B601070704700001F
:101E40002DE9FC5F04468946002C25DD40F29C709C
:101E5000844221DAC82C03DA9C2089F8000045E08E
:101E6000A4F29C700FFA80FA5046FEF74EFA8346B1
:101E7000FEF773FA074600221D4BFEF7D7F9054619
:101E800000221C4BFEF760F9CDE90001FEF746FA8F
:101E900040B289F8000029E040F66400844225DD64
:101EA000B4F5805F22DA40F63870844203DD6420A6
:101EB00089F800001AE0A4F664000FFA80FA504690
:101EC000FEF723FA8346FEF748FA0022084BCDE9D5
:101ED0000001FEF7ABF905460022064BFEF734F988
:101EE0000746FEF71BFA40B289F80000BDE8FC9FE8
:101EF00000509B400000594010B56FF00400FFF700
:101F000075FC0A4800680A49B0FBF1F009490870FD
:101F10000846007800EB4001C1EBC0104FF6FF719E
:101F200001EAC0000449088010BD00000000002044
:101F300000127A00280000202A0000200146114AE1
:101F400012884A434FF0E0235A6100229A611A46F0
:101F5000126942F001021A6100BF4FF0E0221069DD
:101F600000F001021AB100F48032002AF5D04FF0DF
:101F7000E022126922F001024FF0E0231A610022F0
:101F80009A6170472A00002000BF00BF00BF00BF59
:101F900000BF00BF7047FEF7DCFB03E0FEF79AFED0
:101FA00000F002F8FAE7000010B54FF400510848BD
:101FB000FEF78DFE4FF4FA70FFF7C0FF4FF40051AB
:101FC0000348FEF782FE4FF4FA70FFF7B7FF10BD2B
:101FD000001001400000000000000000002F000081
:101FE00000000700070000147F147F1400242A7FDC
:101FF0002A1200626408132300364955225000005B
:102000000503000000001C224100000041221C00CA
:102010000014083E08140008083E0808000000A04C
:102020006000000808080808000060600000002048
:1020300010080402003E5149453E0000427F400026
:10204000004261514946002141454B3100181412AC
:102050007F10002745454539003C4A494930000179
:102060007109050300364949493600064949291EC8
:10207000000036360000000056360000000814222A
:10208000410000141414141400004122140800022A
:102090000151090600324959513E007C1211127C4F
:1020A000007F49494936003E41414122007F41417C
:1020B000221C007F49494941007F09090901003E6E
:1020C0004149497A007F0808087F0000417F4100AC
:1020D000002040413F01007F08142241007F404022
:1020E0004040007F020C027F007F0408107F003E0A
:1020F0004141413E007F09090906003E4151215EF0
:10210000007F091929460046494949310001017FEC
:102110000101003F4040403F001F2040201F003F82
:102120004038403F00631408146300070870080734
:1021300000615149454300007F41410000552A5547
:102140002A55000041417F000004020102040040C2
:1021500040404040000001020400002054545478E4
:10216000007F484444380038444444200038444404
:10217000487F00385454541800087E0901020018A2
:10218000A4A4A47C007F080404780000447D4000DF
:10219000004080847D00007F102844000000417FC3
:1021A0004000007C04180478007C0804047800389F
:1021B0004444443800FC242424180018242418FC27
:1021C000007C0804040800485454542000043F4490
:1021D0004020003C4040207C001C2040201C003C53
:1021E0004030403C004428102844001CA0A0A07CA3
:1021F000004464544C4414141414141400000000DB
:10220000000000000000000000000000000000F8D6
:1022100000000000000000333000000000100C0639
:10222000100C0600000000000000000040C07840D4
:10223000C0784000043F04043F040400007088FCA0
:1022400008300000001820FF211E0000F008F000F8
:10225000E018000000211C031E211E0000F0088869
:10226000700000001E2123241927211010160E00D3
:10227000000000000000000000000000000000E07E
:102280001804020000000007182040000002041893
:10229000E00000000040201807000000404080F0EF
:1022A000804040000202010F01020200000000F025
:1022B000000000000101011F0101010000000000F9
:1022C0000000000080B0700000000000000000006E
:1022D00000000000000101010101010100000000F7
:1022E000000000000030300000000000000000008E
:1022F00080601804006018060100000000E010086B
:102300000810E000000F102020100F00001010F83F
:10231000000000000020203F20200000007008087E
:1023200008887000003028242221300000300888FE
:10233000884830000018202020110E000000C02026
:1023400010F8000000070424243F240000F8088847
:10235000880808000019212020110E0000E01088D4
:1023600088180000000F112020110E000038080806
:10237000C83808000000003F000000000070880816
:1023800008887000001C222121221C0000E0100897
:102390000810E0000000312222110F00000000C0F0
:1023A000C00000000000003030000000000000808D
:1023B000000000000000806000000000000080407D
:1023C0002010080000010204081020004040404096
:1023D00040404000040404040404040000081020E9
:1023E000408000000020100804020100007048082E
:1023F0000808F0000000003036010000C030C82896
:10240000E810E0000718272423140B000000C03850
:10241000E0000000203C23020227382008F88888CA
:1024200088700000203F202020110E00C0300808D6
:1024300008083800071820202010080008F80808AD
:102440000810E000203F202020100F0008F88888A6
:10245000E8081000203F20202320180008F8888872
:10246000E8081000203F200003000000C0300808EA
:102470000838000007182020221E020008F8080073
:102480000008F808203F210101213F20000808F83A
:10249000080800000020203F20200000000008085D
:1024A000F8080800C08080807F00000008F888C01D
:1024B00028180800203F20012638200008F80800CE
:1024C00000000000203F20202020300008F8F80005
:1024D000F8F80800203F003F003F200008F830C017
:1024E0000008F808203F200007183F00E010080807
:1024F0000810E0000F10202020100F0008F8080836
:102500000808F000203F210101010000E010080848
:102510000810E0000F18242438504F0008F888886D
:1025200088887000203F2000030C3020007088084D
:10253000080838000038202121221C00180808F85B
:10254000080818000000203F2000000008F80800DC
:102550000008F808001F202020201F0008788800AD
:1025600000C83808000007380E010000F80800F81D
:102570000008F800033C0700073C030008186880C7
:102580008068180820302C03032C30200838C8003D
:10259000C83808000000203F20000000100808088C
:1025A000C83808002038262120201800000000FE2E
:1025B000020202000000007F40404000000C30C0DA
:1025C00000000000000000010638C0000002020206
:1025D000FE000000004040407F00000000000402B8
:1025E00002020400000000000000000000000000E3
:1025F00000000000808080808080808000020204D3
:1026000000000000000000000000000000008080CA
:10261000808000000019242222223F2008F8008038
:1026200080000000003F112020110E0000000080FB
:1026300080800000000E112020201100000000808A
:102640008088F800000E112020103F2000008080BC
:1026500080800000001F222222221300008080F0D0
:10266000888888180020203F2020000000008080FB
:1026700080808000006B94949493600008F8008040
:1026800080800000203F210000203F20008098989B
:10269000000000000020203F2020000000000080FB
:1026A0009898000000C08080807F000008F800003B
:1026B00080808000203F24022D302000000808F890
:1026C000000000000020203F20200000808080804B
:1026D00080808000203F20003F20003F80800080DD
:1026E00080800000203F210000203F2000008080EB
:1026F00080800000001F202020201F00808000809C
:102700008000000080FFA12020110E00000000804A
:1027100080808000000E112020A0FF80808080003B
:102720008080800020203F21200001000000808068
:10273000808080000033242424241900008080E05D
:10274000808000000000001F20200000808000002A
:1027500000808000001F202020103F20808080000B
:102760000080808000010E3008060100808000801B
:10277000008080800F300C030C300F000080800040
:10278000808080000020312E0E312000808080006B
:102790000080808080818E7018060100008080801B
:1027A000808080000021302C2221300000000000B9
:1027B000807C020200000000003F4040000000005A
:1027C000FF00000000000000FF0000000002027C8B
:1027D000800000000040403F0000000000060101B2
:1027E0000202040400000000000000000000F010DD
:1027F000101010FF10101010F0000000000000007A
:1028000000000000000000000000000000000F04B5
:10281000040404FF040404040F000000000000008E
:102820000000000000000000000000004040405F89
:10283000555555755555555F404040000000000006
:102840000000000000000000000000000040200F19
:10285000094989790909090F20400000000000009A
:1028600000000000000000000000000000FE024226
:102870004ACA4A4ACA4A4A4202FE00000000000010
:1028800000000000000000000000000000FF4050B9
:102890004C4340404F50505C40FF0000000000009F
:1028A0000000000000000000000000000000F888A8
:1028B000888888FF88888888F80000000000000069
:1028C00000000000000000000000000000001F08E1
:1028D0000808087F888888889F80F0000000000032
:1028E00000000000000000000000000080828282E2
:1028F000828282E2A2928A868280800000000000AA
:1029000000000000000000000000000000000000C7
:102910000040807F00000000000000000000000078
:102920000000000000000000000000002424A4FEBD
:10293000A3220022CC0000FF0000000000000000E5
:10294000000000000000000000000000080601FF79
:1029500000010404040404FF02020200000000005D
:10296000000000000000000000000000101010FF38
:10297000109008888888FF88888808000000000078
:102980000000000000000000000000000444827FFE
:1029900001808040432C1028468180000000000008
:1029A0000000000000000000000000004040484817
:1029B00048C8784F48484848484040000000000058
:1029C0000000000000000000000000000000000007
:1029D0000312122222528A060000000000000000AA
:1029E00000000000000000000000000000106080F7
:1029F00000FF000000FF0000C030000000000000E9
:102A000000000000000000000000000040404043C3
:102A1000407F4040407F4241404040000000000075
:102A2000000000000000000000000000101010FF77
:102A3000109008888888FF888888080000000000B7
:102A40000000000000000000000000000444827F3D
:102A500001808040432C1028468180000000000047
:102A60000000000000000000000000000010101036
:102A700010D030FF30D0121C1010000000000000F9
:102A80000000000000000000000000001008040228
:102A9000010000FF00000102040810000000000017
:102AA0000000000000000000000000000000FE2206
:102AB0002222FE00FE828292A29E00000000000000
:102AC00000000000000000000000000080601F0205
:102AD00042827F00FF402F102C4380000000000046
:102AE00000000000000000000000000000009088CE
:102AF0004C57A42454548C840000000000000000B3
:102B00000000000000000000000000000101804201
:102B1000221A07024282423E010101000000000029
:102B20000000000000000000000000000004E42499
:102B30002CB4252624B42C24E4040000000000005A
:102B40000000000000000000000000000000FF0284
:102B5000011E1212121E41827F00000000000000C0
:102B600000000000000000000000000000060AFE57
:102B70000AC600E000F000F8000000000000FE7D42
:102B8000BBC7EFEFEFEFEFEFEFC7BB7DFE0000003D
:102B90000000000000000000000000000000000035
:102BA0000000000000000000000000000000000025
:102BB0000000000000000000000000000000000015
:102BC0000000000000000000000000080CFEFE0CE9
:102BD000082060FEFE60200000007848FE82BABA3D
:102BE00082BABA82BABA82BABA82FE000000000083
:102BF00000000000000000000000000000000001D4
:102C000001010101010101010101010100000000B8
:102C100000000000000000000000000000000000B4
:102C200000000000000000000000000000000000A4
:102C30000000000000000000000000000000000094
:102C40000000000000000000000000000000000084
:102C50000000000000000000000000000000000074
:102C60000000000000000000000000000000000064
:102C70000000000000000000000000000000000054
:102C800000000000000000000000FEFF030303033B
:102C90000303030303FFFF0000FEFF03030303031B
:102CA00003030303FFFE00000000C0C0C0000000DB
:102CB00000FEFF030303030303030303FFFE0000FF
:102CC000FEFF030303030303030303FFFE000000EF
:102CD00000000000000000000000000000000000F4
:102CE00000000000000000000000000000000000E4
:102CF00000000000000000000000000000000000D4
:102D000000000000000000000000FFFF00000000C5
:102D10000000000000FFFF0000FFFF0C0C0C0C0C7B
:102D20000C0C0C0CFFFF00000000E1E1E1000000D2
:102D300000FFFF000000000000000000FFFF000097
:102D4000FFFF0C0C0C0C0C0C0C0C0CFFFF0000001B
:102D50000000000000000000000000000000000073
:102D60000000000000000000000000000000000063
:102D70000000000000000000000000000000000053
:102D8000000000000000000000000F1F18181818B5
:102D900018181818181F0F00000F1F1818181818E7
:102DA000181818181F0F0000000000000000000095
:102DB000000F1F1818181818181818181F0F0000DF
:102DC0000F1F1818181818181818181F0F000000CF
:102DD00000000000000000000000000000000000F3
:102DE00000000000000000000000000000000000E3
:102DF00000000000000000000000000000000000D3
:102E000000000000000000000000000000008C42F4
:102E100022120C00FC020202FC000004FE00000072
:102E2000205844FE40001010101010000004FE0056
:102E30000000FC020202FC00101010101000FC0246
:102E40000202FC000004FE00000000000000000080
:102E50000000000000000000000000000000000072
:102E60000000000000000000000000000024A42E6C
:102E700024E4242EA424000000F84A4C48F8484CCE
:102E80004AF80000000000000000000000000101FE
:102E90000101010000010101000000010101000029
:102EA000000000010100000000000000000101011D
:102EB000000000010101000000000000000000010E
:102EC00001010000000101010000000000000000FD
:102ED0000000000000000000C0201010101020C0F2
:102EE0000000C0201010101020C0000000120A07BF
:102EF000027F02070A120000000B0A0A0A7F0A0A70
:102F00000A0B0000000000000000000000000000AC
:102F100000000000000000000000000000000000B1
:102F200000000000000000000000000000000000A1
:102F30000000000000000000000000000000000091
:102F40000000000000000000000000000000000081
:102F500000000000000000001F2040404050205FA3
:102F600080001F2040404050205F80008C2F0008D0
:102F70000000002040000000541B0008CC2F000877
:102F80004000002028040000641B000800A24A043E
:102F90000000000000000000010203040607080909
:102FA00000000000010203040102030406070809EF
:102FB00002040608000000000000000000000000FD
:0C2FC00000000000000000000000000005
:04000005080000ED02
:00000001FF
