:020000040800F2
:100000005804002001010008FD07000889060008C7
:10001000F90700086B0300083B100008000000000F
:10002000000000000000000000000000550C000867
:100030006905000800000000CD090008690D0008EE
:100040001B0100081B0100081B0100081B01000820
:100050001B0100081B0100081B0100081B01000810
:100060001B0100081B0100081B0100086F030008AA
:100070001B0100081B0100081B0100081B010008F0
:100080001B0100081B0100081B0100081B010008E0
:100090001B0100081B0100081B0100081B010008D0
:1000A0001B0100081B0100081B0100081B010008C0
:1000B0001B0100081B0100081B0100081B010008B0
:1000C0001B0100081B0100081B0100081B010008A0
:1000D0001B010008CD0D00081B0100081B010008D2
:1000E0001B0100081B0100081B010008DFF80CD0F1
:1000F00000F02AF800480047451100085804002085
:100100000648804706480047FEE7FEE7FEE7FEE7B1
:10011000FEE7FEE7FEE7FEE7FEE7FEE76D0D0008FF
:10012000ED00000840EA01039B0703D009E008C97D
:10013000121F08C0042AFAD203E011F8013B00F8AC
:10014000013B521EF9D27047064C074D06E0E068AD
:1001500040F0010394E8070098471034AC42F6D30E
:10016000FFF7C8FFF81100081812000821B18268D3
:1001700042F00102826003E0826822F001028260A4
:10018000704721B1826842F48072826003E0826825
:1001900022F480728260704710B50446124884428F
:1001A00008D10121401500F03FFC0021601500F04E
:1001B0003BFC17E00D48844208D10121001500F0F6
:1001C00033FC0021201500F02FFC0BE0084884428E
:1001D00008D10121C80300F027FC00214FF40040A2
:1001E00000F022FC10BD0000002401400028014066
:1001F000003C0140014600208A6802F004020AB176
:10020000012000E000207047014600208A6802F0CB
:1002100008020AB1012000E00020704730B5024614
:100220000020002350680F4C20400D790C6844EAF0
:1002300005242043506090680B4C2040D1E90254C3
:100240002C434D7944EA450420439060D06A20F461
:1002500070000C7C641EE4B2234340EA0350D06279
:1002600030BD0000FFFEF0FFFDF7F1FFF0B50446E2
:100270000D4600200021092D11DDE068A5F10A06D8
:1002800006EB4607072606FA07F18843A5F10A069A
:1002900006EB460603FA06F10843E0600CE020692D
:1002A00005EB4507072606FA07F1884305EB4506E7
:1002B00003FA06F108432061072A0FDA606B561E25
:1002C00006EB86071F2606FA07F18843561E06EB43
:1002D000860605FA06F10843606322E00D2A0FDA6C
:1002E000206BD61F06EB86071F2606FA07F1884308
:1002F000D61F06EB860605FA06F10843206310E0D8
:10030000E06AA2F10D0606EB86071F2606FA07F142
:100310008843A2F10D0606EB860605FA06F10843AE
:10032000E062F0BD816841F008018160704721B151
:10033000826842F4A002826003E0826822F4A00294
:1003400082607047816841F004018160704710B598
:1003500000F05AFD00F034FA00F09AFE00F076FA50
:1003600000F0FEF900F092F910BD00BFFEE710B5F5
:10037000022000F0C5F810B1022000F001F810BD15
:1003800000F0805111B10349086001E00249486062
:1003900070470000040402400000024021B10268DE
:1003A00042F00102026004E002684FF6FE731A4058
:1003B0000260704701684FF6FE7211400160002133
:1003C000016041608160C1604B49884208D14A495F
:1003D0000839496841F00F01474A083A51608AE0FC
:1003E00045491431884208D143490839496841F0E8
:1003F000F001414A083A51607DE03F492831884286
:1004000008D13D490839496841F470613A4A083ACF
:10041000516070E038493C31884208D1364908398A
:10042000496841F47041344A083A516063E0324906
:100430005031884208D130490839496841F4702167
:100440002D4A083A516056E02B496431884208D160
:1004500029490839496841F47001274A083A51602E
:1004600049E025497831884208D12349083949684B
:1004700041F07061204A083A51603CE01F498842CF
:1004800006D1011F096841F00F01021F116032E01F
:100490001A491431884208D11849091F096841F0E6
:1004A000F001164A121F116025E0144928318842D4
:1004B00008D11249091F096841F470610F4A121FDF
:1004C000116018E00D493C31884208D10B49091FE1
:1004D000096841F47041094A121F11600BE0074995
:1004E0005031884207D10549091F096841F470213C
:1004F000024A121F116070470800024008040240BF
:1005000001460020002201F0805313B1054B1A6808
:1005100001E0054B1A6802EA01030BB1012000E07B
:1005200000207047000402400000024010B5002285
:10053000026847F6F0739A430C6A8B6823430C6990
:1005400023434C6923438C692343CC6923434C6A7E
:1005500023438C6A23431A430260CB6843600B68D1
:1005600083604B68C36010BD70472DE9F0410246BF
:1005700000250026002000230024002791F803C056
:100580000CF00F0591F803C00CF0100CBCF1000F3B
:1005900003D091F802C04CEA050591F800C0BCF107
:1005A000000F31D0146800202BE04FF0010C0CFA42
:1005B00000F3B1F800C00CEA03069E4220D183008C
:1005C0004FF00F0C0CFA03F7BC4305FA03FC4CEA9E
:1005D000040491F803C0BCF1280F06D14FF0010CC0
:1005E0000CFA00FCC2F814C00AE091F803C0BCF198
:1005F000480F05D14FF0010C0CFA00FCC2F810C0F6
:10060000401C0828D1D31460B1F800C0BCF1FF0F22
:1006100034DD546800202EE000F1080C4FF0010892
:1006200008FA0CF3B1F800C00CEA03069E4221D18F
:1006300083004FF00F0C0CFA03F7BC4305FA03FCE0
:100640004CEA040491F803C0BCF1280F05D100F175
:10065000080C08FA0CF8C2F8148091F803C0BCF139
:10066000480F07D100F1080C4FF0010808FA0CF808
:10067000C2F81080401C0828CED35460BDE8F08139
:10068000416170470161704700BFFEE700B587B068
:1006900001214FF4017000F0B7F94FF4004000F071
:1006A00097F91B20ADF8180000208DF81B000320DF
:1006B0008DF81A0006A92848FFF757FF2748FFF7CB
:1006C0006BFD0020019001208DF808008DF80900D5
:1006D0004FF4602003900020049004208DF8140053
:1006E00001A91E48FFF79AFD0623012200211B489D
:1006F000FFF7BCFD0623022201211848FFF7B6FDD3
:100700000623032211461548FFF7B0FD06230422F5
:1007100011461248FFF7AAFD01211048FFF731FDED
:1007200001210E48FFF722FD0C48FFF7FBFD00BF3B
:100730000A48FFF769FD0028FAD10848FFF702FED2
:1007400000BF0648FFF756FD0028FAD101210348F3
:10075000FFF7EDFD07B000BD000801400024014097
:1007600000B58BB00121084600F03EF91148FFF7B3
:1007700021FE1148009011480190002002901420A1
:100780000390002004908020059040000690800097
:100790000790202008900002099000200A906946E6
:1007A0000448FFF7C3FE01210248FFF7F7FD0BB035
:1007B00000BD0000080002404C2401403000002031
:1007C00008B50121102000F01FF94FF40050ADF8DA
:1007D000000010208DF8030003208DF80200694608
:1007E0000448FFF7C2FE4FF400510248FFF74AFFEA
:1007F00008BD00000010014000BFFEE77047000088
:100800001CB510A103C9CDE90001052269463020BD
:1008100000F068F805226946102000F045F8002431
:1008200006E01DF80400A52800D003E0601CC4B257
:10083000052CF6DB00BF052C01D001201CBD0020DB
:10084000FCE70000A5A5A5A5A500000008B50121AD
:10085000082000F0D9F810208DF8030003208DF84F
:10086000020040F20140ADF8000069460B48FFF776
:100870007CFE48208DF803000220ADF80000694698
:100880000648FFF772FE01200549086000F046F9AE
:1008900000200449C1F8800108BD0000000C01409F
:1008A000A8812142008021422DE9F04107460D46F2
:1008B000164600200A490860384600F077F980465D
:1008C000002405E0FF2000F071F92855601CC4B237
:1008D000B442F7DB0120024908604046BDE8F081E0
:1008E000A88121422DE9F04107460C46154600201B
:1008F0000A490860384600F059F98046002605E0AC
:1009000014F8010B00F052F9701CC6B2AE42F7DBCE
:100910000120024908604046BDE8F081A8812142DB
:1009200008B54FF4A06000F047F825208DF80000CE
:1009300001208DF801008DF802008DF80300684653
:1009400000F002F808BD000070B5002100230F225E
:10095000C47804B3154C246804F4E064C4F5E0647E
:10096000210AC1F10403CA40447804FA03F18478EF
:100970001440214309010E4C0678A155047804F077
:100980001F050124AC4005786D11AD0005F1E0258F
:10099000C5F8004109E0047804F01F050124AC40CB
:1009A000044D0678761145F8264070BD0CED00E048
:1009B00000E400E080E100E002490143024A1160E6
:1009C000704700000000FA050CED00E070470000E1
:1009D00001460020034A506820F44040084350601C
:1009E000704700000010024029B1064A52690243D4
:1009F000044B5A6104E0034A52698243014B5A6135
:100A0000704700000010024029B1064A9269024373
:100A1000044B9A6104E0034A92698243014B9A6154
:100A2000704700000010024029B1064AD268024314
:100A3000044BDA6004E0034AD2688243014BDA6077
:100A4000704700000010024030B500210022002451
:100A500000232D4D6D6805F00C0121B1042905D04E
:100A6000082923D105E0294D056022E0274D0560C6
:100A70001FE0254D6D6805F47012234D6D6805F477
:100A80008034022505EB92421CB9214D5543056087
:100A90000BE01D4D6D6805F400351DB11C4D55432F
:100AA000056002E0194D5543056002E0174D0560F1
:100AB00000BF00BF144D6D6805F0F0010909154D28
:100AC0006B5C0568DD4045600F4D6D6805F4E061C5
:100AD000090A104D6B5C4568DD4085600A4D6D6804
:100AE00005F46051C90A0B4D6B5C4568DD40C5607B
:100AF000054D6D6805F44041890B074D6B5CC56879
:100B0000B5FBF3F5056130BD0010024000127A001C
:100B100000093D00140000202400002000B587B02B
:100B200001210420FFF770FF01210803FFF76CFF8C
:100B300001210846FFF768FFE020ADF818001820F3
:100B40008DF81B0003208DF81A0006A91548FFF741
:100B50000CFD0020ADF804004FF48270ADF80600E3
:100B60000020ADF80800ADF80A00ADF80C004FF415
:100B70000070ADF80E002820ADF810000020ADF890
:100B800012000720ADF8140001A9074800F044F84E
:100B90000121054800F026F8FF2000F007F807B013
:100BA00000BD0000000801400030014010B50446BF
:100BB00000BF02210A4800F021F80028F9D02146A0
:100BC000074800F027F800BF0121054800F016F89B
:100BD0000028F9D0024800F01AF8C0B210BD000099
:100BE0000030014021B1028842F04002028004E05E
:100BF00002884FF6BF731A400280704702460020F9
:100C000013890B400BB1012000E000207047014622
:100C1000888970478181704710B50022028802F4EC
:100C200041520B884C8823438C882343CC88234330
:100C30000C8923434C8923438C892343CC89234348
:100C40001A430280838B4FF2FF74234083830B8A05
:100C5000038210BD704710B500F002F810BD00000F
:100C60000CB50020019000903348006840F48030BB
:100C70003149086000BF3048006800F4003000903F
:100C80000198401C0190009818B90198B0F5A06F28
:100C9000F1D12948006800F4003010B10120009023
:100CA00001E0002000900098012843D1234800680B
:100CB00040F01000214908600846006820F0030059
:100CC00008600846006840F0020008601A48406862
:100CD000194948600846406848600846406840F442
:100CE000806048600846406820F47C1048600846F0
:100CF000406840F4E81048600846006840F08070A2
:100D0000086000BF0C48006800F000700028F9D0AF
:100D10000948406820F003000749486008464068D9
:100D200040F00200486000BF0348406800F00C003B
:100D30000828F9D10CBD000000100240002002403C
:100D4000042808D14FF0E021096941F004014FF077
:100D5000E022116107E04FF0E021096921F0040170
:100D60004FF0E022116170477047000010B5134842
:100D7000006840F0010011490860084640681049C9
:100D800008400E494860084600680E4908400B4973
:100D900008600846006820F4802008600846406823
:100DA00020F4FE0048604FF41F008860FFF753FFF7
:100DB0004FF000600449086010BD000000100240C0
:100DC0000000FFF8FFFFF6FE08ED00E010B540F26E
:100DD0002551064800F06DF838B1044800F024F9B8
:100DE000C4B22146014800F024F910BD003801408A
:100DF00021B1828942F40052828104E082894DF659
:100E0000FF731A408281704700B585B0012144F21A
:100E10000500FFF7F9FD4FF40070ADF81000182041
:100E20008DF8130003208DF8120004A91848FFF76D
:100E30009CFB4FF48060ADF8100004208DF8130087
:100E400003208DF8120004A91148FFF78EFB4FF420
:100E5000E13000900020ADF80400ADF80600ADF8D8
:100E60000800ADF80C000C20ADF80A0069460948EE
:100E700000F06EF8FFF754FD012240F225510548BD
:100E800000F041F801210348FFF7B2FF05B000BDB3
:100E9000000801400038014002460020B1F5007F03
:100EA00000D100BF13880B400BB1012000E00020EF
:100EB000704770B50246002400230025002040F64C
:100EC0006A16B14200D100BFC1F3421501F01F0301
:100ED000012606FA03F3012D02D19689334006E07C
:100EE000022D02D1168A334001E0968A33400C125B
:100EF000012606FA04F41688344013B10CB101201F
:100F000000E0002070BDF0B5034600240026002557
:100F1000002040F66A17B94200D100BF1846C1F35D
:100F2000421401F01F06012707FA06F5012C01D132
:100F30000C3004E0022C01D1103000E014301AB162
:100F400007682F43076002E00768AF430760F0BD02
:100F50002DE9F04786B005460E460024A24600BFA4
:100F6000A1460027B08900B100BF2F462C8A4CF65D
:100F7000FF700440F08804432C82AC894EF6F310D5
:100F80000440B08831890843718908430443AC8127
:100F9000AC8A4FF6FF400440B0890443AC8201A8FC
:100FA000FFF752FD1F48874202D1DDF810A001E093
:100FB000DDF80CA0A88900F4004040B10AEBCA009B
:100FC00000EB0A1031684900B0FBF1F807E00AEBCA
:100FD000CA0000EB0A1031688900B0FBF1F8642008
:100FE000B8FBF0F004012009642101FB1089A889F5
:100FF00000F4004040B1322000EBC900B0FBF1F03A
:1010000000F00700044308E0322000EB09106421DF
:10101000B0FBF1F000F00F0004432C8106B0BDE8F6
:10102000F08700000038014001468888C0F30800BE
:101030007047C1F308028280704700BFFEE70000DE
:10104000014A024900F013B8211100082C000020C9
:1010500002E008C8121F08C1002AFAD17047704781
:10106000002001E001C1121F002AFBD170472DE9C9
:10107000F04116460F460446002503E03946B047C6
:10108000641C6D1C20780028F8D12846BDE8F0814A
:1010900010B56FF00400FFF753FE0A4800680A49D4
:1010A000B0FBF1F0094908700846007800EB4001F8
:1010B000C1EBC0104FF6FF7101EAC000044908807F
:1010C00010BD00000000002000127A00280000205F
:1010D0002A0000200146114A12884A434FF0E023BB
:1010E0005A6100229A611A46126942F001021A619D
:1010F00000BF4FF0E022106900F001021AB100F4C5
:101100008032002AF5D04FF0E022126922F001026D
:101110004FF0E0231A6100229A6170472A000020F4
:1011200070B504460D46E1B20548FFF782FF00BFE7
:1011300080210348FFF7B0FE0028F9D0204670BD9B
:10114000003801408AB024220CA101A8FEF7EAFF72
:10115000FFF7FDF8002012490860FFF751FB18B1B6
:1011600010A0FFF76DFF02E012A0FFF769FF04E097
:1011700014A0FFF765FF00F029F8F9E743616E203E
:10118000796F7520676F206F7574206F6E206120F6
:10119000646174652077697468206D653F000000A4
:1011A000A8812142446576696365204572726F7239
:1011B000210D0A0044657669636520436865636BA9
:1011C000210D0A0068656C6C6F0D0A0010B54FF4B4
:1011D00000510848FFF756FA4FF4FA70FFF77AFF0C
:1011E0004FF400510348FFF74BFA4FF4FA70FFF742
:1011F00071FF10BD0010014018120008000000200F
:101200003000000050100008481200083000002094
:10121000280400006010000800A24A04000000003A
:101220000000000001020304060708090000000096
:101230000102030401020304060708090204060868
:081240000000000000000000A6
:04000005080000ED02
:00000001FF
