:020000040800F2
:100000005804002001010008ED0B00084F0900080A
:10001000E90B0008F3030008A71400080000000023
:10002000000000000000000000000000C1100008F7
:10003000C506000800000000390E0008D5110008B0
:100040001B0100081B0100081B0100081B01000820
:100050001B0100081B0100081B0100081B01000810
:10006000010700081B0100081B0100081B01000814
:100070001B0100081B0100081B0100081B010008F0
:100080001B0100081B0100081B0100081B010008E0
:100090001B0100081B0100081B01000813070008D2
:1000A0001B0100081B0100081B0100081B010008C0
:1000B0001B0100081B0100081B0100081B010008B0
:1000C0001B0100081B0100081B0100081B010008A0
:1000D0001B010008391200081B0100081B01000861
:1000E000C70600081B0100081B010008DFF80CD040
:1000F00000F05AF800480047C518000858040020CE
:100100000648804706480047FEE7FEE7FEE7FEE7B1
:10011000FEE7FEE7FEE7FEE7FEE7FEE7D91100088F
:10012000ED0000082DE9F05F0546002092469B4651
:1001300088460646814640241BE0284641464746FD
:10014000224600F020F853465A46C01A914110D377
:1001500011461846224600F039F82D1A67EB0108BF
:100160004F4622460120002100F030F817EB00092D
:100170004E41201EA4F10104DFDC484631462A46E8
:100180004346BDE8F09F202A04DB203A21FA02F022
:100190000021704721FA02F3D040C2F120029140C1
:1001A0000843194670470000064C074D06E0E0681A
:1001B00040F0010394E8070098471034AC42F6D3AE
:1001C000FFF798FF0C1900082C190008202A04DBFF
:1001D000203A00FA02F1002070479140C2F120035A
:1001E00020FA03F319439040704721B1826842F02E
:1001F0000102826003E0826822F00102826070479F
:1002000021B1826842F48072826003E0826822F445
:10021000807282607047000010B504461248844224
:1002200008D10121401500F035FE0021601500F0D5
:1002300031FE17E00D48844208D10121001500F07D
:1002400029FE0021201500F025FE0BE0084884421D
:1002500008D10121C80300F01DFE00214FF4004029
:1002600000F018FE10BD00000024014000280140ED
:10027000003C0140014600208A6802F004020AB1F5
:10028000012000E000207047014600208A6802F04B
:1002900008020AB1012000E00020704730B5024694
:1002A0000020002350680F4C20400D790C6844EA70
:1002B00005242043506090680B4C2040D1E9025443
:1002C0002C434D7944EA450420439060D06A20F4E1
:1002D00070000C7C641EE4B2234340EA0350D062F9
:1002E00030BD0000FFFEF0FFFDF7F1FFF0B5044662
:1002F0000D4600200021092D11DDE068A5F10A0658
:1003000006EB4607072606FA07F18843A5F10A0619
:1003100006EB460603FA06F10843E0600CE02069AC
:1003200005EB4507072606FA07F1884305EB450666
:1003300003FA06F108432061072A0FDA606B561EA4
:1003400006EB86071F2606FA07F18843561E06EBC2
:10035000860605FA06F10843606322E00D2A0FDAEB
:10036000206BD61F06EB86071F2606FA07F1884387
:10037000D61F06EB860605FA06F10843206310E057
:10038000E06AA2F10D0606EB86071F2606FA07F1C2
:100390008843A2F10D0606EB860605FA06F108432E
:1003A000E062F0BD816841F008018160704721B1D1
:1003B000826842F4A002826003E0826822F4A00214
:1003C00082607047816841F004018160704710B518
:1003D00000F050FF00F0ECFB01F014FA00F008FC14
:1003E00000F0B6FB00F04AFB00F066F800F0A3FC5A
:1003F00010BD00BFFEE71CB50121084600F03AFD24
:1004000000208DF804000C208DF8050001208DF8E7
:10041000060004200090684600F0A0F94FF48070B8
:100420000090684600F09AF94FF40060009068462A
:1004300000F094F94FF480400090684600F08EF987
:100440004FF400400090684600F088F90221002037
:1004500000F0CEF90821002000F0CAF90B2100209D
:1004600000F0C6F90E21012000F0C2F90F21012091
:1004700000F0BEF91CBD000008B501210C2000F001
:10048000F9FC48208DF8030003208DF8020040F6A7
:100490000410ADF800006946054800F0C9F94FF4B2
:1004A0004040ADF800006946024800F0C1F908BDBF
:1004B00000080140000C014010B5FFF7DDFFFFF719
:1004C0009AFF00F001F810BD08B508208DF8000073
:1004D00002208DF801008DF8020001208DF8030044
:1004E000684600F0C7FB17208DF8000002208DF849
:1004F000010001208DF802008DF80300684600F02D
:10050000B9FB28208DF8000002208DF801000020A2
:100510008DF8020001208DF80300684600F0AAFB68
:1005200008BD21B1026842F00102026004E00268E5
:100530004FF6FE731A4002607047000001684FF6E4
:10054000FE72114001600021016041608160C16064
:100550004B49884208D14A490839496841F00F019E
:10056000474A083A51608AE045491431884208D127
:1005700043490839496841F0F001414A083A51605D
:100580007DE03F492831884208D13D490839496812
:1005900041F470613A4A083A516070E038493C31A0
:1005A000884208D136490839496841F47041344AD3
:1005B000083A516063E032495031884208D13049ED
:1005C0000839496841F470212D4A083A516056E0D3
:1005D0002B496431884208D129490839496841F4D6
:1005E0007001274A083A516049E02549783188422C
:1005F00008D123490839496841F07061204A083A16
:1006000051603CE01F49884206D1011F096841F052
:100610000F01021F116032E01A491431884208D1DB
:100620001849091F096841F0F001164A121F1160AC
:1006300025E014492831884208D11249091F096868
:1006400041F470610F4A121F116018E00D493C31EE
:10065000884208D10B49091F096841F47041094AD1
:10066000121F11600BE007495031884207D105493C
:10067000091F096841F47021024A121F1160704776
:10068000080002400804024010B50022026847F644
:10069000F0739A430C6A8B6823430C6923434C69BB
:1006A00023438C692343CC6923434C6A23438C6ADC
:1006B00023431A430260CB6843600B6883604B6836
:1006C000C36010BD704710B54FF4006000F032F801
:1006D00018B14FF4006000F027F84FF4804000F0AC
:1006E00029F818B14FF4804000F01EF84FF4004094
:1006F00000F020F818B14FF4004000F015F810BDDC
:1007000010B5042000F016F810B1042000F00CF829
:1007100010BD10B54FF4807000F00CF818B14FF414
:10072000807000F001F810BD0149086070470000BA
:1007300014040140014600200022074B1B6803EA15
:100740000102054B14331B680B4013B10AB10120A1
:1007500000E0002070470000000401400021234910
:100760008279002A3AD00A46126803689A430B46F7
:100770001A600A1D126803689A430B1D1A600279F9
:1007800011440A6803681A430A60184A083212685A
:1007900003689A43154B08331A601A1D12680368E0
:1007A0009A43124B0C331A604279102A0ED11A1F49
:1007B000126803681A430D4B08331A601A1D126839
:1007C00003681A43094B0C331A600DE0074942795C
:1007D00011440A6803681A430A6005E0027911446B
:1007E0000A6803689A430A607047000000040140E9
:1007F00030B500228B071C0F0F2303FA04F20B4BBA
:100800008C1053F824309343084C8D1044F8253055
:1008100023468C1053F824308C07240F00FA04F47C
:100820002343024C8D1044F8253030BD08000140B0
:100830002DE9F04102460025002600200023002477
:10084000002791F803C00CF00F0591F803C00CF0DD
:10085000100CBCF1000F03D091F802C04CEA050562
:1008600091F800C0BCF1000F31D0146800202BE0DB
:100870004FF0010C0CFA00F3B1F800C00CEA0306CB
:100880009E4220D183004FF00F0C0CFA03F7BC43BB
:1008900005FA03FC4CEA040491F803C0BCF1280FEC
:1008A00006D14FF0010C0CFA00FCC2F814C00AE0AB
:1008B00091F803C0BCF1480F05D14FF0010C0CFAC0
:1008C00000FCC2F810C0401C0828D1D31460B1F855
:1008D00000C0BCF1FF0F34DD546800202EE000F1B1
:1008E000080C4FF0010808FA0CF3B1F800C00CEA4C
:1008F00003069E4221D183004FF00F0C0CFA03F740
:10090000BC4305FA03FC4CEA040491F803C0BCF1B3
:10091000280F05D100F1080C08FA0CF8C2F8148071
:1009200091F803C0BCF1480F07D100F1080C4FF05B
:10093000010808FA0CF8C2F81080401C0828CED331
:100940005460BDE8F081416170470161704700BFAC
:10095000FEE7000008B50121082000F08BFA4FF4F3
:100960004050ADF8000010208DF8030003208DF8F2
:10097000020069460448FFF75BFF01200349086055
:100980000349C1F8B00108BD000C0140B481214207
:100990000080214200B500220D4B1A60002114E0B6
:1009A000C2090B4B1B1F1A604206100E00F084FF99
:1009B0000122084BC3F8B42100F07EFF0022044B53
:1009C0001A6000F079FF4A1CD1B20829E8DB00BDAB
:1009D000B48121420080214200B50120084908600D
:1009E0000849C1F8B40100F067FF0020044908601D
:1009F00000F062FF00200349C1F8B40100BD00000F
:100A0000B08121420080214200B5002007490860E2
:100A10000749C1F8B00100F04FFF01200349086009
:100A20000349C1F8B00100F047FF00BDB481214285
:100A30000080214200B5002201200E49086000F02C
:100A40003BFF01200C49C1F8B40100F035FF07E07D
:100A5000501CC2B2FA2A03DDFFF7D6FF012000BD09
:100A60000448803800680028F2D10249091D086056
:100A700000BFF4E7B08121420080214200B587B079
:100A800001214FF4017000F0F5F94FF4004000F03F
:100A9000D5F91B20ADF8180000208DF81B000320AD
:100AA0008DF81A0006A92848FFF7C2FE2748FFF76D
:100AB000B3FB0020019001208DF808008DF809009B
:100AC0004FF4602003900020049004208DF814005F
:100AD00001A91E48FFF7E2FB0623012200211B4863
:100AE000FFF704FC0623022201211848FFF7FEFB52
:100AF0000623032211461548FFF7F8FB06230422BC
:100B000011461248FFF7F2FB01211048FFF778FB6E
:100B100001210E48FFF769FB0C48FFF743FC00BFBB
:100B20000A48FFF7B1FB0028FAD10848FFF74AFC52
:100B300000BF0648FFF79EFB0028FAD101210348B9
:100B4000FFF735FC07B000BD00080140002401405C
:100B500000B58BB00121084600F07CF91148FFF781
:100B6000EDFC1148009011480190002002901420E3
:100B700003900020049080200590400006908000A3
:100B80000790202008900002099000200A906946F2
:100B90000448FFF779FD01210248FFF7C2FC0BB0C2
:100BA00000BD0000080002404C240140300000203D
:100BB00008B50121102000F05DF94FF40050ADF8A8
:100BC000000010208DF8030003208DF80200694614
:100BD0000448FFF72DFE4FF400510248FFF7B5FE21
:100BE00008BD00000010014000BFFEE77047000094
:100BF00008B50121082000F03DF910208DF8030010
:100C000003208DF8020040F20140ADF80000694673
:100C10000B48FFF70DFE48208DF803000220ADF8C9
:100C2000000069460648FFF703FE012005490860F9
:100C300000F0AAF900200449C1F8800108BD0000B5
:100C4000000C0140A88121420080214208B54FF4E8
:100C5000A06000F047F825208DF8000001208DF8F5
:100C600001008DF802008DF80300684600F002F8DC
:100C700008BD000070B5002100230F22C47804B322
:100C8000154C246804F4E064C4F5E064210AC1F161
:100C90000403CA40447804FA03F1847814402143E1
:100CA00009010E4C0678A155047804F01F050124B3
:100CB000AC4005786D11AD0005F1E025C5F80041A7
:100CC00009E0047804F01F050124AC40044D0678C7
:100CD000761145F8264070BD0CED00E000E400E020
:100CE00080E100E002490143024A116070470000C0
:100CF0000000FA050CED00E070B5002418E004F1E6
:100D0000B000002100F08CF80021084600F088F8BF
:100D10000021102000F084F8002505E001210020CA
:100D200000F07EF8681CC5B2802DF7DB601CC4B2F1
:100D3000082CE4DB70BD10B5FFF70CFE642000F05A
:100D400083FD0021AE2000F06BF80021084600F082
:100D500067F80021102000F063F80021402000F027
:100D60005FF80021B02000F05BF80021812000F046
:100D700057F80021FF2000F053F80021A12000F0D7
:100D80004FF80021A62000F04BF80021A82000F029
:100D900047F800213F2000F043F80021C82000F070
:100DA0003FF80021D32000F03BF80021084600F076
:100DB00037F80021D52000F033F80021802000F022
:100DC0002FF80021D82000F02BF80021052000F09A
:100DD00027F80021D92000F023F80021F12000F0AD
:100DE0001FF80021DA2000F01BF80021122000F08B
:100DF00017F80021DB2000F013F80021302000F06C
:100E00000FF800218D2000F00BF80021142000F0D5
:100E100007F80021AF2000F003F8FFF76DFF10BDC9
:100E200070B504460D461DB1E0B200F054FB02E07F
:100E3000E0B200F03AFB70BD7047000001460020B0
:100E4000034A506820F44040084350607047000057
:100E50000010024029B1064A52690243044B5A610C
:100E600004E0034A52698243014B5A617047000013
:100E70000010024029B1064A92690243044B9A616C
:100E800004E0034A92698243014B9A617047000073
:100E90000010024029B1064AD2680243044BDA60CE
:100EA00004E0034AD2688243014BDA6070470000D5
:100EB0000010024030B500210022002400232D4DF7
:100EC0006D6805F00C0121B1042905D0082923D152
:100ED00005E0294D056022E0274D05601FE0254D06
:100EE0006D6805F47012234D6D6805F48034022599
:100EF00005EB92421CB9214D554305600BE01D4D99
:100F00006D6805F400351DB11C4D5543056002E0C8
:100F1000194D5543056002E0174D056000BF00BF45
:100F2000144D6D6805F0F0010909154D6B5C0568FD
:100F3000DD4045600F4D6D6805F4E061090A104D14
:100F40006B5C4568DD4085600A4D6D6805F4605155
:100F5000C90A0B4D6B5C4568DD40C560054D6D6889
:100F600005F44041890B074D6B5CC568B5FBF3F593
:100F7000056130BD0010024000127A0000093D00FA
:100F8000140000202400002000B587B001210420B7
:100F9000FFF770FF01210803FFF76CFF01210846EE
:100FA000FFF768FFE020ADF8180018208DF81B004F
:100FB00003208DF81A0006A91548FFF739FC002018
:100FC000ADF804004FF48270ADF806000020ADF8D3
:100FD0000800ADF80A00ADF80C004FF40070ADF851
:100FE0000E002820ADF810000020ADF812000720F8
:100FF000ADF8140001A9074800F044F801210548A4
:1010000000F026F8FF2000F007F807B000BD000050
:10101000000801400030014010B5044600BF022125
:101020000A4800F021F80028F9D02146074800F0CE
:1010300027F800BF0121054800F016F80028F9D074
:10104000024800F01AF8C0B210BD000000300140A4
:1010500021B1028842F04002028004E002884FF68B
:10106000BF731A40028070470246002013890B406C
:101070000BB1012000E000207047014688897047CD
:101080008181704710B50022028802F441520B881A
:101090004C8823438C882343CC8823430C892343E7
:1010A0004C8923438C892343CC8923431A430280F0
:1010B000838B4FF2FF74234083830B8A038210BD1E
:1010C000704710B500F002F810BD00000CB500200C
:1010D000019000903348006840F480303149086046
:1010E00000BF3048006800F4003000900198401CB8
:1010F0000190009818B90198B0F5A06FF1D1294876
:10110000006800F4003010B10120009001E00020E0
:1011100000900098012843D12348006840F0100057
:10112000214908600846006820F00300086008466E
:10113000006840F0020008601A4840681949486099
:101140000846406848600846406840F4806048604F
:101150000846406820F47C1048600846406840F427
:10116000E81048600846006840F08070086000BFE2
:101170000C48006800F000700028F9D00948406869
:1011800020F00300074948600846406840F002002C
:10119000486000BF0348406800F00C000828F9D1FF
:1011A0000CBD00000010024000200240042808D1BD
:1011B0004FF0E021096941F004014FF0E022116194
:1011C00007E04FF0E021096921F004014FF0E0222F
:1011D000116170477047000010B51348006840F077
:1011E00001001149086008464068104908400E494E
:1011F0004860084600680E4908400B4908600846E8
:10120000006820F4802008600846406820F4FE0052
:1012100048604FF41F008860FFF753FF4FF00060F5
:101220000449086010BD0000001002400000FFF8F3
:10123000FFFFF6FE08ED00E010B540F2255106482C
:1012400000F06DF838B1044800F024F9C4B221462A
:10125000014800F024F910BD0038014021B1828915
:1012600042F40052828104E082894DF6FF731A40F5
:101270008281704700B585B0012144F20500FFF777
:10128000F9FD4FF40070ADF8100018208DF8130030
:1012900003208DF8120004A91848FFF7C9FA4FF48B
:1012A0008060ADF8100004208DF8130003208DF845
:1012B000120004A91148FFF7BBFA4FF4E130009087
:1012C0000020ADF80400ADF80600ADF80800ADF858
:1012D0000C000C20ADF80A006946094800F06EF8D1
:1012E000FFF7B4FC012240F22551054800F041F817
:1012F00001210348FFF7B2FF05B000BD000801401F
:101300000038014002460020B1F5007F00D100BF47
:1013100013880B400BB1012000E00020704770B52E
:101320000246002400230025002040F66A16B14240
:1013300000D100BFC1F3421501F01F03012606FAD8
:1013400003F3012D02D19689334006E0022D02D12C
:10135000168A334001E0968A33400C12012606FAC1
:1013600004F41688344013B10CB1012000E00020D1
:1013700070BDF0B50346002400260025002040F68D
:101380006A17B94200D100BF1846C1F3421401F0F8
:101390001F06012707FA06F5012C01D10C3004E0E5
:1013A000022C01D1103000E014301AB107682F432D
:1013B000076002E00768AF430760F0BD2DE9F04722
:1013C00086B005460E460024A24600BFA14600276F
:1013D000B08900B100BF2F462C8A4CF6FF70044044
:1013E000F08804432C82AC894EF6F3100440B08898
:1013F00031890843718908430443AC81AC8A4FF6B4
:10140000FF400440B0890443AC8201A8FFF752FDBD
:101410001F48874202D1DDF810A001E0DDF80CA0E2
:10142000A88900F4004040B10AEBCA0000EB0A10A2
:1014300031684900B0FBF1F807E00AEBCA0000EBA5
:101440000A1031688900B0FBF1F86420B8FBF0F0B5
:1014500004012009642101FB1089A88900F40040DF
:1014600040B1322000EBC900B0FBF1F000F0070002
:10147000044308E0322000EB09106421B0FBF1F0D6
:1014800000F00F0004432C8106B0BDE8F087000097
:101490000038014001468888C0F308007047C1F356
:1014A00008028280704700BFFEE710B50446FFF7D0
:1014B00093FA7820FFF76EFAFFF7BCFA0020FFF7E7
:1014C00069FAFFF7B7FA2046FFF764FAFFF7B2FAB6
:1014D000FFF79AFA10BD10B50446FFF77DFA7820A1
:1014E000FFF758FAFFF7A6FA4020FFF753FAFFF785
:1014F000A1FA2046FFF74EFAFFF79CFAFFF784FAAD
:1015000010BD00000FB4054B10B503A9044A0298A2
:1015100000F018F810BC5DF814FB000095180008E6
:101520002C00002002E008C8121F08C1002AFAD1CE
:1015300070477047002001E001C1121F002AFBD153
:10154000704700002DE9FF4F8DB09B460F460446C3
:10155000002606E025280BD05A460F999047641CB8
:10156000761C20780028F5D111B03046BDE8F08F08
:101570000025A8460122984900E0054314F8013FE0
:10158000203B02FA03F00842F7D120782E2817D129
:1015900014F8010F45F004052A280ED06FF02F0231
:1015A0002078A0F1300109290AD808EB880102EB64
:1015B000410100EB0108641CF2E757F8048B641C3E
:1015C00020786C280DD004DC4C2812D06A2811D168
:1015D00004E074280DD07A280CD10AE045F40015F7
:1015E00007E0617845F48015814202D1641C05F55D
:1015F0008015641C2278692A45D008DC002AB3D003
:10160000582A69D0632A10D0642A08D13BE0702A96
:1016100067D0732A13D0752A5CD0782A5CD0104624
:101620005A460F999047761CD3E017F8040B8DF8B3
:10163000000000208DF80100E946012003E057F882
:10164000049B4FF0FF3069074FF0000501D40AE01A
:101650006D1C45450DDA8542FADB19F805100029A5
:10166000F6D106E06D1C8542FCDB19F80510002957
:10167000F8D12E4404E019F8010B5A460F9990470F
:101680006D1EF8D2A5E00A200021CDE90801C5F3BE
:10169000025002280DD001CFC117031E71F10003C3
:1016A0000DDA4FF0000CD0EB0C006CEB01012D2398
:1016B00008E0FF1D27F00707F7E80201EDE72B051B
:1016C00004D52B238DF8283001233BE0EB0739D0DC
:1016D0002023F7E70A2000E010200021CDE90801CF
:1016E00007E01020002145F00405CDE908014FF086
:1016F0000808C5F3025002280FD001CF00214FF097
:10170000000A2B071FD5702A0DD0DDE908C38CF025
:10171000100C5CEA030C0CD015E0FF1D27F0070746
:10172000F7E80201EBE740228DF828204FF0010A8C
:101730000BE050EA010306D030238DF828308DF8F5
:10174000292002239A46582A04D024A20DF1200908
:101750000B9209E026A2F9E7DDE90823FEF7E2FC97
:101760000B9B9B5C09F8013D50EA0102F4D1ADEB03
:10177000090020300890680701D44FF0010808994B
:10178000884502DDA8EB010000E00020804600252E
:1017900006E00AA85A46405D0F9990476D1C761CDA
:1017A0005545F6DB04E030205A460F999047761CE9
:1017B000B8F10001A8F10108F5DC05E019F8010B0A
:1017C0005A460F999047761C0899481E08900029A0
:1017D000F4DC641CC5E60000092801003031323316
:1017E000343536373839616263646566000000005D
:1017F0003031323334353637383941424344454647
:101800000000000010B56FF00400FFF7CFFC0A489D
:1018100000680A49B0FBF1F00949087008460078F1
:1018200000EB4001C1EBC0104FF6FF7101EAC000B0
:101830000449088010BD00000000002000127A005A
:10184000280000202A0000200146114A12884A433D
:101850004FF0E0235A6100229A611A46126942F061
:1018600001021A6100BF4FF0E022106900F001028E
:101870001AB100F48032002AF5D04FF0E02212694C
:1018800022F001024FF0E0231A6100229A617047B2
:101890002A00002070B504460D46E1B20548FFF766
:1018A000FEFD00BF80210348FFF72CFD0028F9D082
:1018B000204670BD0038014000BF00BF00BF00BF20
:1018C00070470000FEF783FD04E003A0FFF71AFE57
:1018D00000F006F8F9E7000068656C6C6F0D0A000F
:1018E00010B54FF400510848FFF72FF84FF4FA7085
:1018F000FFF7AAFF4FF400510348FFF724F84FF415
:10190000FA70FFF7A1FF10BD001001402C1900086C
:101910000000002030000000241500085C190008B9
:1019200030000020280400003415000800A24A04FA
:10193000000000000000000001020304060708097F
:101940000000000001020304010203040607080965
:0C19500002040608000000000000000077
:04000005080000ED02
:00000001FF
