:020000040800F2
:10000000904B01205D020008DD210008190D000859
:10001000D9210008250A00082B2E00080000000046
:100020000000000000000000000000009D0100082A
:100030006D0A000800000000F9010008752700089B
:1000400077020008770200087702000877020008AC
:10005000770200087702000877020008770200089C
:10006000770200087702000877020008770200088C
:10007000770200087702000877020008770200087C
:10008000770200087702000877020008770200086C
:10009000770200087702000877020008770200085C
:1000A000770200087702000877020008770200084C
:1000B000770200081D29000877020008770200086F
:1000C000770200087702000877020008770200082C
:1000D000770200087702000877020008770200081C
:1000E000770200087702000877020008770200080C
:1000F00077020008770200087702000877020008FC
:1001000077020008770200087702000877020008EB
:1001100077020008770200087702000877020008DB
:1001200077020008770200087702000877020008CB
:1001300077020008770200087702000877020008BB
:1001400077020008770200087702000877020008AB
:10015000770200087702000877020008770200089B
:10016000770200087702000877020008770200088B
:1001700077020008770200087702000800000000FC
:100180007702000877020008DFF80CD000F0E2FBED
:10019000004800478D480008904B01202C4B1968FF
:1001A0000868B0E8F04F80F30988BFF36F8F4FF015
:1001B000000080F3118870470000000008480068C4
:1001C000006880F308884FF0000080F3148862B65E
:1001D00061B6BFF34F8FBFF36F8F00DF00BF00BF6B
:1001E00008ED00E0DFF80C00016841F470010160E7
:1001F000704700BF88ED00E0EFF30980BFF36F8F19
:10020000134B1A681EF0100F08BF20ED108A20E96A
:10021000F04F106009B44FF0500080F31188BFF325
:100220004F8FBFF36F8F05F059FD4FF0000080F343
:10023000118809BC19680868B0E8F04F1EF0100F6B
:1002400008BFB0EC108A80F30988BFF36F8F704746
:1002500044000020EFF30580704700000648804707
:1002600006480047FEE7FEE7FEE7FEE7FEE7FEE79B
:10027000FEE7FEE7FEE7FEE7B52800088901000873
:1002800040EA01039B0703D009E008C9121F08C018
:10029000042AFAD203E011F8013B00F8013B521E98
:1002A000F9D27047D2B201E000F8012B491EFBD20F
:1002B00070470022F6E710B513460A460446194671
:1002C000FFF7F0FF204610BD2DE9FE4F804681EA82
:1002D0000300C00F0C46009021F0004123F00045C0
:1002E000B8EB0200A94105D24046214690461C4683
:1002F0000B46024623F00040104347D0270DC7F3BA
:100300000A00C3F30A510290401A019040286BDAA8
:10031000C3F3130040F4801B0098924620B10023E1
:10032000D2EB030A63EB0B0B01985946C0F1400274
:10033000504600F0F0F906460D4650465946019ADF
:1003400000F0F8F910EB08006141002487EA11522F
:1003500084EAE7731A4340D0009A62B3019A012AF3
:100360004FEA075215DC001B61EB02014FF000421F
:1003700002EA0752CDE90042001C41F580113246E5
:100380002B4600F02FFA03B0BDE8F08F404621461F
:10039000F9E7001B61EB0201001C41F58013001816
:1003A0005B412018A2F5001747EB030140EAD57026
:1003B000B6196D4111E06D084FEA360645EAC07581
:1003C0004FEA0752001B61EB0201001C41F580114E
:1003D00049084FEA30000019514132462B4603B01C
:1003E000BDE8F04F00F0EFB9009801224000002373
:1003F000D0EB020263EBE073009821464FEAE07411
:10040000B8EB000061EB0401E9E783F000435BE730
:1004100081F0004158E72DE9FE4F81EA030404F022
:10042000004421F0004100944FF0000B23F0004302
:1004300050EA01045ED052EA03045BD0C3F30A54CD
:10044000C1F30A552C44A4F2F3340194A0FB0254E6
:10045000C1F3130141F48011C3F3130343F4801378
:1004600001FB024400FB034E840A970A44EA8154CC
:1004700047EA8357A4FB076802958D0A05FB0785A9
:100480004FEA932C04FB0C542705029D4FEA0658B3
:1004900047EA1637B5EB08056EEB070C870E920E90
:1004A00047EA811742EA8312A7FB0201B6EB0B0170
:1004B00064EB00042B0D43EA0C335E1844EB1C5034
:1004C000DA465146E7FB0201C5F313044FEA0B334A
:1004D00043EA14534FEA0432019C43EA0603A4F1B1
:1004E0000C040294009CCDE900B400F07BF903B049
:1004F000BDE8F08F00200146F9E72DE9F04D81EAD3
:10050000030404F0004B21F0004514464FF0000AAC
:1005100023F0004150EA050220D054EA01021DD028
:10052000C5F30A570246C5F31303C1F31300C1F321
:100530000A5640F4801543F48013A7EB0608101BFD
:10054000D64608F2FD3873EB050002D308F1010826
:1005500001E092185B41B8F1000F03DA0020014678
:10056000BDE8F08D00204FF48011064684460EE071
:10057000171B73EB050705D3121B63EB050306433B
:100580004CEA010C49084FEA300092185B4150EAEE
:100590000107EDD152EA030012D082EA040083EA97
:1005A0000501084305D0101BAB4106D201220023F0
:1005B00006E000224FF0004302E06FF0010253100A
:1005C0001AEB06004CEB085110EB0A0041EB0B0153
:1005D000BDE8F04D00F0F7B80EB5C10F80EAE0704D
:1005E0000844CA07002140F233438DE80E000A4652
:1005F0000B4600F0F7F803B000BD00F0004230F009
:1006000000400AD0C10D01F56071C0F3160042EA46
:100610000151C2084007114370470020014670474E
:1006200030B5041E71F1000404DB4FF00044404279
:1006300064EB0101141E73F1000405DB1C464FF04E
:100640000043524263EB0403994208BF904230BD1D
:1006500001F0004330B421F0004150EA010206D01D
:100660000A0DA2F56072C1F31301002A02DC30BC4E
:1006700000207047440F44EAC104C100E01830BCB8
:1006800000EBC25000F068B830B50B4601460020C0
:100690002022012409E021FA02F59D4205D303FA44
:1006A00002F5491B04FA02F52844151EA2F10102C5
:1006B000F1DC30BD2DE9F05F0546002092469B46F7
:1006C00088460646814640241BE028464146474668
:1006D000224600F051F953465A46C01A914110D3B0
:1006E00011461846224600F016F82D1A67EB01084D
:1006F0004F4622460120002100F00DF817EB0009BB
:100700004E41201EA4F10104DFDC484631462A4652
:100710004346BDE8F09F202A04DB203A00FA02F1AC
:10072000002070479140C2F1200320FA03F31943DF
:1007300090407047202A06DBCB17203A41FA02F09E
:1007400043EAE07306E041FA02F3D040C2F120022E
:1007500091400843194670470029A8BF7047401CC4
:10076000490008BF20F00100704710B4B0FA80FCC7
:1007700000FA0CF050EA010404BF10BC704749B104
:10078000CCF1200421FA04F411FA0CF118BF012174
:1007900021430843A3EB0C01CB1D4FEA00614FEA54
:1007A000102042BF002010BC704700EBC350104423
:1007B0000029A4BF10BC7047401C490008BF20F0AE
:1007C000010010BC704710B5141E73F1000408DA64
:1007D000401C41F1000192185B411A4301D120F005
:1007E000010010BD2DE9F04D92469B4611B1B1FAC2
:1007F00081F202E0B0FA80F220329046FFF78BFFE0
:1008000004460F4640EA0A0041EA0B0153465A46A5
:10081000084313D0114653EA010019D0C8F1400231
:10082000504600F0A9F805460E4650465946424645
:10083000FFF771FF084305D0012004E02046394648
:10084000BDE8F08D0020054346EAE0762C433743AF
:100850000A986305E40AA0EB08000022FD0A44EAB6
:1008600047540A3002D500200146E9E70105101976
:100870006941DDE9084500196941BDE8F04DA2E78D
:100880002DE9F04D00231A461B1A8A4103DB002094
:100890000146BDE8F08DC1F30A52C1F3130141F4E2
:1008A00080154FF0000BD10702D100186D41521E88
:1008B0000027044640F2FF11384601EB620A3E462B
:1008C0008046024600204FF4801100F055F8C2190E
:1008D0007141BB1846EB0100B4EB030C75EB000C47
:1008E00004D3E41A65EB000517460E46241908F1F7
:1008F00001006D4180463428E3DDF91946EB06001E
:10090000091BA84103D24FF0FF32134601E0002239
:1009100013461BEB070046EB0A51BDE8F04DFFF70D
:1009200052BFC1F30A52C1F3130140F2FF3341F445
:1009300080119A4202DA00200146704740F23343A8
:100940009A42A2F2334202DC524200F015B8FFF79D
:10095000E2BE0000064C074D06E0E06840F00103EF
:1009600094E8070098471034AC42F6D3FFF710FC28
:10097000C86C0008E86C0008202A04DB203A21FA41
:1009800002F00021704721FA02F3D040C2F12002A8
:10099000914008431946704710B5002400210C20EF
:1009A00000F098FA0446482C0BD101220B210C20B0
:1009B00000F09DFB11220A210C2000F098FB002082
:1009C00010BD0120FCE7000010B50723022208211A
:1009D0004FF4A87001F024FE42F2CF0141F63F70BF
:1009E00000F0BEFE4FF4FA71042000F0EDFE4FF46B
:1009F000E131542002F098F900F012FF00F0B4F950
:100A0000FFF7CAFF00F034F800F02CFF00F01EF8EA
:100A100001F0E6FB00200249086001F02DFD10BD49
:100A20009002404200BFFEE703B59DF801009DF82B
:100A3000021001449DF8030001449DF804000144A4
:100A40009DF805000844C043C0B20CBDFE20064915
:100A500008700020487008460021C0F80210FF20EE
:100A600001498871704700001000002070470000A5
:100A700010B5002422E0C4EBC401124A02EB81004D
:100A8000DFED110A9FED110A03F07CFEC4EBC401F7
:100A90000F4A02EB8100F3EE0E0A9FED0C0A03F001
:100AA00071FEC4EBC4010B4A02EB8100F3EE040AB1
:100AB0009FED060A03F066FE601CC4B2032CDADB6D
:100AC00010BD0000300100200000A04200007A4468
:100AD000DC0000208401002030B5CC1000F12003A0
:100AE00053F824304C07E50E0F24AC40A343CD103F
:100AF00000F1200444F82530CC1000F1200353F815
:100B000024304C07E40E02FA04F42343CD1000F124
:100B1000200444F8253030BDF0B50A4600210023FA
:100B2000002400BF3DE0012505FA01F3156805EA40
:100B300003049C4234D105684F000326BE40B543F0
:100B4000056015794E00B540066835430560157996
:100B5000012D02D01579022D16D185684F0003268C
:100B6000BE40B543856055794E00B5408668354333
:100B70008560456801268E40B54345604568967995
:100B80008E40B6B235434560C5684F000326BE406F
:100B9000B543C560D5794E00B540C6683543C560DC
:100BA000491C1029BFD3F0BDF0B5002300244D0728
:100BB000ED0E02FA05F3CE1000F1200555F826508F
:100BC0004E07F70E0F26BE40B543CF1000F12006AA
:100BD00046F82750CE1000F1200555F8265045EA7A
:100BE0000304CE1000F1200545F82640F0BD2DE9A4
:100BF000F0470C46DDE90867002100258C4600BF60
:100C000060E04FF0010808FA01F504EA050CAC4574
:100C100057D1D0F800804FEA410A4FF0030909FA92
:100C20000AF928EA0908C0F80080D0F800804FEAE5
:100C3000410902FA09F948EA0908C0F80080012AC6
:100C400001D0022A27D1D0F808804FEA410A4FF09C
:100C5000030909FA0AF928EA0908C0F80880D0F857
:100C600008804FEA410906FA09F948EA0908C0F87C
:100C70000880D0F804904FF0010808FA01F829EA3A
:100C80000809C0F80490D0F8048003FA01F948EA92
:100C90000908C0F80480D0F80C804FEA410A4FF0F0
:100CA000030909FA0AF928EA0908C0F80C80D0F803
:100CB0000C804FEA410907FA09F948EA0908C0F827
:100CC0000C80491C10299CD3BDE8F0871CB5044654
:100CD0002078104908706078487008462168C0F88C
:100CE0000210A0790B49887108460168009181883B
:100CF000ADF8041080798DF80600DDE90001FFF7FA
:100D000093FE04498979884201D100201CBD01204D
:100D1000FCE700001000002000BFFEE700B5002047
:100D20000E4908600E48006820F440400C490860F5
:100D30000846006840F48040086000200949C1F876
:100D40009C0203F0FDFC01200449086003F0F8FC5C
:100D500000200449C1F8980200BD0000988240427A
:100D600000040240008040421CB50121022001F035
:100D700033FBC020009001208DF8040000208DF886
:100D8000060003208DF8050001208DF80700694654
:100D90000448FFF7C1FE0120034908600349C1F878
:100DA0009C021CBD000402409882404200804042E8
:100DB00000B500200E4908600E48006820F440404D
:100DC0000C4908600846006840F480400860012033
:100DD0000949C1F89C0203F0B3FC012004490860F2
:100DE00003F0AEFC00200449C1F8980200BD0000E9
:100DF00098824042000402400080404210B5034601
:100E000000221548006820F4404013490860084655
:100E100000680860002414E000201049086003F016
:100E20008FFC01200E49C1F898025006020E0B48B3
:100E30007C38006808B1501CC2B203F081FC601C11
:100E4000C4B2082CE8DB13B9FFF7B2FF01E0FFF7EB
:100E500065FF104610BD0000000402409882404229
:100E600000804042F0B506460F4614461D4600F08D
:100E700085F8002141EA4601C8B200F04FF800F0C1
:100E8000C5F818B100F09EF80120F0BD384600F01A
:100E900045F800F0BBF800F071F8012101EB4601C4
:100EA000C8B200F03BF800F0B1F80DE0012C04D11D
:100EB0000020FFF7A3FF287003E00120FFF79EFF4B
:100EC0002870601EC4B26D1C002CEFD100F07AF8BF
:100ED0000020DAE770B504460D4600F04FF8002117
:100EE00041EA4401C8B200F019F800F08FF8284632
:100EF00000F014F800F08AF800F040F8012101EB4E
:100F00004401C8B200F00AF800F080F80020FFF7B2
:100F100075FF064600F056F8304670BD00B5144A1D
:100F2000126822F44042124B1A601A46126842F4C8
:100F300080421A6000220F4B1A60002114E0C2099F
:100F40000C4B1B1D1A604206100E03F0F9FB012228
:100F5000094BC3F8982203F0F3FB0022054B1A60FB
:100F600003F0EEFB4A1CD1B20829E8DB00BD00000B
:100F700000040240988240420080404200B50E4882
:100F8000006820F440400C4908600846006840F4BE
:100F9000804008600120094908600949C1F89802A9
:100FA00003F0CEFB00200549086003F0C9FB0020D8
:100FB0000349C1F8980200BD000402409C824042EF
:100FC0000080404200B50E48006820F440400C49C3
:100FD00008600846006840F4804008600020094925
:100FE00008600949C1F89C0203F0AAFB01200549E9
:100FF00008600549C1F89C0203F0A2FB00BD000097
:1010000000040240988240420080404200B5002225
:101010001348006820F44040114908600846006801
:10102000086001200F49086003F08AFB01200E4987
:10103000C1F8980203F084FB07E0501CC2B2FA2A00
:1010400003DDFFF7BFFF012000BD064880380068C0
:101050000028F2D10349091F086000BFF4E700002F
:10106000000402409C824042008040422DE9F04151
:101070000746884614461E4641463846FFF72AFF73
:1010800005461EB10120A040284303E00121A140F4
:1010900025EA0100C5B22A464146384600F027F845
:1010A000BDE8F0812DE9F04781468A4615461C4689
:1010B000089E51464846FFF70DFF07460120A04015
:1010C000401E291B491C884000F0FF08281B401CBB
:1010D00006FA00F0C6B206EA080627EA0807374310
:1010E0003A465146484600F002F8BDE8F08770B530
:1010F00004460D461646FFF741FF002141EA440130
:10110000C8B2FFF70BFFFFF781FF18B1FFF75AFFD7
:10111000012070BD2846FFF701FFFFF777FF30463B
:10112000FFF7FCFEFFF772FF18B1FFF74BFF01203E
:10113000EFE7FFF747FF0020EBE7000010B52DEDCC
:10114000108B90B0B0EE409AB0EE608AF0EE418A1B
:10115000B0EE61DAB0EE42AAF0EE62AA04469FED6C
:10116000FE0AF0EE40DA9FEDFC0AF0EE409AFB48F2
:1011700090ED000A20EE000A8DED0D0A90ED000AB8
:10118000F748D0ED000A20EE200A8DED0C0AF34856
:1011900090ED000AF348D0ED000A20EE200A8DED14
:1011A0000B0AEF4890ED000A20EE000A8DED0A0AC6
:1011B00090ED000AEC48D0ED000A20EE200A8DEDFB
:1011C000090AE84890ED000A20EE000A8DED080AB1
:1011D00090ED000AE448D0ED000A20EE200A8DEDE3
:1011E000070A90ED000A20EE000A8DED060A2DEEAA
:1011F0000D0A0AEE0A0A0AEEAA0A10EE101A0846AA
:10120000FFF7FBF941EC1C0BB0EE4C0AF0EE6C0A58
:1012100002F006FBB0EE40BAF0EE60BA51EC1B0BE8
:10122000FFF716FA09EE900A8DEE290AB0EE40DAC1
:101230008AEE290AB0EE40AA8AEEA90AF0EE40AA88
:101240009DED090ADDED0B0A30EE600AF0EE000AB2
:1012500020EE200AB0EE40EA9DED0C0ADDED070A13
:1012600030EE200AF0EE000A20EE200AF0EE40EA0E
:101270009DED0D0ADDED0A0A70EE600A9DED080A8B
:1012800070EEC00A9DED060A30EE800AB0EE40FA1C
:101290002AEE0F0A0AEEEE0AF0EE40FA2AEE8E0A65
:1012A0000DEE4F0A8DED0F0A2DEE2E0A0AEE4E0AB4
:1012B0008DED0E0A9FEDAD0AAD4880ED000A9FED61
:1012C000AB0A6FEE800A90ED001A80EE810A30EED4
:1012D000090AB0EE409A9DED0F0ADFEDA40A60EE18
:1012E000200A90ED001A80EE810A30EE080AB0EE76
:1012F000408A9DED0E0ADFED9D0A60EE200A90ED1A
:10130000001A80EE810A30EE280AF0EE408A90ED55
:10131000000AF0EE000A20EE200A20EE090A20EE74
:10132000000AD0ED000AB0EE001A60EE810A60EE0D
:10133000880A90ED001AF0EE001A21EE211A21EE33
:10134000081A00EE810AD0ED000AB0EE001A60EE35
:10135000810A60EEA80A90ED001AF0EE001A21EE64
:10136000211A21EE281A00EE810AF0EE40DAF2EEA0
:10137000000A8DEEA00AF7EE000A30EEC00A7748A8
:10138000D0ED000A60EE200A754890ED000AB1EE3B
:10139000400A20EE090A734890ED001A01EE480A4F
:1013A000714890ED001A01EE680A714890ED001A3C
:1013B00040EE010A6948C0ED000AF2EE000A8DEE27
:1013C000A00AF7EE000A30EEC00A6548D0ED000A28
:1013D00060EE200A614890ED000A20EE090A61489B
:1013E00090ED001A01EE280A5F4890ED001A01EE18
:1013F000480A5F4890ED001A40EE010A5848C0EDD7
:10140000000AF2EE000A8DEEA00AF7EE000A30EEB6
:10141000C00A5448D0ED000A60EE200A4F4890ED13
:10142000000A20EE080A4E4890ED001A01EE680A04
:101430004D4890ED001A01EE090A4D4890ED001A52
:1014400040EE010A4748C0ED000AF2EE000A8DEEB8
:10145000A00AF7EE000A30EEC00A4348D0ED000AB9
:1014600060EE200A3D4890ED000A20EE280A3C4834
:1014700090ED001A01EE080A3A4890ED001A01EECC
:10148000490A3B4890ED001A40EE010A3648C0ED8B
:10149000000A324890ED000A20EE000A3048D0EDF4
:1014A000000A90ED001A00EE810A2E48D0ED000AE5
:1014B00090ED001A00EE810A2B48D0ED000A90ED65
:1014C000001A00EE810A10EE101A0846FFF795F890
:1014D00041EC1C0BB0EE4C0AF0EE6C0A02F0A0F9E5
:1014E000B0EE40BAF0EE60BA51EC1B0BFFF7B0F86B
:1014F00009EE900A194890ED000AC0EE290AC0EDE5
:10150000000A174890ED000AC0EE290AC0ED000A53
:10151000144890ED000AC0EE290AC0ED000A1248F6
:1015200090ED000AC0EE290AC0ED000A0C4890EDCB
:10153000000AF8EE000A20EE200A0B48D0ED000A5F
:1015400020EE200A0548D0ED000AB0EE001A60EE49
:10155000810A04480EE00000000000001C0000208A
:101560002000002024000020280000206F12033BF0
:101570001800002090ED001A00EE810A10EE101AFB
:101580000846FFF73AF841EC1B0BB0EE4B0AF0EEC1
:101590006B0A01F089FC8DED040B9FED670B53EC9A
:1015A000102B9DED040B51EC100BFEF734FF41ECBA
:1015B0001C0BFFF74DF86060614890ED000AF8EEF3
:1015C000000A20EE200AD0ED000A20EE200A5D4835
:1015D000D0ED000AB0EE001A60EE810A90ED001A1C
:1015E00000EEC10AF7EE000A30EE200A10EE101AE3
:1015F0000846FFF702F841EC1B0B524890ED000A39
:10160000F0EE000A20EE200A4F48D0ED000A20EE4E
:10161000200A4E48D0ED000AB0EE001A60EE810AB2
:10162000474890ED001A00EE810A10EE101A0846A5
:10163000FEF7E3FFB0EE4B1AF0EE6B1ACDE90201B4
:101640009DED020B01F04CFFB0EE40CAF0EE60CA17
:101650009FED390B53EC102B51EC1C0BFEF7DBFE0E
:10166000CDE904019DED040B51EC100BFEF7F0FFEA
:101670002060344890ED000AF8EE000A20EE200ABF
:10168000D0ED000A20EE200A2F48D0ED000AB0EE7F
:10169000001A60EE810A90ED001A00EEC10AF7EE22
:1016A000000A30EE200A10EE101A0846FEF7A5FFD9
:1016B000CDE90201224890ED000AF0EE000A20EE8A
:1016C000200A2048D0ED000A20EE200A1F48D0ED65
:1016D000000AB0EE001A60EE810A1B4890ED001A75
:1016E00000EE810A10EE101A0846FEF786FFCDE9DB
:1016F00000019DED021B9DED000B01F0F1FEB0EE2F
:1017000040BAF0EE60BA51EC1B0B81F0004141ECA5
:101710001C0B9FED090B53EC102BFEF77CFECDE963
:1017200004019DED040B51EC100BFEF791FFA0603E
:1017300010B0BDEC108B10BD6666666666A64C40A8
:101740002000002024000020280000201C00002091
:101750004CF6CC4001490860704700000030004062
:101760007FB505460C460121022000F045FE02959A
:10177000ADF804400020ADF80C00ADF806008DF87F
:101780000E0001A90D4801F08DFA012211460B4807
:1017900001F0D7F90121094801F0DFF81D208DF88B
:1017A000000001208DF8030000208DF801008DF865
:1017B0000200684600F0D4FD7FBD00000004004038
:1017C00010B500F013F810BD70B505460C4645F293
:1017D000555000F01FF8284600F010F8204600F0A1
:1017E00013F800F003F8FFF7B3FF70BD4AF6AA2024
:1017F000014908607047000000300040014948601E
:1018000070470000003000400149886070470000C8
:10181000003000400149086070470000003000407F
:101820001CB50C48006840F004000A49086001201B
:1018300000210B460246CDE900104FF4C041064896
:10184000FFF7D5F90120054908600549C1F8B8023C
:101850001CBD00003038024000080240B402414282
:101860000000414200B58BB0644801F091F8644833
:1018700001F08EF8634801F08BF8634801F088F8B6
:1018800001214FF0011000F0D7FD01210C2000F0E4
:10189000B3FD0121192000F09FFD02208DF82800E2
:1018A00000208DF82A008DF82B0003208DF82900E8
:1018B0000220099009A95548FFF72EF92020099028
:1018C00009A95348FFF728F94FF48050099009A956
:1018D0005048FFF721F94FF48070099009A94B484F
:1018E000FFF71AF902220C214A48FFF75DF903229B
:1018F00005214748FFF758F9022201214348FFF725
:1019000053F9012208214148FFF74EF9A720ADF80D
:1019100018000020ADF82000ADF81A0040F2E730C2
:10192000079000208DF8220006A9374801F0BAF987
:1019300006A9324801F0B6F95320ADF8180006A9FF
:101940002F4801F0AFF906A92E4801F0ABF960204D
:10195000ADF804000120ADF806000020ADF810003D
:10196000ADF80800ADF814004FF4FA70039001A927
:10197000254801F0EFF80821234801F029F9012159
:10198000214800F0DBFF01211F4800F0E6FF01A91C
:101990001A4801F0DFF80821184801F019F901216F
:1019A000164800F0CBFF0121144800F0D6FF0121BA
:1019B000124800F0DEFF01A9114801F0CBF8082120
:1019C0000F4801F005F901210D4800F0B7FF012192
:1019D0000B4800F0C2FF01A90A4801F003F90821F1
:1019E000084801F051F90121064800F0A7FF012144
:1019F000044800F0B2FF0BB000BD00000000014041
:101A000000080040000C004000400140000002407F
:101A100000100240000C024038B5FF24FFF7A4F983
:101A20000A2004F013F8012307226B216820FFF736
:101A30001DFB142004F00AF875216820FFF74AFA0C
:101A40000446382C01D0392C03D12AA001F0F0F93A
:101A500002E030A001F0ECF9002306226B2168209F
:101A6000FFF704FB0A2003F0F1FF01200323022209
:101A70006B2100906820FFF715FB0A2003F0E6FFBA
:101A8000002303226B216820FFF7F0FA002238219F
:101A90006820FFF72CFB0023012237216820FFF785
:101AA000E5FA0320022304221B2100906820FFF79F
:101AB000F9FA0320022304221C2100906820FFF77A
:101AC000F1FA0320022300221D2100906820FFF775
:101AD000E9FA002219216820FFF709FB02200323FD
:101AE00002461A2100906820FFF7DCFA00F030F976
:101AF000002038BD4D505539323530204932432011
:101B0000436F6E6E656374696F6E205B4F4B5D2E25
:101B10000D0A00004D5055393235302049324320EE
:101B2000436F6E6E656374696F6E205B4641494C0E
:101B30005D2E0D0A0000000010B52DED0A8B84B05B
:101B4000F0EE408AB0EE609AB0EE418A0446B4EE00
:101B5000E88AF1EE10FA04D3B4EEC98AF1EE10FA75
:101B600020DD18EE100AFEF748FD41EC1A0B19EEC5
:101B7000100AFEF742FD41EC1B0B18EE900AFEF72F
:101B80003CFD41EC1C0B8DED02AB8DED00BB53EC2D
:101B90001C2B214604A001F04BF9002004B0BDEC41
:101BA0000A8B10BD0120F9E753656C6620746573DC
:101BB00074202573205B4641494C5D2E206C6F7765
:101BC0003A2025302E32662C20686967683A202535
:101BD000302E32662C206D656173757265643A2013
:101BE00025302E32660A00007CB504466B4606227C
:101BF0003B216820FFF736F90546BDB99DF8010085
:101C00009DF8001040EA012000B220809DF80300FA
:101C10009DF8021040EA012000B260809DF80500A6
:101C20009DF8041040EA012000B2A08028467CBD47
:101C30007CB504466B46062243216820FFF712F963
:101C40000546BDB99DF801009DF8001040EA01204D
:101C500000B220809DF803009DF8021040EA0120A8
:101C600000B260809DF805009DF8041040EA012054
:101C700000B2A08028467CBD7CB504466B46062297
:101C800003210C20FFF7EEF80546BDB99DF80000D2
:101C90009DF8011040EA012000B220809DF802006A
:101CA0009DF8031040EA012000B260809DF8040016
:101CB0009DF8051040EA012000B2A08011220A21FF
:101CC0000C20FFF714FA28467CBD000010B52DED5E
:101CD000088B82B001AB022241216820FFF7C2F8D5
:101CE0009DF805009DF8041040EA012004B220464A
:101CF000FEF772FC41EC1B0B9FED100B53EC102B0D
:101D0000FEF7FBFB41EC1A0B9FED0E0B53EC102B77
:101D1000FEF7DAFA41EC190BFEF79AFC08EE100A0E
:101D20009FED0A0A28EE000ABDEEC00A10EE100A66
:101D300000B202B0BDEC088B10BD000052B81E8589
:101D4000EBDD744000000000000035400000C84298
:101D500030B59FB000201D901E90169017901890DF
:101D60001390149015901090119012900D900E9069
:101D70000F90002519216820FFF7ACF88DF86C0052
:101D80001A216820FFF7A6F88DF86D001B21682046
:101D9000FFF7A0F88DF86E001D216820FFF79AF874
:101DA0008DF86F001C216820FFF794F88DF8700003
:101DB000002219216820FFF79AF902221A216820CF
:101DC000FFF795F90120A840C2B21B216820FFF758
:101DD0008EF902221D216820FFF789F90120A84011
:101DE000C2B21C216820FFF782F9002448E01DAB35
:101DF00006223B216820FFF735F89DF875009DF815
:101E0000741040EA012000B21399084413909DF821
:101E100077009DF8761040EA012000B2149908443A
:101E200014909DF879009DF8781040EA012000B2E6
:101E30001599084415901DAB062243216820FFF731
:101E400011F89DF87400000200B29DF87510084367
:101E50001699084416909DF87600000200B29DF88D
:101E6000771008431799084417909DF878000002EE
:101E700000B29DF879100843189908441890641C22
:101E8000C82CB4DB002412E013A850F82400C821A9
:101E900090FBF1F013A941F8240016A850F8240093
:101EA000C82190FBF1F016A941F82400641C032C12
:101EB000EADBE0221C216820FFF719F9E0221B2150
:101EC0006820FFF714F9192003F0C0FD002448E052
:101ED0001DAB06223B216820FEF7C4FF9DF875006C
:101EE0009DF8741040EA012000B210990844109047
:101EF0009DF877009DF8761040EA012000B2119914
:101F0000084411909DF879009DF8781040EA01206E
:101F100000B21299084412901DAB0622432168209A
:101F2000FEF7A0FF9DF875009DF8741040EA0120AF
:101F300000B20D9908440D909DF877009DF8761039
:101F400040EA012000B20E9908440E909DF87900F5
:101F50009DF8781040EA012000B20F9908440F90D4
:101F6000641CC82CB4DB002412E010A850F8240034
:101F7000C82190FBF1F010A941F824000DA850F8F9
:101F80002400C82190FBF1F00DA941F82400641C45
:101F9000032CEADB00221C216820FFF7A8F80022AE
:101FA0001B216820FFF7A3F8192003F04FFD0D2136
:101FB0006820FEF78FFF8DF864000E216820FEF781
:101FC00089FF8DF865000F216820FEF783FF8DF8EB
:101FD000660000216820FEF77DFF8DF86700012173
:101FE0006820FEF777FF8DF8680002216820FEF771
:101FF00071FF8DF86900002411E019A8005D48B157
:1020000019A8005D401E624931F8100007A941F887
:10201000240003E0002007A941F82400641C062CDA
:10202000EBDB002444E010A850F8240013A951F879
:102030002410401A07A951F82410401A00EE100A83
:10204000B8EEC00ADFED530A60EE200A07A850F888
:10205000240000EE100AB8EEC00A80EE801A04A830
:1020600000EB840080ED001A0DA850F8240016A99A
:1020700051F82410411A07AAE01C52F82000081A4F
:1020800000EE100AB8EEC00ADFED420A60EE200A48
:1020900007A9E01C51F8200000EE100AB8EEC00AB3
:1020A00080EE801A01A800EB840080ED001A641C09
:1020B000032CB8DB9DF86C2019216820FFF717F876
:1020C0009DF86D201A216820FFF711F89DF86E2009
:1020D0001B216820FFF70BF89DF86F201D21682059
:1020E000FFF705F89DF870201C216820FEF7FFFF20
:1020F0009DED010AB0EE401A27A0F2EE0C0ABAEEEE
:102100000C0AFFF719FDE8B39DED020AB0EE401A84
:1021100023A0F2EE0C0ABAEE0C0AFFF70DFD88B30D
:102120009DED030AB0EE401A1FA0F2EE0C0ABAEEC3
:102130000C0AFFF701FD28B39DED040AB0EE401A2A
:102140001BA0F2EE0C0ABAEE0C0AFFF7F5FCC8B1C0
:102150009DED050AB0EE401A17A0F2EE0C0ABAEE99
:102160000C0AFFF7E9FC68B19DED060AB0EE401AD3
:1021700013A0F2EE0C0ABAEE0C0AFFF7DDFC08B170
:10218000012000E001E01FB030BD0020F9E70000B1
:10219000B66900080000C8426779726F20580000D5
:1021A0006779726F205900006779726F205A0000BA
:1021B00061636320580000006163632059000000E0
:1021C000616363205A0000004A0A52020243014B35
:1021D0001A60704708ED00E000BFFEE7704700009E
:1021E0001CB50121052000F0F7F801208DF804004E
:1021F00000208DF8060003208DF8050000208DF8E2
:1022000007001020009069460F48FEF785FC10205B
:10221000009069460D48FEF77FFC01208DF807000D
:1022200000208DF804002020009069460748FEF742
:1022300073FC01200649086000F04AF900200549B6
:10224000C1F890021CBD00000000024000080240DE
:1022500090024042000041422DE9F04107460D4600
:10226000164600200A490860384600F085F9804685
:10227000002405E0FF2000F07FF92855601CC4B25F
:10228000B442F7DB0120024908604046BDE8F08116
:102290009002404270B5044600200749086020467D
:1022A00000F06AF9FF2000F067F9054601200349B4
:1022B000C1F89002284670BD9002404200004042A2
:1022C00070B504460720FFF7E5FF0546294627209D
:1022D00000F02EF805F0400050B120222146612088
:1022E000FFF7BAFFFF21E22000F022F8002070BDC6
:1022F0000120FCE72DE9F04107460C461546002079
:102300000A490860384600F037F98046002605E0A3
:1023100014F8010B00F030F9701CC6B2AE42F7DBC6
:102320000120024908604046BDE8F0819002404229
:1023300070B505460C46002007490860284600F0A5
:102340001BF90646204600F017F901200349C1F8A1
:102350009002304670BD00009002404200004042B2
:1023600070B5002100230F22C4781CB3174C2468D9
:1023700004F4E064C4F5E064C4F30721C1F104048B
:10238000E3B20A4144789C40E1B28478144021438E
:102390000C07210E0E4C05786155047804F01F05DA
:1023A0000124AC4005786D11AD0005F1E025C5F8BC
:1023B000004109E0047804F01F050124AC40054DFC
:1023C0000678761145F8264070BD00000CED00E05F
:1023D00000E400E080E100E029B1064A126802430F
:1023E000044B1A6004E0034A12688243014B1A60EE
:1023F000704700003038024029B1064A1268024393
:10240000044B1A6004E0034A12688243014B1A60CD
:10241000704700004038024029B1064A1268024362
:10242000044B1A6004E0034A12688243014B1A60AD
:10243000704700002038024029B1064A1268024362
:10244000044B1A6004E0034A12688243014B1A608D
:10245000704700004438024029B1064A126802431E
:10246000044B1A6004E0034A12688243014B1A606D
:10247000704700002438024010B500201149086060
:10248000052211492A20FFF735FF01212120FFF7FE
:102490004FFF01212220FFF74BFF28212520FFF7C6
:1024A00047FF20213120FFF743FF0F212620FFF7B0
:1024B0003FFF0F212020FFF73BFF01200349C1F818
:1024C000900210BD90024142B169000800004142F3
:1024D00000B587B001210846FFF77EFF0121080300
:1024E000FFF7AAFFE020059002208DF818000020D9
:1024F0008DF81A0003208DF8190005A91C48FEF775
:102500000BFB052211461A48FEF74EFB0522062159
:102510001748FEF749FB052207211548FEF744FB43
:102520000020ADF800004FF48270ADF802000020EA
:10253000ADF80400ADF80600ADF808004FF40070E7
:10254000ADF80A002820ADF80C000020ADF80E0010
:102550000720ADF810006946064800F043F8012155
:10256000044800F025F8FF2000F006F807B000BD91
:10257000000002400030014010B5044600BF0221B7
:102580000A4800F021F80028F9D02146074800F059
:1025900027F800BF0121054800F016F80028F9D0FF
:1025A000024800F01AF8C0B210BD0000003001402F
:1025B00021B1028842F04002028004E002884FF616
:1025C000BF731A40028070470246002013890B40F7
:1025D0000BB1012000E00020704701468889704758
:1025E0008181704710B50022028802F441520B88A5
:1025F0004C8823438C882343CC8823430C89234372
:102600004C8923438C892343CC8923431A4302807A
:10261000838B4FF2FF74234083830B8A038210BDA8
:10262000F0B504460D4616461F461448006840F0B3
:1026300001001249086000201049083108600F4865
:1026400000680F4908400D4908600E48091D0860E0
:10265000081F006820F48020091F08600020074937
:102660000C3108603B4632462946204600F09CF873
:1026700000210846FFF7A8FDF0BD00000038024029
:10268000FFFFF6FE103000240CB5002001900090F2
:102690003448006840F480303249086000BF314857
:1026A000006800F4003000900198401C01900098F0
:1026B00018B90198B0F5A04FF1D12A48006800F48C
:1026C000003010B10120009001E00020009000983F
:1026D000012846D123484030006840F0805021490D
:1026E000403108602048006840F440401E490860BE
:1026F0001C48083000681B4908310860084600681B
:1027000040F4004008600846006840F4A0500860AB
:102710001648091F0860081F006840F08070091FF4
:10272000086000BF0F48006800F000700028F9D072
:1027300040F205700E4908600A480830006820F031
:1027400003000849083108600846006840F00200AC
:10275000086000BF03480830006800F00C0008283B
:10276000F8D10CBD003802400070004019544007F9
:10277000003C024010B500BF502080F31188BFF329
:102780004F8FBFF36F8F00BF03F0CCFE18B14FF037
:1027900080500449086000BF002080F3118800BF0A
:1027A00010BD000004ED00E0F0B504460D46002128
:1027B00000203D4E366846F480363B4F3E6001E0D7
:1027C0004E1CB1B2384E366806F400361EB941F6DA
:1027D000FF76B142F4DB41F6FF76B14201D1012030
:1027E00060E0314E4036366846F080562E4F403716
:1027F0003E602E4E366846F440462C4F3E602A4ED0
:102800000836366846F41446274F08373E60264E91
:10281000366826F08076244F3E6045EA841601270C
:10282000C7EB520746EA074646EA036646F48006C7
:102830001D4F3F1D3E603E1F366846F080763F1FAD
:102840003E6000BF184E366806F00076002EF9D0C4
:10285000174E366846F48076154F3E603E46366821
:1028600046F400763E603E46366846F480663E603A
:102870003E46366846F005063E600B4E0836366822
:1028800026F00306084F08373E603E46366846F09D
:1028900002063E6000BF044E0836366806F00C069D
:1028A000082EF8D1F0BD0000003802400070004052
:1028B000003C024010B51548006840F47000134910
:1028C00008601348006840F00100114908600020CA
:1028D0000F49083108600E4800680E4908400C494D
:1028E00008600D48091D0860081F006820F480205A
:1028F000091F0860002006490C310860FFF7C4FE7C
:102900004FF0006001498039086010BD88ED00E09B
:1029100000380240FFFFF6FE1030002410B5012100
:10292000054800F0FDF808B1FEF74AFF0121024812
:1029300000F010F810BD00000004004021B1028832
:1029400042F08002028004E002884FF67F731A4052
:1029500002807047CA430282704721B1028842F068
:102960000102028004E002884FF6FE731A400280E2
:10297000704731B1B0F8442042F40042A0F844203E
:1029800005E0B0F84420C2F30E02A0F844207047DE
:1029900010B504465548844208D101210846FFF786
:1029A0005BFD00210120FFF757FD9DE0B4F1804F52
:1029B00008D101210846FFF72FFD00210120FFF774
:1029C0002BFD91E04A48844208D101210220FFF703
:1029D00023FD00210220FFF71FFD85E045488442CA
:1029E00008D101210420FFF717FD00210420FFF783
:1029F00013FD79E04048844208D101210820FFF707
:102A00000BFD00210820FFF707FD6DE03B488442E5
:102A100008D101211020FFF7FFFC00211020FFF753
:102A2000FBFC61E03648844208D101212020FFF7F9
:102A3000F3FC00212020FFF7EFFC55E031488442F1
:102A400008D101210220FFF707FD00210220FFF736
:102A500003FD49E02C48844209D101210804FFF715
:102A6000FBFC00214FF48030FFF7F6FC3CE02748E8
:102A7000844209D101214804FFF7EEFC00214FF404
:102A80000030FFF7E9FC2FE02148844209D1012101
:102A90008804FFF7E1FC00214FF48020FFF7DCFC05
:102AA00022E01C48844208D101214020FFF7B4FCF9
:102AB00000214020FFF7B0FC16E01748844208D1FF
:102AC00001218020FFF7A8FC00218020FFF7A4FC53
:102AD0000AE01248844207D101218015FFF79CFCCF
:102AE0000021A015FFF798FC10BD00000000014078
:102AF0000004004000080040000C004000100040AE
:102B00000014004000040140004001400044014026
:102B10000048014000180040001C00400020004018
:102B200030B50246002000230024158A05EA01037F
:102B3000958905EA010413B10CB1012000E00020E1
:102B400030BD1AB183890B43838102E083898B43B3
:102B50008381704770B5002400220023058C4FF656
:102B6000FE7635400584028C8388048B4FF68F7582
:102B70002C40B51E2C400D882C43751E2A408D8993
:102B80002A434D882A43104DA84202D00F4DA84237
:102B900013D14FF6F7752A40CD892A434FF6FB75BE
:102BA0002A408D882A434FF6FF652B404FF6FF558C
:102BB0002B400D8A2B434D8A2B43838004838D68E1
:102BC0004563028470BD0000000001400004014024
:102BD0000A460021018B4FF6F77319401143018318
:102BE0007047000070B5002400220023058C4FF6CA
:102BF000EF7635400584028C8388048B48F6FF7598
:102C00002C404FF6FF452C400D884FF6FF7606EA24
:102C100005252C434FF6DF752A408D8906EA0515F8
:102C20002A434D8806EA05152A43154DA84202D0CD
:102C3000144DA8421DD14FF67F752A40CD894FF61D
:102C4000FF7606EA05152A434FF6BF752A408D88A0
:102C500006EA05152A434FF6FF352B404FF2FF7564
:102C60002B400D8A06EA85052B434D8A06EA850529
:102C70002B43838004838D688563028470BD0000CC
:102C800000000140000401400A460021018B4FF280
:102C9000FF7319404FF6FF7303EA022319430183C0
:102CA0007047000000220288184B98420ED0184B43
:102CB00098420BD0B0F1804F08D0164B984205D007
:102CC000154B984202D0154B984204D14FF68F73A2
:102CD0001A404B881A43124B984207D0114B984226
:102CE00004D04FF6FF431A400B891A4302804B6809
:102CF000C3620B880385054B984202D0044B98426F
:102D000001D18B7A03860123838270470000014042
:102D1000000401400004004000080040000C004096
:102D20000010004000140040F0B52DED028B83B080
:102D300005460E46304905FB01F000EE100AF8EE9C
:102D4000400A300100EE100AB8EE400A80EE801A08
:102D5000B0EE418ABCEEC80A10EE100A84B200EE52
:102D6000104AB8EE400A38EE400AF3EE000A20EEB0
:102D7000200ABCEEC00A10EE107A4FF6FF7000EA8F
:102D80000414E01984B21D48006840F001001B499A
:102D900008601A481430006840F0100017491431D8
:102DA00008600120022100230A46CDE900104FF4FB
:102DB000C0611348FDF71BFF072209211048FDF7EA
:102DC0008BFE07220A210E48FDF786FE0D4804817E
:102DD000808920F400400B4988810846808940F0B2
:102DE000080088810846808940F40050888103B03B
:102DF000BDEC028BF0BD000040420F0030380240B5
:102E0000000002400010014002460020B1F5007FA2
:102E100000D100BF13880B400BB1012000E000205F
:102E20007047C1F308028280704700BFFEE70000D0
:102E30000FB4054B10B503A9044A029801F032F80B
:102E400010BC5DF814FB0000694700083C0000203E
:102E500003B401984100009850EAC12018BF042033
:102E60004A0D18BF40F0010040F2FF72B2EB515F13
:102E700008BF40F00200012808BF052002B07047DB
:102E80004100080218BF04200A0E18BF40F00100DC
:102E90004FF07F4232EA010108BF40F002000128F2
:102EA00008BF05207047000070B5C1482DED020B2A
:102EB0002DED0E8B82B0119D25F000449FEDBEDB01
:102EC0009FEDBFEB84423EDBA4F140511098A1F18D
:102ED0007F6108430FD0BC48844202DC28D110989F
:102EE00030B39DED100B02B0BDEC0E8B02B0BDE80F
:102EF000704000F00DBE9DED100B53EC1D2B51ECFE
:102F0000100BFDF788FA9DED100B41EC180B53ECFC
:102F10001E2B51EC100BFDF77EFA53EC182BFDF72E
:102F2000D3F941EC100B02B0BDEC0E8B02B070BDBA
:102F3000012000F0EFFE02B0BDEC0E8B02B0BDE848
:102F4000704000F0F9BDA1489FEDA18B844256DA94
:102F50009DED100BB4F1795F0ADA51EC100BFFF71D
:102F600077FF042808BF00F0F7FD9DED100BDAE7AE
:102F700053EC102B51EC100BFDF74DFA41EC190BF3
:102F800095480621B0EE490AF0EE690A784400F04F
:102F900043FD53EC192B51EC100BFDF73CFA41ECBF
:102FA0001A0B8E48B0EE490AF0EE690A0421784403
:102FB00000F032FD53EC192B51EC100BFDF72BFAFE
:102FC00053EC182BFDF780F941EC100B51EC1A0B68
:102FD00053EC102BFDF791FACDE900019DED000BAC
:102FE00053EC102B9DED100B51EC100BFDF713FA69
:102FF0009DED101B53EC112BFDF766F9D2E09DED12
:10300000100B51EC100B01F0A2FB53EC182BFDF749
:10301000FFF99FED730BCDE9000153EC102B9DEDF3
:10302000000B51EC100BFDF7F6F941EC190B6E4853
:103030000621B0EE490AF0EE690A784400F0ECFC93
:1030400053EC192B51EC100BFDF7E5F941EC1B0B80
:103050006648B0EE490AF0EE690A0421784400F0AF
:10306000DBFC53EC192B51EC100BFDF7D4F953ECAE
:10307000182BFDF729F941EC1C0B51EC190B02F050
:1030800069FA41EC180B5A489FED5BABA04222DC79
:1030900053EC1C2B51EC1B0BFDF72FFACDE9000173
:1030A0009DED000B51EC180B53EC102BFDF7B3F911
:1030B00053EC182BFDF708F953EC1A2BFDF7ABF97D
:1030C00053EC1D2BFDF7A1F953EC1E2BFDF7A0F9D6
:1030D00041EC100B5FE08DED008B002000909DED2A
:1030E000000B51EC180B53EC102BFDF7EDF89DED98
:1030F000000B41EC1E0B53EC102B51EC100BFDF7A9
:103100008AF953EC192BFDF783F953EC1E2BFDF7CD
:10311000F4F941EC190B53EC1C2B51EC1B0BFDF794
:10312000ECF941EC1B0B53EC1A2B51EC190BFDF78E
:1031300072F953EC1D2BFDF76BF941EC190B53ECB5
:103140001A2B51EC180BFDF766F953EC1B2BFDF70E
:1031500062F953EC192BFDF758F99DED000B41EC8A
:10316000180B53EC1A2B51EC100BFDF754F99FED93
:10317000249B53EC192BFDF74BF941EC100B51EC50
:10318000180B53EC102BFDF740F953EC192BFDF7FE
:103190003FF941EC100B002D3FF7C5AE51EC100B81
:1031A00081F0004141EC100BBDE600000000000082
:1031B0000000F03F00000000075C143326A6913C9D
:1031C000182D4454FB21F93F0000F07F0000E03F40
:1031D000000000000000F03F283C0000363C0000EA
:1031E000000000000000E03F7A3B0000883B000048
:1031F0003333EF3F000000000000000000000040FB
:10320000182D4454FB21E93F70B59B482DED020B6E
:103210002DED068B079D25F00044A04218DC974851
:10322000844202DC0AD1069840B19DED060BBDEC4C
:10323000068B02B0BDE8704000F06ABC002DCCBF28
:103240009FED8F0B9FED900BBDEC068B02B070BD18
:103250008F48A04215DD8F48A042D8BF4FF0FF3401
:1032600058DD9DED060B51EC100BFFF7F1FD042826
:1032700008BF00F071FC9DED060BBDEC068B02B0A3
:1032800070BD9DED060B51EC100B01F060FACDE91D
:10329000060181489FED828BA0423CDD8248A0421E
:1032A0001FDD00249FED82AB9DED060B53EC1A2B26
:1032B00051EC100BFDF708F89DED060B41EC190BD6
:1032C00053EC1A2B51EC100BFDF7A5F853EC182B0F
:1032D000FDF79BF853EC192BFDF70FF9CDE906012B
:1032E00049E09DED060B012453EC182B51EC100B1B
:1032F000FCF7EAFF9DED060B41EC190B53EC182B84
:1033000051EC100BFDF781F853EC192BFDF7F5F894
:10331000CDE906012FE06848A0421FDD02249FEDA1
:10332000689B9DED060B53EC192B51EC100BFDF730
:1033300072F853EC182BFCF7C7FF9DED060B41EC20
:10334000180B53EC192B51EC100BFDF75EF853ECF6
:10335000182BFDF7D2F8CDE906010CE09DED060B28
:10336000032453EC102B9FED580B51EC100BFDF781
:10337000C4F8CDE906019DED060B53EC102B51EC82
:10338000100BFDF748F841EC180B53EC182BFDF728
:1033900042F841EC190B4E480621B0EE490AF0EE16
:1033A000690A784400F038FB53EC182B51EC100BF1
:1033B000FDF731F841EC180B4648B0EE490AF0EE43
:1033C000690A0521784400F027FB53EC192B51ECD6
:1033D000100BFDF720F841EC100B51EC180B53ECDF
:1033E000102B002C0EDAFCF76FFF9DED061B53EC43
:1033F000112BFDF710F89DED061B53EC112BFDF77B
:1034000007F835E0FCF760FF9DED061B53EC112B30
:10341000FDF701F841EC100B2F48784400EBC40095
:1034200090ED001B51EC100B53EC112BFCF7EDFF52
:103430009DED061B53EC112BFCF7E7FF41EC100B45
:103440002648784400EBC40090ED001B51EC100BB3
:1034500053EC112BFCF7DCFF41EC100B002DA2BF4D
:10346000BDEC068B02B070BD51EC100B81F0004139
:1034700041EC100B01E70000000010440000F07F59
:10348000182D4454FB21F93F182D4454FB21F9BF5A
:103490000000DC3F0000203E0000F33F0000000081
:1034A000000000000000F03F0000E63F00000000C8
:1034B0000000000000000040008003400000000009
:1034C000000000000000F83F000000000000F0BF16
:1034D000CA380000803800000A380000C2370000F7
:1034E00070B56B4E2DED040B2DED028B82B0DDF827
:1034F0001CC0DDE905235C422CF000411C4341EA7D
:10350000D474049D22F00040B44205D86C422C4390
:1035100040EAD474B4420BD99DED061B9DED040B1B
:1035200002B0BDEC028B04B0BDE8704000F0FABA06
:10353000ACF14054A4F17F641C430BD0022404EA94
:10354000AC7444EAD27405439FED538B9FED542B2A
:1035500007D015E09DED040B51EC100B01F039F88C
:1035600042E0002C11BF012C9DED040B02B0BDEC1C
:10357000028B04BF04B070BD022C38D0032C3BD0AA
:103580000B439FED491B9FED4A0B0AD0B14218D166
:10359000B04209D121F0804120F080400791059090
:1035A0000FE0002A15DA10E0434B7B44002C08BFE3
:1035B00093ED000B0DD0012C10D0022C17D0032C52
:1035C0001AD0B0421DD1002A03DAB0EE410AF0EE63
:1035D000610A02B0BDEC028B04B070BD93ED000B2C
:1035E00051EC100B81F0004141EC100BF1E7B0EE13
:1035F000480AF0EE680AECE7B0EE420AF0EE620A22
:10360000E7E7401A00153C28C8BF8DED000B19DC18
:10361000BCF1000FBEBF10F13C0F9FED290B8DEDEB
:10362000000B0FDB9DED060B53EC102B9DED040BF7
:1036300051EC100BFCF761FF01F089F800F0C9FFB5
:10364000CDE90001002C08BF9DED000BC1D0012C7D
:1036500010D0022C9FED1C0B53EC102B9DED000B9A
:1036600051EC100B0DD0FCF7D0FE53EC182BFCF7EF
:10367000CCFEB9E7019880F0004001909DED000B71
:10368000A7E7FCF7C2FE53EC182BFCF7C1FEABE733
:103690000000F07F00000000182D4454FB21094079
:1036A000182D4454FB2109C0182D4454FB21F9BFA7
:1036B000182D4454FB21F93FF236000000000000B1
:1036C0000000000000000000075C143326A6A13CA7
:1036D00010EE101A08B5444A6846B2EB410F28D9DB
:1036E0004FF0E640B0EB410F94BF00204FF0FF30A9
:1036F00000900098002861DB60EE000A10F0010FD6
:1037000045D010F0020FDFED391A9FED391A00EEA7
:10371000E11ADFED381A40EE811A21EEA01AF0EE20
:10372000400A40EE010A08BFF1EE600AB0EE600AFE
:1037300008BD314B21F0004293423CD911F0004FBB
:10374000DFED2E0A20EE201ADFED2D0A19BF31EE33
:10375000601A71EE200A31EE201A71EE600ABDEE99
:10376000E01A11EE100A9FED271A00F0030000EE98
:10377000C10A9FED251A009000EEC10A9FED231AA1
:1037800000EEC10A9FED221A00EEC10AB1E79FEDDB
:10379000211A9FED210A10F0020F00EE810A9FED21
:1037A0001F1A00EE801AB7EE000A00EE810A18BF59
:1037B000B1EE400A08BD00F0F3F99AE710EE100AE6
:1037C0004000B0F17F4F3CBFB7EE000A08BD07D103
:1037D0004FF0010000F09EFABDE8084000F0D0B9BB
:1037E000BDE8084000F0C8B9B61F927E336D4C3971
:1037F000DA82083CA0AA2ABE490E494683F9223F34
:103800000000004B0000C93F00A0FD390020A2339A
:103810001A61342CB93AB2BACA9F2A3DDDFFFFBE05
:1038200000B52DED048BB0EE409AF0EE609A83B0B7
:1038300051EC190BFDF724F841EC180B18EE100AA7
:1038400018EE901A8DED008B002818BF0120084358
:1038500020F00040C0F17F6000F1E040C00F14D0C4
:1038600019EE101A19EE900A8DED009B002918BF71
:103870000121084320F00040C0F17F6000F1E040EA
:10388000C00F04BF012000F045FAB0EE480A03B0B3
:10389000F0EE680ABDEC048B00BD000000B510EE30
:1038A000101A2DED028B81B04D4A6846B2EB410FE4
:1038B0003CD94FF0E640B0EB410F94BF00204FF0F1
:1038C000FF3000900098B0EE408A00285FDB28EEC1
:1038D000080ADFED440A9FED441A00EE201ADFEDDE
:1038E000430A40EE010A9FED421A00EE201ADFED76
:1038F000410A10F0010F40EE010A9FED3F1A00EE61
:10390000201A61EE000AB0EE480A08EE200A02BF53
:1039100001B0BDEC028B00BDBFEE001A01B0C1EEDC
:10392000000ABDEC028BB0EE600A00BD334B21F003
:103930000042934228D911F0004FDFED310A20EE0A
:10394000201ADFED300A19BF31EE601A71EE200A3D
:1039500031EE201A71EE600ABDEEE01A11EE100A87
:103960009FED291A00F0030000EEC10A9FED271A0F
:10397000009000EEC10A9FED261A00EEC10A9FEDED
:10398000251A00EEC10A9DE700F00AF99AE718EE41
:10399000100A4000B0F17F4F0DD218EE100AFFF769
:1039A0006FFA042808BF00F0F3F8B0EE480A01B03F
:1039B000BDEC028B00BD09D1012000F0ABF901B0D4
:1039C000BDEC028B5DF804EB00F0DAB801B0B0EEAC
:1039D000480ABDEC028B5DF804EB00F0CDB80000A6
:1039E000B61F927EBBE9223C0C6D063B8A76CE3C2C
:1039F000ACB5593D35A1083E29AAAA3E490E494613
:103A000083F9223F0000004B0000C93F00A0FD39B0
:103A10000020A2331A61342C70B504462DED028BC0
:103A20004D1E00EBC500B0EE408AF0EE608A90EDCE
:103A3000000B35F0060017D053EC182B51EC100B8F
:103A4000FCF7E9FC41EC100B6D1E04EBC50090ED9A
:103A5000001B51EC100B53EC112BFCF735FC41EC27
:103A6000100B35F00600E7D1022D36D0042D1CD006
:103A7000062D1CBFBDEC028B70BD53EC182B51EC16
:103A8000100BFCF7C8FC94ED0A1B53EC112BFCF750
:103A90001BFC53EC182BFCF7BEFC94ED081B53ECFD
:103AA000112BFCF711FC41EC100B53EC182B51ECD3
:103AB000100BFCF7B0FC94ED061B53EC112BFCF73C
:103AC00003FC53EC182BFCF7A6FC94ED040B53EC11
:103AD000102BFCF7F9FB41EC100B53EC182B51ECBD
:103AE000100BFCF798FC94ED021B53EC112BFCF728
:103AF000EBFB53EC182BFCF78EFC94ED001B53EC06
:103B0000112BFCF7E1FBBDEC028B41EC100B70BDFF
:103B100010B553EC102B51EC100BFCF7D5FB41EC1E
:103B2000100B10BD10B553EC112B51EC100BFCF722
:103B3000CBFB41EC100B10BD9FED050B10B553EC0A
:103B4000102B51EC100BFCF7D8FC41EC100B10BD06
:103B500000000000000000009FED050B10B553ECC5
:103B6000102B51EC100BFCF756FC41EC100B10BD68
:103B7000000000000000001030EE000A7047000056
:103B8000DFED020A80EEA00A70470000000000008E
:103B90009FED020A20EE000A7047000000000010AE
:103BA0002DE9F0014FF07F42B2EB410F9FBF4FF084
:103BB000FF310160BDE8F00170474FF0004242EA7A
:103BC0000123C1F3C752783A551112F01F0C434C30
:103BD000CCF120067C44C1F3C752A2F178024FEA2F
:103BE000621204EB820254F8254008BFD2E9015664
:103BF00012D0556804FA0CF425FA06F73C4397688E
:103C000005FA0CF527FA06F8D26807FA0CFCF24020
:103C100045EA08054CEA0206A4FB034CA5FB035247
:103C2000A6FB03631D449D4234BF012600261319E1
:103C3000334416B1934202D903E0934201D20122E8
:103C400000E00022624402F1200C9206DC0C42EA01
:103C5000443200EE102A5B03DFED210AF8EEC01AB1
:103C600000EE103A4FEA9C1C11F0004FB8EE400AEB
:103C7000C0F800C020EE201A00EE105ADFED190A3D
:103C8000B8EE400A20EE200A71EE810A70EE800A3A
:103C900010EE902A02F500626FF30B0200EE902AFC
:103CA00070EEE11A31EEC11ADFED101A30EE411A52
:103CB0009FED0D0A20EE800A01EE210A9FED0C1AFD
:103CC00000EE810A04BFBDE8F0017047CCF18051DD
:103CD0000160BDE8F001B1EE400A7047D03000004D
:103CE000000000360000802C22AAFD29DB0FC92F1E
:103CF0000000C92F02E008C8121F08C1002AFAD12B
:103D000070477047002001E001C1121F002AFBD15B
:103D1000704700000149086070470000B8000020AB
:103D20002DE9FF5F82B00021DDE90430020DDDF8EE
:103D300040B0034318D044F61050A2F2FF32424381
:103D40001514119801281FD0A5EB0B00401C5FEA49
:103D5000000A4FF000064E4FDFF83891B04650464B
:103D600015D5CAF1000413E0119801244AA30128D3
:103D700001D16FEA0B010298119AC0E90031C0E944
:103D8000024206B0BDE8F09FCBF10000DFE7044639
:103D90000021404A491842EB0450CDE9001012E0DE
:103DA000E00707D032463B4640464946FCF733FB26
:103DB0008046894632463B4610461946FCF72BFBA7
:103DC00006460F466410002CEAD1DDE90401DDE966
:103DD0000023BAF1000F06DAFCF71DFB42464B4602
:103DE000FCF719FB05E0FCF788FB42464B46FCF765
:103DF00084FB04460E460022284BFCF711FC03D836
:103E00004FF0FF30014607E00022254B20463146A7
:103E1000FCF75AFAFCF785FD102409E0002C0ADBB8
:103E20000A220023FCF746FC039B30321A55641E1D
:103E300050EA0102F2D1641C039AC4F11103144444
:103E4000119A012A03D0012208430DD10AE0084348
:103E500004D000204FF0110B119072E7A3EB0B057B
:103E60006D1E0DE05B4504DD4FF0000205F101051C
:103E700004E003DA4FF00002A5F10105002AECD0BE
:103E800002981199C0E90231C0E9004579E70000C4
:103E9000000014400000F03F300000000000F0433C
:103EA0000000E03F2DE9FF4F95B09B46894606464E
:103EB00000250FE2252877D100242746F84A012162
:103EC000059400E0044316F8013F203B01FA03F09B
:103ED0001042F7D130782A2811D06FF02F033078B4
:103EE000A0F13002092A16D8059A44F0020402EB28
:103EF000820203EB42021044761C0590EFE759F86A
:103F0000042B0592002A03DA504244F40054059031
:103F100044F00204761C30782E2816D116F8010FD2
:103F200044F004042A280DD06FF02F023078A0F15D
:103F30003003092B09D807EB870302EB4303C718AB
:103F4000761CF3E759F8047B761C30786C280FD088
:103F500006DC4C2817D068280DD06A2814D104E05C
:103F6000742810D07A280FD10DE044F400140AE030
:103F700044F4801401E044F440147278824202D187
:103F800004F58014761C761C307866280BD013DC80
:103F9000582877D009DC002875D04528F6D0462867
:103FA000F4D047281AD19DE118E0632835D0642861
:103FB00079D0652812D195E1702873D008DC672884
:103FC000F1D069286FD06E280DD06F2806D1B5E0EA
:103FD00073282CD0752875D0782874D05A46179934
:103FE00090476D1C75E1C4F30250022809D00328E4
:103FF0000DD0D9F8001004280DD00D6009F1040986
:1040000067E1D9F80010EA17C1E90052F6E7D9F8DC
:1040100000100D80F2E70D70F0E719F8041B8DF821
:10402000001000208DF80100EA46012003E059F855
:1040300004AB4FF0FF3061074FF0000102D40DE0F8
:1040400008F101018846B9420FDA8045F8DB1AF819
:1040500008100029F4D108E008F1010188468142E6
:10406000FADB1AF808100029F6D105985B46A0EB98
:10407000080721463846179A00F094FA284400EBC6
:10408000080507E04DE029E10DE01AF8010B5A465A
:1040900017999047B8F10108F7D25B462146384698
:1040A000179A13E142E00A220092C4F302524FF041
:1040B000000A022A08D059F804CB032A4FEAEC710F
:1040C0000AD00DE029E02AE009F1070121F00702FA
:1040D000F2E802C1914609E00FFA8CFC4FEAEC715C
:1040E000042A03D14FFA8CFC4FEAEC71002907DA5D
:1040F0000A460021DCF1000C61EB02012D2202E0F6
:10410000220504D52B228DF80420012203E0E207CA
:1041100001D02022F7E7904659E00A2102E0102260
:104120000DE010214FF0000A00910BE010224FF03B
:10413000000A44F004040827009203E008224FF02C
:10414000000A0092C4F30252022A05D059F804CBA7
:104150000021032A08D009E009F1070121F0070234
:10416000F2E802C1914605E01FFA8CFC042A01D155
:104170000CF0FF0C4FF00008220728D5702806D05D
:10418000009B83F0100353EA0A0305D00EE040229F
:104190008DF80420012208E05CEA010206D03022FA
:1041A0008DF804208DF8050002229046009B83F0D4
:1041B000080353EA0A030AD15CEA010201D162074B
:1041C00005D530228DF804204FF001087F1E5828B5
:1041D00004D034A003900EA802900DE036A0F9E7B9
:1041E00053466046009AFCF765FA84460398825C61
:1041F0000298401E029002705CEA0100F0D1029821
:1042000006A9081A00F1200A600702D524F48034B8
:1042100000E00127574502DDA7EB0A0000E000207F
:1042200000EB0A01009005984144401A0590E00314
:1042300006D45B462146179A059800F0B3F9054469
:10424000002706E001A85A46C05D179990476D1CEB
:104250007F1C4745F6DBE0030CD55B462146179AE9
:10426000059800F09FF9054404E030205A4617995C
:1042700090476D1C0099481E00900029F5DC08E06D
:10428000029802995A460078491C02911799904762
:104290006D1CBAF10001AAF1010AF1DC65E1000030
:1042A000092801003031323334353637383961620C
:1042B00063646566000000003031323334353637D0
:1042C00038394142434445460000000000F058F9A7
:1042D0000544761C307800287FF4ECAD19B02846F0
:1042E000BDE8F08F620700D4062709F1070222F02B
:1042F000070CFCE80223E14603F000485FEA080CE3
:1043000002D00FF2702C0DE05FEA045C02D50FF2D0
:10431000682C07E05FEAC47C02D00FF2602C01E059
:10432000AFF2700C4FF0FF3823F00043CDF850C0CF
:1043300065280CD006DC452809D046281DD0472822
:104340003DD13DE0662818D067287ED138E00021B5
:10435000112F01DB112000E0781CCDE9000106A936
:104360000EA8FFF7DDFCDDE90F010E9A0391002195
:10437000009207F1010A04914DE04FF000400097D0
:10438000CDE9011006A90EA8FFF7CAFCDDE90F026E
:1043900003920E9B11990022DDF80CA00093049269
:1043A00011B9791C00EB010AB7EB0A0004D4C0F183
:1043B000FF3007F1010A0490AAEB0700019044E0E6
:1043C000012F00DA01270021112F01DD112000E06B
:1043D0003846CDE9000106A90EA8FFF7A1FCDDE9EA
:1043E0000F010E9A0391002104910092BA46210711
:1043F0000CD40399514500DA8A46BAF1010F05DD64
:10440000009AAAF10101515C302908D0B84202DAC1
:1044100010F1040F06DA0121CDE9011015E0AAF12F
:104420000101E9E7002805DC049901440491AAEBA5
:10443000000102E0411C514500DD8A460499401A02
:10444000401C01904FF000400290200704D40198D6
:10445000504501DBCDF8048000208DF84F00029814
:104460000DF14F07B0F1004F25D02B200E90029890
:104470004FF0020800280CDA404202902D200E90E6
:1044800007E00A210298FCF7FFF83031029007F8A4
:10449000011DB8F10001A8F10108F2DC0298002822
:1044A000EFD1791E0E980870307800F0200040F0AF
:1044B000450007F8020D12A8C01B00F10708149868
:1044C000007800B1012000EB0A01019801EBE071D6
:1044D00005984144401A401E0590E00306D45B460F
:1044E0002146179A059800F05DF805441498007865
:1044F00018B15A46179990476D1CE00324D55B46C6
:104500002146179A059800F04DF805441CE00498E0
:10451000002807DBDDE90301884203DD0098405CE9
:10452000179901E0179930205A469047049805F1F1
:104530000105401C04900198401E019004D12E20DA
:104540005A46179990476D1CBAF10001AAF1010A69
:10455000DDDC05E017F8010B5A46179990476D1CF2
:10456000B8F10001A8F10108F4DC5B462146179A76
:104570000598ABE62D0000002B0000002000000095
:104580002DE9F041044600251E461746880404D450
:1045900005E039462020B0476D1C641EF9D5284639
:1045A000BDE8F0812DE9F041044600251E46904605
:1045B000C80301D5302700E02027880404D505E092
:1045C00041463846B0476D1C641EF9D52846BDE803
:1045D000F08110B541EC100BFEF716FE51EC100BFC
:1045E00010BD000086B0FDF717FA9EE04F48006846
:1045F000C0434F49C1F8B4024E48FDF719FB4D487E
:10460000801DFDF7F1FA4B480C30FDF735FBFDF747
:104610005DFB494908804748B0F90A0003EE100ADB
:10462000B8EEC33AF0EE432A4248B0F9080003EE70
:10463000100AB8EEC33AB0EE432A3E48B0F906007D
:1046400003EE100AB8EEC33AF0EE431A3948B0F957
:10465000040003EE100AB8EEC33AB0EE431A354830
:10466000B0F9020003EE100AB8EEC33AF0EE430AC6
:104670003048B0F9000003EE100AB8EEC33AB0EECD
:10468000430A2C481430FCF759FD2A48B0F90400BD
:104690002849B1F90210274CCDE90010B4F90030D7
:1046A000B4F90A20B4F90810B4F9060000F012F9C0
:1046B000204690ED070AF2EE040A20EE200ABDEE35
:1046C000C00A10EE100A01B2204690ED050ADFED97
:1046D0001B0A20EE200ABDEEC00A10EE100A00B23E
:1046E000224692ED060ADFED150A20EE200ABDEE05
:1046F000C00A10EE102A12B22346B3F90430CDE9F5
:104700000132CDE903012046B0F902000090B4F96E
:104710000030B4F90A20B4F90810B4F9060000F02A
:10472000C4FF4FF4FA7001F091F95FE7B40241421F
:1047300000004142BC000020400000200000C842B0
:1047400000BF00BF00BF00BF00BF00BF704782B006
:10475000CDE9000121F0004001909DED000B02B079
:1047600051EC100B7047000000BF054A128802F0A0
:104770004002002AF9D0C2B2014B9A807047000073
:104780000010014010B52DED028B0446F0EE408A7A
:10479000B0EE608A24B1B5EEC08AF1EE10FA02D80C
:1047A000BDEC028B10BDF0EE480AB0EE680A204660
:1047B00000F002F800BFF3E710B52DED068B0446BC
:1047C000B0EE409AF0EE609A89EE290AB0EE40AA67
:1047D0009FED2B0AC0EE0A0AF0EE60AAB0EE6A0A5C
:1047E000FFF75CF8B0EE408A9FED260AFEF770FFF7
:1047F000F0EE000A60EE200AB7EE000A00EE880A2A
:1048000008EE080AF0EE408A28EE080AC0EE280AF0
:10481000C4ED020A94ED020AF0EE000A20EE200A2E
:1048200084ED030A94ED020A84ED040AB7EE000A4F
:1048300018EE080AF0EE000A20EE200AC0EE280A60
:10484000C4ED000A9FED0F0AFEF742FFF0EE000AEA
:1048500060EE200AB7EE000A00EEC80A08EE080A69
:10486000C0EE280AC4ED010A9FED070A84ED050A8F
:104870009FED050A84ED060ABDEC068B10BD000015
:10488000DB0F4940DB0F493F000000001CB5FCF77F
:104890009BF800220421032001F01AFB074908605D
:1048A0000748012100238022CDE9001005A1084816
:1048B00001F0F2FD01F0C0F900201CBD0C00002049
:1048C0000000002073746172745F7461736B000088
:1048D000C55500082DE9FE4304460D4617461E4601
:1048E000DDE90A89200A8DF80000E0B28DF80100A8
:1048F000280A8DF80200E8B28DF80300380A8DF816
:104900000400F8B28DF80500300A8DF80600F0B208
:104910008DF807004FEA18208DF8080008F0FF0016
:104920008DF809004FEA19208DF80A0009F0FF0000
:104930008DF80B000C226946A12000F07BFEBDE83B
:10494000FE83000088B020216846FBF7B2FC12E02D
:104950006846FDF7B5FC10B96846FCF7B7F906489C
:10496000006808B9012000E00020034908604FF406
:10497000C87001F06BF8EBE7B80241422DE9F04155
:1049800005460E461C4807681C480068001D00F0DC
:10499000FDFE50B91948006890F82C10012088409D
:1049A00017490968814316480160681C38B936B157
:1049B00012480168091D134800F026FF1AE07C190F
:1049C0000E4800684460BC4207D20C480168091DCB
:1049D0000D48006800F0FEFE0CE008480168091D63
:1049E0000A48006800F0F6FE09480068844201D2D7
:1049F00007480460BDE8F081580000204400002012
:104A00005C000020541B00204C00002048000020C7
:104A10007400002010B5044600F002FF244800682E
:104A2000401C234908602348006840B921480460BD
:104A30000846006801280DD100F0D8F90AE01E48A8
:104A4000006838B91B480068C06AE16A884201D82A
:104A50001848046019480068401C18490860084656
:104A60000068206494F82C100120884014490968DB
:104A7000084313490860E16A01EB8101114A02EB26
:104A80008100211D00F0C0FE00F0F4FE0A4800681D
:104A900068B108480068C06AE16A884207D24FF0EE
:104AA000805009490860BFF34F8FBFF36F8F10BD6F
:104AB000540000204400002060000020700000200E
:104AC0005C000020A01A002004ED00E010B500F00A
:104AD000A7FE10480068D0B90F4800F06BFE0F48E1
:104AE00000F068FE0C480E4908600C480D4908604B
:104AF00000220C210A2001F0EBF906490860084663
:104B0000006820B108A10348006800F063FF00F0CE
:104B1000B1FE10BD88000020681B00207C1B002017
:104B20008000002084000020546D725100000000BD
:104B300010B516E000F074FE0C48C068C468201D73
:104B400000F024FE0A480068401E09490860094830
:104B50000068401E0749086000F08CFE204600F007
:104B60005FF8044800680028E4D110BD401B002015
:104B7000540000205000002070B504460D46206C03
:104B800070B1216CE0680144E160D4E90210884210
:104B900001D32168E1602846226CE168FBF770FBD5
:104BA00070BD2DE9F04104460F4615464FF0000850
:104BB000A66B206C48B9206800282CD1A06801F0B1
:104BC00055FD80460020A06025E07DB93946226C65
:104BD0006068FBF755FB216C606808446060D4E9AD
:104BE0000101884217D32068606014E03946226CC6
:104BF000E068FBF745FB216CE068411AE160216841
:104C0000E068884203D2216CA068411AE160022D5D
:104C100001D106B1761E701CA0634046BDE8F0814C
:104C200010B50446206B00F043FE204600F040FE25
:104C300010BD00000146084A126812680AB9012234
:104C400000E000220A600A6822B9034A1268D268AA
:104C5000106800E0002070478000002030B54FF45D
:104C60009633174800F007042CB1C01D20F0070050
:104C7000134C041B1B1B0246124C22600024114DD6
:104C80006C60D018083820F007000F4C206000241A
:104C90000D4D2D686C600C4D2D682C601146441A2A
:104CA0004C60094C24680C60084D4C682C60084D21
:104CB0004C682C604FF00044064D2C6030BD000065
:104CC000901B0020940000209C000020A4000020E5
:104CD000A0000020A800002000BFFFF729FF064821
:104CE00000680128F9D94FF0805004490860BFF3EB
:104CF0004F8FBFF36F8FF0E7A01A002004ED00E0A4
:104D00002DE9F04106460D4617469846069C0DB91A
:104D1000246000E02760E66325640121204601F05D
:104D200005F984F850800020A064BDE8F0812DE9E9
:104D3000F05F82460E4690469B460A9F0C9C4FEAC7
:104D40008801A522206BFBF7ADFAA8F10100216BC9
:104D500001EB800929F0070909F0070008B90120D3
:104D600000E0002050B900BF502080F31188BFF34D
:104D70004F8FBFF36F8F00BF00BFFEE786B10025E6
:104D800007E0715D04F134004155705D00B902E047
:104D90006D1C0A2DF5D300BF00213D20015502E016
:104DA000002084F83400052F00D30427E762A764AD
:104DB0000020E064201D00F00AFD04F1180000F05E
:104DC00006FD2461C7F10500A06164620020206532
:104DD00084F854005A465146484600F0A5FB20602E
:104DE0000B9808B10B980460BDE8F09F10B5002443
:104DF00007E004EB84010F4A02EB810000F0DAFCCB
:104E0000641C052CF5D30C4800F0D4FC0B4800F0D2
:104E1000D1FC0B4800F0CEFC0A4800F0CBFC0A485D
:104E200000F0C8FC044809490860044808490860C3
:104E300010BD0000A01A0020041B0020181B002039
:104E40002C1B0020401B0020541B00204800002089
:104E50004C00002010B50146164800E000680368C9
:104E60008B42FBD30246436813448B4204D1436810
:104E70004C682344436001460A464B681344046867
:104E8000A34211D10C4C03682468A34208D04B689C
:104E90000468646823444B6003681B680B6005E08A
:104EA000054B1B680B6001E003680B60884200D073
:104EB000016010BD940000209C0000202DE9F0410D
:104EC00004460D4616461F464FF0000865602461F3
:104ED000B5420CD8F01BA169884202D34FF00108FB
:104EE00011E0211D0948006800F074FC0BE0BE428F
:104EF00004D2BD4202D34FF0010804E0211D044852
:104F0000006800F067FC4046BDE8F08184000020A6
:104F10008000002070B5054600F082FCA86B08B93F
:104F2000012400E0002400F0A5FC204670BD70B50F
:104F3000054600F075FCA86BE96B884201D101249D
:104F400000E0002400F096FC204670BD2DE9F341FE
:104F50000D460098846C002754B900BF502080F3A0
:104F60001188BFF34F8FBFF36F8F00BF00BFFEE705
:104F7000A06BE16B884201D2012000E0002050B913
:104F800000BF502080F31188BFF34F8FBFF36F8FA6
:104F900000BF00BFFEE7A06BE16B88421BD294F913
:104FA00045602A4669462046FFF7FBFD0746701C10
:104FB00060B9606A08B9012000E0002050B904F12E
:104FC000240001F0B7FB28B1012703E0701C40B2B8
:104FD00084F8450000BF3846BDE8FC81F8B50546B9
:104FE0000F461A480068C068C468201D00F0CEFB58
:104FF00094F8280000F00400E8B1A06941192B469C
:105000003A462046FFF75AFFD8B1002003462A4609
:1050100001460090204601F087FC064656B900BFC5
:10502000502080F31188BFF34F8FBFF36F8F00BF05
:1050300000BFFEE705E094F8280020F0010084F8A6
:1050400028002046216A8847F8BD00008000002023
:1050500070B586B08BE003980028FBDB059C606987
:1050600008B9012000E0002010B9201D00F08EFBDF
:1050700002A800F0DDF8054603980A2875D2DFE89B
:1050800000F009050739416306083A4200BF00BF36
:1050900000BF00BF94F8280040F0010084F8280009
:1050A0000498A269811803462A462046FFF706FFA6
:1050B000F8B12046216A884794F8280000F00400DF
:1050C000B8B1002000900498A16942180023194645
:1050D000204601F029FC064656B900BF502080F357
:1050E0001188BFF34F8FBFF36F8F00BF00BFFEE784
:1050F00000BF3BE000BF94F8280020F0010084F8D6
:10510000280033E000BF94F8280040F0010084F844
:1051100028000498A061A06908B1012000E00020E7
:1051200050B900BF502080F31188BFF34F8FBFF3F9
:105130006F8F00BF00BFFEE7A06941192B462A46CA
:105140002046FFF7BBFE11E094F8280000F00200B3
:1051500018B9204600F0ACFB05E094F8280020F0D8
:10516000010084F8280001E0FFE700BF00BF002233
:1051700003A90448006801F095F800287FF46BAF9C
:1051800006B070BD88000020F8B505460C4600F05A
:105190009DFD684600F04CF80646009820BB44B9D7
:1051A000B54206D801F012FB31462846FFF716FF3C
:1051B0001CE03CB10E480068006808B9012000E01E
:1051C00000200446A91B22460A48006800F018FC8B
:1051D00001F0FCFA50B94FF0805007490860BFF366
:1051E0004F8FBFF36F8F01E001F0F0FAF8BD0000C0
:1051F000840000208800002004ED00E00A490968CE
:10520000096809B9012100E0002121B14FF0FF3107
:10521000064A116006E004490968C968C868034A7B
:1052200041681160704700004800002074000020B1
:1052300070B5044601F070F90546074800688542DC
:1052400004D200F00BF80120206001E00020206073
:1052500001480560284670BD900000202DE9F84304
:1052600034E025480068C068056823480068C068C5
:10527000C468201D00F08AFA2046216A884794F805
:10528000280000F0040008B3A0694619AE4207D90F
:1052900066602461211D1848006800F09BFA15E043
:1052A000002003462A4601460090204601F03CFBC0
:1052B000074657B900BF502080F31188BFF34F8FC6
:1052C000BFF36F8F00BF00BFFEE700BF0A48006852
:1052D000006808B9012000E000200028C1D006487D
:1052E000D0F8008005480068034908600348C0F80A
:1052F0000080BDE8F88300008000002084000020CA
:105300000E480068401C08B9012000E0002050B998
:1053100000BF502080F31188BFF34F8FBFF36F8F12
:1053200000BF00BFFEE700BF502080F31188BFF32D
:105330004F8FBFF36F8F00BF00BFFEE7AC000020B0
:1053400008B500BF6846FFF775FC04462046009983
:10535000FFF71AFFFFF77CFEF4E770B5044600F094
:105360005FFA94F945501AE0A06C38B1002120464C
:10537000FFF7ECFD88B100F01DFC0EE0606A08B993
:10538000012000E0002038B904F1240001F0D2F936
:1053900018B100F00FFC00E003E0681E45B2002DDC
:1053A000E2DC00BFFF2084F8450000F063FA00F063
:1053B00037FA94F9445010E0206908B9012000E060
:1053C000002048B904F1100001F0B4F908B100F070
:1053D000F1FB681E45B200E001E0002DECDC00BFEF
:1053E000FF2084F8440000F045FA70BD2DE9F0413B
:1053F00004464FF0000800F069FC4648006808B910
:10540000FFF72CFC44480068204000286BD1D4B141
:10541000083404F00700B0B104F00700C0F1080040
:10542000044404F0070008B9012000E0002050B94E
:1054300000BF502080F31188BFF34F8FBFF36F8FF1
:1054400000BF00BFFEE7002C4DD034480068844206
:1054500049D8334E3046056801E02E462D6868680D
:10546000A04202D228680028F7D12A480068854265
:1054700039D0306800F10808286830606868001B7F
:10548000102819D92F1907F0070008B9012000E0EA
:10549000002050B900BF502080F31188BFF34F8F18
:1054A000BFF36F8F00BF00BFFEE76868001B786026
:1054B0006C603846FFF7CEFC184968680968081A1E
:1054C000164908600846006816490968884203D2F0
:1054D00012480068134908600F4968680968084362
:1054E00068600020286001F071F908F0070008B931
:1054F000012000E0002050B900BF502080F3118847
:10550000BFF34F8FBFF36F8F00BF00BFFEE7404672
:10551000BDE8F0819C000020A8000020A000002031
:1055200094000020A4000020001F4FF0807303604F
:10553000001F21F001030360001F054B03601438B6
:105540000260001F6FF00203036020387047000004
:105550000153000800B52DED048B83B041EC190B0D
:10556000FBF78EF941EC180B18EE100A18EE901AA2
:105570008DED008B002818BF0120084320F000406B
:10558000C0F17F6000F1E040C00F14D019EE101A96
:1055900019EE900A8DED009B002918BF01210843E8
:1055A00020F00040C0F17F6000F1E040C00F04BF78
:1055B0000120FEF7AFFB51EC180B03B0BDEC048BE0
:1055C00000BD00001CB5044600F02AF90D48022178
:1055D0000023CA01CDE900100BA10F4800F05CFFC9
:1055E0000E48032100234FF48072CDE900100CA176
:1055F0000E4800F051FF0E48006800F055FA00F028
:1056000039F91CBD04000020617474697475646507
:105610005F7461736B000000E5450008080000201E
:105620006E72665F7461736B00000000454900088C
:1056300000000020F0B589B006460F4615461C2D27
:1056400001DD09B0F0BD002101AAE81C1154882039
:105650008DF804008DF805608DF80650002405E0F3
:10566000395DE01C01AA1154601CC4B2AC42F7DBE6
:1056700000240AE001A9E81C085C095D0844C1B2E5
:1056800001AAE81C1154601CC4B2E81C8442F1DB7E
:10569000002405E001A9085D00F068F8601CC4B2B0
:1056A000281D8442F6DB00BFCBE72DE9F04F87B021
:1056B00004460D4616461F46DDE911ABDDF8409065
:1056C0004FF0000806E000200DF8080008F1010086
:1056D00000F0FF08B8F11C0FF5DB200A8DF8000080
:1056E000E0B28DF80100280A8DF80200E8B28DF8CA
:1056F0000300300A8DF80400F0B28DF80500380A76
:105700008DF80600F8B28DF807004FEA19208DF8E1
:10571000080009F0FF008DF809004FEA1A208DF803
:105720000A000AF0FF008DF80B004FEA1B208DF8ED
:1057300012000BF0FF008DF813001398000A8DF88B
:1057400014001398C0B28DF815001498000A8DF853
:1057500016001498C0B28DF817001C226946AF20BD
:10576000FFF768FF07B0BDE8F08F000010B50446F2
:1057700000BF40210448FDF747FB0028F9D021462F
:105780000148FDF74EFB10BD0010014001460A69BB
:10579000D1E901309860D1E901035860506888422E
:1057A00001D188685060002008611068401E1060B8
:1057B0001068704700F1080141604FF0FF318160CF
:1057C00000F10801C1600161002101607047002102
:1057D0000161704710B502460B685C1C0CB910697A
:1057E00007E002F1080000E04068446824689C4239
:1057F000FAD944684C604C68A160886041600A61D5
:105800001468641C146010BD42684A6093688B6021
:10581000936859609160086103685B1C036070477E
:1058200000BF502080F31188BFF34F8FBFF36F8FFD
:1058300000BF0E480068401C0C490860084600681C
:10584000012812D10A480068C0B208B9012000E05E
:10585000002050B900BF502080F31188BFF34F8F54
:10586000BFF36F8F00BF00BFFEE77047AC000020A2
:1058700004ED00E00D48006850B900BF502080F3EF
:105880001188BFF34F8FBFF36F8F00BF00BFFEE7DC
:1058900006480068401E054908600846006820B9AF
:1058A000002080F3118800BF00BF7047AC000020CB
:1058B00070B506463546002E3FD0083D2C461F49A0
:1058C00060680968084008B1012000E0002050B974
:1058D00000BF502080F31188BFF34F8FBFF36F8F4D
:1058E00000BF00BFFEE7206808B9012000E00020EB
:1058F00050B900BF502080F31188BFF34F8FBFF322
:105900006F8F00BF00BFFEE70C4960680968084060
:1059100098B1206888B9094960680968884360605F
:1059200000F0D4F906496068096808440449086031
:105930002046FFF78FFA00F049FF70BDA800002055
:10594000A000002000204FF0E0210861886102489B
:1059500048610720086170473F90020070B5FAF770
:1059600079FC0446102C16D304F1E02090F8F05393
:1059700015480078854201DB012000E0002050B985
:1059800000BF502080F31188BFF34F8FBFF36F8F9C
:1059900000BF00BFFEE70D48006800F4E0600C495E
:1059A0000968884201D8012000E0002050B900BFFA
:1059B000502080F31188BFF34F8FBFF36F8F00BF6C
:1059C00000BFFEE770BD0000B00000200CED00E05D
:1059D000B4000020024600200BE0084B53F83030A2
:1059E00033B9064B43F8301003EBC0035A6002E0B2
:1059F000401C0828F1D300BF70470000601A002047
:105A00002DE9F04105460E4617462C46FFF708FFE4
:105A100094F94400401C10B9002084F8440094F923
:105A20004500401C10B9002084F84500FFF722FF14
:105A3000A06B28B93A46314604F1240000F0DCF8A6
:105A40002046FFF78AFCBDE8F081000070B50446EF
:105A50000025D4B11248006808B9012000E00020F8
:105A600050B900BF502080F31188BFF34F8FBFF3B0
:105A70006F8F00BF00BFFEE700F028F9002120462D
:105A8000FEF77CFF00F0A2FE05463DB94FF08050C6
:105A900004490860BFF34F8FBFF36F8F70BD0000E4
:105AA0007C00002004ED00E070B50546FFF7B8FE6D
:105AB00015B93048006800E028460446201DFFF76D
:105AC00065FE78B9E06A00EB80002B4951F82000B0
:105AD00040B994F82C100120884028490968814376
