:020000040800F2
:10000000D84B01205D02000871200008110E000885
:100010006D2000081B0B0008672D00080000000081
:100020000000000000000000000000009D0100082A
:10003000650B000800000000F9010008B126000867
:1000400077020008770200087702000877020008AC
:10005000770200087702000877020008770200089C
:10006000770200087702000877020008770200088C
:10007000770200087702000877020008770200087C
:10008000770200087702000877020008770200086C
:10009000770200087702000877020008770200085C
:1000A000770200087702000877020008770200084C
:1000B0007702000859280008770200087702000834
:1000C000770200087702000877020008770200082C
:1000D000770200087702000877020008770200081C
:1000E000770200087702000877020008770200080C
:1000F00077020008770200087702000877020008FC
:1001000077020008770200087702000877020008EB
:1001100077020008770200087702000877020008DB
:1001200077020008770200087702000877020008CB
:1001300077020008770200087702000877020008BB
:1001400077020008770200087702000877020008AB
:10015000770200087702000877020008770200089B
:10016000770200087702000877020008770200088B
:1001700077020008770200087702000800000000FC
:100180007702000877020008DFF80CD000F0ACFB23
:100190000048004779450008D84B01202C4B1968CE
:1001A0000868B0E8F04F80F30988BFF36F8F4FF015
:1001B000000080F3118870470000000008480068C4
:1001C000006880F308884FF0000080F3148862B65E
:1001D00061B6BFF34F8FBFF36F8F00DF00BF00BF6B
:1001E00008ED00E0DFF80C00016841F470010160E7
:1001F000704700BF88ED00E0EFF30980BFF36F8F19
:10020000134B1A681EF0100F08BF20ED108A20E96A
:10021000F04F106009B44FF0500080F31188BFF325
:100220004F8FBFF36F8F05F0E1FD4FF0000080F3BB
:10023000118809BC19680868B0E8F04F1EF0100F6B
:1002400008BFB0EC108A80F30988BFF36F8F704746
:1002500044000020EFF30580704700000648804707
:1002600006480047FEE7FEE7FEE7FEE7FEE7FEE79B
:10027000FEE7FEE7FEE7FEE7F12700088901000838
:100280002DE9F0410024061B254671F1000605DA30
:1002900001240027D0EB070067EB0101161E73F164
:1002A000000605DA0027D2EB0702012567EB0303FE
:1002B00000F01AFA86460E4617469C46AC4204D019
:1002C0000025D0EB050E65EB010624B10020D2EB32
:1002D000000760EB030C704631463A466346BDE8C2
:1002E000F08140EA01039B0703D009E008C9121F0F
:1002F00008C0042AFAD203E011F8013B00F8013BE0
:10030000521EF9D27047D2B201E000F8012B491E0B
:10031000FBD270470022F6E710B513460A460446A2
:100320001946FFF7F0FF204610BD2DE9FE4F80462D
:1003300081EA0300C00F0C46009021F0004123F039
:100340000045B8EB0200A94105D24046214690463F
:100350001C460B46024623F00040104347D0270DB1
:10036000C7F30A00C3F30A510290401A01904028D3
:100370006BDAC3F3130040F4801B0098924620B15F
:100380000023D2EB030A63EB0B0B01985946C0F133
:100390004002504600F0D9F906460D4650465946EF
:1003A000019A00F0E1F910EB08006141002487EAAE
:1003B000115284EAE7731A4340D0009A62B3019A5B
:1003C000012A4FEA075215DC001B61EB02014FF0D6
:1003D000004202EA0752CDE90042001C41F58011BB
:1003E00032462B4600F018FA03B0BDE8F08F4046C5
:1003F0002146F9E7001B61EB0201001C41F5801367
:1004000000185B412018A2F5001747EB030140EAF2
:10041000D570B6196D4111E06D084FEA360645EA10
:10042000C0754FEA0752001B61EB0201001C41F549
:10043000801149084FEA30000019514132462B46DD
:1004400003B0BDE8F04F00F0D8B900980122400099
:100450000023D0EB020263EBE073009821464FEAE1
:10046000E074B8EB000061EB0401E9E783F00043BE
:100470005BE781F0004158E72DE9FE4F81EA030474
:1004800004F0004421F0004100944FF0000B23F0F1
:10049000004350EA01045ED052EA03045BD0C3F388
:1004A0000A54C1F30A552C44A4F2F3340194A0FB7E
:1004B0000254C1F3130141F48011C3F3130343F455
:1004C000801301FB024400FB034E840A970A44EAAE
:1004D000815447EA8357A4FB076802958D0A05FB00
:1004E00007854FEA932C04FB0C542705029D4FEA25
:1004F000065847EA1637B5EB08056EEB070C870E72
:10050000920E47EA811742EA8312A7FB0201B6EB7B
:100510000B0164EB00042B0D43EA0C335E1844EB33
:100520001C50DA465146E7FB0201C5F313044FEABB
:100530000B3343EA14534FEA0432019C43EA0603A7
:10054000A4F10C040294009CCDE900B400F064F91D
:1005500003B0BDE8F08F00200146F9E72DE9F04D2A
:1005600081EA030404F0004B21F0004514464FF0EB
:10057000000A23F0004150EA050220D054EA0102AB
:100580001DD0C5F30A570246C5F31303C1F3130088
:10059000C1F30A5640F4801543F48013A7EB060814
:1005A000101BD64608F2FD3873EB050002D308F1A4
:1005B000010801E092185B41B8F1000F03DA002056
:1005C0000146BDE8F08D00204FF4801106468446B8
:1005D0000EE0171B73EB050705D3121B63EB050336
:1005E00006434CEA010C49084FEA300092185B417F
:1005F00050EA0107EDD152EA030012D082EA04006A
:1006000083EA0501084305D0101BAB4106D2012245
:10061000002306E000224FF0004302E06FF00102E9
:1006200053101AEB06004CEB085110EB0A0041EB9B
:100630000B01BDE8F04D00F0E0B8F0B4CA17CB0FE5
:1006400050405140C61841F100054FEAC37231468F
:1006500028004FF0960303D0B623F0BC00F09FB8FB
:1006600030460021F9E700F0004230F000400AD0A7
:10067000C10D01F56071C0F3160042EA0151C208D4
:1006800040071143704700200146704730B5041EF3
:1006900071F1000404DB4FF00044404264EB0101BF
:1006A000141E73F1000405DB1C464FF00043524258
:1006B00063EB0403994208BF904230BD30B50B464E
:1006C000014600202022012409E021FA02F59D4282
:1006D00005D303FA02F5491B04FA02F52844151E56
:1006E000A2F10102F1DC30BD2DE9F05F05460020EA
:1006F00092469B4688460646814640241BE0284693
:1007000041464746224600F001F953465A46C01A70
:10071000914110D311461846224600F016F82D1AC2
:1007200067EB01084F4622460120002100F00DF83A
:1007300017EB00094E41201EA4F10104DFDC4846FE
:1007400031462A464346BDE8F09F202A04DB203A82
:1007500000FA02F1002070479140C2F1200320FA14
:1007600003F3194390407047202A06DBCB17203A49
:1007700041FA02F043EAE07306E041FA02F3D040A6
:10078000C2F1200291400843194670470029A8BFD2
:100790007047401C490008BF20F00100704710B4AA
:1007A000B0FA80FC00FA0CF050EA010404BF10BC5F
:1007B000704749B1CCF1200421FA04F411FA0CF18C
:1007C00018BF012121430843A3EB0C01CB1D4FEAC5
:1007D00000614FEA102042BF002010BC704700EBC0
:1007E000C35010440029A4BF10BC7047401C4900EE
:1007F00008BF20F0010010BC704710B5141E73F143
:10080000000408DA401C41F1000192185B411A43D0
:1008100001D120F0010010BD2DE9F04D92469B461C
:1008200011B1B1FA81F202E0B0FA80F220329046C2
:10083000FFF78BFF04460F4640EA0A0041EA0B012E
:1008400053465A46084313D0114653EA010019D0C3
:10085000C8F14002504600F059F805460E46504691
:1008600059464246FFF771FF084305D0012004E0D6
:1008700020463946BDE8F08D0020054346EAE07683
:100880002C4337430A986305E40AA0EB08000022D2
:10089000FD0A44EA47540A3002D500200146E9E740
:1008A000010510196941DDE9084500196941BDE8F4
:1008B000F04DA2E7C1F30A52C1F3130140F2FF3336
:1008C00041F480119A4202DA00200146704740F25A
:1008D00033439A42A2F2334202DC524200F016B88D
:1008E000FFF733BF00207047064C074D06E0E06875
:1008F00040F0010394E8070098471034AC42F6D367
:10090000FFF746FC286E0008486E0008202A04DB2A
:10091000203A21FA02F00021704721FA02F3D04078
:10092000C2F12002914008431946704710B50024D7
:1009300000210C2000F0CCFB0446142005F00EF939
:10094000482C11D10BA002F011FA01220B210C202E
:1009500000F0C3FD322005F001F911220A210C201C
:1009600000F0BBFD002010BD0AA002F0FFF901203D
:10097000F9E70000414B38393633204932432043F0
:100980006F6E6E656374696F6E205B4F4B5D2E0DED
:100990000A000000414B38393633204932432043A6
:1009A0006F6E6E656374696F6E205B4641494C5D86
:1009B0002E0D0A002DE9FF410C9F00240025002682
:1009C000AA222146641C40484254FF222146641C4E
:1009D000425401222146641C42540D222146641CCB
:1009E00042549DF800202146641C42549DF8012089
:1009F0002146641C42549DF804202146641C425444
:100A00009DF805202146601CC4B22F4842549DF831
:100A100008202146601CC4B22B4842549DF809208E
:100A20002046611CCCB228490A549DF80C2021466E
:100A3000601CC4B2244842549DF80D202046611C1D
:100A4000CCB221490A549DF828202046611CCCB222
:100A50001D490A549DF829202146601CC4B21A4839
:100A600042549DF82C202046611CCCB216490A54F1
:100A70009DF82D202146601CC4B2134842542046E4
:100A8000611CCCB210490F54002007E00E49095CEC
:100A90002944CDB27119CEB2411CC8B20A49C978F5
:100AA000091D8142F2DC2046611CCCB206490D547E
:100AB0002046611CCCB204490E542146024804F081
:100AC000D7FEBDE8FF810000401A002010B50723C3
:100AD000022208214FF4A87001F040FD42F2CF013C
:100AE00041F63F7000F040FE4FF4FA71042000F030
:100AF0006FFE4FF4E131542002F0B4F800F094FEA0
:100B000000F0E4FD00F068FB00F03EFD00F0AEFEFA
:100B100000F018F801F0D4FA10BD00BFFEE703B5ED
:100B20009DF801009DF8021001449DF80300014466
:100B30009DF8040001449DF805000844C043C0B27C
:100B40000CBD0000FE2006490870002048700846D1
:100B50000021C0F80210FF20014988717047000091
:100B6000380000207047000010B5002422E0C4EBDC
:100B7000C401124A02EB8100DFED110A9FED110A58
:100B800003F075FCC4EBC4010F4A02EB8100F3EEE5
:100B90000E0A9FED0C0A03F06AFCC4EBC4010B4A79
:100BA00002EB8100F3EE040A9FED060A03F05FFCFE
:100BB000601CC4B2032CDADB10BD00001001002061
:100BC0000000A04200007A44BC0000206401002024
:100BD00030B5CC1000F1200353F824304C07E50E5B
:100BE0000F24AC40A343CD1000F1200444F825307D
:100BF000CC1000F1200353F824304C07E40E02FA25
:100C000004F42343CD1000F1200444F8253030BD16
:100C1000F0B50A4600210023002400BF3DE0012575
:100C200005FA01F3156805EA03049C4234D105680E
:100C30004F000326BE40B543056015794E00B54010
:100C40000668354305601579012D02D01579022D0E
:100C500016D185684F000326BE40B543856055799F
:100C60004E00B540866835438560456801268E4054
:100C7000B5434560456896798E40B6B235434560C8
:100C8000C5684F000326BE40B543C560D5794E0008
:100C9000B540C6683543C560491C1029BFD3F0BDB7
:100CA000F0B5002300244D07ED0E02FA05F3CE1037
:100CB00000F1200555F826504E07F70E0F26BE40CE
:100CC000B543CF1000F1200646F82750CE1000F1B2
:100CD000200555F8265045EA0304CE1000F1200502
:100CE00045F82640F0BD2DE9F0470C46DDE90867E0
:100CF000002100258C4600BF60E04FF0010808FA93
:100D000001F504EA050CAC4557D1D0F800804FEA54
:100D1000410A4FF0030909FA0AF928EA0908C0F85C
:100D20000080D0F800804FEA410902FA09F948EA48
:100D30000908C0F80080012A01D0022A27D1D0F882
:100D400008804FEA410A4FF0030909FA0AF928EA34
:100D50000908C0F80880D0F808804FEA410906FA6F
:100D600009F948EA0908C0F80880D0F804904FF063
:100D7000010808FA01F829EA0809C0F80490D0F837
:100D8000048003FA01F948EA0908C0F80480D0F8A1
:100D90000C804FEA410A4FF0030909FA0AF928EAE0
:100DA0000908C0F80C80D0F80C804FEA410907FA16
:100DB00009F948EA0908C0F80C80491C10299CD39D
:100DC000BDE8F0871CB504462078104908706078AB
:100DD000487008462168C0F80210A0790B49887154
:100DE0000846016800918188ADF8041080798DF87B
:100DF0000600DDE90001FFF792FE04498979884287
:100E000001D100201CBD0120FCE7000038000020BB
:100E100000BFFEE700B500200E4908600E480068DC
:100E200020F440400C4908600846006840F48040C7
:100E3000086000200949C1F89C0203F003FA012070
:100E40000449086003F0FEF900200449C1F8980243
:100E500000BD0000988240420004024000804042F1
:100E600000B500200E4908600E48006820F440409C
:100E70000C4908600846006840F480400860002083
:100E80000949C1F89C0203F051FA012004490860A5
:100E900003F04CFA00200449C1F8980200BD00009C
:100EA00098824042000402400080404200B5002089
:100EB0000E4908600E48006820F440400C49086064
:100EC0000846006840F48040086001200949C1F8E4
:100ED0009C0203F0B7F901200449086003F0B2F95D
:100EE00000200449C1F8980200BD000098824042E9
:100EF000000402400080404200B500200E49086016
:100F00000E48006820F440400C490860084600681C
:100F100040F48040086001200949C1F89C0203F0B8
:100F200005FA01200449086003F000FA0020044992
:100F3000C1F8980200BD00009882404200040240BF
:100F40000080404270B5054600241548006820F432
:100F5000404013490860084600680860002614E015
:100F600000201049086003F06DF901200E49C1F816
:100F700098026006040E0B487C38006808B1601CBB
:100F8000C4B203F05FF9701CC6B2082EE8DB15B9D5
:100F9000FFF78CFF01E0FFF73DFF204670BD00002A
:100FA00000040240988240420080404270B50546ED
:100FB00000241548006820F44040134908600846A2
:100FC00000680860002614E000201049086003F063
:100FD000ADF901200E49C1F898026006040E0B48D5
:100FE0007C38006808B1601CC4B203F09FF9701C23
:100FF000C6B2082EE8DB15B9FFF77EFF01E0FFF768
:101000002FFF204670BD000000040240988240423D
:10101000008040422DE9F04106460F4614461D4629
:1010200000F004F9002141EA4601C8B200F074F86A
:1010300000F08CF920B100F041F90120BDE8F08109
:10104000384600F069F800F081F900F0EFF801216E
:1010500001EB4601C8B200F05FF800F077F90DE04F
:10106000012C04D10020FFF76DFF287003E0012060
:10107000FFF768FF2870601EC4B26D1C002CEFD112
:1010800000F01CF90020D9E770B504460D4600F0C9
:10109000CDF8002141EA4401C8B200F03DF800F06B
:1010A00055F9284600F038F800F050F900F0BEF885
:1010B000012101EB4401C8B200F02EF800F046F91E
:1010C0000020FFF73FFF064600F0F8F8304670BDFD
:1010D00070B504460D4600F0CDF8002141EA440108
:1010E000C8B200F049F800F061F9284600F044F871
:1010F00000F05CF900F0BEF8012101EB4401C8B238
:1011000000F03AF800F052F90020FFF74FFF0646D2
:1011100000F0F8F8304670BD00B5144A126822F4A9
:101120004042124B1A601A46126842F480421A601A
:1011300000220F4B1A60002114E0C2090C4B1B1D4A
:101140001A604206100E03F07DF80122094BC3F825
:10115000982203F077F80022054B1A6003F072F82A
:101160004A1CD1B20829E8DB00BD0000000402409F
:10117000988240420080404200B5144A126822F42E
:101180004042124B1A601A46126842F480421A60BA
:1011900000220F4B1A60002114E0C2090C4B1B1DEA
:1011A0001A604206100E03F0C1F80122094BC3F881
:1011B000982203F0BBF80022054B1A6003F0B6F842
:1011C0004A1CD1B20829E8DB00BD0000000402403F
:1011D000988240420080404270B50024002500BF44
:1011E00013E000F023F8002141EA4401C8B2FFF700
:1011F00093FF00F0ABF805461DB9214606A001F0AB
:10120000B5FD00F05BF8601CC4B2FF2CE9DB06A062
:1012100001F0ACFD70BD00004949435F41444452B8
:1012200031203D20307825780D0A000000B50E48A9
:10123000006820F440400C4908600846006840F40B
:10124000804008600120094908600949C1F89802F6
:1012500002F0F8FF00200549086002F0F3FF0020CB
:101260000349C1F8980200BD000402409C8240423C
:101270000080404200B50E48006820F440400C4910
:1012800008600846006840F4804008600120094971
:1012900008600949C1F8980203F048F800200549A0
:1012A000086003F043F800200349C1F8980200BD2C
:1012B000000402409C8240420080404200B50E483B
:1012C000006820F440400C4908600846006840F47B
:1012D000804008600020094908600949C1F89C0263
:1012E00002F0B0FF0120054908600549C1F89C02E1
:1012F00002F0A8FF00BD00000004024098824042B6
:101300000080404200B50E48006820F440400C497F
:1013100008600846006840F48040086000200949E1
:1013200008600949C1F89C0203F000F80120054952
:1013300008600549C1F89C0202F0F8FF00BD0000FA
:1013400000040240988240420080404210B50024D0
:101350001348006820F440401149086008460068BE
:10136000086001200F49086002F06CFF01200E495F
:10137000C1F8980202F066FF07E0601CC4B2322C8C
:1013800003DDFFF79BFF012010BD06488038006891
:101390000028F2D10349091F086000BFF4E70000EC
:1013A000000402409C8240420080404210B500246C
:1013B0001348006820F4404011490860084600685E
:1013C000086001200F49086002F0B0FF01200E49BB
:1013D000C1F8980202F0AAFF07E0601CC4B2322CE8
:1013E00003DDFFF78FFF012010BD0648803800683D
:1013F0000028F2D10349091F086000BFF4E700008C
:10140000000402409C824042008040422DE9F041AD
:101410000746884614461E4641463846FFF734FEC6
:1014200005461EB10120A040284303E00121A14050
:1014300025EA0100C5B22A464146384600F027F8A1
:10144000BDE8F0812DE9F04781468A4615461C46E5
:10145000089E51464846FFF717FE07460120A04068
:10146000401E291B491C884000F0FF08281B401C17
:1014700006FA00F0C6B206EA080627EA080737436C
:101480003A465146484600F002F8BDE8F08770B58C
:1014900004460D461646FFF7C9FE002141EA440105
:1014A000C8B2FFF739FEFFF751FF18B1FFF706FF8B
:1014B000012070BD2846FFF72FFEFFF747FF30469B
:1014C000FFF72AFEFFF742FF18B1FFF7F7FE0120F2
:1014D000EFE7FFF7F3FE0020EBE770B504460D469B
:1014E0001646FFF7C7FE002141EA4401C8B2FFF7E4
:1014F00043FEFFF75BFF18B1FFF704FF012070BD4B
:101500002846FFF739FEFFF751FF3046FFF734FE5C
:10151000FFF74CFF18B1FFF7F5FE0120EFE7FFF7EB
:10152000F1FE0020EBE7000000B5144A126822F03B
:10153000C002124B1A601A46126842F040021A604A
:1015400000220F4B1A60002114E0C2090C4B1B1D36
:101550001A604206100E02F0A2FE0122094BC3F8E7
:10156000882202F09CFE0022054B1A6002F097FED2
:101570004A1CD1B20829E8DB00BD0000001002407F
:10158000880242420000424270B50024002500BF9C
:1015900013E000F023F8002141EA4401C8B2FFF74C
:1015A000C3FF00F063F805461DB9214606A001F00F
:1015B000DDFB00F037F8601CC4B2FF2CE9DB06A0AD
:1015C00001F0D4FB70BD0000494943325F414444FF
:1015D00052203D20307825780D0A000000B50E48D5
:1015E000006820F0C0000C4908600846006840F020
:1015F000400008600120094908600949C1F88802D3
:1016000002F04DFE00200549086002F048FE00206F
:101610000349C1F8880200BD001002408C0242421A
:101620000000424200B50E48006820F0C0000C499E
:1016300008600846006840F0400008600020094942
:1016400008600949C1F88C0202F029FE0120054911
:1016500008600549C1F88C0202F021FE00BD0000BF
:1016600000100240880242420000424210B50024AD
:101670001348006820F0C00011490860084600685F
:10168000086001200F49086002F009FE01200E49A0
:10169000C1F8880202F003FE07E0601CC4B2322CDD
:1016A00003DDFFF7BFFF012010BD0648803800684A
:1016B0000028F2D10349091F086000BFF4E70000C9
:1016C000001002408C024242000042421CB501213F
:1016D000022000F01FFE0121102000F01BFEC020A0
:1016E000009001208DF8040000208DF806000320F2
:1016F0008DF8050001208DF8070069461048FFF7B6
:1017000087FA01200F4908600F49C1F89C020C209C
:10171000009001208DF8040000208DF806000320C1
:101720008DF8050001208DF8070069460748FFF78E
:101730006FFA0120064908600649C1F88C021CBDF9
:101740000004024098824042008040420010024063
:1017500088024242000042424CF6CC4001490860F7
:1017600070470000003000407FB505460C4601215F
:10177000022000F0DFFD0295ADF804400020ADF836
:101780000C00ADF806008DF80E0001A90D4801F01F
:1017900027FA012211460B4801F071F9012109488D
:1017A00001F079F81D208DF8000001208DF803006C
:1017B00000208DF801008DF80200684600F06EFDF3
:1017C0007FBD00000004004010B500F013F810BD0C
:1017D00070B505460C4645F2555000F01FF82846F6
:1017E00000F010F8204600F013F800F003F8FFF7BF
:1017F000B3FF70BD4AF6AA20014908607047000097
:10180000003000400149486070470000003000404F
:1018100001498860704700000030004001490860BD
:1018200070470000003000401CB50C48006840F0D4
:1018300004000A490860012000210B460246CDE958
:1018400000104FF4C0410648FFF74DFA012005494A
:1018500008600549C1F8B8021CBD000030380240DC
:1018600000080240B40241420000414200B58BB082
:10187000644801F02BF8644801F028F8634801F04F
:1018800025F8634801F022F801214FF0011000F023
:1018900071FD01210C2000F04DFD0121192000F007
:1018A00039FD02208DF8280000208DF82A008DF8DF
:1018B0002B0003208DF829000220099009A9554822
:1018C000FFF7A6F92020099009A95348FFF7A0F9CE
:1018D0004FF48050099009A95048FFF799F94FF447
:1018E0008070099009A94B48FFF792F902220C2158
:1018F0004A48FFF7D5F9032205214748FFF7D0F9F9
:10190000022201214348FFF7CBF901220821414877
:10191000FFF7C6F9A720ADF818000020ADF82000A9
:10192000ADF81A0040F2E730079000208DF8220051
:1019300006A9374801F054F906A9324801F050F9D8
:101940005320ADF8180006A92F4801F049F906A95F
:101950002E4801F045F96020ADF804000120ADF8F3
:1019600006000020ADF81000ADF80800ADF8140036
:101970004FF4FA70039001A9254801F089F8082175
:10198000234801F0C3F80121214800F075FF01212F
:101990001F4800F080FF01A91A4801F079F80821DA
:1019A000184801F0B3F80121164800F065FF012145
:1019B000144800F070FF0121124800F078FF01A9DF
:1019C000114801F065F808210F4801F09FF8012146
:1019D0000D4800F051FF01210B4800F05CFF01A908
:1019E0000A4801F09DF80821084801F0EBF80121B0
:1019F000064800F041FF0121044800F04CFF0BB005
:101A000000BD00000000014000080040000C004044
:101A1000004001400000024000100240000C024063
:101A200038B5FF24012307226B216820FFF7EEFC65
:101A3000142004F093F875216820FFF725FB044675
:101A4000712C50D12AA001F091F9002306226B21BC
:101A50006820FFF7DBFC0A2004F080F80120032354
:101A600002226B2100906820FFF7ECFC0A2004F0B2
:101A700075F8002303226B216820FFF7C7FC0022C2
:101A800038216820FFF703FD01231A46372168201B
:101A9000FFF7BCFC0320022304221B2100906820D6
:101AA000FFF7D0FC0320022304221C2100906820B1
:101AB000FFF7C8FC0320022300221D2100906820AC
:101AC000FFF7C0FC002219216820FFF7E0FC02208C
:101AD000032302461A2100906820FFF7B3FC00F0B0
:101AE00081F8002038BD0AA001F040F90120F9E793
:101AF0004D5055393235302049324320436F6E6E98
:101B0000656374696F6E205B4F4B5D2E0D0A00009C
:101B10004D5055393235302049324320436F6E6E77
:101B2000656374696F6E205B4641494C5D2E0D0AFA
:101B30000000000010B52DED0A8B84B0F0EE408A55
:101B4000B0EE609AB0EE418A0446B4EEE88AF1EE57
:101B500010FA04D3B4EEC98AF1EE10FA20DD18EEC3
:101B6000100AFEF780FD41EC1A0B19EE100AFEF781
:101B70007AFD41EC1B0B18EE900AFEF774FD41EC68
:101B80001C0B8DED02AB8DED00BB53EC1C2B2146E5
:101B900004A001F0EBF8002004B0BDEC0A8B10BDEE
:101BA0000120F9E753656C66207465737420257312
:101BB000205B4641494C5D2E206C6F773A202530E2
:101BC0002E32662C20686967683A2025302E3266EE
:101BD0002C206D656173757265643A2025302E3254
:101BE000660A000030B59FB000201D901E90169030
:101BF00017901890139014901590109011901290C7
:101C00000D900E900F90002519216820FFF73CFAE7
:101C10008DF86C001A216820FFF736FA8DF86D00F8
:101C20001B216820FFF730FA8DF86E001D21682017
:101C3000FFF72AFA8DF86F001C216820FFF724FABD
:101C40008DF87000002219216820FFF720FC022285
:101C50001A216820FFF71BFC0120A840C2B21B21FB
:101C60006820FFF714FC02221D216820FFF70FFCFB
:101C70000120A840C2B21C216820FFF708FC002404
:101C800048E01DAB06223B216820FFF7C3F99DF811
:101C900075009DF8741040EA012000B213990844C1
:101CA00013909DF877009DF8761040EA012000B26D
:101CB0001499084414909DF879009DF8781040EA32
:101CC000012000B21599084415901DAB062243214E
:101CD0006820FFF79FF99DF87400000200B29DF89C
:101CE000751008431699084416909DF87600000276
:101CF00000B29DF8771008431799084417909DF893
:101D00007800000200B29DF8791008431899084441
:101D10001890641CC82CB4DB002412E013A850F8FF
:101D20002400C82190FBF1F013A941F8240016A863
:101D300050F82400C82190FBF1F016A941F82400C6
:101D4000641C032CEADBE0221C216820FFF79FFBC8
:101D5000E0221B216820FFF79AFB192003F0FEFE0A
:101D6000002448E01DAB06223B216820FFF752F912
:101D70009DF875009DF8741040EA012000B210999A
:101D8000084410909DF877009DF8761040EA0120F5
:101D900000B21199084411909DF879009DF87810CF
:101DA00040EA012000B21299084412901DAB0622AD
:101DB00043216820FFF72EF99DF875009DF87410F7
:101DC00040EA012000B20D9908440D909DF877007B
:101DD0009DF8761040EA012000B20E9908440E905A
:101DE0009DF879009DF8781040EA012000B20F9923
:101DF00008440F90641CC82CB4DB002412E010A827
:101E000050F82400C82190FBF1F010A941F82400FB
:101E10000DA850F82400C82190FBF1F00DA941F85D
:101E20002400641C032CEADB00221C216820FFF73D
:101E30002EFB00221B216820FFF729FB192003F04D
:101E40008DFE0D216820FFF71FF98DF864000E212B
:101E50006820FFF719F98DF865000F216820FFF75A
:101E600013F98DF8660000216820FFF70DF98DF851
:101E7000670001216820FFF707F98DF8680002214B
:101E80006820FFF701F98DF86900002411E019A816
:101E9000005D48B119A8005D401E624931F810008C
:101EA00007A941F8240003E0002007A941F8240015
:101EB000641C062CEBDB002444E010A850F824003E
:101EC00013A951F82410401A07A951F82410401AF8
:101ED00000EE100AB8EEC00ADFED530A60EE200AE9
:101EE00007A850F8240000EE100AB8EEC00A80EEF1
:101EF000801A04A800EB840080ED001A0DA850F8A9
:101F0000240016A951F82410411A07AAE01C52F81F
:101F10002000081A00EE100AB8EEC00ADFED420AEF
:101F200060EE200A07A9E01C51F8200000EE100A1C
:101F3000B8EEC00A80EE801A01A800EB840080EDA4
:101F4000001A641C032CB8DB9DF86C201921682052
:101F5000FFF79DFA9DF86D201A216820FFF797FA88
:101F60009DF86E201B216820FFF791FA9DF86F20E5
:101F70001D216820FFF78BFA9DF870201C21682036
:101F8000FFF785FA9DED010AB0EE401A27A0F2EEA8
:101F90000C0ABAEE0C0AFFF7CDFDE8B39DED020A7C
:101FA000B0EE401A23A0F2EE0C0ABAEE0C0AFFF7CC
:101FB000C1FD88B39DED030AB0EE401A1FA0F2EEFA
:101FC0000C0ABAEE0C0AFFF7B5FD28B39DED040A22
:101FD000B0EE401A1BA0F2EE0C0ABAEE0C0AFFF7A4
:101FE000A9FDC8B19DED050AB0EE401A17A0F2EEAA
:101FF0000C0ABAEE0C0AFFF79DFD68B19DED060ACA
:10200000B0EE401A13A0F2EE0C0ABAEE0C0AFFF77B
:1020100091FD08B1012000E001E01FB030BD0020BB
:10202000F9E70000C66A00080000C8426779726FCD
:10203000205800006779726F205900006779726F2D
:10204000205A000061636320580000006163632030
:1020500059000000616363205A0000004A0A5202DE
:102060000243014B1A60704708ED00E000BFFEE735
:10207000704700001CB510A103C9CDE9000105227D
:102080006946302000F0D4F805226946102000F09F
:1020900081F8002406E01DF80400A52800D003E024
:1020A000601CC4B2052CF6DB00BF052C01D001205A
:1020B0001CBD0020FCE70000A5A5A5A5A50000000B
:1020C0001CB50121052000F025F901208DF8040040
:1020D00000208DF8060003208DF8050000208DF803
:1020E00007001020009069461548FEF791FD10206A
:1020F000009069461348FEF78BFD01208DF807001C
:1021000000208DF804002020009069460D48FEF75D
:102110007FFD01200C49086000F078F900200B4990
:10212000C1F89002FFF7A6FF28B909A000F01EFE33
:1021300000F040F902E00EA000F018FE1CBD000007
:10214000000002400008024090024042000041426C
:102150004E524632344C30312053504920436F6E3A
:102160006E656374696F6E205B4F4B5D2E0D0A00C8
:102170004E524632344C30312053504920436F6E1A
:102180006E656374696F6E205B4641494C5D2E0D30
:102190000A0000002DE9F04107460D4616460020D2
:1021A0000A490860384600F085F98046002405E0B9
:1021B000FF2000F07FF92855601CC4B2B442F7DB61
:1021C0000120024908604046BDE8F081900240428B
:1021D00070B50446002007490860204600F06AF9FF
:1021E000FF2000F067F9054601200349C1F890027D
:1021F000284670BD900240420000404270B504463F
:102200000720FFF7E5FF05462946272000F02EF8B6
:1022100005F0400050B1202221466120FFF7BAFFAF
:10222000FF21E22000F022F8002070BD0120FCE731
:102230002DE9F04107460C46154600200A49086082
:10224000384600F037F98046002605E014F8010B07
:1022500000F030F9701CC6B2AE42F7DB0120024933
:1022600008604046BDE8F0819002404270B50546E6
:102270000C46002007490860284600F01BF9064676
:10228000204600F017F901200349C1F890023046BA
:1022900070BD0000900240420000404270B5002135
:1022A00000230F22C4781CB3174C246804F4E064A4
:1022B000C4F5E064C4F30721C1F10404E3B20A41A8
:1022C00044789C40E1B28478144021430C07210EED
:1022D0000E4C05786155047804F01F050124AC40CC
:1022E00005786D11AD0005F1E025C5F8004109E064
:1022F000047804F01F050124AC40054D06787611E2
:1023000045F8264070BD00000CED00E000E400E060
:1023100080E100E029B1064A12680243044B1A60CA
:1023200004E0034A12688243014B1A6070470000C0
:102330003038024029B1064A12680243044B1A6041
:1023400004E0034A12688243014B1A6070470000A0
:102350004038024029B1064A12680243044B1A6011
:1023600004E0034A12688243014B1A607047000080
:102370002038024029B1064A12680243044B1A6011
:1023800004E0034A12688243014B1A607047000060
:102390004438024029B1064A12680243044B1A60CD
:1023A00004E0034A12688243014B1A607047000040
:1023B0002438024010B50020114908600522114957
:1023C0002A20FFF735FF01212120FFF74FFF0121D0
:1023D0002220FFF74BFF28212520FFF747FF202170
:1023E0003120FFF743FF0F212620FFF73FFF0F218A
:1023F0002020FFF73BFF01200349C1F8900210BDE8
:1024000090024142C16A00080000414200B587B015
:1024100001210846FFF77EFF01210803FFF7AAFF0D
:10242000E020059002208DF8180000208DF81A0099
:1024300003208DF8190005A91C48FEF7E9FB0522C9
:1024400011461A48FEF72CFC052206211748FEF714
:1024500027FC052207211548FEF722FC0020ADF8D5
:1024600000004FF48270ADF802000020ADF80400C7
:10247000ADF80600ADF808004FF40070ADF80A00A2
:102480002820ADF80C000020ADF80E000720ADF8B4
:1024900010006946064800F043F80121044800F0A6
:1024A00025F8FF2000F006F807B000BD000002404C
:1024B0000030014010B5044600BF02210A4800F078
:1024C00021F80028F9D02146074800F027F800BF7E
:1024D0000121054800F016F80028F9D0024800F064
:1024E0001AF8C0B210BD00000030014021B10288CE
:1024F00042F04002028004E002884FF6BF731A40A7
:10250000028070470246002013890B400BB1012066
:1025100000E000207047014688897047818170473C
:1025200010B50022028802F441520B884C882343E4
:102530008C882343CC8823430C8923434C89234331
:102540008C892343CC8923431A430280838B4FF227
:10255000FF74234083830B8A038210BDF0B50446C9
:102560000D4616461F461448006840F00100124907
:10257000086000201049083108600F4800680F49C2
:1025800008400D4908600E48091D0860081F0068D2
:1025900020F48020091F0860002007490C310860E2
:1025A0003B4632462946204600F09CF8002108466A
:1025B000FFF754FDF0BD000000380240FFFFF6FEBB
:1025C000103000240CB500200190009034480068C1
:1025D00040F480303249086000BF3148006800F4A0
:1025E000003000900198401C0190009818B90198A3
:1025F000B0F5A04FF1D12A48006800F4003010B1C6
:102600000120009001E0002000900098012846D1B0
:1026100023484030006840F0805021494031086034
:102620002048006840F440401E4908601C480830BB
:1026300000681B49083108600846006840F4004003
:1026400008600846006840F4A05008601648091F5A
:102650000860081F006840F08070091F086000BF14
:102660000F48006800F000700028F9D040F20570B3
:102670000E4908600A480830006820F00300084945
:10268000083108600846006840F00200086000BF9A
:1026900003480830006800F00C000828F8D10CBD91
:1026A000003802400070004019544007003C0240CE
:1026B00010B500BF502080F31188BFF34F8FBFF3D8
:1026C0006F8F00BF03F0B6FF18B14FF08050044980
:1026D000086000BF002080F3118800BF10BD00001B
:1026E00004ED00E0F0B504460D46002100203D4E0B
:1026F000366846F480363B4F3E6001E04E1CB1B276
:10270000384E366806F400361EB941F6FF76B142FF
:10271000F4DB41F6FF76B14201D1012060E0314E99
:102720004036366846F080562E4F40373E602E4E7B
:10273000366846F440462C4F3E602A4E08363668CE
:1027400046F41446274F08373E60264E366826F07A
:102750008076244F3E6045EA84160127C7EB520776
:1027600046EA074646EA036646F480061D4F3F1DCB
:102770003E603E1F366846F080763F1F3E6000BFD9
:10278000184E366806F00076002EF9D0174E3668DF
:1027900046F48076154F3E603E46366846F4007635
:1027A0003E603E46366846F480663E603E46366889
:1027B00046F005063E600B4E0836366826F00306E6
:1027C000084F08373E603E46366846F002063E60D7
:1027D00000BF044E0836366806F00C06082EF8D105
:1027E000F0BD00000038024000700040003C024094
:1027F00010B51548006840F470001349086013488C
:10280000006840F001001149086000200F490831BC
:1028100008600E4800680E4908400C4908600D48E1
:10282000091D0860081F006820F48020091F086047
:10283000002006490C310860FFF7C4FE4FF000602D
:1028400001498039086010BD88ED00E00038024081
:10285000FFFFF6FE1030002410B50121054800F0FE
:10286000FDF808B1FEF7B0FF0121024800F010F8B2
:1028700010BD00000004004021B1028842F0800237
:10288000028004E002884FF67F731A40028070478E
:10289000CA430282704721B1028842F001020280DD
:1028A00004E002884FF6FE731A400280704731B18F
:1028B000B0F8442042F40042A0F8442005E0B0F80B
:1028C0004420C2F30E02A0F84420704710B504461D
:1028D0005548844208D101210846FFF75BFD0021DD
:1028E0000120FFF757FD9DE0B4F1804F08D1012191
:1028F0000846FFF72FFD00210120FFF72BFD91E097
:102900004A48844208D101210220FFF723FD00211B
:102910000220FFF71FFD85E04548844208D10121D0
:102920000420FFF717FD00210420FFF713FD79E0D5
:102930004048844208D101210820FFF70BFD002107
:102940000820FFF707FD6DE03B48844208D10121D4
:102950001020FFF7FFFC00211020FFF7FBFC61E0D7
:102960003648844208D101212020FFF7F3FC0021E2
:102970002020FFF7EFFC55E03148844208D10121C7
:102980000220FFF707FD00210220FFF703FD49E0C9
:102990002C48844209D101210804FFF7FBFC0021E7
:1029A0004FF48030FFF7F6FC3CE02748844209D121
:1029B00001214804FFF7EEFC00214FF40030FFF73F
:1029C000E9FC2FE02148844209D101218804FFF766
:1029D000E1FC00214FF48020FFF7DCFC22E01C48E2
:1029E000844208D101214020FFF7B4FC002140209F
:1029F000FFF7B0FC16E01748844208D1012180207F
:102A0000FFF7A8FC00218020FFF7A4FC0AE0124891
:102A1000844207D101218015FFF79CFC0021A015FD
:102A2000FFF798FC10BD00000000014000040040CA
:102A300000080040000C004000100040001400405E
:102A400000040140004001400044014000480140B2
:102A500000180040001C00400020004030B5024635
:102A6000002000230024158A05EA0103958905EA60
:102A7000010413B10CB1012000E0002030BD1AB1F7
:102A800083890B43838102E083898B438381704771
:102A900070B5002400220023058C4FF6FE763540E9
:102AA0000584028C8388048B4FF68F752C40B51EED
:102AB0002C400D882C43751E2A408D892A434D8851
:102AC0002A43104DA84202D00F4DA84213D14FF611
:102AD000F7752A40CD892A434FF6FB752A408D8829
:102AE0002A434FF6FF652B404FF6FF552B400D8ACA
:102AF0002B434D8A2B43838004838D684563028476
:102B000070BD000000000140000401400A460021A1
:102B1000018B4FF6F7731940114301837047000092
:102B200070B5002400220023058C4FF6EF76354067
:102B30000584028C8388048B48F6FF752C404FF681
:102B4000FF452C400D884FF6FF7606EA05252C43FD
:102B50004FF6DF752A408D8906EA05152A434D8810
:102B600006EA05152A43154DA84202D0144DA84285
:102B70001DD14FF67F752A40CD894FF6FF7606EAC4
:102B800005152A434FF6BF752A408D8806EA0515BC
:102B90002A434FF6FF352B404FF2FF752B400D8A2D
:102BA00006EA85052B434D8A06EA85052B4383807B
:102BB00004838D688563028470BD000000000140BD
:102BC000000401400A460021018B4FF2FF731940B7
:102BD0004FF6FF7303EA0223194301837047000095
:102BE00000220288184B98420ED0184B98420BD006
:102BF000B0F1804F08D0164B984205D0154B984243
:102C000002D0154B984204D14FF68F731A404B886F
:102C10001A43124B984207D0114B984204D04FF6FA
:102C2000FF431A400B891A4302804B68C3620B882A
:102C30000385054B984202D0044B984201D18B7A10
:102C40000386012383827047000001400004014095
:102C50000004004000080040000C0040001000404C
:102C600000140040F0B52DED028B83B005460E46F2
:102C7000304905FB01F000EE100AF8EE400A300181
:102C800000EE100AB8EE400A80EE801AB0EE418ADB
:102C9000BCEEC80A10EE100A84B200EE104AB8EE7C
:102CA000400A38EE400AF3EE000A20EE200ABCEE9D
:102CB000C00A10EE107A4FF6FF7000EA0414E01913
:102CC00084B21D48006840F001001B4908601A48A2
:102CD0001430006840F010001749143108600120DA
:102CE000022100230A46CDE900104FF4C0611348C9
:102CF000FDF7F9FF072209211048FDF769FF0722B8
:102D00000A210E48FDF764FF0D480481808920F4F4
:102D100000400B4988810846808940F0080088817E
:102D20000846808940F40050888103B0BDEC028BD6
:102D3000F0BD000040420F00303802400000024069
:102D40000010014002460020B1F5007F00D100BF15
:102D500013880B400BB1012000E000207047C1F345
:102D600008028280704700BFFEE700000FB4054BE9
:102D700010B503A9044A029800F07CFE10BC5DF86F
:102D800014FB0000E5430008400000204100080259
:102D900018BF04200A0E18BF40F001004FF07F4218
:102DA00032EA010108BF40F00200012808BF0520F7
:102DB0007047000010EE101A08B5444A6846B2EB9E
:102DC000410F28D94FF0E640B0EB410F94BF0020EF
:102DD0004FF0FF3000900098002861DB60EE000AA1
:102DE00010F0010F45D010F0020FDFED391A9FED02
:102DF000391A00EEE11ADFED381A40EE811A21EEA1
:102E0000A01AF0EE400A40EE010A08BFF1EE600A97
:102E1000B0EE600A08BD314B21F0004293423CD92C
:102E200011F0004FDFED2E0A20EE201ADFED2D0A03
:102E300019BF31EE601A71EE200A31EE201A71EEE0
:102E4000600ABDEEE01A11EE100A9FED271A00F09D
:102E5000030000EEC10A9FED251A009000EEC10AA2
:102E60009FED231A00EEC10A9FED221A00EEC10A5F
:102E7000B1E79FED211A9FED210A10F0020F00EE3D
:102E8000810A9FED1F1A00EE801AB7EE000A00EECD
:102E9000810A18BFB1EE400A08BD00F069FC9AE74C
:102EA00010EE100A4000B0F17F4F3CBFB7EE000AB1
:102EB00008BD07D14FF0010000F014FDBDE8084047
:102EC00000F03EBCBDE8084000F034BCB61F927E66
:102ED000336D4C39DA82083CA0AA2ABE490E494615
:102EE00083F9223F0000004B0000C93F00A0FD39DC
:102EF0000020A2331A61342CB93AB2BACA9F2A3DD3
:102F0000DDFFFFBE10B510EE100A2DED068BB7EEFB
:102F1000001A10EE901AB0EE418A0022A0F5000CC3
:102F2000DFEDFE9A4FF00073BCF1FE4F4FF07F448F
:102F300003EB410C80F0B481BCF1804FC0F02082E3
:102F4000F74901449FEDF73AB1F5005F40F2D482B2
:102F500000F58021CB0C03F00F0101EE901AC3F3B2
:102F600007137F3BA0EBC350B8EEE12A00EE100A36
:102F70001A44DFEDED2AF0EE411A42EE221AF0EE8D
:102F8000613A70EE232A30EE632A12EE900A00F5C1
:102F900000606FF30B0001EE900A73EEE13A33EE3E
:102FA000804AC1EE223A22EE230A10EE100A00F502
:102FB00000606FF30B0000EE100A00EE612A00EED5
:102FC000442A62EE232A70EE221A21EEA12ADFEDB6
:102FD000D73A02EE233A23EE023A20EE012A22EEFD
:102FE000811A03EE211A32EE010A10EE100A00F5E2
:102FF00000606FF30B0000EE100A72EE401A31EE23
:10300000812A9FEDCB1A60EE011A9FEDCA1A20EEBD
:10301000011A9FEDC90A02EE001A31EE810A10EE84
:10302000100A00F500606FF30B0000EE100AC348B1
:1030300071EEC01A31EE812A784400EBC10090EDA8
:10304000003AD0ED011A100101EE100AF8EEC12A83
:1030500032EE211A31EE001A31EE031A31EE221A45
:1030600011EE100A00F500606FF30B0009EE100A74
:1030700039EE621A31EE431A31EE400A30EE610A3F
:1030800032EE40AA10EE900A002100F500606FF3C6
:103090000B0008EE900A084670EEE8AAFDF722FC45
:1030A00029EE280A00F00C01F0EEC00A10EE900A9A
:1030B000B0F18B4F0DDD10EE900AB4EB400F08D34A
:1030C00010EE100A4FF08B4262F31E0008EE900AD9
:1030D00013E069EE2A0A38EEAA1A4AEE010A30EE27
:1030E000201A11EE100A00F500606FF30B0008EED5
:1030F000900A30EE680A70EE209A0C20FDF7F2FB81
:1031000038EEA90AB5EEC00AF1EE10FA34BFFEEEB1
:10311000000AF6EE000A30EE800ABDEEC00A10EE9C
:10312000100A011100EE101AF8EEC00A00EE100AA3
:10313000B8EEC00A38EEC00A30EE290ADFED801A78
:103140009FED801A00EE211ADFED7F1A7F4900F013
:103150000F0040EE011A21EE800A794401EB800154
:1031600091ED001A7A49794401EB8001D1ED001A02
:10317000784901EE801A794401EB8000764990EDA0
:10318000000A31EE001AB0EEE00A10EE100A884292
:1031900015DA10EE100AB4EB400F10D39FED6F0A52
:1031A00030EE800ADFED6E0A20EE200A68EE010A9A
:1031B000BDEC068BBCEEC00A20EE200A10BD10EE5E
:1031C000100A6849884243DA10EE100AB4EB400F47
:1031D0003ED3BDEEE00A68EE010A10EE100A00EBE5
:1031E000D0725110C90501F17E5100EE101AA0EB0A
:1031F0006200C00560EE200A00F17E5000EE100A69
:1032000060EE808A18EE900AB4EB400F0FD10220D6
:1032100000F068FB00F09CFA10EE101A18EE100A8D
:10322000BDEC068B61F31E0000EE100A10BD18EE17
:10323000900A400011D018EE900AFFF7A7FD04286D
:1032400008BF00F08DFAB0EE680ABDEC068B10BD29
:10325000F5EEC00AF1EE10FA0FD2022000F042FBA8
:1032600000F07EFA10EE101A18EE100ABDEC068B74
:1032700061F31E0000EE100A10BD022000F032FBC8
:1032800000F066FA10EE101AB0EE480A10EE100ABE
:10329000BDEC068B61F31E0000EE100A10BD00BFEE
:1032A000BCF1804F6CD300BF00F1FF43B3F1FE4F80
:1032B00024D200BFB0EEC00A10EE100AC1F3C7530B
:1032C0007F2B0DDB972BBFF63BAEC3F196034FF080
:1032D000010C0CFA03F3A3F1010C1CEA010F08D056
:1032E000012000F0FFFABDEC068BBDE8104000F0B5
:1032F00027BA0B4218BFBFEE008A21E643001CBF6D
:103300004FF08073B3EB400F34D96FF01A02DFED4A
:10331000161A20EE210A10EE100A27E00000000025
:10332000001080C0ABAAAA3E0000803D7EE24C3E69
:1033300000B03842D49AB8BB3BAA38428C3C00005B
:10334000FC596337C9FF753A1872313D2A3C0000B9
:103350005E3C0000CE3B00000000FC420000FE424C
:103360000000004B000040430000004D10F0004FF3
:10337000A0D1E5E5A0F50003B3F1FE4F21D2DFE5D2
:1033800003EB4103B3F1007F11D3F5EEC00AF1EE78
:1033900010FA05D1430018BFB4EB400F76D883E78D
:1033A00001F0004141F0FC5100EE901A7CE7B3F1CE
:1033B000807F06D210EE903AA3F5000300EE903A1B
:1033C00072E720F000426FF0FF4C604C02EB0C0300
:1033D000A34210D321F000439C44A4450BD3B0F189
:1033E0007E5F18BF5FEA410C50D0B2F1FF4F98BF2B
:1033F000B3F1FF4F05D9BDEC068BBDE8104000F0DE
:103400009CB9B0F1FF4F0FD0C1F3C7527F2A09DB3F
:10341000972A11DAC2F19602012303FA02F2531E2F
:103420000B4205D0002208E011F0004F55D128E0F2
:103430000A4218BF012200D1022210F5000F13D05A
:1034400028B3B0F1004F26D010F1814F4FD04FF08C
:10345000FE42B2EB400F94BF01200020012202EB9C
:10346000E171884239D10CE011F0004F02D0012AFD
:1034700038D032E0012A02BF9FED350ABDEC068B41
:1034800010BD9FED340ABDEC068B10BD2FE011F08E
:10349000004F0CD121E0B1F1FF4F1ED011F5000F0C
:1034A00005D011F0004F15D00AB1012A08D0022032
:1034B00000F018FABDEC068BBDE8104000F030B902
:1034C000022000F00FFA00F02BF9BDEC068BB1EEF4
:1034D000400A10BD0AB1012A04D0B0EE690ABDEC61
:1034E000068B10BDBDEC068B9FED1B0A10BDBDEC1D
:1034F000068BB7EE000A10BD30EE410AB5EE001A99
:103500009FED172A00EE413AB6EE001A60EE001A5F
:1035100000EE431A61EEC11A9FED101A20EE011A57
:1035200020EE020A9FED0F2A01EE820A71EE001AC8
:1035300011EE900A00F500606FF30B0009EE100A1F
:1035400031EE491A31EE00AA9CE50000FFFF3F0072
:10355000000080FF0000807F0000008000B0B841C4
:10356000D49A38BB3BAAB84110B52DED028BB1EE11
:10357000C08A18EE100A20F00040C0F1FF40C00FD2
:103580000AD010EE100A20F00040C0F1FF40C00F3A
:1035900004BF012000F0A6F9B0EE480ABDEC028B92
:1035A00010BD000000B510EE101A2DED028B81B099
:1035B0004D4A6846B2EB410F3CD94FF0E640B0EBC4
:1035C000410F94BF00204FF0FF3000900098B0EE04
:1035D000408A00285FDB28EE080ADFED440A9FEDF1
:1035E000441A00EE201ADFED430A40EE010A9FED77
:1035F000421A00EE201ADFED410A10F0010F40EEF2
:10360000010A9FED3F1A00EE201A61EE000AB0EEAB
:10361000480A08EE200A02BF01B0BDEC028B00BDD3
:10362000BFEE001A01B0C1EE000ABDEC028BB0EE95
:10363000600A00BD334B21F00042934228D911F0BB
:10364000004FDFED310A20EE201ADFED300A19BFFE
:1036500031EE601A71EE200A31EE201A71EE600A26
:10366000BDEEE01A11EE100A9FED291A00F00300DA
:1036700000EEC10A9FED271A009000EEC10A9FEDEF
:10368000261A00EEC10A9FED251A00EEC10A9DE739
:1036900000F06EF89AE718EE100A4000B0F17F4F84
:1036A0000DD218EE100AFFF771FB042808BF00F0D6
:1036B00057F8B0EE480A01B0BDEC028B00BD09D14D
:1036C000012000F00FF901B0BDEC028B5DF804EBB6
:1036D00000F036B801B0B0EE480ABDEC028B5DF8E0
:1036E00004EB00F027B80000B61F927EBBE9223C35
:1036F0000C6D063B8A76CE3CACB5593D35A1083EF3
:1037000029AAAA3E490E494683F9223F0000004BF0
:103710000000C93F00A0FD390020A2331A61342CFB
:10372000DFED030AB7EE001A81EE200A70470000B1
:103730000000000030EE000A704730EE200A7047AB
:10374000DFED020A80EEA00A7047000000000000D2
:103750009FED020A20EE000A704700000000007092
:103760009FED020A20EE000A7047000000000010E2
:103770002DE9F0014FF07F42B2EB410F9FBF4FF0B8
:10378000FF310160BDE8F00170474FF0004242EAAE
:103790000123C1F3C752783A551112F01F0C434C64
:1037A000CCF120067C44C1F3C752A2F178024FEA63
:1037B000621204EB820254F8254008BFD2E9015698
:1037C00012D0556804FA0CF425FA06F73C439768C2
:1037D00005FA0CF527FA06F8D26807FA0CFCF24055
:1037E00045EA08054CEA0206A4FB034CA5FB03527C
:1037F000A6FB03631D449D4234BF01260026131916
:10380000334416B1934202D903E0934201D201221C
:1038100000E00022624402F1200C9206DC0C42EA35
:10382000443200EE102A5B03DFED210AF8EEC01AE5
:1038300000EE103A4FEA9C1C11F0004FB8EE400A1F
:10384000C0F800C020EE201A00EE105ADFED190A71
:10385000B8EE400A20EE200A71EE810A70EE800A6E
:1038600010EE902A02F500626FF30B0200EE902A30
:1038700070EEE11A31EEC11ADFED101A30EE411A86
:103880009FED0D0A20EE800A01EE210A9FED0C1A31
:1038900000EE810A04BFBDE8F0017047CCF1805111
:1038A0000160BDE8F001B1EE400A704760360000EB
:1038B000000000360000802C22AAFD29DB0FC92F52
:1038C0000000C92F02E008C8121F08C1002AFAD15F
:1038D00070477047002001E001C1121F002AFBD190
:1038E000704700000149086070470000B8000020E0
:1038F0002DE9FF5F82B00021DDE90430020DDDF823
:1039000040B0034318D044F61050A2F2FF324243B5
:103910001514119801281FD0A5EB0B00401C5FEA7D
:10392000000A4FF000064E4FDFF83891B04650467F
:1039300015D5CAF1000413E0119801244AA3012807
:1039400001D16FEA0B010298119AC0E90031C0E978
:10395000024206B0BDE8F09FCBF10000DFE704466D
:103960000021404A491842EB0450CDE9001012E012
:10397000E00707D032463B4640464946FCF77CFD0F
:103980008046894632463B4610461946FCF774FD90
:1039900006460F466410002CEAD1DDE90401DDE99A
:1039A0000023BAF1000F06DAFCF766FD42464B46EB
:1039B000FCF762FD05E0FCF7D1FD42464B46FCF703
:1039C000CDFD04460E460022284BFCF75FFE03D8CF
:1039D0004FF0FF30014607E00022254B20463146DC
:1039E000FCF7A3FCFCF766FF102409E0002C0ADBBF
:1039F0000A220023FCF778FE039B30321A55641E1E
:103A000050EA0102F2D1641C039AC4F11103144478
:103A1000119A012A03D0012208430DD10AE008437C
:103A200004D000204FF0110B119072E7A3EB0B05AF
:103A30006D1E0DE05B4504DD4FF0000205F1010550
:103A400004E003DA4FF00002A5F10105002AECD0F2
:103A500002981199C0E90231C0E9004579E70000F8
:103A6000000014400000F03F300000000000F04370
:103A70000000E03F2DE9FF4F95B09B468946064682
:103A800000250FE2252877D100242746F84A012196
:103A9000059400E0044316F8013F203B01FA03F0CF
:103AA0001042F7D130782A2811D06FF02F033078E8
:103AB000A0F13002092A16D8059A44F0020402EB5C
:103AC000820203EB42021044761C0590EFE759F89E
:103AD000042B0592002A03DA504244F40054059066
:103AE00044F00204761C30782E2816D116F8010F07
:103AF00044F004042A280DD06FF02F023078A0F192
:103B00003003092B09D807EB870302EB4303C718DF
:103B1000761CF3E759F8047B761C30786C280FD0BC
:103B200006DC4C2817D068280DD06A2814D104E090
:103B3000742810D07A280FD10DE044F400140AE064
:103B400044F4801401E044F440147278824202D1BB
:103B500004F58014761C761C307866280BD013DCB4
:103B6000582877D009DC002875D04528F6D046289B
:103B7000F4D047281AD19DE118E0632835D0642895
:103B800079D0652812D195E1702873D008DC6728B8
:103B9000F1D069286FD06E280DD06F2806D1B5E01E
:103BA00073282CD0752875D0782874D05A46179968
:103BB00090476D1C75E1C4F30250022809D0032818
:103BC0000DD0D9F8001004280DD00D6009F10409BA
:103BD00067E1D9F80010EA17C1E90052F6E7D9F811
:103BE00000100D80F2E70D70F0E719F8041B8DF856
:103BF000001000208DF80100EA46012003E059F88A
:103C000004AB4FF0FF3061074FF0000102D40DE02C
:103C100008F101018846B9420FDA8045F8DB1AF84D
:103C200008100029F4D108E008F10101884681421A
:103C3000FADB1AF808100029F6D105985B46A0EBCC
:103C4000080721463846179A00F094FA284400EBFA
:103C5000080507E04DE029E10DE01AF8010B5A468E
:103C600017999047B8F10108F7D25B4621463846CC
:103C7000179A13E142E00A220092C4F302524FF075
:103C8000000A022A08D059F804CB032A4FEAEC7143
:103C90000AD00DE029E02AE009F1070121F007022E
:103CA000F2E802C1914609E00FFA8CFC4FEAEC7190
:103CB000042A03D14FFA8CFC4FEAEC71002907DA91
:103CC0000A460021DCF1000C61EB02012D2202E02A
:103CD000220504D52B228DF80420012203E0E207FF
:103CE00001D02022F7E7904659E00A2102E0102295
:103CF0000DE010214FF0000A00910BE010224FF070
:103D0000000A44F004040827009203E008224FF060
:103D1000000A0092C4F30252022A05D059F804CBDB
:103D20000021032A08D009E009F1070121F0070268
:103D3000F2E802C1914605E01FFA8CFC042A01D189
:103D40000CF0FF0C4FF00008220728D5702806D091
:103D5000009B83F0100353EA0A0305D00EE04022D3
:103D60008DF80420012208E05CEA010206D030222E
:103D70008DF804208DF8050002229046009B83F008
:103D8000080353EA0A030AD15CEA010201D162077F
:103D900005D530228DF804204FF001087F1E5828E9
:103DA00004D034A003900EA802900DE036A0F9E7ED
:103DB00053466046009AFCF797FC84460398825C61
:103DC0000298401E029002705CEA0100F0D1029855
:103DD00006A9081A00F1200A600702D524F48034ED
:103DE00000E00127574502DDA7EB0A0000E00020B4
:103DF00000EB0A01009005984144401A0590E00349
:103E000006D45B462146179A059800F0B3F905449D
:103E1000002706E001A85A46C05D179990476D1C1F
:103E20007F1C4745F6DBE0030CD55B462146179A1D
:103E3000059800F09FF9054404E030205A46179990
:103E400090476D1C0099481E00900029F5DC08E0A1
:103E5000029802995A460078491C02911799904796
:103E60006D1CBAF10001AAF1010AF1DC65E1000064
:103E70000928010030313233343536373839616240
:103E80006364656600000000303132333435363704
:103E900038394142434445460000000000F058F9DB
:103EA0000544761C307800287FF4ECAD19B0284624
:103EB000BDE8F08F620700D4062709F1070222F05F
:103EC000070CFCE80223E14603F000485FEA080C17
:103ED00002D00FF2702C0DE05FEA045C02D50FF205
:103EE000682C07E05FEAC47C02D00FF2602C01E08E
:103EF000AFF2700C4FF0FF3823F00043CDF850C004
:103F000065280CD006DC452809D046281DD0472856
:103F10003DD13DE0662818D067287ED138E00021E9
:103F2000112F01DB112000E0781CCDE9000106A96A
:103F30000EA8FFF7DDFCDDE90F010E9A03910021C9
:103F4000009207F1010A04914DE04FF00040009704
:103F5000CDE9011006A90EA8FFF7CAFCDDE90F02A2
:103F600003920E9B11990022DDF80CA0009304929D
:103F700011B9791C00EB010AB7EB0A0004D4C0F1B7
:103F8000FF3007F1010A0490AAEB0700019044E01A
:103F9000012F00DA01270021112F01DD112000E09F
:103FA0003846CDE9000106A90EA8FFF7A1FCDDE91E
:103FB0000F010E9A0391002104910092BA46210745
:103FC0000CD40399514500DA8A46BAF1010F05DD98
:103FD000009AAAF10101515C302908D0B84202DAF6
:103FE00010F1040F06DA0121CDE9011015E0AAF164
:103FF0000101E9E7002805DC049901440491AAEBDA
:10400000000102E0411C514500DD8A460499401A36
:10401000401C01904FF000400290200704D401980A
:10402000504501DBCDF8048000208DF84F00029848
:104030000DF14F07B0F1004F25D02B200E900298C4
:104040004FF0020800280CDA404202902D200E901A
:1040500007E00A210298FCF731FB3031029007F8A3
:10406000011DB8F10001A8F10108F2DC0298002856
:10407000EFD1791E0E980870307800F0200040F0E3
:10408000450007F8020D12A8C01B00F1070814989C
:10409000007800B1012000EB0A01019801EBE0710A
:1040A00005984144401A401E0590E00306D45B4643
:1040B0002146179A059800F05DF805441498007899
:1040C00018B15A46179990476D1CE00324D55B46FA
:1040D0002146179A059800F04DF805441CE0049815
:1040E000002807DBDDE90301884203DD0098405C1E
:1040F000179901E0179930205A469047049805F126
:104100000105401C04900198401E019004D12E200E
:104110005A46179990476D1CBAF10001AAF1010A9D
:10412000DDDC05E017F8010B5A46179990476D1C26
:10413000B8F10001A8F10108F4DC5B462146179AAA
:104140000598ABE62D0000002B00000020000000C9
:104150002DE9F041044600251E461746880404D484
:1041600005E039462020B0476D1C641EF9D528466D
:10417000BDE8F0812DE9F041044600251E46904639
:10418000C80301D5302700E02027880404D505E0C6
:1041900041463846B0476D1C641EF9D52846BDE837
:1041A000F08110B504460B46B3F9000000EE900A0A
:1041B000F8EEE00AB0EE600A204600F021F9BDEE0C
:1041C000C00A10EE100A00B21880B3F9020000EE27
:1041D000900AF8EEE00AB0EE600A04F11C0000F06C
:1041E0000FF9BDEEC00A10EE100A00B25880B3F904
:1041F000020000EE900AF8EEE00AB0EE600A04F168
:10420000380000F0FDF8BDEEC00A10EE100A00B252
:10421000988010BDFDF704FCFCF788FBFCF7A4FCBC
:104220000BE006480068C0430549C1F8B40200F03D
:10423000A3FB4FF4FA7001F091FCF2E7B4024142A3
:104240000000414200BF00BF00BF00BF00BF00BF71
:1042500000BF00BF00BF00BF00BF00BF00BF00BF66
:1042600000BF00BF00BF00BF00BF00BF00BF00BF56
:1042700000BF00BF00BF00BF00BF00BF00BF00BF46
:1042800000BF00BF00BF00BF00BF00BF00BF00BF36
:1042900000BF00BF00BF00BF00BF00BF704700BF2E
:1042A00000BF00BF00BF00BF00BF00BF00BF00BF16
:1042B00000BF00BF00BF00BF00BF00BF00BF00BF06
:1042C00000BF00BF00BF00BF00BF00BF00BF00BFF6
:1042D00000BF00BF00BF00BF00BF00BF00BF00BFE6
:1042E00000BF00BF00BF00BF00BF00BF00BF00BFD6
:1042F00000BF00BF00BF00BF00BF00BF00BF00BFC6
:1043000000BF00BF00BF00BF00BF00BF00BF00BFB5
:1043100000BF00BF00BF00BF00BF00BF00BF00BFA5
:1043200000BF00BF00BF00BF00BF704700BF00BF9D
:1043300000BF00BF00BF00BF00BF00BF00BF00BF85
:1043400000BF00BF00BF00BF00BF00BF00BF00BF75
:1043500000BF00BF00BF00BF00BF00BF00BF00BF65
:1043600000BF00BF00BF00BF00BF00BF00BF00BF55
:1043700000BF00BF00BF00BF00BF00BF00BF00BF45
:1043800000BF00BF00BF00BF00BF00BF00BF00BF35
:1043900000BF00BF00BF00BF00BF00BF00BF00BF25
:1043A00000BF00BF00BF00BF00BF00BF00BF00BF15
:1043B00000BF00BF00BF00BF00BF00BF00BF00BF05
:1043C00000BF00BF00BF00BF00BF00BF00BF00BFF5
:1043D00000BF00BF00BF00BF00BF00BF00BF00BFE5
:1043E0007047000000BF054A128802F04002002A10
:1043F000F9D0C2B2014B9A80704700000010014012
:10440000B0EE401A90ED052AD0ED002AF0EE411AE8
:1044100042EE621A90ED062AD0ED012A42EE621AAF
:10442000F0EE610A10EE901AC1F3C752FF2A01D0D4
:10443000012200E000220AB9F0EE410AD0ED051A8F
:1044400090ED032A61EE821A90ED022A40EE821A64
:1044500090ED062AD0ED042AB0EE610A02EE220A9F
:10446000D0ED051AC0ED061AC0ED050A704710B56B
:104470002DED028B0446F0EE408AB0EE608A24B146
:10448000B5EEC08AF1EE10FA02D8BDEC028B10BD79
:10449000F0EE480AB0EE680A204600F003F800BFCC
:1044A000F3E7000010B52DED068B0446B0EE409A00
:1044B000F0EE609A89EE290AB0EE40AA9FED2B0A31
:1044C000C0EE0A0AF0EE60AAB0EE6A0AFFF76AF8D8
:1044D000B0EE408A9FED260AFEF76CFCF0EE000A73
:1044E00060EE200AB7EE000A00EE880A08EE080A1D
:1044F000F0EE408A28EE080AC0EE280AC4ED020A4F
:1045000094ED020AF0EE000A20EE200A84ED030A80
:1045100094ED020A84ED040AB7EE000A18EE080AC8
:10452000F0EE000A20EE200AC0EE280AC4ED000AD0
:104530009FED0F0AFEF73EFCF0EE000A60EE200A47
:10454000B7EE000A00EEC80A08EE080AC0EE280A14
:10455000C4ED010A9FED070A84ED050A9FED050AE7
:1045600084ED060ABDEC068B10BD0000DB0F494050
:10457000DB0F493F000000001CB5FCF7A7FA002242
:104580000421032001F02CFD0749086007480121A0
:1045900000238022CDE9001005A1084802F004F8AC
:1045A00001F0D2FB00201CBD0C0000200000002008
:1045B00073746172745F7461736B0000015800085A
:1045C00088B020216846FBF7A5FE12E06846FDF79B
:1045D00015FE10B96846FCF7F5FB0648006808B9F7
:1045E000012000E00020034908604FF4C87001F08A
:1045F000B5FAEBE7B80241422DE9F047044660788E
:10460000217840EA012005B2E078A17840EA012053
:1046100007B26079217940EA012006B2607A217AF6
:1046200040EA01200FFA80F8E07AA17A40EA0120FE
:104630000FFA80F9607B217B40EA01200FFA80FAB3
:10464000534807804580868052480088A9EB0000C7
:1046500000B2514908804F484088A8EB000000B2E2
:1046600048804C488088AAEB000000B28880494B03
:1046700052464146484600F00DF948490870084640
:10468000007820B132462946384600F095F8414876
:10469000B0F90000A0EB090000EE100AB8EEC00A65
:1046A000DFED3F0A20EE200ABDEEC00A10EE100A30
:1046B00000B23C49C8803748B0F90200A8EB0000BE
:1046C00000EE100AB8EEC00ADFED350A20EE200A2F
:1046D000BDEEC00A10EE100A01B2324801812D4829
:1046E000B0F90400AAEB000000EE100AB8EEC00A10
:1046F000DFED2B0A20EE200ABDEEC00A10EE100AF4
:1047000001B228484181811D2748FFF74AFD7842C0
:1047100000EE100AB8EEC00ADFED240A20EE200AEF
:104720002348D0ED000A80EE201ABDEEC10A10EE3B
:10473000100A00B21B49088000EE105AB8EEC00AF9
:10474000DFED1A0A20EE200A1948D0ED000A80EEAB
:10475000201ABDEEC10A10EE100A00B2488000EE29
:10476000106AB8EEC00ADFED110A20EE200A1048E8
:10477000D0ED000A80EE201ABDEEC10A10EE100A3C
:1047800000B288800B48FFF70CFDBDE8F087000001
:10479000260000201000002020000020160000202D
:1047A00000007A3DF8010020100100200000003ACE
:1047B0001C000020BC00002070B52DED028B0446CB
:1047C0000D4616462D480078F0BB00EE904AF8EEF4
:1047D000E00A9FED2B1A60EE810AB0EE600AF0EE5F
:1047E000000AFEF78FFBF0EE408A00EE905AF8EEDA
:1047F000E00A9FED231A60EE810AB0EE600AF0EE47
:10480000000AFEF77FFB78EE808A00EE906AF8EEF1
:10481000E00A9FED1B1A60EE810AB0EE600AF0EE2E
:10482000000AFEF76FFB38EE800AB0EE408AFEF712
:104830009BFE1448D0ED000A30EE200A80ED000AFD
:1048400011480068401C00E012E00F49086008466B
:104850000068C8280CD10B4890ED000ADFED0B0A68
:1048600080EE201A0A4880ED001A012003490870E2
:1048700002480078BDEC028B70BD000032000020C1
:104880000000003A180000203400002000004843D7
:104890001C0000202DE9F04105460E4617461C4637
:1048A0003B46324629460B4800F084FE0948807991
:1048B00010B9084800F078FF0648008820800548B5
:1048C0004088608003488088A08002488079BDE8E5
:1048D000F08100003402002030B5017801F00101C0
:1048E000F1B34478857844EA052421B2C478057987
:1048F00044EA052422B24479857944EA052423B2A6
:1049000000EE101AB8EEC00ADFED180A80EE201A89
:10491000BDEEC10A10EE104A24B2154DAC8100EE76
:10492000102AB8EEC00ADFED110A80EE201ABDEEA3
:10493000C10A10EE104A25B20D4CE58100EE103A86
:10494000B8EEC00ADFED090A80EE201ABDEEC10AFA
:1049500010EE104A25B2064C2582064C218000E05C
:1049600002E06280A38000BF30BD0000CDAC2644D1
:10497000F80100202C0000203EB5154B0E223B21F3
:104980006820FCF747FB1248FFF736FE104B0E334A
:10499000062203210C20FCF73DFB0D480E30FFF7EB
:1049A0009BFF00220B48B0F904000A49B1F902103C
:1049B000084CCDE901020091B4F90030064CB4F97D
:1049C0000420B4F90210B4F90000FBF7F3FF3EBD78
:1049D000B801002020000020260000202DE9F04131
:1049E00005460E461C4807681C480068001D00F07C
:1049F00055FF50B91948006890F82C1001208840E4
:104A000017490968814316480160681C38B936B1F6
:104A100012480168091D134800F07EFF1AE07C1956
:104A20000E4800684460BC4207D20C480168091D6A
:104A30000D48006800F056FF0CE008480168091DA9
:104A40000A48006800F04EFF09480068844201D21D
:104A500007480460BDE8F0815800002044000020B1
:104A60005C000020981B00204C0000204800002023
:104A70007400002010B5044600F05AFF2448006876
:104A8000401C234908602348006840B9214804605D
:104A90000846006801280DD100F0D8F90AE01E4848
:104AA000006838B91B480068C06AE16A884201D8CA
:104AB0001848046019480068401C184908600846F6
:104AC0000068206494F82C1001208840144909687B
:104AD000084313490860E16A01EB8101114A02EBC6
:104AE0008100211D00F018FF00F04CFF0A4800680B
:104AF00068B108480068C06AE16A884207D24FF08E
:104B0000805009490860BFF34F8FBFF36F8F10BD0E
:104B100054000020440000206000002070000020AD
:104B20005C000020E41A002004ED00E010B500F065
:104B3000FFFE10480068D0B90F4800F0C3FE0F48D0
:104B400000F0C0FE0C480E4908600C480D49086092
:104B500000220C210A2001F043FA064908600846A9
:104B6000006820B108A10348006800F0BBFF00F016
:104B700009FF10BD88000020AC1B0020C01B0020D6
:104B80008000002084000020546D7251000000005D
:104B900010B516E000F0CCFE0C48C068C468201DBB
:104BA00000F07CFE0A480068401E09490860094878
:104BB0000068401E0749086000F0E4FE204600F04F
:104BC0005FF8044800680028E4D110BD841B002071
:104BD000540000205000002070B504460D46206CA3
:104BE00070B1216CE0680144E160D4E902108842B0
:104BF00001D32168E1602846226CE168FBF771FB74
:104C000070BD2DE9F04104460F4615464FF00008EF
:104C1000A66B206C48B9206800282CD1A06801F050
:104C2000ADFD80460020A06025E07DB93946226CAC
:104C30006068FBF756FB216C606808446060D4E94B
:104C40000101884217D32068606014E03946226C65
:104C5000E068FBF746FB216CE068411AE1602168DF
:104C6000E068884203D2216CA068411AE160022DFD
:104C700001D106B1761E701CA0634046BDE8F081EC
:104C800010B50446206B00F09BFE204600F098FE15
:104C900010BD00000146084A126812680AB90122D4
:104CA00000E000220A600A6822B9034A1268D2684A
:104CB000106800E0002070478000002030B54FF4FD
:104CC0009633174800F007042CB1C01D20F00700F0
:104CD000134C041B1B1B0246124C22600024114D76
:104CE0006C60D018083820F007000F4C20600024BA
:104CF0000D4D2D686C600C4D2D682C601146441ACA
:104D00004C60094C24680C60084D4C682C60084DC0
:104D10004C682C604FF00044064D2C6030BD000004
:104D2000D41B0020940000209C000020A400002040
:104D3000A0000020A800002000BFFFF729FF0648C0
:104D400000680128F9D94FF0805004490860BFF38A
:104D50004F8FBFF36F8FF0E7E41A002004ED00E0FF
:104D60002DE9F04106460D4617469846069C0DB9BA
:104D7000246000E02760E66325640121204601F0FD
:104D80005DF984F850800020A064BDE8F0812DE931
:104D9000F05F82460E4690469B460A9F0C9C4FEA67
:104DA0008801A522206BFBF7AEFAA8F10100216B68
:104DB00001EB800929F0070909F0070008B9012073
:104DC00000E0002050B900BF502080F31188BFF3ED
:104DD0004F8FBFF36F8F00BF00BFFEE786B1002586
:104DE00007E0715D04F134004155705D00B902E0E7
:104DF0006D1C0A2DF5D300BF00213D20015502E0B6
:104E0000002084F83400052F00D30427E762A7644C
:104E10000020E064201D00F062FD04F1180000F0A5
:104E20005EFD2461C7F10500A06164620020206579
:104E300084F854005A465146484600F0A5FB2060CD
:104E40000B9808B10B980460BDE8F09F10B50024E2
:104E500007E004EB84010F4A02EB810000F032FD11
:104E6000641C052CF5D30C4800F02CFD0B4800F019
:104E700029FD0B4800F026FD0A4800F023FD0A48F2
:104E800000F020FD0448094908600448084908600A
:104E900010BD0000E41A0020481B00205C1B00200D
:104EA000701B0020841B0020981B0020480000205D
:104EB0004C00002010B50146164800E00068036869
:104EC0008B42FBD30246436813448B4204D14368B0
:104ED0004C682344436001460A464B681344046807
:104EE000A34211D10C4C03682468A34208D04B683C
:104EF0000468646823444B6003681B680B6005E02A
:104F0000054B1B680B6001E003680B60884200D012
:104F1000016010BD940000209C0000202DE9F041AC
:104F200004460D4616461F464FF000086560246192
:104F3000B5420CD8F01BA169884202D34FF001089A
:104F400011E0211D0948006800F0CCFC0BE0BE42D6
:104F500004D2BD4202D34FF0010804E0211D0448F1
:104F6000006800F0BFFC4046BDE8F08184000020EE
:104F70008000002070B5054600F0DAFCA86B08B987
:104F8000012400E0002400F0FDFC204670BD70B557
:104F9000054600F0CDFCA86BE96B884201D10124E5
:104FA00000E0002400F0EEFC204670BD2DE9F34146
:104FB0000D460098846C002754B900BF502080F340
:104FC0001188BFF34F8FBFF36F8F00BF00BFFEE7A5
:104FD000A06BE16B884201D2012000E0002050B9B3
:104FE00000BF502080F31188BFF34F8FBFF36F8F46
:104FF00000BF00BFFEE7A06BE16B88421BD294F9B3
:1050000045602A4669462046FFF7FBFD0746701CAF
:1050100060B9606A08B9012000E0002050B904F1CD
:10502000240001F00FFC28B1012703E0701C40B2FE
:1050300084F8450000BF3846BDE8FC81F8B5054658
:105040000F461A480068C068C468201D00F026FC9E
:1050500094F8280000F00400E8B1A06941192B463B
:105060003A462046FFF75AFFD8B1002003462A46A9
:1050700001460090204601F0DFFC064656B900BF0D
:10508000502080F31188BFF34F8FBFF36F8F00BFA5
:1050900000BFFEE705E094F8280020F0010084F846
:1050A00028002046216A8847F8BD000080000020C3
:1050B00070B586B08BE003980028FBDB059C606927
:1050C00008B9012000E0002010B9201D00F0E6FB27
:1050D00002A800F0DDF8054603980A2875D2DFE83B
:1050E00000F009050739416306083A4200BF00BFD6
:1050F00000BF00BF94F8280040F0010084F82800A9
:105100000498A269811803462A462046FFF706FF45
:10511000F8B12046216A884794F8280000F004007E
:10512000B8B1002000900498A169421800231946E4
:10513000204601F081FC064656B900BF502080F39E
:105140001188BFF34F8FBFF36F8F00BF00BFFEE723
:1051500000BF3BE000BF94F8280020F0010084F875
:10516000280033E000BF94F8280040F0010084F8E4
:1051700028000498A061A06908B1012000E0002087
:1051800050B900BF502080F31188BFF34F8FBFF399
:105190006F8F00BF00BFFEE7A06941192B462A466A
:1051A0002046FFF7BBFE11E094F8280000F0020053
:1051B00018B9204600F004FC05E094F8280020F01F
:1051C000010084F8280001E0FFE700BF00BF0022D3
:1051D00003A90448006801F0EDF800287FF46BAFE4
:1051E00006B070BD88000020F8B505460C4600F0FA
:1051F000F5FD684600F04CF80646009820BB44B91F
:10520000B54206D801F06AFB31462846FFF716FF83
:105210001CE03CB10E480068006808B9012000E0BD
:1052200000200446A91B22460A48006800F070FCD2
:1052300001F054FB50B94FF0805007490860BFF3AC
:105240004F8FBFF36F8F01E001F048FBF8BD000006
:10525000840000208800002004ED00E00A4909686D
:10526000096809B9012100E0002121B14FF0FF31A7
:10527000064A116006E004490968C968C868034A1B
:105280004168116070470000480000207400002051
:1052900070B5044601F0C8F9054607480068854224
:1052A00004D200F00BF80120206001E00020206013
:1052B00001480560284670BD900000202DE9F843A4
:1052C00034E025480068C068056823480068C06865
:1052D000C468201D00F0E2FA2046216A884794F84D
:1052E000280000F0040008B3A0694619AE4207D9AF
:1052F00066602461211D1848006800F0F3FA15E08B
:10530000002003462A4601460090204601F094FB07
:10531000074657B900BF502080F31188BFF34F8F65
:10532000BFF36F8F00BF00BFFEE700BF0A480068F1
:10533000006808B9012000E000200028C1D006481C
:10534000D0F8008005480068034908600348C0F8A9
:105350000080BDE8F8830000800000208400002069
:105360000E480068401C08B9012000E0002050B938
:1053700000BF502080F31188BFF34F8FBFF36F8FB2
:1053800000BF00BFFEE700BF502080F31188BFF3CD
:105390004F8FBFF36F8F00BF00BFFEE7AC00002050
:1053A00008B500BF6846FFF775FC04462046009923
:1053B000FFF71AFFFFF77CFEF4E770B5044600F034
:1053C000B7FA94F945501AE0A06C38B10021204694
:1053D000FFF7ECFD88B100F075FC0EE0606A08B9DB
:1053E000012000E0002038B904F1240001F02AFA7D
:1053F00018B100F067FC00E003E0681E45B2002D24
:10540000E2DC00BFFF2084F8450000F0BBFA00F0AA
:105410008FFA94F9445010E0206908B9012000E0A7
:10542000002048B904F1100001F00CFA08B100F0B6
:1054300049FC681E45B200E001E0002DECDC00BF35
:10544000FF2084F8440000F09DFA70BD2DE9F04182
:1054500004464FF0000800F0C1FC4648006808B957
:10546000FFF72CFC44480068204000286BD1D4B1E1
:10547000083404F00700B0B104F00700C0F10800E0
:10548000044404F0070008B9012000E0002050B9EE
:1054900000BF502080F31188BFF34F8FBFF36F8F91
:1054A00000BF00BFFEE7002C4DD0344800688442A6
:1054B00049D8334E3046056801E02E462D686868AD
:1054C000A04202D228680028F7D12A480068854205
:1054D00039D0306800F10808286830606868001B1F
:1054E000102819D92F1907F0070008B9012000E08A
:1054F000002050B900BF502080F31188BFF34F8FB8
:10550000BFF36F8F00BF00BFFEE76868001B7860C5
:105510006C603846FFF7CEFC184968680968081ABD
:10552000164908600846006816490968884203D28F
:1055300012480068134908600F4968680968084301
:1055400068600020286001F0C9F908F0070008B978
:10555000012000E0002050B900BF502080F31188E6
:10556000BFF34F8FBFF36F8F00BF00BFFEE7404612
:10557000BDE8F0819C000020A8000020A0000020D1
:1055800094000020A4000020001F4FF080730360EF
:10559000001F21F001030360001F054B0360143856
:1055A0000260001F6FF002030360203870470000A4
:1055B0006153000830B58468218084686280846803
:1055C000A3808468A41D846000F10C0404F5C05419
:1055D0008568A54204D300F10C0484600124C471E1
:1055E00030BD00002DE9F0438DB005460E4617464C
:1055F000182106A8FAF78EFE18216846FAF78AFEE7
:1056000000245DE004EB440105F10C0030F91110B9
:105610004FEAE17CDDE90632591842EB0C00CDE996
:10562000061004EB440205F10C0101EB4201B1F953
:105630000210CA17DDE9083059185041CDE90810A9
:1056400004EB440305F10C0101EB4301B1F9041033
:10565000CB17DDE90AC01CEB01015841CDE90A1066
:1056600004EB440105F10C0030F8110010FB00F0D0
:10567000C117DDE90032C0185141CDE9000104EB4A
:10568000440105F10C0000EB4100408810FB00F0E4
:10569000C117DDE90232C0185141CDE9020104EB26
:1056A000440105F10C0000EB4100808810FB00F084
:1056B000C117DDE90432C0185141CDE90401641C71
:1056C000B4F5806F9ED3DDE90601A0FB008301FBEA
:1056D000003301FB00314FF4806200234046FAF7AB
:1056E000CFFD0099081A00B23080DDE90810A1FB57
:1056F000018300FB013301FB00314FF480624FF066
:1057000000034046FAF7BCFD0299081A00B2708007
:10571000DDE90A01A0FB008301FB003301FB00313E
:105720004FF480624FF000034046FAF7A9FD049958
:10573000081A00B2B080DDE906211046FAF77DFFB5
:1057400000EE100ADFED170A80EE201ABDEEC10A46
:1057500010EE100A00B23880DDE908211046FAF791
:105760006CFF00EE100ADFED0F0A80EE201ABDEE8E
:10577000C10A10EE100A00B27880DDE90A21104655
:10578000FAF75BFF00EE100ADFED060A80EE201A42
:10579000BDEEC10A10EE100A00B2B8800DB0BDE82F
:1057A000F0830000000080447FB504460025E079C6
:1057B00018B302AA69462046FFF714FFBDF900009E
:1057C000B0F57A6F16DABDF90200B0F57A6F11DA2A
:1057D000BDF90400B0F57A6F0CDABDF8080020803E
:1057E000BDF80A006080BDF80C00A08001250120F2
:1057F000A07101E00020E07100BF284604B070BD38
:105800001CB5044600F094F80D4802210023CA019B
:10581000CDE900100BA10F4800F0C6FE0E48032191
:1058200000234FF48072CDE900100CA10E4800F067
:10583000BBFE0E48006800F0BFF900F0A3F81CBDE5
:105840000400002061747469747564655F74617329
:105850006B00000015420008080000206E72665FB1
:105860007461736B00000000C14500080000002057
:1058700070B505460E4600240BE000BF40210648E7
:10588000FDF760FA0028F9D0295D0348FDF767FAB3
:10589000641CB442F1DB70BD0010014001460A698E
:1058A000D1E901309860D1E901035860506888421D
:1058B00001D188685060002008611068401E1060A7
:1058C0001068704700F1080141604FF0FF318160BE
:1058D00000F10801C16001610021016070470021F1
:1058E0000161704710B502460B685C1C0CB9106969
:1058F00007E002F1080000E04068446824689C4228
:10590000FAD944684C604C68A160886041600A61C3
:105910001468641C146010BD42684A6093688B6010
:10592000936859609160086103685B1C036070476D
:1059300000BF502080F31188BFF34F8FBFF36F8FEC
:1059400000BF0E480068401C0C490860084600680B
:10595000012812D10A480068C0B208B9012000E04D
:10596000002050B900BF502080F31188BFF34F8F43
:10597000BFF36F8F00BF00BFFEE77047AC00002091
:1059800004ED00E00D48006850B900BF502080F3DE
:105990001188BFF34F8FBFF36F8F00BF00BFFEE7CB
:1059A00006480068401E054908600846006820B99E
:1059B000002080F3118800BF00BF7047AC000020BA
:1059C00070B506463546002E3FD0083D2C461F498F
:1059D00060680968084008B1012000E0002050B963
:1059E00000BF502080F31188BFF34F8FBFF36F8F3C
:1059F00000BF00BFFEE7206808B9012000E00020DA
:105A000050B900BF502080F31188BFF34F8FBFF310
:105A10006F8F00BF00BFFEE70C496068096808404F
:105A200098B1206888B9094960680968884360604E
:105A300000F0D4F906496068096808440449086020
:105A40002046FFF737FA00F049FF70BDA80000209C
:105A5000A000002000204FF0E0210861886102488A
:105A600048610720086170473F90020070B5FAF75F
:105A7000F1FB0446102C16D304F1E02090F8F0530B
:105A800015480078854201DB012000E0002050B974
:105A900000BF502080F31188BFF34F8FBFF36F8F8B
:105AA00000BF00BFFEE70D48006800F4E0600C494D
:105AB0000968884201D8012000E0002050B900BFE9
:105AC000502080F31188BFF34F8FBFF36F8F00BF5B
:105AD00000BFFEE770BD0000B00000200CED00E04C
