:020000040800F2
:10000000B05001205D0200086D210008110F0008AA
:10001000692100087B0B0008F72F00080000000092
:100020000000000000000000000000009D0100082A
:10003000D50B000800000000F90100084D29000858
:1000400077020008770200087702000877020008AC
:10005000770200087702000877020008770200089C
:10006000770200087702000877020008770200088C
:10007000770200087702000877020008770200087C
:10008000770200087702000877020008770200086C
:10009000770200087702000877020008D90B0008F1
:1000A000770200087702000877020008770200084C
:1000B00077020008E12A00087702000877020008AA
:1000C000770200087702000877020008770200082C
:1000D000770200087702000877020008770200081C
:1000E000770200087702000877020008770200080C
:1000F00077020008770200087702000877020008FC
:1001000077020008770200087702000877020008EB
:1001100077020008770200087702000877020008DB
:1001200077020008770200087702000877020008CB
:1001300077020008770200087702000877020008BB
:1001400077020008770200087702000877020008AB
:10015000770200087702000877020008770200089B
:10016000770200087702000877020008770200088B
:1001700077020008770200087702000800000000FC
:100180007702000877020008DFF80CD000F0DAFBF5
:100190000048004771540008B05001202C4B1968EA
:1001A0000868B0E8F04F80F30988BFF36F8F4FF015
:1001B000000080F3118870470000000008480068C4
:1001C000006880F308884FF0000080F3148862B65E
:1001D00061B6BFF34F8FBFF36F8F00DF00BF00BF6B
:1001E00008ED00E0DFF80C00016841F470010160E7
:1001F000704700BF88ED00E0EFF30980BFF36F8F19
:10020000134B1A681EF0100F08BF20ED108A20E96A
:10021000F04F106009B44FF0500080F31188BFF325
:100220004F8FBFF36F8F07F0FFF94FF0000080F39F
:10023000118809BC19680868B0E8F04F1EF0100F6B
:1002400008BFB0EC108A80F30988BFF36F8F704746
:1002500064010020EFF305807047000006488047E6
:1002600006480047FEE7FEE7FEE7FEE7FEE7FEE79B
:10027000FEE7FEE7FEE7FEE7792A000889010008AD
:100280002DE9F0410024061B254671F1000605DA30
:1002900001240027D0EB070067EB0101161E73F164
:1002A000000605DA0027D2EB0702012567EB0303FE
:1002B00000F02FFA86460E4617469C46AC4204D004
:1002C0000025D0EB050E65EB010624B10020D2EB32
:1002D000000760EB030C704631463A466346BDE8C2
:1002E000F08140EA01039B0703D009E008C9121F0F
:1002F00008C0042AFAD203E011F8013B00F8013BE0
:10030000521EF9D27047D2B201E000F8012B491E0B
:10031000FBD270470022F6E710B513460A460446A2
:100320001946FFF7F0FF204610BD2DE9FE4F80462D
:1003300081EA0300C00F0C46009021F0004123F039
:100340000045B8EB0200A94105D24046214690463F
:100350001C460B46024623F00040104347D0270DB1
:10036000C7F30A00C3F30A510290401A01904028D3
:100370006BDAC3F3130040F4801B0098924620B15F
:100380000023D2EB030A63EB0B0B01985946C0F133
:100390004002504600F0EEF906460D4650465946DA
:1003A000019A00F0F6F910EB08006141002487EA99
:1003B000115284EAE7731A4340D0009A62B3019A5B
:1003C000012A4FEA075215DC001B61EB02014FF0D6
:1003D000004202EA0752CDE90042001C41F58011BB
:1003E00032462B4600F02DFA03B0BDE8F08F4046B0
:1003F0002146F9E7001B61EB0201001C41F5801367
:1004000000185B412018A2F5001747EB030140EAF2
:10041000D570B6196D4111E06D084FEA360645EA10
:10042000C0754FEA0752001B61EB0201001C41F549
:10043000801149084FEA30000019514132462B46DD
:1004400003B0BDE8F04F00F0EDB900980122400084
:100450000023D0EB020263EBE073009821464FEAE1
:10046000E074B8EB000061EB0401E9E783F00043BE
:100470005BE781F0004158E72DE9FE4F81EA030474
:1004800004F0004421F0004100944FF0000B23F0F1
:10049000004350EA01045ED052EA03045BD0C3F388
:1004A0000A54C1F30A552C44A4F2F3340194A0FB7E
:1004B0000254C1F3130141F48011C3F3130343F455
:1004C000801301FB024400FB034E840A970A44EAAE
:1004D000815447EA8357A4FB076802958D0A05FB00
:1004E00007854FEA932C04FB0C542705029D4FEA25
:1004F000065847EA1637B5EB08056EEB070C870E72
:10050000920E47EA811742EA8312A7FB0201B6EB7B
:100510000B0164EB00042B0D43EA0C335E1844EB33
:100520001C50DA465146E7FB0201C5F313044FEABB
:100530000B3343EA14534FEA0432019C43EA0603A7
:10054000A4F10C040294009CCDE900B400F079F908
:1005500003B0BDE8F08F00200146F9E72DE9F04D2A
:1005600081EA030404F0004B21F0004514464FF0EB
:10057000000A23F0004150EA050220D054EA0102AB
:100580001DD0C5F30A570246C5F31303C1F3130088
:10059000C1F30A5640F4801543F48013A7EB060814
:1005A000101BD64608F2FD3873EB050002D308F1A4
:1005B000010801E092185B41B8F1000F03DA002056
:1005C0000146BDE8F08D00204FF4801106468446B8
:1005D0000EE0171B73EB050705D3121B63EB050336
:1005E00006434CEA010C49084FEA300092185B417F
:1005F00050EA0107EDD152EA030012D082EA04006A
:1006000083EA0501084305D0101BAB4106D2012245
:10061000002306E000224FF0004302E06FF00102E9
:1006200053101AEB06004CEB085110EB0A0041EB9B
:100630000B01BDE8F04D00F0F5B8F0B4CA17CB0FD0
:1006400050405140C61841F100054FEAC37231468F
:1006500028004FF0960303D0B623F0BC00F0B4B8E6
:1006600030460021F9E70EB5C10F80EAE07008447A
:10067000CA07002140F233438DE80E000A460B46BC
:1006800000F0DFF803B000BD00F0004230F00040A1
:100690000AD0C10D01F56071C0F3160042EA0151A4
:1006A000C20840071143704700200146704701F01F
:1006B000004330B421F0004150EA010206D00A0D97
:1006C000A2F56072C1F31301002A02DC30BC0020E5
:1006D0007047440F44EAC104C100E01830BC00EB8D
:1006E000C25000F068B830B50B4601460020202209
:1006F000012409E021FA02F59D4205D303FA02F52F
:10070000491B04FA02F52844151EA2F10102F1DC8E
:1007100030BD2DE9F05F0546002092469B46884695
:100720000646814640241BE028464146474622466D
:1007300000F01AF953465A46C01A914110D3114697
:100740001846224600F016F82D1A67EB01084F46AE
:1007500022460120002100F00DF817EB00094E4160
:10076000201EA4F10104DFDC484631462A464346F8
:10077000BDE8F09F202A04DB203A00FA02F10020B5
:1007800070479140C2F1200320FA03F319439040CF
:100790007047202A06DBCB17203A41FA02F043EAE1
:1007A000E07306E041FA02F3D040C2F1200291402A
:1007B0000843194670470029A8BF7047401C4900EC
:1007C00008BF20F00100704710B4B0FA80FC00FAB6
:1007D0000CF050EA010404BF10BC704749B1CCF1E1
:1007E000200421FA04F411FA0CF118BF012121436D
:1007F0000843A3EB0C01CB1D4FEA00614FEA102028
:1008000042BF002010BC704700EBC35010440029C9
:10081000A4BF10BC7047401C490008BF20F0010075
:1008200010BC704710B5141E73F1000408DA401CA8
:1008300041F1000192185B411A4301D120F00100FF
:1008400010BD2DE9F04D92469B4611B1B1FA81F2EF
:1008500002E0B0FA80F220329046FFF78BFF0446A8
:100860000F4640EA0A0041EA0B0153465A46084344
:1008700013D0114653EA010019D0C8F14002504686
:1008800000F072F805460E46504659464246FFF7BC
:1008900071FF084305D0012004E020463946BDE839
:1008A000F08D0020054346EAE0762C4337430A9852
:1008B0006305E40AA0EB08000022FD0A44EA47545D
:1008C0000A3002D500200146E9E701051019694107
:1008D000DDE9084500196941BDE8F04DA2E7C1F323
:1008E0000A52C1F3130140F2FF3341F480119A42DE
:1008F00002DA00200146704740F233439A42A2F2E6
:10090000334202DC524200F02FB8FFF733BF000041
:1009100030B5041E71F1000404DB4FF00044404286
:1009200064EB0101141E73F1000405DB1C464FF05B
:100930000043524263EB0403994208BF904230BD2A
:1009400000207047064C074D06E0E06840F00103C8
:1009500094E8070098471034AC42F6D3FFF718FC30
:10096000108A0008308A0008202A04DB203A21FA85
:1009700002F00021704721FA02F3D040C2F12002B8
:10098000914008431946704770B58C1810F8015B08
:1009900015F0070301D110F8013B2A1106D110F818
:1009A000012B03E010F8016B01F8016B5B1EF9D11C
:1009B0002B0705D40023521E0DD401F8013BFAE7A2
:1009C00010F8013BCB1A921C03E013F8015B01F80D
:1009D000015B521EF9D5A142D8D3002070BD0000A2
:1009E00010B5002400210C2000F0F2FB0446142076
:1009F00006F0EEFB482C11D10BA002F0FFFA012209
:100A00000B210C2000F0E9FD322006F0E1FB112261
:100A10000A210C2000F0E1FD002010BD0AA002F028
:100A2000EDFA0120F9E70000414B3839363320490F
:100A3000324320436F6E6E656374696F6E205B4F47
:100A40004B5D2E0D0A000000414B383936332049EA
:100A5000324320436F6E6E656374696F6E205B4630
:100A600041494C5D2E0D0A002DE9FF411E46002430
:100A700000250027AA222146641C2B484254FF224D
:100A80002146641C425403222146641C425407221E
:100A90002146641C42549DF800202146641C4254A7
:100AA0009DF801202146641C42549DF804202146F3
:100AB000641C42549DF805202146601CC4B21A48AB
:100AC00042549DF808202146601CC4B21648425486
:100AD0009DF809202046611CCCB213490A542046D7
:100AE000611CCCB210490E54002007E00E49095C8D
:100AF0002944CDB27919CFB2411CC8B20A49C9788C
:100B0000091D8142F2DC2046611CCCB206490D541D
:100B10002046611CCCB204490F542146024806F01D
:100B2000E1F9BDE8FF810000EC01002010B50723CA
:100B3000022208214FF4A87001F03EFE42F2CF01DC
:100B400041F63F7000F090FE4FF4FA71042000F07F
:100B5000BFFE4FF4E131542002F0CCF900F0E4FE86
:100B600000F034FE00F0B8FB00F08EFD00F0FEFE59
:100B700000F018F801F08AFB10BD00BFFEE703B5D6
:100B80009DF801009DF8021001449DF80300014406
:100B90009DF8040001449DF805000844C043C0B21C
:100BA0000CBD0000FE20094908700020487008466E
:100BB0000021C0F80210FF20044988710448002178
:100BC000016041608160C160704700001400002036
:100BD000DC0100207047000008B5002000902020B4
:100BE00000F012F838B169460348006807F01AF8B7
:100BF000202000F003F808BD6001002001490860D2
:100C000070470000143C014001460020034A12686E
:100C10000A400AB1012000E000207047143C014066
:100C2000002123498279002A3AD00A4612680368D3
:100C30009A430B461A600A1D126803689A430B1DFB
:100C40001A60027911440A6803681A430A60184A54
:100C50000832126803689A43154B08331A601A1D4C
:100C6000126803689A43124B0C331A604279102AB7
:100C70000ED11A1F126803681A430D4B08331A600D
:100C80001A1D126803681A43094B0C331A600DE0F1
:100C90000749427911440A6803681A430A6005E06B
:100CA000027911440A6803689A430A607047000099
:100CB000003C014010B5002422E0C4EBC401124AFC
:100CC00002EB8100DFED110A9FED110A04F04CFBED
:100CD000C4EBC4010F4A02EB8100F3EE0E0A9FED54
:100CE0000C0A04F041FBC4EBC4010B4A02EB810087
:100CF000F3EE040A9FED060A04F036FB601CC4B252
:100D0000032CDADB10BD0000A40200200000A0428A
:100D100000007A4450020020F802002030B5CC10C8
:100D200000F1200353F824304C07E50E0F24AC40AB
:100D3000A343CD1000F1200444F82530CC1000F17D
:100D4000200353F824304C07E40E02FA04F4234342
:100D5000CD1000F1200444F8253030BDF0B50A462E
:100D600000210023002400BF3DE0012505FA01F326
:100D7000156805EA03049C4234D105684F00032638
:100D8000BE40B543056015794E00B5400668354351
:100D900005601579012D02D01579022D16D18568CF
:100DA0004F000326BE40B543856055794E00B540DF
:100DB000866835438560456801268E40B5434560A9
:100DC000456896798E40B6B235434560C5684F0098
:100DD0000326BE40B543C560D5794E00B540C66810
:100DE0003543C560491C1029BFD3F0BDF0B50023C1
:100DF00000244D07ED0E02FA05F3CE1000F1200598
:100E000055F826504E07F70E0F26BE40B543CF10BB
:100E100000F1200646F82750CE1000F1200555F8C5
:100E2000265045EA0304CE1000F1200545F826407F
:100E3000F0BD2DE9F0470C46DDE9086700210025EB
:100E40008C4600BF60E04FF0010808FA01F504EAA3
:100E5000050CAC4557D1D0F800804FEA410A4FF05D
:100E6000030909FA0AF928EA0908C0F80080D0F84D
:100E700000804FEA410902FA09F948EA0908C0F876
:100E80000080012A01D0022A27D1D0F808804FEA39
:100E9000410A4FF0030909FA0AF928EA0908C0F8DB
:100EA0000880D0F808804FEA410906FA09F948EAB3
:100EB0000908C0F80880D0F804904FF0010808FA3B
:100EC00001F829EA0809C0F80490D0F8048003FA70
:100ED00001F948EA0908C0F80480D0F80C804FEA0C
:100EE000410A4FF0030909FA0AF928EA0908C0F88B
:100EF0000C80D0F80C804FEA410907FA09F948EA5A
:100F00000908C0F80C80491C10299CD3BDE8F08763
:100F100000BFFEE700B500200E4908600E480068DB
:100F200020F440400C4908600846006840F48040C6
:100F3000086000200949C1F89C0203F016FE012058
:100F40000449086003F011FE00200449C1F898022A
:100F500000BD0000988240420004024000804042F0
:100F600000B500200E4908600E48006820F440409B
:100F70000C4908600846006840F480400860002082
:100F80000949C1F89C0203F064FE0120044908608D
:100F900003F05FFE00200449C1F8980200BD000084
:100FA00098824042000402400080404200B5002088
:100FB0000E4908600E48006820F440400C49086063
:100FC0000846006840F48040086001200949C1F8E3
:100FD0009C0203F0CAFD01200449086003F0C5FD2E
:100FE00000200449C1F8980200BD000098824042E8
:100FF000000402400080404200B500200E49086015
:101000000E48006820F440400C490860084600681B
:1010100040F48040086001200949C1F89C0203F0B7
:1010200018FE01200449086003F013FE0020044963
:10103000C1F8980200BD00009882404200040240BE
:101040000080404270B5054600241548006820F431
:10105000404013490860084600680860002614E014
:1010600000201049086003F080FD01200E49C1F8FE
:1010700098026006040E0B487C38006808B1601CBA
:10108000C4B203F072FD701CC6B2082EE8DB15B9BD
:10109000FFF78CFF01E0FFF73DFF204670BD000029
:1010A00000040240988240420080404270B50546EC
:1010B00000241548006820F44040134908600846A1
:1010C00000680860002614E000201049086003F062
:1010D000C0FD01200E49C1F898026006040E0B48BD
:1010E0007C38006808B1601CC4B203F0B2FD701C0B
:1010F000C6B2082EE8DB15B9FFF77EFF01E0FFF767
:101100002FFF204670BD000000040240988240423C
:10111000008040422DE9F04106460F4614461D4628
:1011200000F004F9002141EA4601C8B200F074F869
:1011300000F08CF920B100F041F90120BDE8F08108
:10114000384600F069F800F081F900F0EFF801216D
:1011500001EB4601C8B200F05FF800F077F90DE04E
:10116000012C04D10020FFF76DFF287003E001205F
:10117000FFF768FF2870601EC4B26D1C002CEFD111
:1011800000F01CF90020D9E770B504460D4600F0C8
:10119000CDF8002141EA4401C8B200F03DF800F06A
:1011A00055F9284600F038F800F050F900F0BEF884
:1011B000012101EB4401C8B200F02EF800F046F91D
:1011C0000020FFF73FFF064600F0F8F8304670BDFC
:1011D00070B504460D4600F0CDF8002141EA440107
:1011E000C8B200F049F800F061F9284600F044F870
:1011F00000F05CF900F0BEF8012101EB4401C8B237
:1012000000F03AF800F052F90020FFF74FFF0646D1
:1012100000F0F8F8304670BD00B5144A126822F4A8
:101220004042124B1A601A46126842F480421A6019
:1012300000220F4B1A60002114E0C2090C4B1B1D49
:101240001A604206100E03F090FC0122094BC3F80D
:10125000982203F08AFC0022054B1A6003F085FCFB
:101260004A1CD1B20829E8DB00BD0000000402409E
:10127000988240420080404200B5144A126822F42D
:101280004042124B1A601A46126842F480421A60B9
:1012900000220F4B1A60002114E0C2090C4B1B1DE9
:1012A0001A604206100E03F0D4FC0122094BC3F869
:1012B000982203F0CEFC0022054B1A6003F0C9FC13
:1012C0004A1CD1B20829E8DB00BD0000000402403E
:1012D000988240420080404270B50024002500BF43
:1012E00013E000F023F8002141EA4401C8B2FFF7FF
:1012F00093FF00F0ABF805461DB9214606A001F0AA
:101300007DFE00F05BF8601CC4B2FF2CE9DB06A098
:1013100001F074FE70BD00004949435F41444452EE
:1013200031203D20307825780D0A000000B50E48A8
:10133000006820F440400C4908600846006840F40A
:10134000804008600120094908600949C1F89802F5
:1013500003F00BFC00200549086003F006FC0020A8
:101360000349C1F8980200BD000402409C8240423B
:101370000080404200B50E48006820F440400C490F
:1013800008600846006840F4804008600120094970
:1013900008600949C1F8980203F05BFC0020054988
:1013A000086003F056FC00200349C1F8980200BD14
:1013B000000402409C8240420080404200B50E483A
:1013C000006820F440400C4908600846006840F47A
:1013D000804008600020094908600949C1F89C0262
:1013E00003F0C3FB0120054908600549C1F89C02D0
:1013F00003F0BBFB00BD00000004024098824042A5
:101400000080404200B50E48006820F440400C497E
:1014100008600846006840F48040086000200949E0
:1014200008600949C1F89C0203F013FC012005493A
:1014300008600549C1F89C0203F00BFC00BD0000E8
:1014400000040240988240420080404210B50024CF
:101450001348006820F440401149086008460068BD
:10146000086001200F49086003F07FFB01200E494E
:10147000C1F8980203F079FB07E0601CC4B2322C7B
:1014800003DDFFF79BFF012010BD06488038006890
:101490000028F2D10349091F086000BFF4E70000EB
:1014A000000402409C8240420080404210B500246B
:1014B0001348006820F4404011490860084600685D
:1014C000086001200F49086003F0C3FB01200E49AA
:1014D000C1F8980203F0BDFB07E0601CC4B2322CD7
:1014E00003DDFFF78FFF012010BD0648803800683C
:1014F0000028F2D10349091F086000BFF4E700008B
:10150000000402409C824042008040422DE9F041AC
:101510000746884614461E4641463846FFF734FEC5
:1015200005461EB10120A040284303E00121A1404F
:1015300025EA0100C5B22A464146384600F027F8A0
:10154000BDE8F0812DE9F04781468A4615461C46E4
:10155000089E51464846FFF717FE07460120A04067
:10156000401E291B491C884000F0FF08281B401C16
:1015700006FA00F0C6B206EA080627EA080737436B
:101580003A465146484600F002F8BDE8F08770B58B
:1015900004460D461646FFF7C9FE002141EA440104
:1015A000C8B2FFF739FEFFF751FF18B1FFF706FF8A
:1015B000012070BD2846FFF72FFEFFF747FF30469A
:1015C000FFF72AFEFFF742FF18B1FFF7F7FE0120F1
:1015D000EFE7FFF7F3FE0020EBE770B504460D469A
:1015E0001646FFF7C7FE002141EA4401C8B2FFF7E3
:1015F00043FEFFF75BFF18B1FFF704FF012070BD4A
:101600002846FFF739FEFFF751FF3046FFF734FE5B
:10161000FFF74CFF18B1FFF7F5FE0120EFE7FFF7EA
:10162000F1FE0020EBE7000000B5144A126822F03A
:10163000C002124B1A601A46126842F040021A6049
:1016400000220F4B1A60002114E0C2090C4B1B1D35
:101650001A604206100E03F0B5FA0122094BC3F8D6
:10166000882203F0AFFA0022054B1A6003F0AAFAB1
:101670004A1CD1B20829E8DB00BD0000001002407E
:10168000880242420000424270B50024002500BF9B
:1016900013E000F023F8002141EA4401C8B2FFF74B
:1016A000C3FF00F063F805461DB9214606A001F00E
:1016B000A5FC00F037F8601CC4B2FF2CE9DB06A0E3
:1016C00001F09CFC70BD0000494943325F41444435
:1016D00052203D20307825780D0A000000B50E48D4
:1016E000006820F0C0000C4908600846006840F01F
:1016F000400008600120094908600949C1F88802D2
:1017000003F060FA00200549086003F05BFA00204E
:101710000349C1F8880200BD001002408C02424219
:101720000000424200B50E48006820F0C0000C499D
:1017300008600846006840F0400008600020094941
:1017400008600949C1F88C0203F03CFA0120054900
:1017500008600549C1F88C0203F034FA00BD0000AE
:1017600000100240880242420000424210B50024AC
:101770001348006820F0C00011490860084600685E
:10178000086001200F49086003F01CFA01200E498F
:10179000C1F8880203F016FA07E0601CC4B2322CCC
:1017A00003DDFFF7BFFF012010BD06488038006849
:1017B0000028F2D10349091F086000BFF4E70000C8
:1017C000001002408C024242000042421CB501213E
:1017D000022000F0CDFE0121102000F0C9FEC02043
:1017E000009001208DF8040000208DF806000320F1
:1017F0008DF8050001208DF8070069461048FFF7B5
:10180000ADFA01200F4908600F49C1F89C020C2075
:10181000009001208DF8040000208DF806000320C0
:101820008DF8050001208DF8070069460748FFF78D
:1018300095FA0120064908600649C1F88C021CBDD2
:101840000004024098824042008040420010024062
:1018500088024242000042424CF6CC4001490860F6
:1018600070470000003000407FB505460C4601215E
:10187000022000F08DFE0295ADF804400020ADF886
:101880000C00ADF806008DF80E0001A90D4801F01E
:10189000EFFA012211460B4801F035FA01210948FF
:1018A00001F03DF91D208DF8000001208DF80300A6
:1018B00000208DF801008DF80200684600F01CFE43
:1018C0007FBD00000004004010B500F013F810BD0B
:1018D00070B505460C4645F2555000F01FF82846F5
:1018E00000F010F8204600F013F800F003F8FFF7BE
:1018F000B3FF70BD4AF6AA20014908607047000096
:10190000003000400149486070470000003000404E
:1019100001498860704700000030004001490860BC
:1019200070470000003000401CB50C48006840F0D3
:1019300004000A490860012000210B460246CDE957
:1019400000104FF4C0410648FFF773FA0120054923
:1019500008600549C1F8B8021CBD000030380240DB
:1019600000080240B40241420000414200B58BB081
:10197000634801F0EFF8634801F0ECF8624801F0C9
:10198000E9F8624801F0E6F801214FF0011000F09B
:101990001FFE01210C2000F0FBFD0121192000F0A9
:1019A000E7FD02208DF8280000208DF82A008DF830
:1019B0002B0003208DF829000220099009A9544822
:1019C000FFF7CCF92020099009A95248FFF7C6F982
:1019D0004FF48050099009A94F48FFF7BFF94FF421
:1019E0008070099009A94A48FFF7B8F902220C2132
:1019F0004948FFF7FBF9032205214648FFF7F6F9AE
:101A0000022201214248FFF7F1F901220821404852
:101A1000FFF7ECF9A720ADF818000020ADF8200082
:101A2000ADF81A004FF6FF70079000208DF82200E5
:101A300006A9364801F01CFA06A9314801F018FA47
:101A40005320ADF8180006A92E4801F011FA06A996
:101A50002D4801F00DFA6020ADF804000120ADF82A
:101A600006000020ADF81000ADF80800ADF8140035
:101A7000039001A9254801F04FF90821234801F0FE
:101A800089F90121214801F03BF801211F4801F0AB
:101A900046F801A91A4801F03FF90821184801F059
:101AA00079F90121164801F02BF80121144801F0C1
:101AB00036F80121124801F03EF801A9114801F061
:101AC0002BF908210F4801F065F901210D4801F0BB
:101AD00017F801210B4801F022F801A90A4801F08A
:101AE00063F90821084801F0B1F90121064801F025
:101AF00007F80121044801F012F80BB000BD000006
:101B00000000014000080040000C0040004001407F
:101B10000000024000100240000C024038B5FF24D3
:101B2000012307226B216820FFF7F0FC142005F049
:101B30004FFB75216820FFF727FB0446712C50D11D
:101B40002AA001F05BFA002306226B216820FFF730
:101B5000DDFC0A2005F03CFB0120032302226B215F
:101B600000906820FFF7EEFC0A2005F031FB00230F
:101B700003226B216820FFF7C9FC0022382168206E
:101B8000FFF705FD01231A4637216820FFF7BEFC49
:101B90000320022304221B2100906820FFF7D2FCBF
:101BA0000320022304221C2100906820FFF7CAFCB6
:101BB0000320022300221D2100906820FFF7C2FCB1
:101BC000002219216820FFF7E2FC022003230246CD
:101BD0001A2100906820FFF7B5FC00F081F8002082
:101BE00038BD0AA001F00AFA0120F9E74D50553935
:101BF0003235302049324320436F6E6E656374691D
:101C00006F6E205B4F4B5D2E0D0A00004D50553915
:101C10003235302049324320436F6E6E65637469FC
:101C20006F6E205B4641494C5D2E0D0A000000009E
:101C300010B52DED0A8B84B0F0EE408AB0EE609ABC
:101C4000B0EE418A0446B4EEE88AF1EE10FA04D30D
:101C5000B4EEC98AF1EE10FA20DD18EE100AFEF794
:101C600013FD41EC1A0B19EE100AFEF70DFD41ECC5
:101C70001B0B18EE900AFEF707FD41EC1C0B8DEDD7
:101C800002AB8DED00BB53EC1C2B214604A001F0F0
:101C9000B5F9002004B0BDEC0A8B10BD0120F9E7B6
:101CA00053656C662074657374202573205B464110
:101CB000494C5D2E206C6F773A2025302E32662CF1
:101CC00020686967683A2025302E32662C206D65C1
:101CD0006173757265643A2025302E32660A000001
:101CE00030B59FB000201D901E9016901790189050
:101CF0001390149015901090119012900D900E90DA
:101D00000F90002519216820FFF73EFA8DF86C002E
:101D10001A216820FFF738FA8DF86D001B21682022
:101D2000FFF732FA8DF86E001D216820FFF72CFABC
:101D30008DF86F001C216820FFF726FA8DF87000DF
:101D4000002219216820FFF722FC02221A216820B4
:101D5000FFF71DFC0120A840C2B21B216820FFF73D
:101D600016FC02221D216820FFF711FC0120A8406B
:101D7000C2B21C216820FFF70AFC002448E01DAB1A
:101D800006223B216820FFF7C5F99DF875009DF8F4
:101D9000741040EA012000B21399084413909DF892
:101DA00077009DF8761040EA012000B214990844AB
:101DB00014909DF879009DF8781040EA012000B257
:101DC0001599084415901DAB062243216820FFF7A2
:101DD000A1F99DF87400000200B29DF87510084347
:101DE0001699084416909DF87600000200B29DF8FE
:101DF000771008431799084417909DF8780000025F
:101E000000B29DF879100843189908441890641C92
:101E1000C82CB4DB002412E013A850F82400C82119
:101E200090FBF1F013A941F8240016A850F8240003
:101E3000C82190FBF1F016A941F82400641C032C82
:101E4000EADBE0221C216820FFF7A1FBE0221B2136
:101E50006820FFF79CFB192005F0BAF9002448E040
:101E60001DAB06223B216820FFF754F99DF8750051
:101E70009DF8741040EA012000B2109908441090B7
:101E80009DF877009DF8761040EA012000B2119984
:101E9000084411909DF879009DF8781040EA0120DF
:101EA00000B21299084412901DAB0622432168200B
:101EB000FFF730F99DF875009DF8741040EA012095
:101EC00000B20D9908440D909DF877009DF87610AA
:101ED00040EA012000B20E9908440E909DF8790066
:101EE0009DF8781040EA012000B20F9908440F9045
:101EF000641CC82CB4DB002412E010A850F82400A5
:101F0000C82190FBF1F010A941F824000DA850F869
:101F10002400C82190FBF1F00DA941F82400641CB5
:101F2000032CEADB00221C216820FFF730FB002293
:101F30001B216820FFF72BFB192005F049F90D2123
:101F40006820FFF721F98DF864000E216820FFF763
:101F50001BF98DF865000F216820FFF715F98DF842
:101F6000660000216820FFF70FF98DF86700012156
:101F70006820FFF709F98DF8680002216820FFF753
:101F800003F98DF86900002411E019A8005D48B13B
:101F900019A8005D401E624931F8100007A941F8F8
:101FA000240003E0002007A941F82400641C062C4B
:101FB000EBDB002444E010A850F8240013A951F8EA
:101FC0002410401A07A951F82410401A00EE100AF4
:101FD000B8EEC00ADFED530A60EE200A07A850F8F9
:101FE000240000EE100AB8EEC00A80EE801A04A8A1
:101FF00000EB840080ED001A0DA850F8240016A90B
:1020000051F82410411A07AAE01C52F82000081ABF
:1020100000EE100AB8EEC00ADFED420A60EE200AB8
:1020200007A9E01C51F8200000EE100AB8EEC00A23
:1020300080EE801A01A800EB840080ED001A641C79
:10204000032CB8DB9DF86C2019216820FFF79FFA5C
:102050009DF86D201A216820FFF799FA9DF86E20EF
:102060001B216820FFF793FA9DF86F201D2168203F
:10207000FFF78DFA9DF870201C216820FFF787FA82
:102080009DED010AB0EE401A27A0F2EE0C0ABAEE5E
:102090000C0AFFF7CDFDE8B39DED020AB0EE401A41
:1020A00023A0F2EE0C0ABAEE0C0AFFF7C1FD88B3CA
:1020B0009DED030AB0EE401A1FA0F2EE0C0ABAEE34
:1020C0000C0AFFF7B5FD28B39DED040AB0EE401AE7
:1020D0001BA0F2EE0C0ABAEE0C0AFFF7A9FDC8B17C
:1020E0009DED050AB0EE401A17A0F2EE0C0ABAEE0A
:1020F0000C0AFFF79DFD68B19DED060AB0EE401A8F
:1021000013A0F2EE0C0ABAEE0C0AFFF791FD08B12B
:10211000012000E001E01FB030BD0020F9E7000021
:10212000AE8600080000C8426779726F2058000030
:102130006779726F205900006779726F205A00002A
:102140006163632058000000616363205900000050
:10215000616363205A0000004A0A52020243014BA5
:102160001A60704708ED00E000BFFEE7704700000E
:102170001CB510A103C9CDE9000105226946302034
:1021800000F03AF905226946102000F0E7F8002433
:1021900006E01DF80400A52800D003E0601CC4B2CE
:1021A000052CF6DB00BF052C01D001201CBD002052
:1021B000FCE70000A5A5A5A5A50000001CB50446E8
:1021C0002078104908706078487008462168C0F887
:1021D0000210A0790B498871084601680091818836
:1021E000ADF8041080798DF80600DDE90001FEF7F6
:1021F000C6FC04498979884201D100201CBD012018
:10220000FCE700001400002070B52DED048B04469F
:102210000D4694F90200FEF726FA9FED180B53ECD9
:10222000102BFEF729F9FEF742FA686094F90300D3
:10223000FEF719FA9FED110B53EC102BFEF71CF96A
:10224000FEF735FA286094F90400FEF70CFA9FEDCA
:102250000D0B53EC102BFEF70FF9FEF728FAA860D0
:1022600094F9050064304FF4967110FB01F000B250
:10227000A8816078A873BDEC048B70BD00000000DD
:102280000000D03F000000000000F43F1CB5012119
:10229000052000F06DF901208DF8040000208DF874
:1022A000060003208DF8050000208DF8070010209F
:1022B000009069461348FEF751FD102000906946D2
:1022C0001148FEF74BFD00F0FFF801200F490860B0
:1022D00000F0CAF900200E49C1F89002FFF748FF4C
:1022E00028B90CA000F08AFE00F092F902E011A0DB
:1022F00000F084FE03220021012005F0A9FA16490E
:1023000008601CBD000002400008024090024042EC
:10231000000041424E524632344C30312053504935
:1023200020436F6E6E656374696F6E205B4F4B5D0B
:102330002E0D0A004E524632344C30312053504953
:1023400020436F6E6E656374696F6E205B46414912
:102350004C5D2E0D0A000000600100202DE9F041C7
:1023600007460D46164600200A490860384600F028
:10237000CFF98046002405E0FF2000F0C9F9285578
:10238000601CC4B2B442F7DB012002490860404639
:10239000BDE8F0819002404270B504460020074934
:1023A0000860204600F0B4F9FF2000F0B1F90546BE
:1023B00001200349C1F89002284670BD90024042B6
:1023C0000000404270B504460720FFF7E5FF0546D0
:1023D0002946272000F02EF805F0400050B12022B9
:1023E00021466120FFF7BAFFFF21E22000F022F82A
:1023F000002070BD0120FCE72DE9F04107460C46A6
:10240000154600200A490860384600F081F98046E8
:10241000002605E014F8010B00F07AF9701CC6B232
:10242000AE42F7DB0120024908604046BDE8F0817A
:102430009002404270B505460C46002007490860EE
:10244000284600F065F90646204600F061F90120B3
:102450000349C1F89002304670BD0000900240422E
:10246000000040421CB50121880300F0B1F80521AD
:10247000022000F0D5F92020009000208DF8040003
:102480000C208DF8050001208DF806006846FEF747
:10249000C7FB1CBD1CB50121042000F069F82020F9
:1024A000009000208DF804008DF8060001208DF8C2
:1024B000070003208DF8050069460248FEF74EFC30
:1024C0001CBD00000008024010B5FFF7E3FFFFF756
:1024D000C9FF00F001F810BD08B517208DF8000005
:1024E00001208DF801008DF802008DF80300684688
:1024F00000F002F808BD000070B5002100230F2293
:10250000C4781CB3174C246804F4E064C4F5E06498
:10251000C4F30721C1F10404E3B20A4144789C40AA
:10252000E1B28478144021430C07210E0E4C05784B
:102530006155047804F01F050124AC4005786D1145
:10254000AD0005F1E025C5F8004109E0047804F08C
:102550001F050124AC40054D0678761145F826404C
:1025600070BD00000CED00E000E400E080E100E060
:1025700029B1064A12680243044B1A6004E0034A78
:1025800012688243014B1A607047000030380240E5
:1025900029B1064A12680243044B1A6004E0034A58
:1025A00012688243014B1A607047000040380240B5
:1025B00029B1064A12680243044B1A6004E0034A38
:1025C00012688243014B1A607047000020380240B5
:1025D00029B1064A12680243044B1A6004E0034A18
:1025E00012688243014B1A60704700004438024071
:1025F00029B1064A12680243044B1A6004E0034AF8
:1026000012688243014B1A60704700002438024070
:1026100010B5002011490860052211492A20FFF752
:10262000EBFE01212120FFF705FF01212220FFF70A
:1026300001FF28212520FFF7FDFE20213120FFF793
:10264000F9FE0F212620FFF7F5FE0F212020FFF7CE
:10265000F1FE01200349C1F8900210BD90024142F1
:10266000A98600080000414200B587B00121084654
:10267000FFF77EFF01210803FFF7AAFFE020059086
:1026800002208DF8180000208DF81A0003208DF824
:10269000190005A91C48FEF761FB052211461A48DE
:1026A000FEF7A4FB052206211748FEF79FFB052233
:1026B00007211548FEF79AFB0020ADF800004FF403
:1026C0008270ADF802000020ADF80400ADF80600FD
:1026D000ADF808004FF40070ADF80A002820ADF8FE
:1026E0000C000020ADF80E000720ADF81000694680
:1026F000064800F043F80121044800F025F8FF20C7
:1027000000F006F807B000BD0000024000300140B4
:1027100010B5044600BF02210A4800F021F8002845
:10272000F9D02146074800F027F800BF01210548ED
:1027300000F016F80028F9D0024800F01AF8C0B2EC
:1027400010BD00000030014021B1028842F040027B
:10275000028004E002884FF6BF731A40028070477F
:102760000246002013890B400BB1012000E000203D
:1027700070470146888970478181704710B50022F3
:10278000028802F441520B884C8823438C882343EF
:10279000CC8823430C8923434C8923438C892343CE
:1027A000CC8923431A430280838B4FF2FF7423406A
:1027B00083830B8A038210BDF0B504460D4616468E
:1027C0001F461448006840F00100124908600020CC
:1027D0001049083108600F4800680F4908400D494A
:1027E00008600E48091D0860081F006820F480205A
:1027F000091F0860002007490C3108603B4632463B
:102800002946204600F0B2F800210846FFF7A4FC54
:10281000F0BD000000380240FFFFF6FE103000243B
:1028200030B500228B071C0F0F2303FA04F20B4B69
:102830008C1053F824309343084C8D1044F8253005
:1028400023468C1053F824308C07240F00FA04F42C
:102850002343024C8D1044F8253030BD0838014028
:102860000CB50020019000903448006840F480309E
:102870003249086000BF3148006800F40030009021
:102880000198401C0190009818B90198B0F5A04F2C
:10289000F1D12A48006800F4003010B10120009006
:1028A00001E0002000900098012846D123484030E4
:1028B000006840F08050214940310860204800689D
:1028C00040F440401E4908601C48083000681B491D
:1028D000083108600846006840F400400860084677
:1028E000006840F4A05008601648091F0860081FDF
:1028F000006840F08070091F086000BF0F48006842
:1029000000F000700028F9D040F205700E49086010
:102910000A480830006820F00300084908310860C0
:102920000846006840F00200086000BF0348083015
:10293000006800F00C000828F8D10CBD00380240F7
:102940000070004019544007003C024010B505F0EB
:10295000EBFB012802D004F061FF04E002480068AC
:10296000401C0149086010BD10000020F0B504466D
:102970000D46002100203D4E366846F480363B4F20
:102980003E6001E04E1CB1B2384E366806F40036A7
:102990001EB941F6FF76B142F4DB41F6FF76B14253
:1029A00001D1012060E0314E4036366846F0805655
:1029B0002E4F40373E602E4E366846F440462C4F30
:1029C0003E602A4E0836366846F41446274F0837CC
:1029D0003E60264E366826F08076244F3E6045EAFB
:1029E00084160127C7EB520746EA074646EA036604
:1029F00046F480061D4F3F1D3E603E1F366846F080
:102A000080763F1F3E6000BF184E366806F00076A5
:102A1000002EF9D0174E366846F48076154F3E608A
:102A20003E46366846F400763E603E46366846F4DA
:102A300080663E603E46366846F005063E600B4EB8
:102A40000836366826F00306084F08373E603E46D3
:102A5000366846F002063E6000BF044E083636680F
:102A600006F00C06082EF8D1F0BD00000038024038
:102A700000700040003C024010B51548006840F46A
:102A80007000134908601348006840F001001149C4
:102A9000086000200F49083108600E4800680E49A0
:102AA00008400C4908600D48091D0860081F0068AF
:102AB00020F48020091F0860002006490C310860BE
:102AC000FFF7CEFE4FF0006001498039086010BD6D
:102AD00088ED00E000380240FFFFF6FE10300024D1
:102AE00010B50121054800F0FDF808B1FEF7ECFE35
:102AF0000121024800F010F810BD00000004004061
:102B000021B1028842F08002028004E002884FF680
:102B10007F731A4002807047CA430282704721B116
:102B2000028842F00102028004E002884FF6FE7340
:102B30001A400280704731B1B0F8442042F400429C
:102B4000A0F8442005E0B0F84420C2F30E02A0F83B
:102B50004420704710B504465548844208D10121ED
:102B60000846FFF745FD00210120FFF741FD9DE0EC
:102B7000B4F1804F08D101210846FFF719FD00216B
:102B80000120FFF715FD91E04A48844208D1012158
:102B90000220FFF70DFD00210220FFF709FD85E06F
:102BA0004548844208D101210420FFF701FD00219E
:102BB0000420FFF7FDFC79E04048844208D1012160
:102BC0000820FFF7F5FC00210820FFF7F1FC6DE07D
:102BD0003B48844208D101211020FFF7E9FC002185
:102BE0001020FFF7E5FC61E03648844208D101215E
:102BF0002020FFF7DDFC00212020FFF7D9FC55E065
:102C00003148844208D101210220FFF7F1FC002164
:102C10000220FFF7EDFC49E02C48844209D1012154
:102C20000804FFF7E5FC00214FF48030FFF7E0FCDB
:102C30003CE02748844209D101214804FFF7D8FC31
:102C400000214FF40030FFF7D3FC2FE021488442ED
:102C500009D101218804FFF7CBFC00214FF480202B
:102C6000FFF7C6FC22E01C48844208D10121402025
:102C7000FFF79EFC00214020FFF79AFC16E0174862
:102C8000844208D101218020FFF792FC002180209E
:102C9000FFF78EFC0AE01248844207D1012180151B
:102CA000FFF786FC0021A015FFF782FC10BD000095
:102CB000000001400004004000080040000C0040FB
:102CC000001000400014004000040140004001409A
:102CD000004401400048014000180040001C004032
:102CE0000020004030B50246002000230024158A51
:102CF00005EA0103958905EA010413B10CB101202D
:102D000000E0002030BD1AB183890B43838102E0CB
:102D100083898B438381704770B500240022002390
:102D2000058C4FF6FE7635400584028C8388048B33
:102D30004FF68F752C40B51E2C400D882C43751E08
:102D40002A408D892A434D882A43104DA84202D03B
:102D50000F4DA84213D14FF6F7752A40CD892A436B
:102D60004FF6FB752A408D882A434FF6FF652B40AE
:102D70004FF6FF552B400D8A2B434D8A2B43838002
:102D800004838D684563028470BD0000000001402B
:102D9000000401400A460021018B4FF6F7731940E9
:102DA000114301837047000070B500240022002306
:102DB000058C4FF6EF7635400584028C8388048BB2
:102DC00048F6FF752C404FF6FF452C400D884FF616
:102DD000FF7606EA05252C434FF6DF752A408D89DC
:102DE00006EA05152A434D8806EA05152A43154DBE
:102DF000A84202D0144DA8421DD14FF67F752A403B
:102E0000CD894FF6FF7606EA05152A434FF6BF75C2
:102E10002A408D8806EA05152A434FF6FF352B40D8
:102E20004FF2FF752B400D8A06EA85052B434D8A2C
:102E300006EA85052B43838004838D6885630284BD
:102E400070BD000000000140000401400A4600215E
:102E5000018B4FF2FF7319404FF6FF7303EA022311
:102E600019430183704741637047816370470000D5
:102E700000220288184B98420ED0184B98420BD073
:102E8000B0F1804F08D0164B984205D0154B9842B0
:102E900002D0154B984204D14FF68F731A404B88DD
:102EA0001A43124B984207D0114B984204D04FF668
:102EB000FF431A400B891A4302804B68C3620B8898
:102EC0000385054B984202D0044B984201D18B7A7E
:102ED0000386012383827047000001400004014003
:102EE0000004004000080040000C004000100040BA
:102EF00000140040F0B52DED028B83B005460E4660
:102F0000304905FB01F000EE100AF8EE400A3001EE
:102F100000EE100AB8EE400A80EE801AB0EE418A48
:102F2000BCEEC80A10EE100A84B200EE104AB8EEE9
:102F3000400A38EE400AF3EE000A20EE200ABCEE0A
:102F4000C00A10EE107A4FF6FF7000EA0414E01980
:102F500084B21D48006840F001001B4908601A480F
:102F60001430006840F01000174914310860012047
:102F7000022100230A46CDE900104FF4C061134836
:102F8000FDF757FF072209211048FDF7C7FE07226A
:102F90000A210E48FDF7C2FE0D480481808920F405
:102FA00000400B4988810846808940F008008881EC
:102FB0000846808940F40050888103B0BDEC028B44
:102FC000F0BD000040420F003038024000000240D7
:102FD0000010014002460020B1F5007F00D100BF83
:102FE00013880B400BB1012000E000207047C1F3B3
:102FF00008028280704700BFFEE700000FB4054B57
:1030000010B503A9044A029801F03AF810BC5DF823
:1030100014FB0000814D00085C0100204100080203
:1030200018BF04200A0E18BF40F001004FF07F4285
:1030300032EA010108BF40F00200012808BF052064
:103040007047000010B54FF00E402DED028BB0EE32
:10305000408A18EE104A00EB4400B0F1506F4AD895
:103060004FF0FC40B0EB440F22D2B0EEC80AF7EEAE
:10307000000A30EEC00AF6EE000A60EE208A18EE72
:10308000900A03F0B3FD01EE100A14F0004F1DBFCB
:10309000DFED2D0A9FED2D0AB1EE411ADFED2C0A6E
:1030A00008BF9FED2C0AF8EE001A21EE218A05E0F8
:1030B000DFED290A68EE088AB0EE600A9FED271A54
:1030C000DFED271A30EE080A48EE811A9FED251A27
:1030D00008EEA11ADFED241A48EE811A9FED231A9B
:1030E00008EEA11A68EE281ABDEC028B01EE810AE7
:1030F00030EE200A10BD4FF0E440B0EB440F0CD985
:1031000018EE100AFFF78AFF042808BF00F02EFE11
:10311000B0EE480ABDEC028B10BD4FF07F40B0EB23
:10312000440F07D2B0EE480ABDEC028BBDE8104058
:1031300000F006BE012000F0DBFEBDEC028BBDE816
:10314000104000F003BE00000000C9BF22AAFDB974
:103150000000C93F22AAFD390000000024FE1C3DEA
:10316000C78AD83C1E67383D1B93993DAFAA2A3EBB
:1031700010EE100A10B510EE901A4FF0684202EBF4
:1031800040032DED028BB3F1654F3CBF02EB4102D2
:10319000B2F1654F7CD200BFC0F3C753C1F3C75231
:1031A0009A1A1B2A09DD10F0004F14BF9FED6E0A1A
:1031B0009FED6E0ABDEC028B10BD12F11A0F1BDAE7
:1031C00011F0004F09D010F0004F0CBF9FED680ABE
:1031D0009FED680ABDEC028B10BD80EE208A18EED0
:1031E000100AFFF71BFF042808BF00F0BFFDB0EE78
:1031F000480ABDEC028B10BD4200B2EB410F37D93B
:1032000010F0004F19BFDFED5C1A9FED5C1ADFED87
:103210005C1A9FED5C1AB0EE602A0A46F1EE400A95
:1032200080F00041B0EE420A10460A1A5200B2F194
:10323000807F34D2484010F0004FDFED532A9FEDDD
:10324000533A1DBFBEEE002A71EEE21A31EE431A68
:10325000B6EE002A04BF71EEA21A31EE031AF0EEA8
:10326000402A42EE602A40EE020A82EEA02A18E0CE
:1032700011F0004F04BF9FED461AF0EE411AD4D072
:1032800010F0004F1CBFDFED431A9FED431A00E022
:1032900026E004BFDFED411A9FED411AC5E780EE3D
:1032A000202A22EE020ADFED3F0ADFED3F2ABDECC5
:1032B000028B40EE202ADFED3D0A40EE220ADFEDD0
:1032C0003C2A40EE202ADFED3B0A40EE220A22EEA5
:1032D000000A00EE201A31EE020A30EE210A10BD7B
:1032E0004FF07F42B2EB400F28BFB2EB410F05D247
:1032F000BDEC028BBDE8104000F025BD40EA0103A3
:103300005B0008BF41F0FF410BD0B2EB400F08BF9C
:10331000B2EB410F08D120F0804000EE100A21F0FE
:10332000804100EE901A37E7B2EB400F12BF5FEA20
:10333000410240F0FF4001F000413FF42DAF4A0050
:1033400092EA40033FF528AF002AACBF9FED1A1A5E
:103350009FED1A1A20EE010A60EE810A10EE100AA3
:1033600010EE901A18E70000DB0FC9BFDB0FC93F52
:10337000DB0F4940DB0F49C00000C9BF22AAFDB9DD
:103380000000C93F22AAFD390060ED3EC30ACE37D6
:1033900000000000000049C022AA7DBA0000494098
:1033A00022AA7D3A2DAD65BD8FB8D53D0FB511BEB2
:1033B00061C84C3EA8AAAABE0000804F0000802F22
:1033C00010EE101A08B5444A6846B2EB410F28D9EE
:1033D0004FF0E640B0EB410F94BF00204FF0FF30BC
:1033E00000900098002861DB60EE000A10F0010FE9
:1033F00045D010F0020FDFED391A9FED391A00EEBB
:10340000E11ADFED381A40EE811A21EEA01AF0EE33
:10341000400A40EE010A08BFF1EE600AB0EE600A11
:1034200008BD314B21F0004293423CD911F0004FCE
:10343000DFED2E0A20EE201ADFED2D0A19BF31EE46
:10344000601A71EE200A31EE201A71EE600ABDEEAC
:10345000E01A11EE100A9FED271A00F0030000EEAB
:10346000C10A9FED251A009000EEC10A9FED231AB4
:1034700000EEC10A9FED221A00EEC10AB1E79FEDEE
:10348000211A9FED210A10F0020F00EE810A9FED34
:103490001F1A00EE801AB7EE000A00EE810A18BF6C
:1034A000B1EE400A08BD00F069FC9AE710EE100A80
:1034B0004000B0F17F4F3CBFB7EE000A08BD07D116
:1034C0004FF0010000F014FDBDE8084000F03EBCE4
:1034D000BDE8084000F034BCB61F927E336D4C3915
:1034E000DA82083CA0AA2ABE490E494683F9223F47
:1034F0000000004B0000C93F00A0FD390020A233AE
:103500001A61342CB93AB2BACA9F2A3DDDFFFFBE18
:1035100010B510EE100A2DED068BB7EE001A10EE66
:10352000901AB0EE418A0022A0F5000CDFEDFE9A61
:103530004FF00073BCF1FE4F4FF07F4403EB410CA2
:1035400080F0B481BCF1804FC0F02082F749014483
:103550009FEDF73AB1F5005F40F2D48200F580218B
:10356000CB0C03F00F0101EE901AC3F307137F3B5E
:10357000A0EBC350B8EEE12A00EE100A1A44DFEDCA
:10358000ED2AF0EE411A42EE221AF0EE613A70EEA8
:10359000232A30EE632A12EE900A00F500606FF3E2
:1035A0000B0001EE900A73EEE13A33EE804AC1EE71
:1035B000223A22EE230A10EE100A00F500606FF3A3
:1035C0000B0000EE100A00EE612A00EE442A62EEC3
:1035D000232A70EE221A21EEA12ADFEDD73A02EE5D
:1035E000233A23EE023A20EE012A22EE811A03EE5C
:1035F000211A32EE010A10EE100A00F500606FF396
:103600000B0000EE100A72EE401A31EE812A9FED97
:10361000CB1A60EE011A9FEDCA1A20EE011A9FED37
:10362000C90A02EE001A31EE810A10EE100A00F506
:1036300000606FF30B0000EE100AC34871EEC01A71
:1036400031EE812A784400EBC10090ED003AD0EDD4
:10365000011A100101EE100AF8EEC12A32EE211A09
:1036600031EE001A31EE031A31EE221A11EE100A71
:1036700000F500606FF30B0009EE100A39EE621AD4
:1036800031EE431A31EE400A30EE610A32EE40AAC2
:1036900010EE900A002100F500606FF30B0008EEB9
:1036A000900A084670EEE8AAFDF74AF929EE280AC2
:1036B00000F00C01F0EEC00A10EE900AB0F18B4F52
:1036C0000DDD10EE900AB4EB400F08D310EE100A97
:1036D0004FF08B4262F31E0008EE900A13E069EE91
:1036E0002A0A38EEAA1A4AEE010A30EE201A11EE22
:1036F000100A00F500606FF30B0008EE900A30EE40
:10370000680A70EE209A0C20FDF71AF938EEA90A23
:10371000B5EEC00AF1EE10FA34BFFEEE000AF6EE86
:10372000000A30EE800ABDEEC00A10EE100A011148
:1037300000EE101AF8EEC00A00EE100AB8EEC00A49
:1037400038EEC00A30EE290ADFED801A9FED801AAC
:1037500000EE211ADFED7F1A7F4900F00F0040EEE6
:10376000011A21EE800A794401EB800191ED001AE3
:103770007A49794401EB8001D1ED001A784901EED4
:10378000801A794401EB8000764990ED000A31EE11
:10379000001AB0EEE00A10EE100A884215DA10EEB8
:1037A000100AB4EB400F10D39FED6F0A30EE800A81
:1037B000DFED6E0A20EE200A68EE010ABDEC068BF2
:1037C000BCEEC00A20EE200A10BD10EE100A6849B7
:1037D000884243DA10EE100AB4EB400F3ED3BDEE40
:1037E000E00A68EE010A10EE100A00EBD0725110E8
:1037F000C90501F17E5100EE101AA0EB6200C00570
:1038000060EE200A00F17E5000EE100A60EE808A21
:1038100018EE900AB4EB400F0FD1022000F068FBC5
:1038200000F09CFA10EE101A18EE100ABDEC068B90
:1038300061F31E0000EE100A10BD18EE900A400061
:1038400011D018EE900AFFF7E9FB042808BF00F03A
:103850008DFAB0EE680ABDEC068B10BDF5EEC00A1D
:10386000F1EE10FA0FD2022000F042FB00F07EFAD7
:1038700010EE101A18EE100ABDEC068B61F31E0054
:1038800000EE100A10BD022000F032FB00F066FAD4
:1038900010EE101AB0EE480A10EE100ABDEC068BBE
:1038A00061F31E0000EE100A10BD00BFBCF1804F96
:1038B0006CD300BF00F1FF43B3F1FE4F24D200BF31
:1038C000B0EEC00A10EE100AC1F3C7537F2B0DDB18
:1038D000972BBFF63BAEC3F196034FF0010C0CFAE9
:1038E00003F3A3F1010C1CEA010F08D0012000F042
:1038F000FFFABDEC068BBDE8104000F027BA0B4282
:1039000018BFBFEE008A21E643001CBF4FF0807352
:10391000B3EB400F34D96FF01A02DFED161A20EE28
:10392000210A10EE100A27E000000000001080C0FD
:10393000ABAAAA3E0000803D7EE24C3E00B0384279
:10394000D49AB8BB3BAA384268520000FC5963378E
:10395000C9FF753A1872313D065200003A52000014
:10396000AA5100000000FC420000FE420000004B93
:10397000000040430000004D10F0004FA0D1E5E5ED
:10398000A0F50003B3F1FE4F21D2DFE503EB4103C5
:10399000B3F1007F11D3F5EEC00AF1EE10FA05D1B4
:1039A000430018BFB4EB400F76D883E701F0004125
:1039B00041F0FC5100EE901A7CE7B3F1807F06D213
:1039C00010EE903AA3F5000300EE903A72E720F073
:1039D00000426FF0FF4C604C02EB0C03A34210D38B
:1039E00021F000439C44A4450BD3B0F17E5F18BF87
:1039F0005FEA410C50D0B2F1FF4F98BFB3F1FF4FD7
:103A000005D9BDEC068BBDE8104000F09CB9B0F1C3
:103A1000FF4F0FD0C1F3C7527F2A09DB972A11DA73
:103A2000C2F19602012303FA02F2531E0B4205D0A3
:103A3000002208E011F0004F55D128E00A4218BFDB
:103A4000012200D1022210F5000F13D028B3B0F1EB
:103A5000004F26D010F1814F4FD04FF0FE42B2EB15
:103A6000400F94BF01200020012202EBE171884247
:103A700039D10CE011F0004F02D0012A38D032E0E9
:103A8000012A02BF9FED350ABDEC068B10BD9FEDEC
:103A9000340ABDEC068B10BD2FE011F0004F0CD1A5
:103AA00021E0B1F1FF4F1ED011F5000F05D011F04C
:103AB000004F15D00AB1012A08D0022000F018FAF0
:103AC000BDEC068BBDE8104000F030B9022000F0DC
:103AD0000FFA00F02BF9BDEC068BB1EE400A10BDD9
:103AE0000AB1012A04D0B0EE690ABDEC068B10BD04
:103AF000BDEC068B9FED1B0A10BDBDEC068BB7EE2F
:103B0000000A10BD30EE410AB5EE001A9FED172AEB
:103B100000EE413AB6EE001A60EE001A00EE431ACB
:103B200061EEC11A9FED101A20EE011A20EE020A72
:103B30009FED0F2A01EE820A71EE001A11EE900A33
:103B400000F500606FF30B0009EE100A31EE491A20
:103B500031EE00AA9CE50000FFFF3F00000080FF5F
:103B60000000807F0000008000B0B841D49A38BBCC
:103B70003BAAB84110B52DED028BB1EEC08A18EE0C
:103B8000100A20F00040C0F1FF40C00F0AD010EE34
:103B9000100A20F00040C0F1FF40C00F04BF012018
:103BA00000F0A6F9B0EE480ABDEC028B10BD000093
:103BB00000B510EE101A2DED028B81B04D4A68460B
:103BC000B2EB410F3CD94FF0E640B0EB410F94BF50
:103BD00000204FF0FF3000900098B0EE408A00289F
:103BE0005FDB28EE080ADFED440A9FED441A00EE81
:103BF000201ADFED430A40EE010A9FED421A00EE63
:103C0000201ADFED410A10F0010F40EE010A9FED8E
:103C10003F1A00EE201A61EE000AB0EE480A08EEE4
:103C2000200A02BF01B0BDEC028B00BDBFEE001A3E
:103C300001B0C1EE000ABDEC028BB0EE600A00BD1F
:103C4000334B21F00042934228D911F0004FDFEDB1
:103C5000310A20EE201ADFED300A19BF31EE601A6A
:103C600071EE200A31EE201A71EE600ABDEEE01A04
:103C700011EE100A9FED291A00F0030000EEC10AB0
:103C80009FED271A009000EEC10A9FED261A00EE64
:103C9000C10A9FED251A00EEC10A9DE700F06EF8FB
:103CA0009AE718EE100A4000B0F17F4F0DD218EEDF
:103CB000100AFFF7B3F9042808BF00F057F8B0EE78
:103CC000480A01B0BDEC028B00BD09D1012000F013
:103CD0000FF901B0BDEC028B5DF804EB00F036B8D3
:103CE00001B0B0EE480ABDEC028B5DF804EB00F0C9
:103CF00027B80000B61F927EBBE9223C0C6D063B44
:103D00008A76CE3CACB5593D35A1083E29AAAA3EDB
:103D1000490E494683F9223F0000004B0000C93F8D
:103D200000A0FD390020A2331A61342CDFED030A14
:103D3000B7EE001A81EE200A704700000000000074
:103D400030EE000A704730EE200A7047DFED020ABD
:103D500080EEA00A70470000000000009FED020AFC
:103D600020EE000A70470000000000709FED020A7C
:103D700020EE000A70470000000000102DE9F0015D
:103D80004FF07F42B2EB410F9FBF4FF0FF31016018
:103D9000BDE8F00170474FF0004242EA0123C1F351
:103DA000C752783A551112F01F0C434CCCF1200643
:103DB0007C44C1F3C752A2F178024FEA621204EBCD
:103DC000820254F8254008BFD2E9015612D0556846
:103DD00004FA0CF425FA06F73C43976805FA0CF54B
:103DE00027FA06F8D26807FA0CFCF24045EA080503
:103DF0004CEA0206A4FB034CA5FB0352A6FB03639B
:103E00001D449D4234BF012600261319334416B1C8
:103E1000934202D903E0934201D2012200E0002242
:103E2000624402F1200C9206DC0C42EA443200EEBD
:103E3000102A5B03DFED210AF8EEC01A00EE103AFB
:103E40004FEA9C1C11F0004FB8EE400AC0F800C0C9
:103E500020EE201A00EE105ADFED190AB8EE400AE3
:103E600020EE200A71EE810A70EE800A10EE902A90
:103E700002F500626FF30B0200EE902A70EEE11A79
:103E800031EEC11ADFED101A30EE411A9FED0D0A26
:103E900020EE800A01EE210A9FED0C1A00EE810A45
:103EA00004BFBDE8F0017047CCF180510160BDE86E
:103EB000F001B1EE400A70473C4C000000000036B3
:103EC0000000802C22AAFD29DB0FC92F0000C92F7A
:103ED00002E008C8121F08C1002AFAD170477047D3
:103EE000002001E001C1121F002AFBD17047000031
:103EF0000149086070470000D80100202DE9FF5FEC
:103F000082B00021DDE90430020DDDF840B003434A
:103F100018D044F61050A2F2FF3242431514119803
:103F200001281FD0A5EB0B00401C5FEA000A4FF0F0
:103F300000064E4FDFF83891B046504615D5CAF10D
:103F4000000413E0119801244AA3012801D16FEA6B
:103F50000B010298119AC0E90031C0E9024206B093
:103F6000BDE8F09FCBF10000DFE704460021404AA6
:103F7000491842EB0450CDE9001012E0E00707D0E9
:103F800032463B4640464946FCF776FA804689462B
:103F900032463B4610461946FCF76EFA06460F4677
:103FA0006410002CEAD1DDE90401DDE90023BAF157
:103FB000000F06DAFCF760FA42464B46FCF75CFA63
:103FC00005E0FCF7CBFA42464B46FCF7C7FA04463D
:103FD0000E460022284BFCF79BFC03D84FF0FF3025
:103FE000014607E00022254B20463146FCF79DF9AB
:103FF000FCF775FC102409E0002C0ADB0A220023E0
:10400000FCF787FB039B30321A55641E50EA01020D
:10401000F2D1641C039AC4F111031444119A012AC9
:1040200003D0012208430DD10AE0084304D0002048
:104030004FF0110B119072E7A3EB0B056D1E0DE015
:104040005B4504DD4FF0000205F1010504E003DAF1
:104050004FF00002A5F10105002AECD00298119959
:10406000C0E90231C0E9004579E7000000001440D2
:104070000000F03F300000000000F0430000E03F8F
:104080002DE9FF4F95B09B468946064600250FE275
:10409000252877D100242746F84A0121059400E01D
:1040A000044316F8013F203B01FA03F01042F7D118
:1040B00030782A2811D06FF02F033078A0F1300229
:1040C000092A16D8059A44F0020402EB820203EB97
:1040D00042021044761C0590EFE759F8042B059234
:1040E000002A03DA504244F40054059044F00204DC
:1040F000761C30782E2816D116F8010F44F00404EF
:104100002A280DD06FF02F023078A0F13003092B50
:1041100009D807EB870302EB4303C718761CF3E7C4
:1041200059F8047B761C30786C280FD006DC4C28BC
:1041300017D068280DD06A2814D104E0742810D054
:104140007A280FD10DE044F400140AE044F48014FE
:1041500001E044F440147278824202D104F58014E4
:10416000761C761C307866280BD013DC582877D064
:1041700009DC002875D04528F6D04628F4D0472819
:104180001AD19DE118E0632835D0642879D06528DC
:1041900012D195E1702873D008DC6728F1D0692826
:1041A0006FD06E280DD06F2806D1B5E073282CD0C3
:1041B000752875D0782874D05A46179990476D1C89
:1041C00075E1C4F30250022809D003280DD0D9F8B4
:1041D000001004280DD00D6009F1040967E1D9F839
:1041E0000010EA17C1E90052F6E7D9F800100D8077
:1041F000F2E70D70F0E719F8041B8DF800100020AD
:104200008DF80100EA46012003E059F804AB4FF0B5
:10421000FF3061074FF0000102D40DE008F1010109
:104220008846B9420FDA8045F8DB1AF808100029F1
:10423000F4D108E008F1010188468142FADB1AF85E
:1042400008100029F6D105985B46A0EB0807214627
:104250003846179A00F094FA284400EB080507E066
:104260004DE029E10DE01AF8010B5A4617999047E5
:10427000B8F10108F7D25B4621463846179A13E198
:1042800042E00A220092C4F302524FF0000A022ACE
:1042900008D059F804CB032A4FEAEC710AD00DE09C
:1042A00029E02AE009F1070121F00702F2E802C142
:1042B000914609E00FFA8CFC4FEAEC71042A03D115
:1042C0004FFA8CFC4FEAEC71002907DA0A4600210C
:1042D000DCF1000C61EB02012D2202E0220504D585
:1042E0002B228DF80420012203E0E20701D02022D6
:1042F000F7E7904659E00A2102E010220DE0102174
:104300004FF0000A00910BE010224FF0000A44F039
:1043100004040827009203E008224FF0000A0092EC
:10432000C4F30252022A05D059F804CB0021032A13
:1043300008D009E009F1070121F00702F2E802C103
:10434000914605E01FFA8CFC042A01D10CF0FF0C09
:104350004FF00008220728D5702806D0009B83F074
:10436000100353EA0A0305D00EE040228DF8042022
:10437000012208E05CEA010206D030228DF8042018
:104380008DF8050002229046009B83F0080353EA53
:104390000A030AD15CEA010201D1620705D5302285
:1043A0008DF804204FF001087F1E582804D034A057
:1043B00003900EA802900DE036A0F9E75346604640
:1043C000009AFCF7A6F984460398825C0298401E86
:1043D000029002705CEA0100F0D1029806A9081A66
:1043E00000F1200A600702D524F4803400E00127A0
:1043F000574502DDA7EB0A0000E0002000EB0A01B0
:10440000009005984144401A0590E00306D45B46AD
:104410002146179A059800F0B3F90544002706E0F5
:1044200001A85A46C05D179990476D1C7F1C4745EF
:10443000F6DBE0030CD55B462146179A059800F0A1
:104440009FF9054404E030205A46179990476D1CA7
:104450000099481E00900029F5DC08E002980299B6
:104460005A460078491C0291179990476D1CBAF181
:104470000001AAF1010AF1DC65E100000928010050
:1044800030313233343536373839616263646566CA
:10449000000000003031323334353637383941428C
:1044A000434445460000000000F058F90544761CDE
:1044B000307800287FF4ECAD19B02846BDE8F08FC5
:1044C000620700D4062709F1070222F0070CFCE876
:1044D0000223E14603F000485FEA080C02D00FF225
:1044E000702C0DE05FEA045C02D50FF2682C07E047
:1044F0005FEAC47C02D00FF2602C01E0AFF2700CD6
:104500004FF0FF3823F00043CDF850C065280CD0A1
:1045100006DC452809D046281DD047283DD13DE07E
:10452000662818D067287ED138E00021112F01DBE2
:10453000112000E0781CCDE9000106A90EA8FFF7C4
:10454000DDFCDDE90F010E9A03910021009207F1D5
:10455000010A04914DE04FF000400097CDE90110B1
:1045600006A90EA8FFF7CAFCDDE90F0203920E9B15
:1045700011990022DDF80CA00093049211B9791C66
:1045800000EB010AB7EB0A0004D4C0F1FF3007F1D9
:10459000010A0490AAEB0700019044E0012F00DA21
:1045A00001270021112F01DD112000E03846CDE95F
:1045B000000106A90EA8FFF7A1FCDDE90F010E9A84
:1045C0000391002104910092BA4621070CD403996B
:1045D000514500DA8A46BAF1010F05DD009AAAF1C9
:1045E0000101515C302908D0B84202DA10F1040F01
:1045F00006DA0121CDE9011015E0AAF10101E9E790
:10460000002805DC049901440491AAEB000102E0B2
:10461000411C514500DD8A460499401A401C019016
:104620004FF000400290200704D40198504501DB70
:10463000CDF8048000208DF84F0002980DF14F074F
:10464000B0F1004F25D02B200E9002984FF00208B9
:1046500000280CDA404202902D200E9007E00A213B
:104660000298FCF740F83031029007F8011DB8F1CC
:104670000001A8F10108F2DC02980028EFD1791EB0
:104680000E980870307800F0200040F0450007F8E0
:10469000020D12A8C01B00F107081498007800B1A1
:1046A000012000EB0A01019801EBE07105984144FB
:1046B000401A401E0590E00306D45B462146179A37
:1046C000059800F05DF805441498007818B15A4632
:1046D000179990476D1CE00324D55B462146179A35
:1046E000059800F04DF805441CE00498002807DB0D
:1046F000DDE90301884203DD0098405C179901E081
:10470000179930205A469047049805F10105401C3E
:1047100004900198401E019004D12E205A4617990A
:1047200090476D1CBAF10001AAF1010ADDDC05E039
:1047300017F8010B5A46179990476D1CB8F1000104
:10474000A8F10108F4DC5B462146179A0598ABE610
:104750002D0000002B000000200000002DE9F0419A
:10476000044600251E461746880404D405E0394651
:104770002020B0476D1C641EF9D52846BDE8F081A5
:104780002DE9F041044600251E469046C80301D598
:10479000302700E02027880404D505E0414638464C
:1047A000B0476D1C641EF9D52846BDE8F0810000B5
:1047B00070B52DED028B06460D461446D5ED010A67
:1047C00094ED011A70EEC10AB0EE600A1F4800F0C5
:1047D0001EFF84ED010AD5ED020A94ED021A70EE77
:1047E000C10AB0EE600A1A4800F011FF84ED020A17
:1047F00095ED030AD6ED030A30EE600AB0EE408A6A
:104800009FED140AB4EEC08AF1EE10FA06DD9FEDBA
:10481000120A38EE400AB0EE408A0CE09FED0F0A13
:10482000B4EEC08AF1EE10FA05D29FED0B0A38EE15
:10483000000AB0EE408AB0EE480A094800F0E7FEF0
:1048400084ED030ABDEC028B70BD0000441D002006
:10485000801D0020000034430000B443000034C336
:10486000BC1D002010B52DED028BB0EE408AF0EE9D
:10487000608AA0223C493D48FBF733FDB0EE482A50
:104880003A48D0ED031A90ED021AD0ED010A9FEDDF
:10489000380A384800F066FEB0EE482A3348D0EDBA
:1048A000061A90ED051AD0ED040A9FED310A324840
:1048B00000F058FEB0EE482A2C48D0ED091A90EDD1
:1048C000081AD0ED070A9FED2A0A2C4800F04AFE8C
:1048D000B3EE0E0A274800F097FEB3EE0E0A264804
:1048E00000F092FE9FED260A244800F08DFEB0EE07
:1048F000682A1E48D0ED0C1A90ED0B1AD0ED0A0A6A
:104900009FED1B0A1F4800F02DFEB0EE682A1748E5
:10491000D0ED0F1A90ED0E1AD0ED0D0A9FED140A8E
:10492000194800F01FFEB0EE682A1048D0ED121AA8
:1049300090ED111AD0ED100A9FED0D0A134800F00A
:1049400011FE9FED130A0F4800F05EFE9FED100A66
:104950000D4800F059FE9FED0E0A0C4800F054FE81
:10496000BDEC028B10BD0000BC000020AC1E00207E
:1049700000000000441D0020801D0020BC1D002000
:1049800000003443F81D0020341E0020701E00205B
:104990000000FA4370B52DED028B04460D46164615
:1049A000D5ED010A94ED001A70EEC10AB0EE600A6E
:1049B000154800F02CFEB0EE408A00F005FE308075
:1049C000D5ED020A94ED011A70EEC10AB0EE600A4C
:1049D0000E4800F01CFEB0EE408A00F0F5FD70803D
:1049E000D5ED030A94ED021A70EEC10AB0EE600A2A
:1049F000074800F00CFEB0EE408A00F0E5FDB08004
:104A0000BDEC028B70BD0000F81D0020341E00209C
:104A1000701E0020002111E03F4A02EB810292ED5E
:104A2000000A00EB8102D2ED000A30EE200A3A4A79
:104A300002EB810282ED000A4A1CD1B20329EBDBB2
:104A400090ED020A3549D1ED000AB4EEE00AF1EE2C
:104A500010FA03D290ED020A81ED000A90ED020AED
:104A60002F49D1ED000AB4EEE00AF1EE10FA03DDB1
:104A700090ED020A81ED000A2A490988491C89B291
:104A8000284A1180B1F5AF7F44DB00211180244911
:104A900091ED000A2149D1ED000A30EE600A224969
:104AA00081ED000AB7EE080A1C4981ED000AB6EE56
:104AB000000A1B4981ED000A1B4991ED000ADFED58
:104AC0001B0AB4EEE00AF1EE10FA16D200210FE054
:104AD000114A02EB810292ED000ADFED150A80EE29
:104AE000201A144A02EB810282ED001A4A1CD1B24C
:104AF0000329EDDB0121104A1170002108E09FED30
:104B00000F0A054A02EB810282ED000A4A1CD1B26B
:104B10000329F4DB70470000381D002094000020BA
:104B200098000020900000207C0000208FC2753C7F
:104B30000000AF438400002080000020000000003F
:104B400091ED010A80ED020A91ED000A80ED010A63
:104B500091ED020A80ED030AB1F90C2000EE102A53
:104B6000B8EEC00A80ED120A704700BF00BF00BF58
:104B700000BF00BF00BF00BF00BF00BF00BF00BF3D
:104B800000BF00BF00BF00BF00BF00BF00BF00BF2D
:104B900000BF00BF00BF00BF00BF00BF00BF00BF1D
:104BA00000BF00BF00BF00BF00BF00BF00BF00BF0D
:104BB00000BF00BF00BF00BF00BF00BF00BF00BFFD
:104BC00000BF704700BF00BF00BF00BF00BF00BFF5
:104BD00000BF00BF00BF00BF00BF00BF00BF00BFDD
:104BE00000BF00BF00BF00BF00BF00BF00BF00BFCD
:104BF00000BF00BF00BF00BF00BF00BF00BF00BFBD
:104C000000BF00BF00BF00BF00BF00BF00BF00BFAC
:104C100000BF00BF00BF00BF00BF00BF00BF00BF9C
:104C200000BF00BF00BF00BF00BF00BF00BF00BF8C
:104C300000BF00BF00BF00BF00BF00BF00BF00BF7C
:104C400000BF00BF00BF00BF00BF00BF00BF00BF6C
:104C5000704700BF00BF00BF00BF00BF00BF00BF64
:104C600000BF00BF00BF00BF00BF00BF00BF00BF4C
:104C700000BF00BF00BF00BF00BF00BF00BF00BF3C
:104C800000BF00BF00BF00BF00BF00BF00BF00BF2C
:104C900000BF00BF00BF00BF00BF00BF00BF00BF1C
:104CA00000BF00BF00BF00BF00BF00BF00BF00BF0C
:104CB00000BF00BF00BF00BF00BF00BF00BF00BFFC
:104CC00000BF00BF00BF00BF00BF00BF00BF00BFEC
:104CD00000BF00BF00BF00BF00BF00BF00BF00BFDC
:104CE00000BF00BF00BF00BF00BF00BF00BF00BFCC
:104CF00000BF00BF00BF00BF00BF00BF00BF00BFBC
:104D000000BF00BF00BF00BF00BF00BF00BF00BFAB
:104D100000BF00BF00BF00BF00BF00BF00BF00BF9B
:104D200000BF00BF00BF00BF00BF00BF00BF00BF8B
:104D300000BF00BF00BF00BF00BF00BF00BF00BF7B
:104D400000BF00BF00BF00BF00BF00BF00BF00BF6B
:104D500000BF00BF00BF00BF00BF00BF00BF00BF5B
:104D600000BF00BF00BF00BF00BF00BF00BF00BF4B
:104D700000BF00BF00BF00BF00BF00BF00BF704743
:104D800000BF054A128802F04002002AF9D0C2B2E0
:104D9000014B9A80704700000010014010B503F0ED
:104DA000C3F9012802D003F0CFF910BD0148006813
:104DB000FBE70000100000205948D0ED004A64EEE7
:104DC000A44AB0EE640A5748D0ED004A64EEA44A03
:104DD000F0EE640A5448D0ED004A64EEA44AB0EE06
:104DE000641A5248D0ED004A4D4890ED005A64EEE6
:104DF000854AF0EE641A4D48D0ED004A494890EDDE
:104E0000005A64EE854AB0EE642A4848D0ED004A64
:104E1000454890ED005A64EE854AF0EE642A404819
:104E2000D0ED004A3F4890ED005A64EE854AB0EE5E
:104E3000643A3B48D0ED004A3B4890ED005A64EE9E
:104E4000854AF0EE643A3748D0ED004A364890ED96
:104E5000005A64EE854AB0EE644AF7EE004AB0EEBE
:104E6000005A45EE604AB0EE005A45EE414A3048DD
:104E7000C0ED004AF1EE624A73EE244AB0EE005AE9
:104E800064EE854AC0ED014AF1EE424A73EEE44A0F
:104E9000B0EE005A64EE854AC0ED024AF1EE624A75
:104EA00073EE644AB0EE005A64EE854AC0ED034AE0
:104EB000F7EE004AB0EE005A45EE404AB0EE005A16
:104EC00045EE414AC0ED044AF1EE614A74EE244ACF
:104ED000B0EE005A64EE854AC0ED054AF1EE424A52
:104EE00073EEA44AB0EE005A64EE854AC0ED064A5D
:104EF000F1EE614A74EE644AB0EE005A64EE854AFF
:104F0000C0ED074AF7EE004AB0EE005A45EE404ABF
:104F1000B0EE005A45EE604AC0ED084A7047000006
:104F20007000002074000020780000206C00002039
:104F3000141D002011B52DED080B2DED0A8B87B047
:104F40000446F0EE438AB6EE000A28EE800AB0EE80
:104F5000409A002004900590069011A807C801AB64
:104F600007C39DED140ADFEDDE0A20EE200A8DED69
:104F7000140A9DED150ADFEDDA0A20EE200A8DED08
:104F8000150A9DED160ADFEDD60A20EE200A8DEDFA
:104F9000160A9DED110AB5EEC00AF1EE10FA0DD118
:104FA0009DED120AB5EEC00AF1EE10FA06D19DEDA4
:104FB000130AB5EEC00AF1EE10FA7DD0DDED110A4C
:104FC00060EEA00A9DED121ADDED121A41EE210AE3
:104FD0009DED131ADDED131A41EE210AB0EE600AC1
:104FE00000F098F9B0EE408ADDED110AB0EE480A03
:104FF00020EE800A8DED110ADDED120AB0EE480AAE
:1050000020EE800A8DED120ADDED130AB0EE480A9B
:1050100020EE800A8DED130A9DED120AB148D0ED05
:10502000080A20EE200ADDED130A90ED071AF0EED3
:1050300040BA40EEC1BA9DED130AD0ED060A20EE4B
:10504000200ADDED110A90ED081AB0EE40CA00EE1C
:10505000C1CA9DED110AD0ED070A20EE200ADDED50
:10506000120A90ED061AF0EE40CA40EEC1CA9E4800
:1050700090ED000A60EE2B0A9C4890ED000A00EECD
:10508000A80A80ED000A984890ED000A60EE0C0A2C
:10509000974890ED000A00EEA80A80ED000A9248B9
:1050A00090ED000A60EE2C0A924890ED000A00EEA6
:1050B000A80A80ED000A00E029E0DDED140A8B4823
:1050C00090ED000A8C4890ED001A01EE2B0A30EEAC
:1050D000800A8DED140ADDED150A854890ED000A71
:1050E000854890ED001A01EE0C0A30EE800A8DED35
:1050F000150ADDED160A7F4890ED000A7E4890ED16
:10510000001A01EE2C0A30EE800A8DED160A7B485B
:10511000D0ED009A7A4890ED00AA7A48D0ED00AA26
:10512000794890ED00BA9DED140AF1EE4A0A20EE9E
:10513000200ADDED150A0AEEE00ADDED160A0BEE97
:10514000600A6E48D0ED000A40EE090AC0ED000A80
:105150009DED140A20EE290ADDED160A0AEEA00ADA
:10516000DDED150A0BEE600A6548D0ED000A40EE51
:10517000090AC0ED000A9DED150A20EE290ADDEDB1
:10518000160A0AEE600ADDED140A0BEE200A5D48ED
:10519000D0ED000A40EE090AC0ED000A9DED160AA6
:1051A00020EE290ADDED150A0AEE200ADDED140ACB
:1051B0000AEEE00A5448D0ED000A40EE090AC0EDBC
:1051C000000A4E48D0ED000A60EEA00A4C4890ED6F
:1051D000001AD0ED001A41EE210A4A4890ED001A5B
:1051E000D0ED001A41EE210A474890ED001AD0EDAB
:1051F000001A41EE210AB0EE600A00F08BF8B0EE22
:10520000408A3E4890ED000A20EE080A80ED000A30
:105210003B4890ED000A20EE080A80ED000A39486C
:1052200090ED000A20EE080A80ED000A364890ED65
:10523000000A20EE080A80ED000AFFF7BDFD2948AC
:10524000D0ED060AB0EE600AFDF7FCFEB1EE400AB2
:10525000DFED2E0A20EE200A84ED020A214890EDAF
:10526000081AF0EE410A90ED071AB0EE410AFDF778
:105270007FFFDFED260A20EE200A84ED010A19489F
:1052800090ED001AF0EE410A90ED031AB0EE410ADB
:10529000FDF76EFFDFED1D0A20EE200A84ED030A04
:1052A0001B480078B8B99DED010A0E48D0ED060AFA
:1052B00020EE200ADDED020A90ED071A00EE810AC9
:1052C000DDED030A90ED081A00EE810A8DED060A65
:1052D00004A8FFF79FFB07B0BDEC0A8B09B010BD17
:1052E00035FA8E3C141D00205C0000206000002078
:1052F0006400002068000020580000206C0000209E
:10530000700000207400002078000020E12E65422B
:1053100080000020F0EE400AF6EE001A60EEA11ABE
:10532000B0EE611AB0EE600A10EE100A0749A1EB68
:10533000600000EE100A21EE002AF7EE081A42EE95
:10534000401A61EE801AB0EE610A7047DF59375F8C
:105350000146B1F5803F02DB4FF6FF7102E0002904
:1053600000DA002188B2704710B52DED028B04469B
:10537000F0EE408AB0EE608A24B1B5EEC08AF1EE5C
:1053800010FA02D8BDEC028B10BDF0EE480AB0EE68
:10539000680A204600F002F800BFF3E710B52DEDD3
:1053A000068B0446B0EE409AF0EE609A89EE290A28
:1053B000B0EE40AA9FED2B0AC0EE0A0AF0EE60AAFA
:1053C000B0EE6A0AFEF7F4FBB0EE408A9FED260AC3
:1053D000FDF7F6FFF0EE000A60EE200AB7EE000AD5
:1053E00000EE880A08EE080AF0EE408A28EE080A65
:1053F000C0EE280AC4ED020A94ED020AF0EE000A9B
:1054000020EE200A84ED030A94ED020A84ED040ADA
:10541000B7EE000A18EE080AF0EE000A20EE200AA5
:10542000C0EE280AC4ED000A9FED0F0AFDF7C8FF81
:10543000F0EE000A60EE200AB7EE000A00EEC80A9D
:1054400008EE080AC0EE280AC4ED010A9FED070A1B
:1054500084ED050A9FED050A84ED060ABDEC068B76
:1054600010BD0000DB0F4940DB0F493F000000008A
:105470001CB5FBF75BFB0748012100238022CDE927
:10548000001005A1074802F01FFE02F07BF8002083
:105490001CBD00000000002073746172745F7461B1
:1054A000736B0000356D000870B504460D4634B1CD
:1054B000012C09D0022C0CD0032C14D10EE029466B
:1054C0000A48FDF7D0FC0FE029460948FDF7CBFC60
:1054D0000AE029460748FDF7C6FC05E029460648CC
:1054E000FDF7C3FC00E000BF00BF70BD00400140FD
:1054F0000000014000080040000C004088B020215E
:105500006846FAF707FF23E04FF0FF3111480068C3
:1055100002F0B8FC01281BD16846FCF753FF08B91C
:10552000012400E000246846FCF748FE08B9012089
:1055300000E0002004405CB107490848FCF764FE25
:105540000748006808B9012000E00020044908600D
:10555000DAE7000060010020DC01002014000020D8
:10556000B802414201B52DED060BDFED150AC0ED85
:10557000020ADFED130AC0ED010ADFED110AC0EDEA
:10558000030ADFED0F0AC0ED040ADFED0E0AC0EDDD
:10559000080ADFED0B0AC0ED090A80ED000ADDED17
:1055A000010AC0ED050ADDED020AC0ED060ADDEDD7
:1055B000030AC0ED070A80ED0D2A07B000BD000008
:1055C000000000000000FA43DFED0C0AB4EEE00A30
:1055D000F1EE10FA02DD47F6FF707047DFED080AC2
:1055E000B4EEE00AF1EE10FA01D20648F5E7FDEE5E
:1055F000C00A10EE900A00B2EFE7000000FEFF467E
:1056000000FEFFC60180FFFF80ED080A7047F0EE44
:10561000400AC0ED010A90ED031AD0ED011A90ED99
:105620000D2A01EE821A80ED031A90ED031AD0EDD7
:10563000081AB4EEE11AF1EE10FA04DD90ED081A42
:1056400080ED031A10E090ED031AD0ED081AF1EE88
:10565000611AB4EEE11AF1EE10FA05D290ED081AD3
:10566000B1EE411A80ED031A90ED011AD0ED021A45
:1056700031EE611AD0ED0D1A21EE211A80ED041AD7
:1056800090ED051AD0ED011A21EE211A80ED0A1ACB
:1056900090ED061AD0ED031A21EE211A80ED0B1AB7
:1056A00090ED071AD0ED041A21EE211A80ED0C1AA4
:1056B00090ED0A1AD0ED0B1A31EE211AD0ED0C1A2A
:1056C00031EE210A90ED091AB5EEC01AF1EE10FA8A
:1056D0001AD090ED091AB4EEC01AF1EE10FA04D205
:1056E00090ED091AB0EE410A0EE090ED091AB1EE04
:1056F000411AB4EEC01AF1EE10FA05DD90ED091A68
:10570000B1EE411AB0EE410AC0ED020A80ED0E0A78
:105710007047000010B52DED028B0446B4F900006F
:1057200000EE100AB8EEC00AF0EE000A80EE201A71
:10573000BDEEC10A10EE100A00B208EE100AB4F96C
:10574000020000EE100AB8EEC00AF0EE000A80EE89
:10575000201ABDEEC10A10EE100A00B208EE900A3F
:1057600094ED020AF8EEC80A30EE600AF8EEE80A94
:1057700070EE600AB4F9041000EE101AB8EEC00A18
:1057800030EE800ABDEEC00A10EE100AFFF7E0FD11
:105790003549086094ED020AF8EEC80A30EE600A56
:1057A000F8EEE80A70EE200AB4F9041000EE101AC0
:1057B000B8EEC00A30EEC00ABDEEC00A10EE100A04
:1057C000FFF7C6FD2849486094ED020AF8EEC80AC2
:1057D00030EE200AF8EEE80A70EE200AB4F9041060
:1057E00000EE101AB8EEC00A30EE800ABDEEC00A14
:1057F00010EE100AFFF7ACFD1B49886094ED020A19
:10580000F8EEC80A30EE200AF8EEE80A70EE600AF8
:10581000B4F9041000EE101AB8EEC00A30EEC00A57
:10582000BDEEC00A10EE100AFFF792FD0E49C860E7
:105830000846008881B20020FFF736FE0A488088BB
:1058400081B20120FFF730FE0748008981B20220B3
:10585000FFF72AFE0448808981B20320FFF724FE67
:10586000BDEC028B10BD00004C1F00202DE9F0475D
:1058700004466078217840EA01200FFA80F8E07849
:10588000A17840EA01200FFA80FA6079217940EA94
:1058900001200FFA80F9607A217A40EA012005B2EE
:1058A000E07AA17A40EA012006B2607B217B40EADF
:1058B000012007B25548A0F800A0A0F80280A0F887
:1058C00004905348D0ED000A00EE106AB8EEC00A0A
:1058D00030EE600ABDEEC00A10EE100A00B24D496B
:1058E00008804B48D0ED010A00EE105AB8EEC00A0D
:1058F00030EE600ABDEEC00A10EE100A00B2488019
:105900004348D0ED020A00EE107AB8EEC00A30EE3D
:10591000600ABDEEC00A10EE100A00B288803C4B4F
:105920003A462946304600F0EFF83B4908700846F1
:10593000007820B14A464146504600F077F8344896
:10594000D0ED000A00EE106AB8EEC00A30EE600A30
:10595000B1EE400ADFED310A20EE200A304880ED3A
:10596000030A2B48D0ED010A00EE105AB8EEC00A27
:1059700030EE600ADFED290A20EE200A284880ED8B
:10598000040A2348D0ED020A00EE107AB8EEC00AED
:1059900030EE600ADFED210A20EE200A204880ED7B
:1059A000050ACAF1000000EE100AB8EEC00ADFEDE9
:1059B0001D0A20EE200A1C48D0ED000A80EE201AB5
:1059C000174880ED001A00EE108AB8EEC00ADFED2D
:1059D000150A20EE200A1448D0ED000A80EE201AA5
:1059E0000F4880ED011A00EE109AB8EEC00ADFED04
:1059F0000D0A20EE200A0C48D0ED000A80EE201A95
:105A0000074880ED021ABDE8F08700004200002040
:105A10008C0300203C0000203000002000007A3D74
:105A2000980300200000003A3800002070B52DEDEA
:105A3000028B04460D4616462D480078F0BB00EE5A
:105A4000904AF8EEE00A9FED2B1A60EE810AB0EE64
:105A5000600AF0EE000AFDF75BFDF0EE408A00EE12
:105A6000905AF8EEE00A9FED231A60EE810AB0EE3C
:105A7000600AF0EE000AFDF74BFD78EE808A00EE3A
:105A8000906AF8EEE00A9FED1B1A60EE810AB0EE14
:105A9000600AF0EE000AFDF73BFD38EE800AB0EE3A
:105AA000408AFEF767F81448D0ED000A30EE200A6D
:105AB00080ED000A11480068401C00E012E00F4928
:105AC000086008460068C8280CD10B4890ED000A11
:105AD000DFED0B0A80EE201A0A4880ED001A012043
