:020000040800F2
:10000000083201205D020008051C0008230C0008CE
:10001000011C0008290A00083D2700080000000014
:100020000000000000000000000000009D0100082A
:100030002D0A000800000000F901000889210008CD
:1000400077020008770200087702000877020008AC
:10005000770200087702000877020008770200089C
:10006000770200087702000877020008770200088C
:10007000770200087702000877020008770200087C
:10008000770200087702000877020008770200086C
:10009000770200087702000877020008770200085C
:1000A000770200087702000877020008770200084C
:1000B0007702000831230008770200087702000861
:1000C000770200087702000877020008770200082C
:1000D000770200087702000877020008770200081C
:1000E000770200087702000877020008770200080C
:1000F00077020008770200087702000877020008FC
:1001000077020008770200087702000877020008EB
:1001100077020008770200087702000877020008DB
:1001200077020008770200087702000877020008CB
:1001300077020008770200087702000877020008BB
:1001400077020008770200087702000877020008AB
:10015000770200087702000877020008770200089B
:10016000770200087702000877020008770200088B
:1001700077020008770200087702000800000000FC
:100180007702000877020008DFF80CD000F0E2FBED
:1001900000480047213D0008083201202C4B196817
:1001A0000868B0E8F04F80F30988BFF36F8F4FF015
:1001B000000080F3118870470000000008480068C4
:1001C000006880F308884FF0000080F3148862B65E
:1001D00061B6BFF34F8FBFF36F8F00DF00BF00BF6B
:1001E00008ED00E0DFF80C00016841F470010160E7
:1001F000704700BF88ED00E0EFF30980BFF36F8F19
:10020000134B1A681EF0100F08BF20ED108A20E96A
:10021000F04F106009B44FF0500080F31188BFF325
:100220004F8FBFF36F8F04F01BFF4FF0000080F380
:10023000118809BC19680868B0E8F04F1EF0100F6B
:1002400008BFB0EC108A80F30988BFF36F8F704746
:1002500050000020EFF305807047000006488047FB
:1002600006480047FEE7FEE7FEE7FEE7FEE7FEE79B
:10027000FEE7FEE7FEE7FEE7C92200088901000865
:1002800040EA01039B0703D009E008C9121F08C018
:10029000042AFAD203E011F8013B00F8013B521E98
:1002A000F9D27047D2B201E000F8012B491EFBD20F
:1002B00070470022F6E710B513460A460446194671
:1002C000FFF7F0FF204610BD2DE9FE4F804681EA82
:1002D0000300C00F0C46009021F0004123F00045C0
:1002E000B8EB0200A94105D24046214690461C4683
:1002F0000B46024623F00040104347D0270DC7F3BA
:100300000A00C3F30A510290401A019040286BDAA8
:10031000C3F3130040F4801B0098924620B10023E1
:10032000D2EB030A63EB0B0B01985946C0F1400274
:10033000504600F0D8F906460D4650465946019AF7
:1003400000F0E0F910EB08006141002487EA115247
:1003500084EAE7731A4340D0009A62B3019A012AF3
:100360004FEA075215DC001B61EB02014FF000421F
:1003700002EA0752CDE90042001C41F580113246E5
:100380002B4600F017FA03B0BDE8F08F4046214637
:10039000F9E7001B61EB0201001C41F58013001816
:1003A0005B412018A2F5001747EB030140EAD57026
:1003B000B6196D4111E06D084FEA360645EAC07581
:1003C0004FEA0752001B61EB0201001C41F580114E
:1003D00049084FEA30000019514132462B4603B01C
:1003E000BDE8F04F00F0D7B900980122400000238B
:1003F000D0EB020263EBE073009821464FEAE07411
:10040000B8EB000061EB0401E9E783F000435BE730
:1004100081F0004158E72DE9FE4F81EA030404F022
:10042000004421F0004100944FF0000B23F0004302
:1004300050EA01045ED052EA03045BD0C3F30A54CD
:10044000C1F30A552C44A4F2F3340194A0FB0254E6
:10045000C1F3130141F48011C3F3130343F4801378
:1004600001FB024400FB034E840A970A44EA8154CC
:1004700047EA8357A4FB076802958D0A05FB0785A9
:100480004FEA932C04FB0C542705029D4FEA0658B3
:1004900047EA1637B5EB08056EEB070C870E920E90
:1004A00047EA811742EA8312A7FB0201B6EB0B0170
:1004B00064EB00042B0D43EA0C335E1844EB1C5034
:1004C000DA465146E7FB0201C5F313044FEA0B334A
:1004D00043EA14534FEA0432019C43EA0603A4F1B1
:1004E0000C040294009CCDE900B400F063F903B061
:1004F000BDE8F08F00200146F9E72DE9F04D81EAD3
:10050000030404F0004B21F0004514464FF0000AAC
:1005100023F0004150EA050220D054EA01021DD028
:10052000C5F30A570246C5F31303C1F31300C1F321
:100530000A5640F4801543F48013A7EB0608101BFD
:10054000D64608F2FD3873EB050002D308F1010826
:1005500001E092185B41B8F1000F03DA0020014678
:10056000BDE8F08D00204FF48011064684460EE071
:10057000171B73EB050705D3121B63EB050306433B
:100580004CEA010C49084FEA300092185B4150EAEE
:100590000107EDD152EA030012D082EA040083EA97
:1005A0000501084305D0101BAB4106D201220023F0
:1005B00006E000224FF0004302E06FF0010253100A
:1005C0001AEB06004CEB085110EB0A0041EB0B0153
:1005D000BDE8F04D00F0DFB80EB5C10F80EAE07065
:1005E0000844CA07002140F233438DE80E000A4652
:1005F0000B4600F0DFF803B000BD00F0004230F021
:1006000000400AD0C10D01F56071C0F3160042EA46
:100610000151C2084007114370470020014670474E
:1006200001F0004330B421F0004150EA010206D04D
:100630000A0DA2F56072C1F31301002A02DC30BC7E
:1006400000207047440F44EAC104C100E01830BCE8
:1006500000EBC25000F068B830B50B4601460020F0
:100660002022012409E021FA02F59D4205D303FA74
:1006700002F5491B04FA02F52844151EA2F10102F5
:10068000F1DC30BD2DE9F05F0546002092469B4627
:1006900088460646814640241BE028464146474698
:1006A000224600F069F953465A46C01A914110D3C8
:1006B00011461846224600F016F82D1A67EB01087D
:1006C0004F4622460120002100F00DF817EB0009EB
:1006D0004E41201EA4F10104DFDC484631462A4683
:1006E0004346BDE8F09F202A04DB203A00FA02F1DD
:1006F000002070479140C2F1200320FA03F3194310
:1007000090407047202A06DBCB17203A41FA02F0CE
:1007100043EAE07306E041FA02F3D040C2F120025E
:1007200091400843194670470029A8BF7047401CF4
:10073000490008BF20F00100704710B4B0FA80FCF7
:1007400000FA0CF050EA010404BF10BC704749B134
:10075000CCF1200421FA04F411FA0CF118BF0121A4
:1007600021430843A3EB0C01CB1D4FEA00614FEA84
:10077000102042BF002010BC704700EBC350104453
:100780000029A4BF10BC7047401C490008BF20F0DE
:10079000010010BC704710B5141E73F1000408DA94
:1007A000401C41F1000192185B411A4301D120F035
:1007B000010010BD2DE9F04D92469B4611B1B1FAF2
:1007C00081F202E0B0FA80F220329046FFF78BFF10
:1007D00004460F4640EA0A0041EA0B0153465A46D6
:1007E000084313D0114653EA010019D0C8F1400262
:1007F000504600F0C1F805460E465046594642465E
:10080000FFF771FF084305D0012004E02046394678
:10081000BDE8F08D0020054346EAE0762C433743DF
:100820000A986305E40AA0EB08000022FD0A44EAE6
:1008300047540A3002D500200146E9E701051019A6
:100840006941DDE9084500196941BDE8F04DA2E7BD
:100850002DE9F04D00231A461B1A8A4103DB0020C4
:100860000146BDE8F08DC1F30A52C1F3130141F412
:1008700080154FF0000BD10702D100186D41521EB8
:100880000027044640F2FF11384601EB620A3E465B
:100890008046024600204FF4801100F06DF8C21926
:1008A0007141BB1846EB0100B4EB030C75EB000C77
:1008B00004D3E41A65EB000517460E46241908F127
:1008C00001006D4180463428E3DDF91946EB06004E
:1008D000091BA84103D24FF0FF32134601E000226A
:1008E00013461BEB070046EB0A51BDE8F04DFFF73E
:1008F00052BFC1F30A52C1F3130140F2FF3341F476
:1009000080119A4202DA00200146704740F23343D8
:100910009A42A2F2334202DC524200F02DB8FFF7B5
:10092000E2BE000030B5041E71F1000404DB4FF09C
:100930000044404264EB0101141E73F1000405DB26
:100940001C464FF00043524263EB0403994208BF38
:10095000904230BD064C074D06E0E06840F00103D0
:1009600094E8070098471034AC42F6D3FFF710FC28
:10097000305E0008505E0008202A04DB203A21FA8D
:1009800002F00021704721FA02F3D040C2F12002A8
:10099000914008431946704710B5072302220821E9
:1009A0004FF4A87001F0BCFB42F2CF0141F63F705A
:1009B00001F0C6FE4FF4FA71042000F059FE4FF426
:1009C000E131542004F024F800F07EFE00F054F9E8
:1009D00000F064FA00F09AFE01F03CF900200749AB
:1009E000086001F011F918B105A001F0D9FE02E08C
:1009F00007A001F0D5FE01F049FA10BD9002404277
:100A0000446576696365204572726F72210D0A0034
:100A100044657669636520496E6974205375636324
:100A2000657373210D0A000000BFFEE7704730B503
:100A3000CC1000F1200353F824304C07E50E0F24AE
:100A4000AC40A343CD1000F1200444F82530CC1075
:100A500000F1200353F824304C07E40E02FA04F4AA
:100A60002343CD1000F1200444F8253030BDF0B50B
:100A70000A4600210023002400BF3DE0012505FABD
:100A800001F3156805EA03049C4234D105684F0060
:100A90000326BE40B543056015794E00B540066893
:100AA000354305601579012D02D01579022D16D137
:100AB00085684F000326BE40B543856055794E00DA
:100AC000B540866835438560456801268E40B5434C
:100AD0004560456896798E40B6B235434560C56835
:100AE0004F000326BE40B543C560D5794E00B540E2
:100AF000C6683543C560491C1029BFD3F0BDF0B5A9
:100B0000002300244D07ED0E02FA05F3CE1000F18C
:100B1000200555F826504E07F70E0F26BE40B54368
:100B2000CF1000F1200646F82750CE1000F1200526
:100B300055F8265045EA0304CE1000F1200545F88B
:100B40002640F0BD2DE9F0470C46DDE9086700219D
:100B500000258C4600BF60E04FF0010808FA01F55F
:100B600004EA050CAC4557D1D0F800804FEA410AA1
:100B70004FF0030909FA0AF928EA0908C0F80080C9
:100B8000D0F800804FEA410902FA09F948EA090859
:100B9000C0F80080012A01D0022A27D1D0F80880AD
:100BA0004FEA410A4FF0030909FA0AF928EA09084D
:100BB000C0F80880D0F808804FEA410906FA09F920
:100BC00048EA0908C0F80880D0F804904FF00108FE
:100BD00008FA01F829EA0809C0F80490D0F804805E
:100BE00003FA01F948EA0908C0F80480D0F80C803B
:100BF0004FEA410A4FF0030909FA0AF928EA0908FD
:100C0000C0F80C80D0F80C804FEA410907FA09F9C6
:100C100048EA0908C0F80C80491C10299CD3BDE89B
:100C2000F08700BFFEE7000000B500200F49086014
:100C30000F48006820F440400D49086008460068ED
:100C400040F48040086000200A49C1F89C0202205C
:100C500002F049FF012005490860022002F043FF2D
:100C600000200449C1F8980200BD0000988240426B
:100C700000040240008040421CB50121022001F026
:100C8000B5F8C020009001208DF8040000208DF8F8
:100C9000060003208DF8050001208DF80700694645
:100CA0000448FFF7E4FE0120034908600349C1F846
:100CB0009C021CBD000402409882404200804042D9
:100CC00000B500200F4908600F48006820F440403C
:100CD0000D4908600846006840F480400860012023
:100CE0000A49C1F89C02022002F0FDFE01200549DC
:100CF0000860022002F0F7FE00200449C1F89802C3
:100D000000BD000098824042000402400080404242
:100D100030B5044600231648006820F440401449CA
:100D20000860084600680860002516E000201149A8
:100D30000860022002F0D7FE01200F49C1F8980296
:100D40005806030E0B487C38006808B1581CC3B223
:100D5000012002F0C8FE681CC5B2082DE6DB14B9FC
:100D6000FFF7AEFF01E0FFF75FFF184630BD000060
:100D7000000402409882404200804042F0B506469E
:100D80000F4614461D4600F0B5F8002141EA460121
:100D9000C8B200F04FF800F0F9F818B100F0D0F840
:100DA0000120F0BD384600F045F800F0EFF800F003
:100DB000A1F8012101EB4601C8B200F03BF800F0B8
:100DC000E5F80DE0012C04D10020FFF7A1FF287009
:100DD00003E00120FFF79CFF2870601EC4B26D1C69
:100DE000002CEFD100F0ACF80020DAE770B5044633
:100DF0000D4600F07FF8002141EA4401C8B200F03E
:100E000019F800F0C3F8284600F014F800F0BEF816
:100E100000F070F8012101EB4401C8B200F00AF8BB
:100E200000F0B4F80020FFF773FF064600F088F8E2
:100E3000304670BD10B503461548006820F44040A8
:100E4000134908600846006840F4804008600020AC
:100E500010490860002417E0D8090E49091D0860F0
:100E60005806030E022002F03EFE01200A49C1F896
:100E70009802022002F037FE002006490860022096
:100E800002F031FE601CC4B2082CE5DB10BD00008E
:100E900000040240988240420080404270B5002425
:100EA000002500BF13E000F025F8002141EA4401CD
:100EB000C8B2FFF7BFFF00F069F805461DB921462B
:100EC00006A001F06DFC00F03BF8601CC4B2FF2CE2
:100ED000E9DB07A001F064FC70BD00004949435FF5
:100EE00041444452203D202523780D0A0000000093
:100EF0000D0A000000B50F48006820F440400D497D
:100F000008600846006840F48040086001200A49F3
:100F100008600A49C1F89802042002F0E4FD0020AC
:100F200005490860042002F0DEFD00200349C1F8F5
:100F3000980200BD000402409C8240420080404272
:100F400000B50F48006820F440400D49086008468D
:100F5000006840F48040086000200A4908600A499F
:100F6000C1F89C02042002F0BEFD01200549086082
:100F70000549C1F89C02042002F0B5FD00BD000047
:100F800000040240988240420080404200B50023A5
:100F90001348006820F44040114908600846006882
:100FA000086001200F49086002F09DFD01200E49F4
:100FB000C1F8980202F097FD07E0581CC3B2FA2B63
:100FC00003DDFFF7BDFF012000BD06488038006843
:100FD0000028F2D10349091F086000BFF4E70000B0
:100FE000000402409C8240420080404270B50446AA
:100FF0000D461646FFF77EFF002141EA4401C8B2C4
:10100000FFF718FFFFF7C2FF18B1FFF799FF0120A4
:1010100070BD2846FFF70EFFFFF7B8FF3046FFF719
:1010200009FFFFF7B3FF18B1FFF78AFF0120EFE7D1
:10103000FFF786FF0020EBE700B52DED108B91B098
:10104000B0EE409AB0EE608AF0EE418AB0EE61DA1E
:10105000B0EE42AAF0EE62AA9FEDFE0AF0EE40DA90
:101060009FEDFC0AF0EE409AFB4890ED000A20EE5E
:10107000000A8DED0D0A90ED000AF848D0ED000A47
:1010800020EE200A8DED0C0AF34890ED000AF4489A
:10109000D0ED000A20EE200A8DED0B0AEF4890ED0E
:1010A000000A20EE000A8DED0A0A90ED000AED48D4
:1010B000D0ED000A20EE200A8DED090AE84890EDF7
:1010C000000A20EE000A8DED080A90ED000AE548BE
:1010D000D0ED000A20EE200A8DED070A90ED000AFF
:1010E00020EE000A8DED060A2DEE0D0A0AEE0A0A20
:1010F0000AEEAA0A10EE101A0846FFF77EFA41EC33
:101100001C0BB0EE4C0AF0EE6C0A01F085FFB0EE5D
:1011100040BAF0EE60BA51EC1B0BFFF781FA09EE12
:10112000900A8DEE290AB0EE40DA8AEE290AB0EE76
:1011300040AA8AEEA90AF0EE40AA9DED090ADDED6B
:101140000B0A30EE600AF0EE000A20EE200AB0EE44
:1011500040EA9DED0C0ADDED070A30EE200AF0EEC4
:10116000000A20EE200AF0EE40EA9DED0D0ADDEDCA
:101170000A0A70EE600A9DED080A70EEC00A9DED45
:10118000060A30EE800AB0EE40FA2AEE0F0A0AEEA6
:10119000EE0AF0EE40FA2AEE8E0A0DEE4F0A8DEDC1
:1011A0000F0A2DEE2E0A0AEE4E0A8DED0E0A9FED65
:1011B000AE0AAE4880ED000A9FEDAB0A6FEE800AE2
:1011C00090ED001A80EE810A30EE090AB0EE409AE6
:1011D0009DED0F0ADFEDA40A60EE200A90ED001AE3
:1011E00080EE810A30EE080AB0EE408A9DED0E0ACC
:1011F000DFED9D0A60EE200A90ED001A80EE810A74
:1012000030EE280AF0EE408A90ED000AF0EE000A77
:1012100020EE200A20EE090A20EE000AD0ED000A96
:10122000B0EE001A60EE810A60EE880A90ED001AB6
:10123000F0EE001A21EE211A21EE081A00EE810AC2
:10124000D0ED000AB0EE001A60EE810A60EEA80A46
:1012500090ED001AF0EE001A21EE211A21EE281A64
:1012600000EE810AF0EE40DAF2EE000A8DEEA00AFE
:10127000F7EE000A30EEC00A7748D0ED000A60EEC3
:10128000200A764890ED000AB1EE400A20EE090AE5
:10129000734890ED001A01EE480A724890ED001A6A
:1012A00001EE680A714890ED001A40EE010A6A48A2
:1012B000C0ED000AF2EE000A8DEEA00AF7EE000A79
:1012C00030EEC00A6548D0ED000A60EE200A6248A0
:1012D00090ED000A20EE090A614890ED001A01EE37
:1012E000280A604890ED001A01EE480A5F4890ED28
:1012F000001A40EE010A5948C0ED000AF2EE000A59
:101300008DEEA00AF7EE000A30EEC00A5448D0ED88
:10131000000A60EE200A504890ED000A20EE080A0C
:101320004E4890ED001A01EE680A4E4890ED001A02
:1013300001EE090A4D4890ED001A40EE010A4848B6
:10134000C0ED000AF2EE000A8DEEA00AF7EE000AE8
:1013500030EEC00A4348D0ED000A60EE200A3E4855
:1013600090ED000A20EE280A3C4890ED001A01EEAC
:10137000080A3B4890ED001A01EE490A3B4890EDFF
:10138000001A40EE010A3748C0ED000A324890EDDD
:10139000000A20EE000A3148D0ED000A90ED001A54
:1013A00000EE810A2E48D0ED000A90ED001A00EE02
:1013B000810A2C48D0ED000A90ED001A00EE810A57
:1013C00010EE101A0846FFF718F941EC1C0BB0EEAE
:1013D0004C0AF0EE6C0A01F01FFEB0EE40BAF0EEDF
:1013E00060BA51EC1B0BFFF71BF909EE900A1A4883
:1013F00090ED000AC0EE290AC0ED000A174890EDF2
:10140000000AC0EE290AC0ED000A154890ED000A56
:10141000C0EE290AC0ED000A124890ED000AC0EEA5
:10142000290AC0ED000A0D4890ED000AF8EE000A06
:1014300020EE200A0B48D0ED000A20EE200A0648D4
:10144000D0ED000AB0EE001A60EE810A044890ED7B
:10145000001A0DE000000000280000202C000020F1
:1014600030000020340000206F12033B24000020D5
:1014700000EE810A10EE101A0846FFF7BEF8CDE91B
:1014800004019DED040B01F0B3F9B0EE40BAF0EEAB
:1014900060BA9FED6A0B53EC102B51EC1B0BFEF75F
:1014A000BAFF41EC1C0BFFF7BBF866494860664881
:1014B00090ED000AF8EE000A20EE200AD0ED000AB6
:1014C00020EE200A6148D0ED000AB0EE001A60EE6E
:1014D000810A90ED001A00EEC10AF7EE000A30EE24
:1014E000200A10EE101A0846FFF787F841EC1B0B94
:1014F000564890ED000AF0EE000A20EE200A54480B
:10150000D0ED000A20EE200A5248D0ED000AB0EEDD
:10151000001A60EE810A4C4890ED001A00EE810A34
:1015200010EE101A0846FFF768F841EC1C0BB0EEFD
:101530004B1AF0EE6B1AB0EE4C0AF0EE6C0A01F0AA
:1015400073FC8DED020B9FED3D0B53EC102B9DEDCD
:10155000020B51EC100BFEF75EFFCDE904019DED8F
:10156000040B51EC100BFFF75BF836490860374865
:1015700090ED000AF8EE000A20EE200AD0ED000AF5
:1015800020EE200A3248D0ED000AB0EE001A60EEDC
:10159000810A90ED001A00EEC10AF7EE000A30EE63
:1015A000200A10EE101A0846FFF727F841EC1B0B33
:1015B000254890ED000AF0EE000A20EE200A2348AC
:1015C000D0ED000A20EE200A2248D0ED000AB0EE4D
:1015D000001A60EE810A1E4890ED001A00EE810AA2
:1015E00010EE101A0846FFF708F8B0EE4B1AF0EEAE
:1015F0006B1ACDE900019DED000B01F015FC8DED9E
:10160000020B9DED020B51EC100B81F0004141ECFF
:101610001C0B9FED0A0B53EC102BFEF7FCFECDE9E3
:1016200004019DED040B51EC100BFEF7F9FF054989
:10163000886011B0BDEC108B00BD00006666666668
:1016400066A64C40C80000202C000020300000207E
:1016500034000020280000204CF6CC4001490860EE
:10166000704700000030004010B500F013F810BDC6
:1016700070B505460C4645F2555000F01FF8284657
:1016800000F010F8204600F013F800F003F8FFF720
:10169000E3FF70BD4AF6AA200149086070470000C8
:1016A00000300040014948607047000000300040B1
:1016B000014988607047000000300040014908601F
:1016C00070470000003000401CB50C48006840F036
:1016D00004000A490860012000210B460246CDE9BA
:1016E00000104FF4C0410648FFF72CFA01200549CD
:1016F00008600549C1F8B8021CBD0000303802403E
:1017000000080240B40241420000414200B58BB0E3
:10171000644800F047FE644800F044FE634800F06F
:1017200041FE634800F03EFE01214FF0011000F041
:101730008DFB01210C2000F069FB0121192000F034
:1017400055FB02208DF8280000208DF82A008DF826
:101750002B0003208DF829000220099009A9554883
:10176000FFF785F92020099009A95348FFF77FF971
:101770004FF48050099009A95048FFF778F94FF4C9
:101780008070099009A94B48FFF771F902220C21DA
:101790004A48FFF7B4F9032205214748FFF7AFF99C
:1017A000022201214348FFF7AAF9012208214148FA
:1017B000FFF7A5F9A720ADF818000020ADF820002C
:1017C000ADF81A0040F2E730079000208DF82200B3
:1017D00006A9374800F070FF06A9324800F06CFFF8
:1017E0005320ADF8180006A92F4800F065FF06A9A0
:1017F0002E4800F061FF6020ADF804000120ADF834
:1018000006000020ADF81000ADF80800ADF8140097
:101810004FF4FA70039001A9254800F0A5FE0821B5
:10182000234800F0DFFE0121214800F091FD012155
:101830001F4800F09CFD01A91A4800F095FE082100
:10184000184800F0CFFE0121164800F081FD01216B
:10185000144800F08CFD0121124800F094FD01A90C
:10186000114800F081FE08210F4800F0BBFE012165
:101870000D4800F06DFD01210B4800F078FD01A935
:101880000A4800F0B9FE0821084800F007FF0121CE
:10189000064800F05DFD0121044800F068FD0BB032
:1018A00000BD00000000014000080040000C0040A6
:1018B000004001400000024000100240000C0240C5
:1018C00010B50024FFF7D8F980226B216820FFF7BC
:1018D0008DFB642003F07CFA00226B216820FFF767
:1018E00085FB032000F0EFF8002000F0E3F8322041
:1018F00000F010F9002238216820FFF777FB002262
:101900006A216820FFF772FB002223216820FFF77D
:101910006DFB822237216820FFF768FB7521682064
:10192000FFF764FA0446712C0DD101226B21682067
:10193000FFF75CFB00226C216820FFF757FB322089
:1019400000F0E8F801E0012010BD0020FCE77CB5C4
:1019500004466B4606223B216820FFF70FFA054636
:10196000BDB99DF801009DF8001040EA012000B2C9
:1019700020809DF803009DF8021040EA012000B28B
:1019800060809DF805009DF8041040EA012000B237
:10199000A08028467CBD7CB504466B4606224321C8
:1019A0006820FFF7EBF90546BDB99DF801009DF8E9
:1019B000001040EA012000B220809DF803009DF84D
:1019C000021040EA012000B260809DF805009DF8F9
:1019D000041040EA012000B2A08028467CBD7CB5FE
:1019E00004466B46062203210C20FFF7C7F9054683
:1019F000BDB99DF800009DF8011040EA012000B239
:101A000020809DF802009DF8031040EA012000B2FA
:101A100060809DF804009DF8051040EA012000B2A6
:101A2000A08011220A210C20FFF7E0FA28467CBD95
:101A300010B52DED088B82B001AB02224121682048
:101A4000FFF79CF99DF805009DF8041040EA01207D
:101A500004B22046FEF7C0FD41EC1B0B9FED100BBE
:101A600053EC102BFEF749FD41EC1A0B9FED0E0BCA
:101A700053EC102BFEF728FC41EC190BFEF7D0FDC0
:101A800008EE100A9FED0A0A28EE000ABDEEC00A11
:101A900010EE100A00B202B0BDEC088B10BD0000C1
:101AA00052B81E85EBDD7440000000000000354098
:101AB0000000C84210B50446E006020E1C21682052
:101AC000FFF794FA10BD10B50446E006020E1B2184
:101AD0006820FFF78BFA10BD70B504460025BC2CBA
:101AE00001DB012510E0622C01DB02250CE02A2C31
:101AF00001DB032508E0142C01DB042504E00A2C9B
:101B000001DB052500E006252A461A216820FFF79B
:101B10006DFA70BD70B50446B4F57A7F01DD4FF4FF
:101B20007A74042C00DA04244FF47A7090FBF4F0F9
:101B3000401EC5B22A4619216820FFF757FA05460C
:101B4000264604EBD671C1F34F00FFF7C5FF70BD09
:101B50002DE9F0410746884614461D46284600F008
:101B600033F8C5F1040007FA00F60F20284100EA17
:101B70000800064306F00F06E21704EBD26252118A
:101B8000920002F1E022D2F800212146E31704EB93
:101B9000D3635B11A4EB431C012303FA0CF31A4338
:101BA0002046E31704EBD3635B119B0003F1E023B2
:101BB000C3F800210348005D40EA061001490855BA
:101BC000BDE8F08100E400E00146072323EA0102BA
:101BD0001202054B18684FF6FF031840034B1843D9
:101BE0001043014B186070470CED00E00000FA054F
:101BF0004A0A52020243014B1A60704708ED00E0A6
:101C000000BFFEE7704700001CB510A103C9CDE975
:101C1000000105226946302000F076F80522694669
:101C2000102000F053F8002406E01DF80400A52859
:101C300000D003E0601CC4B2052CF6DB00BF052C0D
:101C400001D001201CBD0020FCE70000A5A5A5A532
:101C5000A50000001CB50121052000F0C7F80120F7
:101C60008DF8040000208DF8060003208DF8050093
:101C700000208DF807001020009069460F48FEF7FD
:101C8000F6FE1020009069460D48FEF7F0FE012098
:101C90008DF8070000208DF8040020200090694690
:101CA0000748FEF7E4FE01200649086000F01AF933
:101CB00000200549C1F890021CBD00000000024050
:101CC0000008024090024042000041422DE9F041EC
:101CD00007460D46164600200A490860384600F0BF
:101CE00055F98046002405E0FF2000F04FF9285503
:101CF000601CC4B2B442F7DB0120024908604046D0
:101D0000BDE8F081900240422DE9F04107460C46C3
:101D1000154600200A490860384600F037F9804629
:101D2000002605E014F8010B00F030F9701CC6B273
:101D3000AE42F7DB0120024908604046BDE8F08171
:101D40009002404270B505460C46002007490860E5
:101D5000284600F01BF90646204600F017F901203E
:101D60000349C1F89002304670BD00009002404225
:101D70000000404270B5002100230F22C4781CB33C
:101D8000174C246804F4E064C4F5E064C4F307214C
:101D9000C1F10404E3B20A4144789C40E1B2847882
:101DA000144021430C07210E0E4C05786155047830
:101DB00004F01F050124AC4005786D11AD0005F15C
:101DC000E025C5F8004109E0047804F01F0501246E
:101DD000AC40054D0678761145F8264070BD0000F0
:101DE0000CED00E000E400E080E100E029B1064AEB
:101DF00012680243044B1A6004E0034A12688243EB
:101E0000014B1A60704700003038024029B1064A81
:101E100012680243044B1A6004E0034A12688243CA
:101E2000014B1A60704700004038024029B1064A51
:101E300012680243044B1A6004E0034A12688243AA
:101E4000014B1A60704700002038024029B1064A51
:101E500012680243044B1A6004E0034A126882438A
:101E6000014B1A60704700004438024029B1064A0D
:101E700012680243044B1A6004E0034A126882436A
:101E8000014B1A60704700002438024010B5002052
:101E900011490860052211492A20FFF735FF012169
:101EA0002120FFF74FFF01212220FFF74BFF2821C0
:101EB0002520FFF747FF20213120FFF743FF0F21A7
:101EC0002620FFF73FFF0F212020FFF73BFF0120D7
:101ED0000349C1F8900210BD90024142355D0008EF
:101EE0000000414200B587B001210846FFF77EFFA0
:101EF00001210803FFF7AAFFE020059002208DF8DA
:101F0000180000208DF81A0003208DF8190005A98B
:101F10001C48FEF7ACFD052211461A48FEF7EFFDFE
:101F2000052206211748FEF7EAFD0522072115487C
:101F3000FEF7E5FD0020ADF800004FF48270ADF82B
:101F400002000020ADF80400ADF80600ADF808006E
:101F50004FF40070ADF80A002820ADF80C00002006
:101F6000ADF80E000720ADF810006946064800F0F5
:101F700043F80121044800F025F8FF2000F006F89E
:101F800007B000BD000002400030014010B504461B
:101F900000BF02210A4800F021F80028F9D02146AC
:101FA000074800F027F800BF0121054800F016F8A7
:101FB0000028F9D0024800F01AF8C0B210BD0000A5
:101FC0000030014021B1028842F04002028004E06A
:101FD00002884FF6BF731A40028070470246002005
:101FE00013890B400BB1012000E00020704701462F
:101FF000888970478181704710B50022028802F4F9
:1020000041520B884C8823438C882343CC8823433C
:102010000C8923434C8923438C892343CC89234354
:102020001A430280838B4FF2FF74234083830B8A11
:10203000038210BD0CB50020019000903448006868
:1020400040F480303249086000BF3148006800F435
:10205000003000900198401C0190009818B9019838
:10206000B0F5A04FF1D12A48006800F4003010B15B
:102070000120009001E0002000900098012846D146
:1020800023484030006840F08050214940310860CA
:102090002048006840F440401E4908601C48083051
:1020A00000681B49083108600846006840F4004099
:1020B00008600846006840F4A05008601648091FF0
:1020C0000860081F006840F08070091F086000BFAA
:1020D0000F48006800F000700028F9D040F2057049
:1020E0000E4908600A480830006820F003000849DB
:1020F000083108600846006840F00200086000BF30
:1021000003480830006800F00C000828F8D10CBD26
:10211000003802400070004019544007003C024063
:10212000F0B504460D4616461F461448006840F0B8
:1021300001001249086000201049083108600F486A
:1021400000680F4908400D4908600E48091D0860E5
:10215000081F006820F48020091F0860002007493C
:102160000C3108603B4632462946204600F026F8EE
:1021700000210846FFF73CFDF0BD0000003802409A
:10218000FFFFF6FE1030002410B500BF502080F392
:102190001188BFF34F8FBFF36F8F00BF03F084FB35
:1021A00018B14FF080500449086000BF002080F350
:1021B000118800BF10BD000004ED00E0F0B504463A
:1021C0000D46002100203D4E366846F480363B4FD8
:1021D0003E6001E04E1CB1B2384E366806F400365F
:1021E0001EB941F6FF76B142F4DB41F6FF76B1420B
:1021F00001D1012060E0314E4036366846F080560D
:102200002E4F40373E602E4E366846F440462C4FE7
:102210003E602A4E0836366846F41446274F083783
:102220003E60264E366826F08076244F3E6045EAB2
:1022300084160127C7EB520746EA074646EA0366BB
:1022400046F480061D4F3F1D3E603E1F366846F037
:1022500080763F1F3E6000BF184E366806F000765D
:10226000002EF9D0174E366846F48076154F3E6042
:102270003E46366846F400763E603E46366846F492
:1022800080663E603E46366846F005063E600B4E70
:102290000836366826F00306084F08373E603E468B
:1022A000366846F002063E6000BF044E08363668C7
:1022B00006F00C06082EF8D1F0BD000000380240F0
:1022C00000700040003C024010B51548006840F422
:1022D0007000134908601348006840F0010011497C
:1022E000086000200F49083108600E4800680E4958
:1022F00008400C4908600D48091D0860081F006867
:1023000020F48020091F0860002006490C31086075
:10231000FFF790FE4FF0006001498039086010BD62
:1023200088ED00E000380240FFFFF6FE1030002488
:1023300010B50121054800F0FDF808B1FFF794F948
:102340000121024800F010F810BD00000004004018
:1023500021B1028842F08002028004E002884FF638
:102360007F731A4002807047CA430282704721B1CE
:10237000028842F00102028004E002884FF6FE73F8
:102380001A400280704731B1B0F8442042F4004254
:10239000A0F8442005E0B0F84420C2F30E02A0F8F3
:1023A0004420704710B504465548844208D10121A5
:1023B0000846FFF75BFD00210120FFF757FD9DE078
:1023C000B4F1804F08D101210846FFF72FFD00210D
:1023D0000120FFF72BFD91E04A48844208D10121FA
:1023E0000220FFF723FD00210220FFF71FFD85E0FB
:1023F0004548844208D101210420FFF717FD002140
:102400000420FFF713FD79E04048844208D1012100
:102410000820FFF70BFD00210820FFF707FD6DE006
:102420003B48844208D101211020FFF7FFFC002126
:102430001020FFF7FBFC61E03648844208D10121FF
:102440002020FFF7F3FC00212020FFF7EFFC55E0F0
:102450003148844208D101210220FFF707FD002105
:102460000220FFF703FD49E02C48844209D10121F5
:102470000804FFF7FBFC00214FF48030FFF7F6FC67
:102480003CE02748844209D101214804FFF7EEFCD3
:1024900000214FF40030FFF7E9FC2FE0214884428F
:1024A00009D101218804FFF7E1FC00214FF48020CD
:1024B000FFF7DCFC22E01C48844208D101214020C7
:1024C000FFF7B4FC00214020FFF7B0FC16E01748EE
:1024D000844208D101218020FFF7A8FC0021802040
:1024E000FFF7A4FC0AE01248844207D101218015BD
:1024F000FFF79CFC0021A015FFF798FC10BD000021
:10250000000001400004004000080040000C0040B2
:102510000010004000140040000401400040014051
:10252000004401400048014000180040001C0040E9
:102530000020004030B50246002000230024158A08
:1025400005EA0103958905EA010413B10CB10120E4
:1025500000E0002030BD1AB183890B43838102E083
:1025600083898B438381704770B500240022002348
:10257000058C4FF6FE7635400584028C8388048BEB
:102580004FF68F752C40B51E2C400D882C43751EC0
:102590002A408D892A434D882A43104DA84202D0F3
:1025A0000F4DA84213D14FF6F7752A40CD892A4323
:1025B0004FF6FB752A408D882A434FF6FF652B4066
:1025C0004FF6FF552B400D8A2B434D8A2B438380BA
:1025D00004838D684563028470BD000000000140E3
:1025E000000401400A460021018B4FF6F7731940A1
:1025F000114301837047000070B5002400220023BE
:10260000058C4FF6EF7635400584028C8388048B69
:1026100048F6FF752C404FF6FF452C400D884FF6CD
:10262000FF7606EA05252C434FF6DF752A408D8993
:1026300006EA05152A434D8806EA05152A43154D75
:10264000A84202D0144DA8421DD14FF67F752A40F2
:10265000CD894FF6FF7606EA05152A434FF6BF757A
:102660002A408D8806EA05152A434FF6FF352B4090
:102670004FF2FF752B400D8A06EA85052B434D8AE4
:1026800006EA85052B43838004838D688563028475
:1026900070BD000000000140000401400A46002116
:1026A000018B4FF2FF7319404FF6FF7303EA0223C9
:1026B000194301837047000000220288184B98429A
:1026C0000ED0184B98420BD0B0F1804F08D0164B6B
:1026D000984205D0154B984202D0154B984204D130
:1026E0004FF68F731A404B881A43124B984207D00B
:1026F000114B984204D04FF6FF431A400B891A43FE
:1027000002804B68C3620B880385054B984202D058
:10271000044B984201D18B7A038601238382704750
:102720000000014000040140000400400008004097
:10273000000C0040001000400014004000BFFEE705
:102740007FB505460C4601210220FFF75FFB02958D
:10275000ADF804400020ADF80C00ADF806008DF88F
:102760000E0001A90D48FFF7A7FF012211460B48F3
:10277000FFF7F1FE01210948FFF7F9FD1D208DF853
:10278000000001208DF8030000208DF801008DF875
:1027900002006846FFF7EEFA7FBD0000000400402B
:1027A0000FB4054B10B503A9044A029800F0FCFDD4
:1027B00010BC5DF814FB0000193B00084800002025
:1027C00003B401984100009850EAC12018BF0420CA
:1027D0004A0D18BF40F0010040F2FF72B2EB515FAA
:1027E00008BF40F00200012808BF052002B0704772
:1027F00070B5C1482DED020B2DED0E8B82B0119DF1
:1028000025F000449FEDBEDB9FEDBFEB84423EDB35
:10281000A4F140511098A1F17F6108430FD0BC484A
:10282000844202DC28D1109830B39DED100B02B029
:10283000BDEC0E8B02B0BDE8704000F0A6BC9DED73
:10284000100B53EC1D2B51EC100BFDF7E4FD9DED2F
:10285000100B41EC180B53EC1E2B51EC100BFDF739
:10286000DAFD53EC182BFDF72FFD41EC100B02B0F5
:10287000BDEC0E8B02B070BD012000F0CDFC02B0AB
:10288000BDEC0E8B02B0BDE8704000F095BCA148D5
:102890009FEDA18B844256DA9DED100BB4F1795F68
:1028A0000ADA51EC100BFFF78BFF042808BF00F089
:1028B00093FC9DED100BDAE753EC102B51EC100B51
:1028C000FDF7A9FD41EC190B95480621B0EE490A28
:1028D000F0EE690A784400F0DCFB53EC192B51EC64
:1028E000100BFDF798FD41EC1A0B8E48B0EE490A2B
:1028F000F0EE690A0421784400F0CBFB53EC192B6D
:1029000051EC100BFDF787FD53EC182BFDF7DCFCA9
:1029100041EC100B51EC1A0B53EC102BFDF7EDFDB5
:10292000CDE900019DED000B53EC102B9DED100B3C
:1029300051EC100BFDF76FFD9DED101B53EC112BAF
:10294000FDF7C2FCD2E09DED100B51EC100B01F035
:10295000D7F853EC182BFDF75BFD9FED730BCDE91A
:10296000000153EC102B9DED000B51EC100BFDF70B
:1029700052FD41EC190B6E480621B0EE490AF0EE0B
:10298000690A784400F085FB53EC192B51EC100BCD
:10299000FDF741FD41EC1B0B6648B0EE490AF0EE35
:1029A000690A0421784400F074FB53EC192B51ECB4
:1029B000100BFDF730FD53EC182BFDF785FC41ECB7
:1029C0001C0B51EC190B01F0B3FF41EC180B5A48EA
:1029D0009FED5BABA04222DC53EC1C2B51EC1B0B9C
:1029E000FDF78BFDCDE900019DED000B51EC180BBF
:1029F00053EC102BFDF70FFD53EC182BFDF764FC87
:102A000053EC1A2BFDF707FD53EC1D2BFDF7FDFCD6
:102A100053EC1E2BFDF7FCFC41EC100B5FE08DED41
:102A2000008B002000909DED000B51EC180B53EC37
:102A3000102BFDF749FC9DED000B41EC1E0B53ECF8
:102A4000102B51EC100BFDF7E6FC53EC192BFDF7A6
:102A5000DFFC53EC1E2BFDF750FD41EC190B53EC42
:102A60001C2B51EC1B0BFDF748FD41EC1B0B53ECF1
:102A70001A2B51EC190BFDF7CEFC53EC1D2BFDF777
:102A8000C7FC41EC190B53EC1A2B51EC180BFDF75A
:102A9000C2FC53EC1B2BFDF7BEFC53EC192BFDF7CE
:102AA000B4FC9DED000B41EC180B53EC1A2B51ECD0
:102AB000100BFDF7B0FC9FED249B53EC192BFDF799
:102AC000A7FC41EC100B51EC180B53EC102BFDF74D
:102AD0009CFC53EC192BFDF79BFC41EC100B002DDB
:102AE0003FF7C5AE51EC100B81F0004141EC100BEB
:102AF000BDE60000000000000000F03F0000000004
:102B0000075C143326A6913C182D4454FB21F93F51
:102B10000000F07F0000E03F000000000000F03FF8
:102B20006834000076340000000000000000E03F40
:102B3000BA330000C83300003333EF3F0000000019
:102B40000000000000000040182D4454FB21E93F24
:102B500070B59B482DED020B2DED068B079D25F0E2
:102B60000044A04218DC9748844202DC0AD106984F
:102B700040B19DED060BBDEC068B02B0BDE8704088
:102B800000F003BB002DCCBF9FED8F0B9FED900B92
:102B9000BDEC068B02B070BD8F48A04215DD8F489A
:102BA000A042D8BF4FF0FF3458DD9DED060B51EC2D
:102BB000100BFFF705FE042808BF00F00DFB9DED8C
:102BC000060BBDEC068B02B070BD9DED060B51EC03
:102BD000100B00F095FFCDE9060181489FED828B37
:102BE000A0423CDD8248A0421FDD00249FED82AB65
:102BF0009DED060B53EC1A2B51EC100BFDF764FB0B
:102C00009DED060B41EC190B53EC1A2B51EC100BFC
:102C1000FDF701FC53EC182BFDF7F7FB53EC192BD8
:102C2000FDF76BFCCDE9060149E09DED060B0124A3
:102C300053EC182B51EC100BFDF746FB9DED060BEA
:102C400041EC190B53EC182B51EC100BFDF7DDFB8D
:102C500053EC192BFDF751FCCDE906012FE0684834
:102C6000A0421FDD02249FED689B9DED060B53ECF7
:102C7000192B51EC100BFDF7CEFB53EC182BFDF785
:102C800023FB9DED060B41EC180B53EC192B51EC7B
:102C9000100BFDF7BAFB53EC182BFDF72EFCCDE91A
:102CA00006010CE09DED060B032453EC102B9FED69
:102CB000580B51EC100BFDF720FCCDE906019DED02
:102CC000060B53EC102B51EC100BFDF7A4FB41EC61
:102CD000180B53EC182BFDF79EFB41EC190B4E48DB
:102CE0000621B0EE490AF0EE690A784400F0D1F905
:102CF00053EC182B51EC100BFDF78DFB41EC180B2E
:102D00004648B0EE490AF0EE690A0521784400F021
:102D1000C0F953EC192B51EC100BFDF77CFB41EC87
:102D2000100B51EC180B53EC102B002C0EDAFDF7A6
:102D3000CBFA9DED061B53EC112BFDF76CFB9DEDC3
:102D4000061B53EC112BFDF763FB35E0FDF7BCFAD6
:102D50009DED061B53EC112BFDF75DFB41EC100BB9
:102D60002F48784400EBC40090ED001B51EC100B91
:102D700053EC112BFDF749FB9DED061B53EC112B7A
:102D8000FDF743FB41EC100B2648784400EBC400F0
:102D900090ED001B51EC100B53EC112BFDF738FBA1
:102DA00041EC100B002DA2BFBDEC068B02B070BD34
:102DB00051EC100B81F0004141EC100B01E70000D9
:102DC000000010440000F07F182D4454FB21F93F0F
:102DD000182D4454FB21F9BF0000DC3F0000203EC9
:102DE0000000F33F00000000000000000000F03F82
:102DF0000000E63F0000000000000000000000406E
:102E00000080034000000000000000000000F83FC8
:102E1000000000000000F0BF0A310000C0300000D8
:102E20004A3000000230000070B56B4E2DED040BEF
:102E30002DED028B82B0DDF81CC0DDE905235C427C
:102E40002CF000411C4341EAD474049D22F0004060
:102E5000B44205D86C422C4340EAD474B4420BD936
:102E60009DED061B9DED040B02B0BDEC028B04B082
:102E7000BDE8704000F093B9ACF14054A4F17F6418
:102E80001C430BD0022404EAAC7444EAD274054318
:102E90009FED538B9FED542B07D015E09DED040B58
:102EA00051EC100B00F017FE42E0002C11BF012C7A
:102EB0009DED040B02B0BDEC028B04BF04B070BDED
:102EC000022C38D0032C3BD00B439FED491B9FEDC8
:102ED0004A0B0AD0B14218D1B04209D121F0804149
:102EE00020F08040079105900FE0002A15DA10E0ED
:102EF000434B7B44002C08BF93ED000B0DD0012CFD
:102F000010D0022C17D0032C1AD0B0421DD1002AA9
:102F100003DAB0EE410AF0EE610A02B0BDEC028BBA
:102F200004B070BD93ED000B51EC100B81F000412B
:102F300041EC100BF1E7B0EE480AF0EE680AECE75E
:102F4000B0EE420AF0EE620AE7E7401A00153C28AC
:102F5000C8BF8DED000B19DCBCF1000FBEBF10F136
:102F60003C0F9FED290B8DED000B0FDB9DED060B4C
:102F700053EC102B9DED040B51EC100BFDF7BDFA3B
:102F800000F0BEFD00F0A7FDCDE90001002C08BF58
:102F90009DED000BC1D0012C10D0022C9FED1C0B1D
:102FA00053EC102B9DED000B51EC100B0DD0FDF7E9
:102FB0002CFA53EC182BFDF728FAB9E7019880F0AA
:102FC000004001909DED000BA7E7FDF71EFA53ECC2
:102FD000182BFDF71DFAABE70000F07F00000000A2
:102FE000182D4454FB210940182D4454FB2109C0DD
:102FF000182D4454FB21F9BF182D4454FB21F93FEF
:10300000322F00000000000000000000000000005F
:10301000075C143326A6A13C00B52DED048BB0EE61
:10302000409AF0EE609A83B051EC190BFDF710FC5A
:1030300041EC180B18EE100A18EE901A8DED008B6B
:10304000002818BF0120084320F00040C0F17F6035
:1030500000F1E040C00F14D019EE101A19EE900ADA
:103060008DED009B002918BF0121084320F000408E
:10307000C0F17F6000F1E040C00F04BF012000F00C
:10308000CBF8B0EE480A03B0F0EE680ABDEC048B52
:1030900000BD70B504462DED028B4D1E00EBC50042
:1030A000B0EE408AF0EE608A90ED000B35F006003D
:1030B00017D053EC182B51EC100BFDF7ACF941EC89
:1030C000100B6D1E04EBC50090ED001B51EC100BB6
:1030D00053EC112BFDF7F8F841EC100B35F006001E
:1030E000E7D1022D36D0042D1CD0062D1CBFBDEC1F
:1030F000028B70BD53EC182B51EC100BFDF78BF9C4
:1031000094ED0A1B53EC112BFDF7DEF853EC182B52
:10311000FDF781F994ED081B53EC112BFDF7D4F862
:1031200041EC100B53EC182B51EC100BFDF773F91D
:1031300094ED061B53EC112BFDF7C6F853EC182B3E
:10314000FDF769F994ED040B53EC102BFDF7BCF877
:1031500041EC100B53EC182B51EC100BFDF75BF905
:1031600094ED021B53EC112BFDF7AEF853EC182B2A
:10317000FDF751F994ED001B53EC112BFDF7A4F86A
:10318000BDEC028B41EC100B70BD10B553EC102B55
:1031900051EC100BFDF798F841EC100B10BD10B579
:1031A00053EC112B51EC100BFDF78EF841EC100B8A
:1031B00010BD0000000000009FED050B10B553ECA2
:1031C000102B51EC100BFDF798F941EC100B10BDD2
:1031D00000000000000000009FED050B10B553EC4F
:1031E000102B51EC100BFDF716F941EC100B10BD34
:1031F000000000000000001002E008C8121F08C113
:10320000002AFAD170477047002001E001C1121F67
:10321000002AFBD170470000014908607047000098
:10322000C40000202DE9FF5F82B00021DDE90430F9
:10323000020DDDF840B0034318D044F61050A2F25E
:10324000FF3242431514119801281FD0A5EB0B0043
:10325000401C5FEA000A4FF000064E4FDFF838913D
:10326000B046504615D5CAF1000413E01198012468
:103270004AA3012801D16FEA0B010298119AC0E913
:103280000031C0E9024206B0BDE8F09FCBF100007A
:10329000DFE704460021404A491842EB0450CDE9DB
:1032A000001012E0E00707D032463B464046494650
:1032B000FDF7B1F88046894632463B46104619462E
:1032C000FDF7A9F806460F466410002CEAD1DDE9A7
:1032D0000401DDE90023BAF1000F06DAFDF79BF8DF
:1032E00042464B46FDF797F805E0FDF706F94246E2
:1032F0004B46FDF702F904460E460022284BFDF727
:1033000011FB03D84FF0FF30014607E00022254BA8
:1033100020463146FCF7D8FFFDF7EBFA102409E010
:10332000002C0ADB0A220023FDF7ACF9039B3032A4
:103330001A55641E50EA0102F2D1641C039AC4F1CA
:1033400011031444119A012A03D0012208430DD11C
:103350000AE0084304D000204FF0110B119072E7EF
:10336000A3EB0B056D1E0DE05B4504DD4FF0000285
:1033700005F1010504E003DA4FF00002A5F10105B3
:10338000002AECD002981199C0E90231C0E9004549
:1033900079E70000000014400000F03F300000001A
:1033A0000000F0430000E03F2DE9FF4F95B09B4641
:1033B0008946064600250FE2252877D100242746B6
:1033C000F84A0121059400E0044316F8013F203B30
:1033D00001FA03F01042F7D130782A2811D06FF0AB
:1033E0002F033078A0F13002092A16D8059A44F04C
:1033F000020402EB820203EB42021044761C0590A9
:10340000EFE759F8042B0592002A03DA504244F4FE
:103410000054059044F00204761C30782E2816D112
:1034200016F8010F44F004042A280DD06FF02F0283
:103430003078A0F13003092B09D807EB870302EBA2
:103440004303C718761CF3E759F8047B761C3078E1
:103450006C280FD006DC4C2817D068280DD06A28BD
:1034600014D104E0742810D07A280FD10DE044F470
:1034700000140AE044F4801401E044F4401472782B
:10348000824202D104F58014761C761C30786628BE
:103490000BD013DC582877D009DC002875D04528DC
:1034A000F6D04628F4D047281AD19DE118E06328C9
:1034B00035D0642879D0652812D195E1702873D071
:1034C00008DC6728F1D069286FD06E280DD06F28EE
:1034D00006D1B5E073282CD0752875D0782874D023
:1034E0005A46179990476D1C75E1C4F302500228A3
:1034F00009D003280DD0D9F8001004280DD00D6094
:1035000009F1040967E1D9F80010EA17C1E900528E
:10351000F6E7D9F800100D80F2E70D70F0E719F822
:10352000041B8DF8001000208DF80100EA460120F0
:1035300003E059F804AB4FF0FF3061074FF0000192
:1035400002D40DE008F101018846B9420FDA804546
:10355000F8DB1AF808100029F4D108E008F101019D
:1035600088468142FADB1AF808100029F6D105983E
:103570005B46A0EB080721463846179A00F094FAFC
:10358000284400EB080507E04DE029E10DE01AF8BA
:10359000010B5A4617999047B8F10108F7D25B46DC
:1035A00021463846179A13E142E00A220092C4F3FA
:1035B00002524FF0000A022A08D059F804CB032A1D
:1035C0004FEAEC710AD00DE029E02AE009F1070189
:1035D00021F00702F2E802C1914609E00FFA8CFCE3
:1035E0004FEAEC71042A03D14FFA8CFC4FEAEC71DC
:1035F000002907DA0A460021DCF1000C61EB020128
:103600002D2202E0220504D52B228DF80420012270
:1036100003E0E20701D02022F7E7904659E00A21B3
:1036200002E010220DE010214FF0000A00910BE0A3
:1036300010224FF0000A44F004040827009203E02F
:1036400008224FF0000A0092C4F30252022A05D069
:1036500059F804CB0021032A08D009E009F1070139
:1036600021F00702F2E802C1914605E01FFA8CFC46
:10367000042A01D10CF0FF0C4FF00008220728D5D6
:10368000702806D0009B83F0100353EA0A0305D08C
:103690000EE040228DF80420012208E05CEA0102DD
:1036A00006D030228DF804208DF8050002229046C5
:1036B000009B83F0080353EA0A030AD15CEA010283
:1036C00001D1620705D530228DF804204FF00108A2
:1036D0007F1E582804D034A003900EA802900DE05D
:1036E00036A0F9E753466046009AFCF7CBFF8446C4
:1036F0000398825C0298401E029002705CEA01000E
:10370000F0D1029806A9081A00F1200A600702D534
:1037100024F4803400E00127574502DDA7EB0A00BE
:1037200000E0002000EB0A01009005984144401A97
:103730000590E00306D45B462146179A059800F0F1
:10374000B3F90544002706E001A85A46C05D179961
:1037500090476D1C7F1C4745F6DBE0030CD55B46AC
:103760002146179A059800F09FF9054404E030209F
:103770005A46179990476D1C0099481E00900029E1
:10378000F5DC08E0029802995A460078491C02913B
:10379000179990476D1CBAF10001AAF1010AF1DCFA
:1037A00065E1000009280100303132333435363705
:1037B000383961626364656600000000303132337D
:1037C000343536373839414243444546000000001D
:1037D00000F058F90544761C307800287FF4ECADF1
:1037E00019B02846BDE8F08F620700D4062709F11A
:1037F000070222F0070CFCE80223E14603F0004830
:103800005FEA080C02D00FF2702C0DE05FEA045C56
:1038100002D50FF2682C07E05FEAC47C02D00FF2F9
:10382000602C01E0AFF2700C4FF0FF3823F0004342
:10383000CDF850C065280CD006DC452809D04628B4
:103840001DD047283DD13DE0662818D067287ED19D
:1038500038E00021112F01DB112000E0781CCDE9B8
:10386000000106A90EA8FFF7DDFCDDE90F010E9AA5
:1038700003910021009207F1010A04914DE04FF0FD
:1038800000400097CDE9011006A90EA8FFF7CAFC79
:10389000DDE90F0203920E9B11990022DDF80CA0C6
:1038A0000093049211B9791C00EB010AB7EB0A00EE
:1038B00004D4C0F1FF3007F1010A0490AAEB07001D
:1038C000019044E0012F00DA01270021112F01DDD2
:1038D000112000E03846CDE9000106A90EA8FFF747
:1038E000A1FCDDE90F010E9A0391002104910092E1
:1038F000BA4621070CD40399514500DA8A46BAF139
:10390000010F05DD009AAAF10101515C302908D0B0
:10391000B84202DA10F1040F06DA0121CDE90110F4
:1039200015E0AAF10101E9E7002805DC049901444A
:103930000491AAEB000102E0411C514500DD8A46DA
:103940000499401A401C01904FF00040029020075B
:1039500004D40198504501DBCDF8048000208DF897
:103960004F0002980DF14F07B0F1004F25D02B20EA
:103970000E9002984FF0020800280CDA40420290A4
:103980002D200E9007E00A210298FCF765FE3031E9
:10399000029007F8011DB8F10001A8F10108F2DC5E
:1039A00002980028EFD1791E0E980870307800F048
:1039B000200040F0450007F8020D12A8C01B00F1DE
:1039C00007081498007800B1012000EB0A01019863
:1039D00001EBE07105984144401A401E0590E00358
:1039E00006D45B462146179A059800F05DF8054419
:1039F0001498007818B15A46179990476D1CE00347
:103A000024D55B462146179A059800F04DF80544E9
:103A10001CE00498002807DBDDE90301884203DD90
:103A20000098405C179901E0179930205A4690475A
:103A3000049805F10105401C04900198401E019076
:103A400004D12E205A46179990476D1CBAF10001F7
:103A5000AAF1010ADDDC05E017F8010B5A461799B7
:103A600090476D1CB8F10001A8F10108F4DC5B4639
:103A70002146179A0598ABE62D0000002B000000A8
:103A8000200000002DE9F041044600251E4617469F
:103A9000880404D405E039462020B0476D1C641E1C
:103AA000F9D52846BDE8F0812DE9F041044600250E
:103AB0001E469046C80301D5302700E02027880421
:103AC00004D505E041463846B0476D1C641EF9D563
:103AD0002846BDE8F08110B541EC100BFFF738F82F
:103AE00051EC100B10BD05E000BF00BF00BF00BFD0
:103AF00000BF00BF011EA0F1010290B2F4D17047D7
:103B000082B0CDE9000121F0004001909DED000B55
:103B100002B051EC100B704700BF054A128802F04A
:103B20004002002AF9D0C2B2014B9A8070470000CF
:103B3000001001402DED068B84B0FDF7C1FE98E02A
:103B40004C480068C0434C49C1F8B4024B48FDF7EB
:103B500022FF4B48FDF7FBFE4A48FDF740FFFDF70B
:103B600067FF494908804548B0F90430B0F90220A0
:103B7000B0F9001045A0FEF713FE4148B0F904303B
:103B8000B0F90220B0F9001045A0FEF709FE3D484B
:103B9000B0F90430B0F90220B0F9001045A0FEF7EA
:103BA000FFFD3948018848A0FEF7FAFD3448B0F916
:103BB000040003EE100AB8EEC33AF0EE432A304890
:103BC000B0F9020003EE100AB8EEC33AB0EE432A91
:103BD0002B48B0F9000003EE100AB8EEC33AF0EE3D
:103BE000431A2648B0F9040003EE100AB8EEC33AAF
:103BF000B0EE431A2148B0F9020003EE100AB8EE05
:103C0000C33AF0EE430A1D48B0F9000003EE100A73
:103C1000B8EEC33AB0EE430AFDF70EFA2F4890ED26
:103C2000020A10EE101A0846FCF7E7FC41EC180BEC
:103C30002A4890ED000A10EE101A0846FCF7DDFC49
:103C400041EC190B254890ED010A10EE101A0846B8
:103C5000FCF7D3FC41EC1A0B8DED028B8DED009B34
:103C600053EC1A2B1EA0FEF79BFD4FF47A7001F067
:103C7000AFF865E7B4024142000041420000002075
:103C8000060000200C000020200000206779726FE1
:103C90003A2025642C2025642C2025640D0A000080
:103CA0006163633A2025642C2025642C2025640D53
:103CB0000A0000006D61673A2025642C2025642CE1
:103CC0002025640D0A00000074656D7065726174D2
:103CD0007572653A25640D0A00000000C8000020D6
:103CE00070697463683A25660D0A726F6C6C3A25C8
:103CF000660D0A7961773A25660D0A0D0A00000003
:103D00000BE00648006808B9012000E000200349E4
:103D100008604FF4C87001F05BF8F2E7B802414266
:103D20001CB5FCF739FE0748012100238022CDE9AC
:103D3000001005A1074801F071FD01F03FF90020D6
:103D40001CBD00001400002073746172745F746104
:103D5000736B0000A14900082DE9F04105460E46AD
:103D60001C4807681C480068001D00F0D1FE50B9CF
:103D70001948006890F82C100120884017490968FC
:103D8000814316480160681C38B936B11248016891
:103D9000091D134800F0FAFE1AE07C190E4800686D
:103DA0004460BC4207D20C480168091D0D480068F8
:103DB00000F0D2FE0CE008480168091D0A480068BE
:103DC00000F0CAFE09480068844201D20748046036
:103DD000BDE8F08164000020500000206800002051
:103DE000C80100205800002054000020800000205E
:103DF00010B5044600F0D6FE24480068401C234954
:103E000008602348006840B92148046008460068FB
:103E100001280DD100F0D8F90AE01E48006838B931
:103E20001B480068C06AE16A884201D818480460EB
:103E300019480068401C184908600846006820645A
:103E400094F82C100120884014490968084313494C
:103E50000860E16A01EB8101114A02EB8100211D3A
:103E600000F094FE00F0C8FE0A48006868B10848F7
:103E70000068C06AE16A884207D24FF08050094961
:103E80000860BFF34F8FBFF36F8F10BD600000203D
:103E9000500000206C0000207C0000206800002002
:103EA0001401002004ED00E010B500F07BFE104886
:103EB0000068D0B90F4800F03FFE0F4800F03CFE0C
:103EC0000C480E4908600C480D49086000220C217E
:103ED0000A2001F0BFF9064908600846006820B1D1
:103EE00008A10348006800F037FF00F085FE10BD10
:103EF00094000020DC010020F00100208C00002054
:103F000090000020546D72510000000010B516E0C2
:103F100000F048FE0C48C068C468201D00F0F8FDA1
:103F20000A480068401E0949086009480068401EA8
:103F30000749086000F060FE204600F05FF8044882
:103F400000680028E4D110BDB4010020600000200A
:103F50005C00002070B504460D46206C70B1216CE9
:103F6000E0680144E160D4E90210884201D321688D
:103F7000E1602846226CE168FCF782F970BD2DE90A
:103F8000F04104460F4615464FF00008A66B206C22
:103F900048B9206800282CD1A06801F029FD80468E
:103FA0000020A06025E07DB93946226C6068FCF7EE
:103FB00067F9216C606808446060D4E901018842B7
:103FC00017D32068606014E03946226CE068FCF783
:103FD00057F9216CE068411AE1602168E068884285
:103FE00003D2216CA068411AE160022D01D106B113
:103FF000761E701CA0634046BDE8F08110B50446F3
:10400000206B00F017FE204600F014FE10BD0000EB
:104010000146084A126812680AB9012200E000222B
:104020000A600A6822B9034A1268D268106800E080
:10403000002070478C00002030B54FF496331748AD
:1040400000F007042CB1C01D20F00700134C041B26
:104050001B1B0246124C22600024114D6C60D018CC
:10406000083820F007000F4C206000240D4D2D680B
:104070006C600C4D2D682C601146441A4C60094C44
:1040800024680C60084D4C682C60084D4C682C600E
:104090004FF00044064D2C6030BD000004020020AB
:1040A000A0000020A8000020B0000020AC000020EC
:1040B000B400002000BFFFF729FF06480068012870
:1040C000F9D94FF0805004490860BFF34F8FBFF318
:1040D0006F8FF0E71401002004ED00E02DE9F041BE
:1040E00006460D4617469846069C0DB9246000E02A
:1040F0002760E66325640121204601F0D9F884F8A1
:1041000050800020A064BDE8F0812DE9F05F824678
:104110000E4690469B460A9F0C9C4FEA8801A522BA
:10412000206BFCF7BFF8A8F10100216B01EB8009BF
:1041300029F0070909F0070008B9012000E0002074
:1041400050B900BF502080F31188BFF34F8FBFF3E9
:104150006F8F00BF00BFFEE786B1002507E0715DED
:1041600004F134004155705D00B902E06D1C0A2D68
:10417000F5D300BF00213D20015502E0002084F866
:104180003400052F00D30427E762A7640020E06411
:10419000201D00F0DEFC04F1180000F0DAFC2461C0
:1041A000C7F10500A06164620020206584F8540016
:1041B0005A465146484600F0A5FB20600B9808B1CE
:1041C0000B980460BDE8F09F10B5002407E004EBF5
:1041D00084010F4A02EB810000F0AEFC641C052C48
:1041E000F5D30C4800F0A8FC0B4800F0A5FC0B48E8
:1041F00000F0A2FC0A4800F09FFC0A4800F09CFC7A
:1042000004480949086004480849086010BD0000D6
:1042100014010020780100208C010020A001002062
:10422000B4010020C80100205400002058000020E4
:1042300010B50146164800E0006803688B42FBD3C6
:104240000246436813448B4204D143684C682344BC
:10425000436001460A464B6813440468A34211D1E7
:104260000C4C03682468A34208D04B680468646857
:1042700023444B6003681B680B6005E0054B1B681B
:104280000B6001E003680B60884200D0016010BD44
:10429000A0000020A80000202DE9F04104460D46B2
:1042A00016461F464FF0000865602461B5420CD8E1
:1042B000F01BA169884202D34FF0010811E0211DD3
:1042C0000948006800F048FC0BE0BE4204D2BD4241
:1042D00002D34FF0010804E0211D0448006800F0FB
:1042E0003BFC4046BDE8F081900000208C0000209F
:1042F00070B5054600F056FCA86B08B9012400E033
:10430000002400F079FC204670BD70B5054600F031
:1043100049FCA86BE96B884201D1012400E000242C
:1043200000F06AFC204670BD2DE9F3410D4600986F
:10433000846C002754B900BF502080F31188BFF36C
:104340004F8FBFF36F8F00BF00BFFEE7A06BE16B25
:10435000884201D2012000E0002050B900BF502067
:1043600080F31188BFF34F8FBFF36F8F00BF00BF83
:10437000FEE7A06BE16B88421BD294F945602A46A8
:1043800069462046FFF7FBFD0746701C60B9606A6E
:1043900008B9012000E0002050B904F1240001F028
:1043A0008BFB28B1012703E0701C40B284F8450064
:1043B00000BF3846BDE8FC81F8B505460F461A48EF
:1043C0000068C068C468201D00F0A2FB94F82800B3
:1043D00000F00400E8B1A06941192B463A46204696
:1043E000FFF75AFFD8B1002003462A460146009045
:1043F000204601F05BFC064656B900BF502080F312
:104400001188BFF34F8FBFF36F8F00BF00BFFEE770
:1044100005E094F8280020F0010084F828002046E8
:10442000216A8847F8BD00008C00002070B586B076
:104430008BE003980028FBDB059C606908B901202C
:1044400000E0002010B9201D00F062FB02A800F07F
:10445000DDF8054603980A2875D2DFE800F0090563
:104460000739416306083A4200BF00BF00BF00BFE2
:1044700094F8280040F0010084F828000498A2690C
:10448000811803462A462046FFF706FFF8B120466A
:10449000216A884794F8280000F00400B8B1002091
:1044A00000900498A169421800231946204601F0A3
:1044B000FDFB064656B900BF502080F31188BFF3BC
:1044C0004F8FBFF36F8F00BF00BFFEE700BF3BE021
:1044D00000BF94F8280020F0010084F8280033E0A1
:1044E00000BF94F8280040F0010084F828000498E8
:1044F000A061A06908B1012000E0002050B900BF10
:10450000502080F31188BFF34F8FBFF36F8F00BF30
:1045100000BFFEE7A06941192B462A462046FFF757
:10452000BBFE11E094F8280000F0020018B9204604
:1045300000F080FB05E094F8280020F0010084F8EA
:10454000280001E0FFE700BF00BF002203A90448E4
:10455000006801F069F800287FF46BAF06B070BD09
:1045600094000020F8B505460C4600F071FD684641
:1045700000F04CF80646009820BB44B9B54206D876
:1045800001F0E6FA31462846FFF716FF1CE03CB181
:104590000E480068006808B9012000E000200446C9
:1045A000A91B22460A48006800F0ECFB01F0D0FA93
:1045B00050B94FF0805007490860BFF34F8FBFF3E9
:1045C0006F8F01E001F0C4FAF8BD000090000020F8
:1045D0009400002004ED00E00A490968096809B95F
:1045E000012100E0002121B14FF0FF31064A1160A6
:1045F00006E004490968C968C868034A416811604F
:1046000070470000540000208000002070B5044670
:1046100001F044F9054607480068854204D200F0DD
:104620000BF80120206001E00020206001480560B7
:10463000284670BD9C0000202DE9F84334E0254851
:104640000068C068056823480068C068C468201D09
:1046500000F05EFA2046216A884794F8280000F0AE
:10466000040008B3A0694619AE4207D96660246108
:10467000211D1848006800F06FFA15E0002003467D
:104680002A4601460090204601F010FB074657B924
:1046900000BF502080F31188BFF34F8FBFF36F8F9F
:1046A00000BF00BFFEE700BF0A480068006808B905
:1046B000012000E000200028C1D00648D0F800808A
:1046C00005480068034908600348C0F80080BDE859
:1046D000F88300008C000020900000200E48006845
:1046E000401C08B9012000E0002050B900BF502054
:1046F00080F31188BFF34F8FBFF36F8F00BF00BFF0
:10470000FEE700BF502080F31188BFF34F8FBFF347
:104710006F8F00BF00BFFEE7B800002008B500BFE4
:104720006846FFF775FC044620460099FFF71AFF1C
:10473000FFF77CFEF4E770B5044600F033FA94F915
:1047400045501AE0A06C38B100212046FFF7ECFD7F
:1047500088B100F0F1FB0EE0606A08B9012000E0CA
:10476000002038B904F1240001F0A6F918B100F0D6
:10477000E3FB00E003E0681E45B2002DE2DC00BF71
:10478000FF2084F8450000F037FA00F00BFA94F9A6
:10479000445010E0206908B9012000E0002048B929
:1047A00004F1100001F088F908B100F0C5FB681EA3
:1047B00045B200E001E0002DECDC00BFFF2084F8F2
:1047C000440000F019FA70BD2DE9F04104464FF0A5
:1047D000000800F03DFC4648006808B9FFF72CFCD3
:1047E00044480068204000286BD1D4B1083404F05C
:1047F0000700B0B104F00700C0F10800044404F061
:10480000070008B9012000E0002050B900BF502087
:1048100080F31188BFF34F8FBFF36F8F00BF00BFCE
:10482000FEE7002C4DD034480068844249D8334E0E
:104830003046056801E02E462D686868A04202D225
:1048400028680028F7D12A480068854239D03068A6
:1048500000F10808286830606868001B102819D922
:104860002F1907F0070008B9012000E0002050B917
:1048700000BF502080F31188BFF34F8FBFF36F8FBD
:1048800000BF00BFFEE76868001B78606C603846B8
:10489000FFF7CEFC184968680968081A16490860CD
:1048A0000846006816490968884203D21248006821
:1048B000134908600F496868096808436860002068
:1048C000286001F045F908F0070008B9012000E070
:1048D000002050B900BF502080F31188BFF34F8FE4
:1048E000BFF36F8F00BF00BFFEE74046BDE8F08119
:1048F000A8000020B4000020AC000020A000002090
:10490000B0000020001F4FF080730360001F21F0F3
:1049100001030360001F054B036014380260001F91
:104920006FF002030360203870470000DD46000886
:1049300000B52DED048B83B041EC190BFBF788FF1C
:1049400041EC180B18EE100A18EE901A8DED008B42
:10495000002818BF0120084320F00040C0F17F600C
:1049600000F1E040C00F14D019EE101A19EE900AB1
:104970008DED009B002918BF0121084320F0004065
:10498000C0F17F6000F1E040C00F04BF0120FEF7DE
:1049900043FC51EC180B03B0BDEC048B00BD0000D0
:1049A0001CB5044600F0FEF80D4802210023CA01A0
:1049B000CDE900100BA10F4800F030FF0E48032195
:1049C00000234FF48072CDE900100CA10E4800F0D6
:1049D00025FF0E48006800F029FA00F00DF91CBD13
:1049E0001800002061747469747564655F74617384
:1049F0006B000000353B00081C0000206C65643132
:104A00005F7461736B000000013D0008140000201A
:104A1000F0B52DED028B83B005460E46384905FBF7
:104A200001F000EE100AF8EE400A300100EE100A24
:104A3000B8EE400A80EE801AB0EE418ABCEEC80A99
:104A400010EE100A84B200EE104AB8EE400A38EEBA
:104A5000400AF3EE000A20EE200ABCEEC00A10EE77
:104A6000107A4FF6FF7000EA0414E01984B225486A
:104A7000006840F0010023490860224814300068B3
:104A800040F010001F49143108600120022100236A
:104A90000A46CDE900104FF4C0611B48FCF752F8FC
:104AA000072209211848FBF7C2FF07220A211648EE
:104AB000FBF7BDFF15480481808920F400401349AD
:104AC00088810846808940F00800888108468089EE
:104AD00040F0040088810846808940F020008881E9
:104AE0000223252203210846FDF732F80748808972
:104AF00040F400500549888103B0BDEC028BF0BD45
:104B000040420F00303802400000024000100140D7
:104B100001460A69D1E901309860D1E90103586082
:104B20005068884201D18868506000200861106890
:104B3000401E10601068704700F1080141604FF09E
:104B4000FF31816000F10801C16001610021016055
:104B5000704700210161704710B502460B685C1C6C
:104B60000CB9106907E002F1080000E040684468F1
:104B700024689C42FAD944684C604C68A160886003
:104B800041600A611468641C146010BD42684A6088
:104B900093688B60936859609160086103685B1C3F
:104BA0000360704700BF502080F31188BFF34F8F20
:104BB000BFF36F8F00BF0E480068401C0C490860AF
:104BC00008460068012812D10A480068C0B208B936
:104BD000012000E0002050B900BF502080F3118870
:104BE000BFF34F8FBFF36F8F00BF00BFFEE770476B
:104BF000B800002004ED00E00D48006850B900BF87
:104C0000502080F31188BFF34F8FBFF36F8F00BF29
:104C100000BFFEE706480068401E054908600846D8
:104C2000006820B9002080F3118800BF00BF7047E2
:104C3000B800002070B506463546002E3FD0083D2E
:104C40002C461F4960680968084008B1012000E04F
:104C5000002050B900BF502080F31188BFF34F8F60
:104C6000BFF36F8F00BF00BFFEE7206808B90120C7
:104C700000E0002050B900BF502080F31188BFF33E
:104C80004F8FBFF36F8F00BF00BFFEE70C49606816
:104C90000968084098B1206888B9094960680968BE
:104CA0008843606000F0D4F90649606809680844E8
:104CB000044908602046FFF7BBFA00F049FF70BDC9
:104CC000B4000020AC00002000204FF0E02108617B
:104CD0008861024848610720086170473F900200E0
:104CE00070B5FBF7B7FA0446102C16D304F1E02098
:104CF00090F8F05315480078854201DB012000E070
:104D0000002050B900BF502080F31188BFF34F8FAF
:104D1000BFF36F8F00BF00BFFEE70D48006800F4CF
:104D2000E0600C490968884201D8012000E00020B9
:104D300050B900BF502080F31188BFF34F8FBFF3ED
:104D40006F8F00BF00BFFEE770BD0000BC000020F9
:104D50000CED00E0C0000020024600200BE0084BF4
:104D600053F8303033B9064B43F8301003EBC0032F
:104D70005A6002E0401C0828F1D300BF70470000D1
:104D8000D40000202DE9F04105460E4617462C467A
:104D9000FFF708FF94F94400401C10B9002084F884
:104DA000440094F94500401C10B9002084F84500E7
:104DB000FFF722FFA06B28B93A46314604F12400E0
:104DC00000F0DCF82046FFF7B6FCBDE8F0810000FB
:104DD00070B504460025D4B11248006808B9012016
:104DE00000E0002050B900BF502080F31188BFF3CD
:104DF0004F8FBFF36F8F00BF00BFFEE700F028F9B1
:104E000000212046FEF7A8FF00F0A2FE05463DB9AE
:104E10004FF0805004490860BFF34F8FBFF36F8F8E
:104E200070BD00008800002004ED00E070B505466C
:104E3000FFF7B8FE15B93048006800E02846044680
:104E4000201DFFF765FE78B9E06A00EB80002B4972
:104E500051F8200040B994F82C10012088402849CE
:104E60000968814326480160A06A18B104F118005E
:104E7000FFF74EFE23480068401C224908601E4888
:104E80000068844209D1211D1F48FFF77FFE1F489B
:104E90000068401C1D49086009E01D480068401E6C
:104EA0001B4908602046FFF7A9F8FFF795FBFFF7BD
:104EB000A3FE18480068E8B10F480068844219D181
:104EC0001548006808B9012000E0002050B900BF73
:104ED000502080F31188BFF34F8FBFF36F8F00BF57
:104EE00000BFFEE74FF080500C490860BFF34F8FC2
:104EF000BFF36F8F70BD0000500000201401002030
:104F0000680000207C000020B40100205C0000202C
:104F1000600000206C0000208800002004ED00E00C
:104F2000034909680160034909684160704700004E
:104F300078000020640000200120014908607047CB
:104F40007400002070B504460D4654B900BF5020CF
:104F500080F31188BFF34F8FBFF36F8F00BF00BF87
:104F6000FEE70548016818312046FFF7F5FD0121ED
:104F70002846FEF7F1FE70BD5000002070B50546D2
:104F80000E46144655B900BF502080F31188BFF378
:104F90004F8FBFF36F8F00BF00BFFEE70648016869
:104FA00018312846FFF7F2FD0CB14FF0FF362146CD
:104FB0003046FEF7D1FE70BD500000201CB51D48E4
:104FC00000210B468222CDE900101BA11C4800F0F5
:104FD00025FC0446012C02D100F03CFE0446012CC5
:104FE00015D100BF502080F31188BFF34F8FBFF35E
:104FF0006F8F00BF4FF0FF30124908600120124947
:10500000086000201149086000F070F810E0601C92
:1050100008B1012000E0002050B900BF502080F30B
:105020001188BFF34F8FBFF36F8F00BF00BFFEE744
:105030001CBD00008400002049444C4500000000D5
:10504000B5400008800000206C00002064000020B3
:1050500002480068401C0149086070478800002031
:105060001D48006818B101201C49086032E000208A
:105070001A4908601A480068B0FA80F0C0F11F01B0
:1050800001EB8100174A52F8200008B1012000E02E
:10509000002050B900BF502080F31188BFF34F8F1C
:1050A000BFF36F8F00BF00BFFEE701EB81020D4B26
:1050B00003EB820042685268426000F108024368D4
:1050C000934202D14268526842604268D268064BFD
:1050D0001A6000BF704700008800002074000020A4
:1050E0006800002014010020500000201CB5524828
:1050F00000685249884201D0012000E0002050B9E8
:1051000000BF502080F31188BFF34F8FBFF36F8F24
:1051100000BF00BFFEE7484800684849491E884272
:1051200001D0012000E0002050B900BF502080F3E2
:105130001188BFF34F8FBFF36F8F00BF00BFFEE733
:105140003F49084600780190FF200A461070084643
:10515000007800909DF8000000F0F0009DF800201D
:10516000904201D1012000E0002050B900BF502042
:1051700080F31188BFF34F8FBFF36F8F00BF00BF65
:10518000FEE79DF8000000F050002E4A1070072046
:105190002D4A106009E02C480068401E2A4A106021
:1051A0009DF800004006000E00909DF8000000F001
:1051B00080008028EFD024480068C0F10700042850
:1051C00001D1012000E0002050B900BF502080F341
:1051D0001188BFF34F8FBFF36F8F00BF00BFFEE793
:1051E000194800680002184A10601046008800F450
:1051F000E0601060124A019810700F48203000687B
:1052000040F470000C49203108600846006840F006
:1052100070400860FFF758FD00200C490860FAF75D
:10522000E1FF0B48006840F0404009490860FAF788
:10523000C5FF00201CBD000000ED00E071C20F4161
:1052400000E400E0BC000020C0000020B800002006
:1052500034EF00E02DE9F84305460E4690460DB1C7
:10526000012000E0002050B900BF502080F31188D9
:10527000BFF34F8FBFF36F8F00BF00BFFEE70EB9C4
:10528000002701E005FB06F707F15400FFF79CFA41
:1052900004464CB1A14609F1540943464A463146F9
:1052A00028460094FEF71AFF2046BDE8F883000068
:1052B00070B505460E462C4654B900BF502080F309
:1052C0001188BFF34F8FBFF36F8F00BF00BFFEE7A2
:1052D000FFF768FCD4E90F12206801FB0200A06010
:1052E0000020A06320686060E06B401E226C216893
:1052F00000FB0211E160FF2084F8440084F84500BF
:105300009EB9206908B9012000E00020A8B904F185
:10531000100000F0D1FB80B14FF0805009490860C7
:10532000BFF34F8FBFF36F8F07E004F11000FFF75B
:1053300003FC04F12400FFF7FFFBFFF75DFC0120F5
:1053400070BD000004ED00E02DE9FF4782B0064685
:1053500088461D464FF00009344654B900BF50201E
:1053600080F31188BFF34F8FBFF36F8F00BF00BF73
:10537000FEE7B8F1000F01D1206C08B9012000E070
:10538000002050B900BF502080F31188BFF34F8F29
:10539000BFF36F8F00BF00BFFEE7022D02D1E06BAD
:1053A000012801D1012000E0002050B900BF5020A9
:1053B00080F31188BFF34F8FBFF36F8F00BF00BF23
:1053C000FEE700F05BFA08B9049808B9012000E094
:1053D000002050B900BF502080F31188BFF34F8FD9
:1053E000BFF36F8F00BF00BFFEE700BFFFF7DAFB20
:1053F000A06BE16B884201D3022D3FD1D4F838A0D5
:105400002A4641462046FEF7BAFD0746A06C90B1F9
:10541000022D02D1BAF1000F2AD129462046FEF70B
:1054200083FF28B34FF080503C490860BFF34F8F93
:10543000BFF36F8F1CE0606A08B9012000E0002014
:1054400068B904F1240000F037FB88B14FF08050B8
:1054500032490860BFF34F8FBFF36F8F08E03FB151
:105460004FF080502D490860BFF34F8FBFF36F8F0F
:10547000FFF7C2FB012006B0BDE8F087049818B919
:10548000FFF7BAFB0020F6E7B9F1000F04D1684638
:10549000FFF746FD4FF00109FFF7AEFBFFF7D8FD20
:1054A000FFF780FB94F94400401C10B9002084F8F9
:1054B000440094F94500401C10B9002084F84500D0
:1054C000FFF79AFB04A9684600F062F9F8B9204694
:1054D000FEF71BFFA8B104F110000499FFF732FD9D
:1054E0002046FFF728F900F033FB00287FF47EAF59
:1054F0004FF0805009490860BFF34F8FBFF36F8FA3
:1055000074E72046FFF717F900F022FB6EE720460C
:10551000FFF711F900F01CFB0020ACE704ED00E000
:105520002DE9F05F80468A4615461E46444654B92A
:1055300000BF502080F31188BFF34F8FBFF36F8FF0
:1055400000BF00BFFEE7BAF1000F01D1206C08B91F
:10555000012000E0002050B900BF502080F31188E6
:10556000BFF34F8FBFF36F8F00BF00BFFEE7022E68
:1055700002D1E06B012801D1012000E0002050B9E8
:1055800000BF502080F31188BFF34F8FBFF36F8FA0
:1055900000BF00BFFEE7FFF7A3FB00BF5021EFF302
:1055A000118081F31188BFF34F8FBFF36F8F00BF5E
:1055B0000746A06BE16B884201D3022E2BD194F9F0
:1055C00045B0324651462046FEF7D9FC0BF10100AA
:1055D000C8B9A06C40B131462046FEF7A5FEB8B16F
:1055E000B5B10120286013E0606A08B9012000E02D
:1055F000002068B904F1240000F05EFA40B13DB12A
:105600000120286004E00BF1010040B284F845005D
:105610004FF0010901E04FF0000900BF87F3118846
:1056200000BF4846BDE8F09F2DE9F74183B005462D
:105630000E464FF000082C4654B900BF502080F3AE
:105640001188BFF34F8FBFF36F8F00BF00BFFEE71E
:105650000EB9206C08B9012000E0002050B900BF4D
:10566000502080F31188BFF34F8FBFF36F8F00BFBF
:1056700000BFFEE700F002F908B9059808B901205B
:1056800000E0002050B900BF502080F31188BFF324
:105690004F8FBFF36F8F00BF00BFFEE700BFFFF764
:1056A00081FAA76BF7B131462046FEF753FC781E0E
:1056B000A063206908B9012000E0002060B904F16E
:1056C000100000F0F9F938B14FF080502F49086010
:1056D000BFF34F8FBFF36F8FFFF78EFA012006B035
:1056E000BDE8F081059818B9FFF786FA0020F6E7C3
:1056F000B8F1000F04D101A8FFF712FC4FF0010828
:10570000FFF77AFAFFF7A4FCFFF74CFA94F944008C
:10571000401C10B9002084F8440094F94500401C56
:1057200010B9002084F84500FFF766FA05A901A822
:1057300000F02EF8F0B92046FEF7DAFDA0B104F132
:1057400024000599FFF7FEFB2046FEF7F4FF00F06A
:10575000FFF90028A3D14FF080500C490860BFF337
:105760004F8FBFF36F8F9AE72046FEF7E4FF00F0FC
:10577000EFF994E72046FEF7DEFF00F0E9F9204656
:10578000FEF7B6FD00288AD00020A8E704ED00E06F
:1057900070B505460C4655B900BF502080F31188FE
:1057A000BFF34F8FBFF36F8F00BF00BFFEE754B949
:1057B00000BF502080F31188BFF34F8FBFF36F8F6E
:1057C00000BF00BFFEE7FFF7EDF912480268686806
:1057D000131A2068401C08B9002617E00E492868F3
:1057E0000968884204D06868904201D801260DE01B
:1057F0002068984207D92068C01A20602846FFF721
:105800008FFB002602E0002020600126FFF7F4F95C
:10581000304670BD64000020780000202DE9FF4F65
:1058200085B0804689461746DDE912ABB800FEF721
:10583000CBFF064656B15820FEF7C6FF04460CB112
:10584000266304E03046FFF7F5F900E000247CB160
:105850000020CDE900ABCDE902403A46494640463A
:10586000089BFEF752FC2046FEF7C2FA012501E034
:105870004FF0FF35284609B0BDE8F08F05490968AB
:1058800009B9012005E00449096809B9022000E0CE
:10589000002070476C000020880000200149086843
:1058A00070470000640000202DE9F0414FF000082F
:1058B00044480068002877D143480068451C4248A6
:1058C000056015BB41480068006808B9012000E088
:1058D000002050B900BF502080F31188BFF34F8FD4
:1058E000BFF36F8F00BF00BFFEE738480768384836
:1058F0000068364908603648076036480068401C32
:1059000034490860FEF768FE00BF334800688542EE
:105910003CD300BF2D480068006808B9012000E0B2
:10592000002020B14FF0FF302B4908602DE02748C0
:105930000068C068C4686668B54202D2264806603E
:1059400023E0201DFFF7E4F8A06A18B104F1180065
:10595000FFF7DEF894F82C10012088401F490968F1
:1059600008431E490860E16A01EB81011C4A02EB11
:105970008100211DFFF70AF91A49E06A0968C96A1E
:105980008842C7D34FF00108C4E700BF154800683C
:10599000C06A00EB8000124951F82000012801D9AB
:1059A0004FF0010805E0FFE70F480068401C0E4972
:1059B00008600E48006808B14FF001084046BDE895
:1059C000F0810000880000206400002054000020C6
:1059D000580000207800002080000020680000208F
:1059E00014010020500000207000002074000020EE
:1059F00070B505462C460026002D55D02B48006872
:105A0000844201D1012000E0002050B900BF5020A5
:105A100080F31188BFF34F8FBFF36F8F00BF00BFBC
:105A2000FEE7E06C50B900BF502080F31188BFF34F
:105A30004F8FBFF36F8F00BF00BFFEE7E06C401ECB
:105A4000E064A16CE06A88422ED0E06C60BB201D4F
:105A5000FFF75EF878B9E06A00EB8000144951F86E
:105A6000200040B994F82C100120884011490968A1
:105A7000814310480160A06CE062E06AC0F105005B
:105A8000A06194F82C10012088400A490968084355
:105A900008490860E16A01EB8101054A02EB8100D7
:105AA000211DFFF773F80126304670BD500000201D
:105AB000140100206800002070B50646F068C46834
:105AC00054B900BF502080F31188BFF34F8FBFF34C
:105AD0006F8F00BF00BFFEE704F11800FFF718F852
