:020000040800F2
:10000000D03101205D02000841140008F70A000801
:100010003D140008FD080008951B000800000000C2
:100020000000000000000000000000009D0100082A
:100030000109000800000000F90100083916000855
:1000400077020008770200087702000877020008AC
:10005000770200087702000877020008770200089C
:10006000770200087702000877020008770200088C
:10007000770200087702000877020008770200087C
:10008000770200087702000877020008770200086C
:10009000770200087702000877020008770200085C
:1000A000770200087702000877020008770200084C
:1000B000770200087702000877020008770200083C
:1000C000770200087702000877020008770200082C
:1000D000770200087702000877020008770200081C
:1000E000770200087702000877020008770200080C
:1000F00077020008770200087702000877020008FC
:1001000077020008770200087702000877020008EB
:1001100077020008770200087702000877020008DB
:1001200077020008770200087702000877020008CB
:1001300077020008770200087702000877020008BB
:1001400077020008770200087702000877020008AB
:10015000770200087702000877020008770200089B
:10016000770200087702000877020008770200088B
:1001700077020008770200087702000800000000FC
:100180007702000877020008DFF80CD000F08EFB41
:1001900000480047C9250008D03101202C4B1968C0
:1001A0000868B0E8F04F80F30988BFF36F8F4FF015
:1001B000000080F3118870470000000008480068C4
:1001C000006880F308884FF0000080F3148862B65E
:1001D00061B6BFF34F8FBFF36F8F00DF00BF00BF6B
:1001E00008ED00E0DFF80C00016841F470010160E7
:1001F000704700BF88ED00E0EFF30980BFF36F8F19
:10020000134B1A681EF0100F08BF20ED108A20E96A
:10021000F04F106009B44FF0500080F31188BFF325
:100220004F8FBFF36F8F03F035FB4FF0000080F36B
:10023000118809BC19680868B0E8F04F1EF0100F6B
:1002400008BFB0EC108A80F30988BFF36F8F704746
:100250002C000020EFF3058070470000064880471F
:1002600006480047FEE7FEE7FEE7FEE7FEE7FEE79B
:10027000FEE7FEE7FEE7FEE77917000889010008C0
:1002800040EA01039B0703D009E008C9121F08C018
:10029000042AFAD203E011F8013B00F8013B521E98
:1002A000F9D27047D2B201E000F8012B491EFBD20F
:1002B00070470022F6E710B513460A460446194671
:1002C000FFF7F0FF204610BD2DE9FE4F804681EA82
:1002D0000300C00F0C46009021F0004123F00045C0
:1002E000B8EB0200A94105D24046214690461C4683
:1002F0000B46024623F00040104347D0270DC7F3BA
:100300000A00C3F30A510290401A019040286BDAA8
:10031000C3F3130040F4801B0098924620B10023E1
:10032000D2EB030A63EB0B0B01985946C0F1400274
:10033000504600F0C5F906460D4650465946019A0A
:1003400000F0DDF910EB08006141002487EA11524A
:1003500084EAE7731A4340D0009A62B3019A012AF3
:100360004FEA075215DC001B61EB02014FF000421F
:1003700002EA0752CDE90042001C41F580113246E5
:100380002B4600F014FA03B0BDE8F08F404621463A
:10039000F9E7001B61EB0201001C41F58013001816
:1003A0005B412018A2F5001747EB030140EAD57026
:1003B000B6196D4111E06D084FEA360645EAC07581
:1003C0004FEA0752001B61EB0201001C41F580114E
:1003D00049084FEA30000019514132462B4603B01C
:1003E000BDE8F04F00F0D4B900980122400000238E
:1003F000D0EB020263EBE073009821464FEAE07411
:10040000B8EB000061EB0401E9E783F000435BE730
:1004100081F0004158E72DE9FE4F81EA030404F022
:10042000004421F0004100944FF0000B23F0004302
:1004300050EA01045ED052EA03045BD0C3F30A54CD
:10044000C1F30A552C44A4F2F3340194A0FB0254E6
:10045000C1F3130141F48011C3F3130343F4801378
:1004600001FB024400FB034E840A970A44EA8154CC
:1004700047EA8357A4FB076802958D0A05FB0785A9
:100480004FEA932C04FB0C542705029D4FEA0658B3
:1004900047EA1637B5EB08056EEB070C870E920E90
:1004A00047EA811742EA8312A7FB0201B6EB0B0170
:1004B00064EB00042B0D43EA0C335E1844EB1C5034
:1004C000DA465146E7FB0201C5F313044FEA0B334A
:1004D00043EA14534FEA0432019C43EA0603A4F1B1
:1004E0000C040294009CCDE900B400F060F903B064
:1004F000BDE8F08F00200146F9E72DE9F04D81EAD3
:10050000030404F0004B21F0004514464FF0000AAC
:1005100023F0004150EA050220D054EA01021DD028
:10052000C5F30A570246C5F31303C1F31300C1F321
:100530000A5640F4801543F48013A7EB0608101BFD
:10054000D64608F2FD3873EB050002D308F1010826
:1005500001E092185B41B8F1000F03DA0020014678
:10056000BDE8F08D00204FF48011064684460EE071
:10057000171B73EB050705D3121B63EB050306433B
:100580004CEA010C49084FEA300092185B4150EAEE
:100590000107EDD152EA030012D082EA040083EA97
:1005A0000501084305D0101BAB4106D201220023F0
:1005B00006E000224FF0004302E06FF0010253100A
:1005C0001AEB06004CEB085110EB0A0041EB0B0153
:1005D000BDE8F04D00F0DCB80EB5C10F80EAE07068
:1005E0000844CA07002140F233438DE80E000A4652
:1005F0000B4600F0DCF803B000BD01F0004330B45E
:1006000021F0004150EA010206D00A0DA2F5607205
:10061000C1F31301002A02DC30BC00207047440FF4
:1006200044EAC104C100E01830BC00EBC25000F045
:1006300078B830B50B46014600202022012409E09D
:1006400021FA02F59D4205D303FA02F5491B04FA8B
:1006500002F52844151EA2F10102F1DC30BD2DE99E
:10066000F05F0546002092469B4688460646814636
:1006700040241BE0284641464746224600F02FF81A
:1006800053465A46C01A914110D311461846224685
:1006900000F016F82D1A67EB01084F46224601209C
:1006A000002100F00DF817EB00094E41201EA4F1C7
:1006B0000104DFDC484631462A464346BDE8F09F48
:1006C000202A04DB203A00FA02F100207047914012
:1006D000C2F1200320FA03F3194390407047202A07
:1006E00004DB203A21FA02F00021704721FA02F3DC
:1006F000D040C2F120029140084319467047202A99
:1007000006DBCB17203A41FA02F043EAE07306E039
:1007100041FA02F3D040C2F1200291400843194649
:1007200070470029A8BF7047401C490008BF20F04F
:100730000100704710B4B0FA80FC00FA0CF050EAE7
:10074000010404BF10BC704749B1CCF1200421FA68
:1007500004F411FA0CF118BF012121430843A3EB63
:100760000C01CB1D4FEA00614FEA102042BF002070
:1007700010BC704700EBC35010440029A4BF10BC4C
:100780007047401C490008BF20F0010010BC7047B2
:1007900010B5141E73F1000408DA401C41F1000189
:1007A00092185B411A4301D120F0010010BD2DE9E0
:1007B000F04D92469B4611B1B1FA81F202E0B0FAD7
:1007C00080F220329046FFF77BFF04460F4640EA56
:1007D0000A0041EA0B0153465A46084313D011461A
:1007E00053EA010019D0C8F140025046FFF777FFE5
:1007F00005460E46504659464246FFF761FF0843FC
:1008000005D0012004E020463946BDE8F08D0020E7
:10081000054346EAE0762C4337430A986305E40A29
:10082000A0EB08000022FD0A44EA47540A3002D532
:1008300000200146E9E7010510196941DDE9084595
:1008400000196941BDE8F04DA2E7C1F30A52C1F3B6
:10085000130140F2FF3341F480119A4202DA002082
:100860000146704740F233439A42A2F2334202DC1F
:100870005242FFF734BFFFF723BF000030B5041E1C
:1008800071F1000404DB4FF00044404264EB0101CD
:10089000141E73F1000405DB1C464FF00043524266
:1008A00063EB0403994208BF904230BD064C074DEC
:1008B00006E0E06840F0010394E807009847103430
:1008C000AC42F6D3FFF764FC644500088445000899
:1008D00010B50723022208214FF4A87000F078FE1B
:1008E0004FF4E131542002F0ADFC00F00FFB00F0BA
:1008F00007FC00F03DFA00F02BFB10BD00BFFEE747
:10090000704730B5CC1000F1200353F824304C0769
:10091000E50E0F24AC40A343CD1000F1200444F8B1
:100920002530CC1000F1200353F824304C07E40E9E
:1009300002FA04F42343CD1000F1200444F82530DA
:1009400030BDF0B50A4600210023002400BF3DE081
:10095000012505FA01F3156805EA03049C4234D128
:1009600005684F000326BE40B543056015794E006B
:10097000B5400668354305601579012D02D015791B
:10098000022D16D185684F000326BE40B543856011
:1009900055794E00B5408668354385604568012627
:1009A0008E40B5434560456896798E40B6B2354372
:1009B0004560C5684F000326BE40B543C560D57984
:1009C0004E00B540C6683543C560491C1029BFD3E9
:1009D000F0BDF0B5002300244D07ED0E02FA05F33B
:1009E000CE1000F1200555F826504E07F70E0F26C1
:1009F000BE40B543CF1000F1200646F82750CE1078
:100A000000F1200555F8265045EA0304CE1000F108
:100A1000200545F82640F0BD2DE9F0470C46DDE9FC
:100A20000867002100258C4600BF60E04FF00108F8
:100A300008FA01F504EA050CAC4557D1D0F800805E
:100A40004FEA410A4FF0030909FA0AF928EA0908AE
:100A5000C0F80080D0F800804FEA410902FA09F995
:100A600048EA0908C0F80080012A01D0022A27D1EB
:100A7000D0F808804FEA410A4FF0030909FA0AF951
:100A800028EA0908C0F80880D0F808804FEA410930
:100A900006FA09F948EA0908C0F80880D0F8049075
:100AA0004FF0010808FA01F829EA0809C0F8049093
:100AB000D0F8048003FA01F948EA0908C0F8048074
:100AC000D0F80C804FEA410A4FF0030909FA0AF9FD
:100AD00028EA0908C0F80C80D0F80C804FEA4109D8
:100AE00007FA09F948EA0908C0F80C80491C1029DE
:100AF0009CD3BDE8F08700BFFEE7000000B50020F2
:100B00000F4908600F48006820F440400D49086014
:100B10000846006840F48040086000200A49C1F897
:100B20009C02022001F0B1FC01200549086002206E
:100B300001F0ABFC00200449C1F8980200BD0000A0
:100B40009882404200040240008040421CB50121CE
:100B5000022000F077FCC020009001208DF80400F6
:100B600000208DF8060003208DF8050001208DF887
:100B7000070069460448FFF7E4FE012003490860C6
:100B80000349C1F89C021CBD000402409882404207
:100B90000080404200B500200F4908600F480068FF
:100BA00020F440400D4908600846006840F4804049
:100BB000086001200A49C1F89C02022001F065FC8E
:100BC000012005490860022001F05FFC0020044973
:100BD000C1F8980200BD0000988240420004024023
:100BE0000080404230B5044600231648006820F4D7
:100BF000404014490860084600680860002516E077
:100C0000002011490860022001F03FFC01200F493B
:100C1000C1F898025806030E0B487C38006808B1EA
:100C2000581CC3B2012001F030FC681CC5B2082D6D
:100C3000E6DB14B9FFF7AEFF01E0FFF75FFF1846F0
:100C400030BD0000000402409882404200804042D3
:100C5000F0B506460F4614461D4600F0B5F80021D3
:100C600041EA4601C8B200F04FF800F0F9F818B1B7
:100C700000F0D0F80120F0BD384600F045F800F053
:100C8000EFF800F0A1F8012101EB4601C8B200F035
:100C90003BF800F0E5F80DE0012C04D10020FFF74F
:100CA000A1FF287003E00120FFF79CFF2870601E61
:100CB000C4B26D1C002CEFD100F0ACF80020DAE7D4
:100CC00070B504460D4600F07FF8002141EA44016A
:100CD000C8B200F019F800F0C3F8284600F014F884
:100CE00000F0BEF800F070F8012101EB4401C8B239
:100CF00000F00AF800F0B4F80020FFF773FF064692
:100D000000F088F8304670BD10B5034615480068FD
:100D100020F44040134908600846006840F48040D1
:100D20000860002010490860002417E0D8090E4927
:100D3000091D08605806030E022001F0A6FB0120E1
:100D40000A49C1F89802022001F09FFB00200649E1
:100D50000860022001F099FB601CC4B2082CE5DB9E
:100D600010BD0000000402409882404200804042D2
:100D700070B50024002500BF13E000F025F8002125
:100D800041EA4401C8B2FFF7BFFF00F069F8054629
:100D90001DB9214606A000F0FFFE00F03BF8601CE4
:100DA000C4B2FF2CE9DB07A000F0F6FE70BD000026
:100DB0004949435F41444452203D202523780D0A90
:100DC000000000000D0A000000B50F48006820F484
:100DD00040400D4908600846006840F480400860C3
:100DE00001200A4908600A49C1F89802042001F06C
:100DF0004CFB002005490860042001F046FB002060
:100E00000349C1F8980200BD000402409C824042A0
:100E10000080404200B50F48006820F440400D4972
:100E200008600846006840F48040086000200A49D5
:100E300008600A49C1F89C02042001F026FB012049
:100E4000054908600549C1F89C02042001F01DFB1A
:100E500000BD0000000402409882404200804042F1
:100E600000B500231348006820F440401149086091
:100E700008460068086001200F49086001F005FB82
:100E800001200E49C1F8980201F0FFFA07E0581C52
:100E9000C3B2FA2B03DDFFF7BDFF012000BD0648FA
:100EA000803800680028F2D10349091F086000BF9C
:100EB000F4E70000000402409C824042008040426F
:100EC00070B504460D461646FFF77EFF002141EA45
:100ED0004401C8B2FFF718FFFFF7C2FF18B1FFF7D0
:100EE00099FF012070BD2846FFF70EFFFFF7B8FFFE
:100EF0003046FFF709FFFFF7B3FF18B1FFF78AFF8E
:100F00000120EFE7FFF786FF0020EBE71CB50C4858
:100F1000006840F004000A490860012000210B46E7
:100F20000246CDE900104FF4C0410648FFF774FDBA
:100F30000120054908600549C1F8B8021CBD000040
:100F40003038024000080240B402414200004142F1
:100F500000B58BB0634800F06BFC634800F068FCA0
:100F6000624800F065FC624800F062FC01214FF02D
:100F7000011000F097FA01210C2000F073FA012112
:100F8000192000F05FFA02208DF8280000208DF86B
:100F90002A008DF82B0003208DF8290002200990EB
:100FA00009A95448FFF7CDFC2020099009A952480F
:100FB000FFF7C7FC4FF48050099009A94F48FFF78D
:100FC000C0FC4FF48070099009A94A48FFF7B9FCAA
:100FD00002220C214948FFF7FCFC03220521464868
:100FE000FFF7F7FC022201214248FFF7F2FC012241
:100FF00008214048FFF7EDFCA720ADF818000020BD
:10100000ADF82000ADF81A0040F2E730079000205C
:101010008DF8220006A9364800F07AFD06A931486D
:1010200000F076FD5320ADF8180006A92E4800F018
:101030006FFD06A92D4800F06BFD6020ADF804009F
:101040000120ADF806000020ADF81000ADF8080052
:10105000ADF814006420039001A9254800F0B0FC0D
:101060000821234800F0EAFC0121214800F0B8FBE8
:1010700001211F4800F0C0FB01A91A4800F0A0FCA4
:101080000821184800F0DAFC0121164800F0A8FBFE
:101090000121144800F0B0FB0121124800F0B8FB18
:1010A00001A9114800F08CFC08210F4800F0C6FC93
:1010B00001210D4800F094FB01210B4800F09CFB3E
:1010C00001A90A4800F0C4FC0821084800F012FDFC
:1010D0000121064800F084FB0121044800F08CFB4C
:1010E0000BB000BD0000014000080040000C0040B3
:1010F000004001400000024000100240000C02408D
:1011000010B50024FFF722FD80226B216820FFF735
:10111000D7FE00226B216820FFF7D2FE032000F0EB
:10112000F0F8002000F0E4F84FF47A7000F010F9C5
:10113000002238216820FFF7C3FE00226A216820C0
:10114000FFF7BEFE002223216820FFF7B9FE8222AE
:1011500037216820FFF7B4FE75216820FFF7B0FD46
:101160000446712C0DD101226B216820FFF7A8FEE7
:1011700000226C216820FFF7A3FE322000F0E8F87F
:1011800001E0012010BD0020FCE77CB504466B4661
:1011900006223B216820FFF75BFD0546BDB99DF89F
:1011A00001009DF8001040EA012000B220809DF867
:1011B00003009DF8021040EA012000B260809DF813
:1011C00005009DF8041040EA012000B2A0802846E6
:1011D0007CBD7CB504466B46062243216820FFF7A0
:1011E00037FD0546BDB99DF801009DF8001040EAA5
:1011F000012000B220809DF803009DF8021040EA13
:10120000012000B260809DF805009DF8041040EABE
:10121000012000B2A08028467CBD7CB504466B4608
:10122000062203210C20FFF713FD0546BDB99DF8EA
:1012300000009DF8011040EA012000B220809DF8D6
:1012400002009DF8031040EA012000B260809DF882
:1012500004009DF8051040EA012000B2A080112290
:101260000A210C20FFF72CFE28467CBD10B52DED81
:10127000088B82B001AB022241216820FFF7E8FC15
:101280009DF805009DF8041040EA012004B22046B4
:10129000FFF7A2F941EC1B0B9FED100B53EC102B49
:1012A000FFF72BF941EC1A0B9FED0E0B53EC102BB3
:1012B000FFF70AF841EC190BFFF79FF908EE100A47
:1012C0009FED0A0A28EE000ABDEEC00A10EE100AD1
:1012D00000B202B0BDEC088B10BD000052B81E85F4
:1012E000EBDD744000000000000035400000C84203
:1012F00010B50446E006020E1C216820FFF7E0FD51
:1013000010BD10B50446E006020E1B216820FFF751
:10131000D7FD10BD70B504460025BC2C01DB0125AE
:1013200010E0622C01DB02250CE02A2C01DB0325F6
:1013300008E0142C01DB042504E00A2C01DB052560
:1013400000E006252A461A216820FFF7B9FD70BD86
:1013500070B50446B4F57A7F01DD4FF47A74042C3D
:1013600000DA04244FF47A7090FBF4F0401EC5B20A
:101370002A4619216820FFF7A3FD0546264604EBFF
:10138000D671C1F34F00FFF7C5FF70BD2DE9F041E5
:101390000746884614461D46284600F033F8C5F136
:1013A000040007FA00F60F20284100EA080006436F
:1013B00006F00F06E21704EBD2625211920002F11E
:1013C000E022D2F800212146E31704EBD3635B113E
:1013D000A4EB431C012303FA0CF31A432046E31742
:1013E00004EBD3635B119B0003F1E023C3F80021FE
:1013F0000348005D40EA061001490855BDE8F08148
:1014000000E400E00146072323EA01021202054B33
:1014100018684FF6FF031840034B18431043014B65
:10142000186070470CED00E00000FA054A0A52020D
:101430000243014B1A60704708ED00E000BFFEE771
:101440007047000029B1064A12680243044B1A6033
:1014500004E0034A12688243014B1A60704700009F
:101460003038024029B1064A12680243044B1A6020
:1014700004E0034A12688243014B1A60704700007F
:101480004038024029B1064A12680243044B1A60F0
:1014900004E0034A12688243014B1A60704700005F
:1014A0002038024029B1064A12680243044B1A60F0
:1014B00004E0034A12688243014B1A60704700003F
:1014C0004438024029B1064A12680243044B1A60AC
:1014D00004E0034A12688243014B1A60704700001F
:1014E000243802400CB50020019000903448006878
:1014F00040F480303249086000BF3148006800F491
:10150000003000900198401C0190009818B9019893
:10151000B0F5A04FF1D12A48006800F4003010B1B6
:101520000120009001E0002000900098012846D1A1
:1015300023484030006840F0805021494031086025
:101540002048006840F440401E4908601C480830AC
:1015500000681B49083108600846006840F40040F4
:1015600008600846006840F4A05008601648091F4B
:101570000860081F006840F08070091F086000BF05
:101580000F48006800F000700028F9D040F20570A4
:101590000E4908600A480830006820F00300084936
:1015A000083108600846006840F00200086000BF8B
:1015B00003480830006800F00C000828F8D10CBD82
:1015C000003802400070004019544007003C0240BF
:1015D000F0B504460D4616461F461448006840F014
:1015E00001001249086000201049083108600F48C6
:1015F00000680F4908400D4908600E48091D086041
:10160000081F006820F48020091F08600020074997
:101610000C3108603B4632462946204600F026F849
:1016200000210846FFF702FFF0BD0000003802402D
:10163000FFFFF6FE1030002410B500BF502080F3ED
:101640001188BFF34F8FBFF36F8F00BF02F046FDCD
:1016500018B14FF080500449086000BF002080F3AB
:10166000118800BF10BD000004ED00E0F0B5044695
:101670000D46002100203D4E366846F480363B4F33
:101680003E6001E04E1CB1B2384E366806F40036BA
:101690001EB941F6FF76B142F4DB41F6FF76B14266
:1016A00001D1012060E0314E4036366846F0805668
:1016B0002E4F40373E602E4E366846F440462C4F43
:1016C0003E602A4E0836366846F41446274F0837DF
:1016D0003E60264E366826F08076244F3E6045EA0E
:1016E00084160127C7EB520746EA074646EA036617
:1016F00046F480061D4F3F1D3E603E1F366846F093
:1017000080763F1F3E6000BF184E366806F00076B8
:10171000002EF9D0174E366846F48076154F3E609D
:101720003E46366846F400763E603E46366846F4ED
:1017300080663E603E46366846F005063E600B4ECB
:101740000836366826F00306084F08373E603E46E6
:10175000366846F002063E6000BF044E0836366822
:1017600006F00C06082EF8D1F0BD0000003802404B
:1017700000700040003C024010B51548006840F47D
:101780007000134908601348006840F001001149D7
:10179000086000200F49083108600E4800680E49B3
:1017A00008400C4908600D48091D0860081F0068C2
:1017B00020F48020091F0860002006490C310860D1
:1017C000FFF790FE4FF0006001498039086010BDBE
:1017D00088ED00E000380240FFFFF6FE10300024E4
:1017E00021B1028842F08002028004E002884FF6B4
:1017F0007F731A400280704721B1028842F00102D3
:10180000028004E002884FF6FE731A40028070479F
:1018100031B1B0F8442042F40042A0F8442005E081
:10182000B0F84420C2F30E02A0F844207047000034
:1018300010B504465548844208D101210846FFF7F7
:1018400041FE00210120FFF73DFE9DE0B4F1804FF5
:1018500008D101210846FFF715FE00210120FFF7FE
:1018600011FE91E04A48844208D101210220FFF78D
:1018700009FE00210220FFF705FE85E0454884426D
:1018800008D101210420FFF7FDFD00210420FFF70E
:10189000F9FD79E04048844208D101210820FFF792
:1018A000F1FD00210820FFF7EDFD6DE03B4884428B
:1018B00008D101211020FFF7E5FD00211020FFF7DE
:1018C000E1FD61E03648844208D101212020FFF784
:1018D000D9FD00212020FFF7D5FD55E03148844295
:1018E00008D101210220FFF7EDFD00210220FFF7C2
:1018F000E9FD49E02C48844209D101210804FFF7A1
:10190000E1FD00214FF48030FFF7DCFD3CE027488B
:10191000844209D101214804FFF7D4FD00214FF48E
:101920000030FFF7CFFD2FE02148844209D101218B
:101930008804FFF7C7FD00214FF48020FFF7C2FDA8
:1019400022E01C48844208D101214020FFF79AFD83
:1019500000214020FFF796FD16E01748844208D189
:1019600001218020FFF78EFD00218020FFF78AFDF6
:101970000AE01248844207D101218015FFF782FD59
:101980000021A015FFF77EFD10BD00000000014002
:101990000004004000080040000C0040001000401F
:1019A0000014004000040140004001400044014098
:1019B0000048014000180040001C0040002000408A
:1019C00070B5002400220023058C4FF6FE763540CA
:1019D0000584028C8388048B4FF68F752C40B51ECE
:1019E0002C400D882C43751E2A408D892A434D8832
:1019F0002A43104DA84202D00F4DA84213D14FF6F2
:101A0000F7752A40CD892A434FF6FB752A408D8809
:101A10002A434FF6FF652B404FF6FF552B400D8AAA
:101A20002B434D8A2B43838004838D684563028456
:101A300070BD000000000140000401400A46002182
:101A4000018B4FF6F7731940114301837047000073
:101A500070B5002400220023058C4FF6EF76354048
:101A60000584028C8388048B48F6FF752C404FF662
:101A7000FF452C400D884FF6FF7606EA05252C43DE
:101A80004FF6DF752A408D8906EA05152A434D88F1
:101A900006EA05152A43154DA84202D0144DA84266
:101AA0001DD14FF67F752A40CD894FF6FF7606EAA5
:101AB00005152A434FF6BF752A408D8806EA05159D
:101AC0002A434FF6FF352B404FF2FF752B400D8A0E
:101AD00006EA85052B434D8A06EA85052B4383805C
:101AE00004838D688563028470BD0000000001409E
:101AF000000401400A460021018B4FF2FF73194098
:101B00004FF6FF7303EA0223194301837047000075
:101B100000220288184B98420ED0184B98420BD0E6
:101B2000B0F1804F08D0164B984205D0154B984223
:101B300002D0154B984204D14FF68F731A404B8850
:101B40001A43124B984207D0114B984204D04FF6DB
:101B5000FF431A400B891A4302804B68C3620B880B
:101B60000385054B984202D0044B984201D18B7AF1
:101B70000386012383827047000001400004014076
:101B80000004004000080040000C0040001000402D
:101B90000014004000BFFEE70FB4054B10B503A9C9
:101BA000044A029800F0DAF810BC5DF814FB00005B
:101BB000A52400082400002002E008C8121F08C164
:101BC000002AFAD170477047002001E001C1121FBE
:101BD000002AFBD1704700002DE9FF5F82B0002191
:101BE000DDE90430020DDDF840B0034318D044F6BF
:101BF0001050A2F2FF3242431514119801281FD051
:101C0000A5EB0B00401C5FEA000A4FF000064E4FA8
:101C1000DFF83891B046504615D5CAF1000413E0FC
:101C2000119801244AA3012801D16FEA0B010298FF
:101C3000119AC0E90031C0E9024206B0BDE8F09F48
:101C4000CBF10000DFE704460021404A491842EB8F
:101C50000450CDE9001012E0E00707D032463B46C1
:101C600040464946FEF7D7FB8046894632463B460A
:101C700010461946FEF7CFFB06460F466410002CAF
:101C8000EAD1DDE90401DDE90023BAF1000F06DA4B
:101C9000FEF7C1FB42464B46FEF7BDFB05E0FEF7F3
:101CA0002CFC42464B46FEF728FC04460E4600221A
:101CB000284BFEF7E3FD03D84FF0FF30014607E065
:101CC0000022254B20463146FEF7FEFAFEF7BDFD09
:101CD000102409E0002C0ADB0A220023FEF7BFFCD7
:101CE000039B30321A55641E50EA0102F2D1641C83
:101CF000039AC4F111031444119A012A03D001225A
:101D000008430DD10AE0084304D000204FF0110B26
:101D1000119072E7A3EB0B056D1E0DE05B4504DD32
:101D20004FF0000205F1010504E003DA4FF0000274
:101D3000A5F10105002AECD002981199C0E9023101
:101D4000C0E9004579E70000000014400000F03FC2
:101D5000300000000000F0430000E03F2DE9FF4F9D
:101D600095B09B468946064600250FE2252877D187
:101D700000242746F84A0121059400E0044316F8A0
:101D8000013F203B01FA03F01042F7D130782A28B6
:101D900011D06FF02F033078A0F13002092A16D845
:101DA000059A44F0020402EB820203EB4202104463
:101DB000761C0590EFE759F8042B0592002A03DA08
:101DC000504244F40054059044F00204761C3078EC
:101DD0002E2816D116F8010F44F004042A280DD03D
:101DE0006FF02F023078A0F13003092B09D807EBF0
:101DF000870302EB4303C718761CF3E759F8047B0B
:101E0000761C30786C280FD006DC4C2817D0682858
:101E10000DD06A2814D104E0742810D07A280FD18C
:101E20000DE044F400140AE044F4801401E044F4AA
:101E300040147278824202D104F58014761C761C1C
:101E4000307866280BD013DC582877D009DC0028BE
:101E500075D04528F6D04628F4D047281AD19DE100
:101E600018E0632835D0642879D0652812D195E12F
:101E7000702873D008DC6728F1D069286FD06E28ED
:101E80000DD06F2806D1B5E073282CD0752875D0F9
:101E9000782874D05A46179990476D1C75E1C4F3A1
:101EA0000250022809D003280DD0D9F800100428C8
:101EB0000DD00D6009F1040967E1D9F80010EA17A7
:101EC000C1E90052F6E7D9F800100D80F2E70D7075
:101ED000F0E719F8041B8DF8001000208DF80100C0
:101EE000EA46012003E059F804AB4FF0FF306107E8
:101EF0004FF0000102D40DE008F101018846B9421B
:101F00000FDA8045F8DB1AF808100029F4D108E050
:101F100008F1010188468142FADB1AF8081000290D
:101F2000F6D105985B46A0EB080721463846179A7C
:101F300000F094FA284400EB080507E04DE029E1A1
:101F40000DE01AF8010B5A4617999047B8F10108AD
:101F5000F7D25B4621463846179A13E142E00A223F
:101F60000092C4F302524FF0000A022A08D059F836
:101F700004CB032A4FEAEC710AD00DE029E02AE0F5
:101F800009F1070121F00702F2E802C1914609E0D8
:101F90000FFA8CFC4FEAEC71042A03D14FFA8CFC47
:101FA0004FEAEC71002907DA0A460021DCF1000C47
:101FB00061EB02012D2202E0220504D52B228DF8CF
:101FC0000420012203E0E20701D02022F7E7904637
:101FD00059E00A2102E010220DE010214FF0000A22
:101FE00000910BE010224FF0000A44F0040408278F
:101FF000009203E008224FF0000A0092C4F302525C
:10200000022A05D059F804CB0021032A08D009E0A0
:1020100009F1070121F00702F2E802C1914605E04B
:102020001FFA8CFC042A01D10CF0FF0C4FF00008C1
:10203000220728D5702806D0009B83F0100353EAAE
:102040000A0305D00EE040228DF80420012208E0AA
:102050005CEA010206D030228DF804208DF80500DC
:1020600002229046009B83F0080353EA0A030AD138
:102070005CEA010201D1620705D530228DF8042007
:102080004FF001087F1E582804D034A003900EA8FA
:1020900002900DE036A0F9E753466046009AFEF73D
:1020A000DEFA84460398825C0298401E0290027019
:1020B0005CEA0100F0D1029806A9081A00F1200A92
:1020C000600702D524F4803400E00127574502DD83
:1020D000A7EB0A0000E0002000EB0A010090059841
:1020E0004144401A0590E00306D45B462146179A06
:1020F000059800F0B3F90544002706E001A85A4608
:10210000C05D179990476D1C7F1C4745F6DBE003C7
:102110000CD55B462146179A059800F09FF90544B7
:1021200004E030205A46179990476D1C0099481ECC
:1021300000900029F5DC08E0029802995A460078E0
:10214000491C0291179990476D1CBAF10001AAF140
:10215000010AF1DC65E10000092801003031323369
:1021600034353637383961626364656600000000D3
:1021700030313233343536373839414243444546BD
:102180000000000000F058F90544761C3078002863
:102190007FF4ECAD19B02846BDE8F08F620700D49B
:1021A000062709F1070222F0070CFCE80223E146AA
:1021B00003F000485FEA080C02D00FF2702C0DE02B
:1021C0005FEA045C02D50FF2682C07E05FEAC47C8A
:1021D00002D00FF2602C01E0AFF2700C4FF0FF382C
:1021E00023F00043CDF850C065280CD006DC45280C
:1021F00009D046281DD047283DD13DE0662818D09B
:1022000067287ED138E00021112F01DB112000E08A
:10221000781CCDE9000106A90EA8FFF7DDFCDDE979
:102220000F010E9A03910021009207F1010A049117
:102230004DE04FF000400097CDE9011006A90EA82F
:10224000FFF7CAFCDDE90F0203920E9B11990022F1
:10225000DDF80CA00093049211B9791C00EB010A7F
:10226000B7EB0A0004D4C0F1FF3007F1010A049073
:10227000AAEB0700019044E0012F00DA01270021BA
:10228000112F01DD112000E03846CDE9000106A93B
:102290000EA8FFF7A1FCDDE90F010E9A03910021C2
:1022A00004910092BA4621070CD40399514500DAF3
:1022B0008A46BAF1010F05DD009AAAF10101515CCD
:1022C000302908D0B84202DA10F1040F06DA0121F1
:1022D000CDE9011015E0AAF10101E9E7002805DCCC
:1022E000049901440491AAEB000102E0411C51450C
:1022F00000DD8A460499401A401C01904FF00040CE
:102300000290200704D40198504501DBCDF80480E9
:1023100000208DF84F0002980DF14F07B0F1004FEB
:1023200025D02B200E9002984FF0020800280CDADE
:10233000404202902D200E9007E00A210298FEF7FD
:1023400078F93031029007F8011DB8F10001A8F1C9
:102350000108F2DC02980028EFD1791E0E9808706F
:10236000307800F0200040F0450007F8020D12A878
:10237000C01B00F107081498007800B1012000EBA1
:102380000A01019801EBE07105984144401A401E92
:102390000590E00306D45B462146179A059800F0A5
:1023A0005DF805441498007818B15A46179990477B
:1023B0006D1CE00324D55B462146179A059800F072
:1023C0004DF805441CE00498002807DBDDE9030113
:1023D000884203DD0098405C179901E0179930208E
:1023E0005A469047049805F10105401C0490019855
:1023F000401E019004D12E205A46179990476D1C1B
:10240000BAF10001AAF1010ADDDC05E017F8010BC1
:102410005A46179990476D1CB8F10001A8F10108C0
:10242000F4DC5B462146179A0598ABE62D000000C8
:102430002B000000200000002DE9F041044600259B
:102440001E461746880404D405E039462020B047CC
:102450006D1C641EF9D52846BDE8F0812DE9F041D8
:10246000044600251E469046C80301D5302700E0EB
:102470002027880404D505E041463846B0476D1C46
:10248000641EF9D52846BDE8F08105E000BF00BF15
:1024900000BF00BF00BF00BF011EA0F1010290B24B
:1024A000F4D1704700BF054A128802F04002002AAA
:1024B000F9D0C2B2014B9A80704700000010014071
:1024C00039E01D480068C0431C49C1F8B4021C48EB
:1024D000FEF77FFE1B48FEF758FE1B48FEF79DFEE9
:1024E000FEF7C4FE194908801548B0F90430B0F968
:1024F0000220B0F9001016A0FFF74EFB1148B0F90A
:102500000430B0F90220B0F9001016A0FFF744FB28
:102510000D48B0F90430B0F90220B0F9001016A04F
:10252000FFF73AFB0948018818A0FFF735FB4FF485
:102530007A7001F067F8C4E7B402414200004142FA
:1025400000000020060000200C00002020000020D9
:102550006779726F3A2025642C2025642C2025642D
:102560000D0A00006163633A2025642C2025642C49
:102570002025640D0A0000006D61673A2025642C57
:102580002025642C2025640D0A00000074656D7000
:10259000657261747572653A256400000EE0002072
:1025A000074908604FF4167001F02CF80120054926
:1025B000C1F8B8024FF4487001F024F8EFE70000CA
:1025C000B8024142000041421CB5FEF781F90748BC
:1025D000012100238022CDE9001005A1074801F068
:1025E00037FD01F005F900201CBD0000140000209B
:1025F00073746172745F7461736B0000D931000889
:102600002DE9F04105460E461C4807681C48006845
:10261000001D00F097FE50B91948006890F82C1082
:102620000120884017490968814316480160681CE9
:1026300038B936B112480168091D134800F0C0FED0
:102640001AE07C190E4800684460BC4207D20C486E
:102650000168091D0D48006800F098FE0CE008486C
:102660000168091D0A48006800F090FE09480068EA
:10267000844201D207480460BDE8F0814000002098
:102680002C00002044000020940100203400002091
:10269000300000205C00002010B5044600F09CFED5
:1026A00024480068401C234908602348006840B95A
:1026B000214804600846006801280DD100F0D8F9CF
:1026C0000AE01E48006838B91B480068C06AE16A21
:1026D000884201D81848046019480068401C18490D
:1026E000086008460068206494F82C100120884097
:1026F00014490968084313490860E16A01EB810144
:10270000114A02EB8100211D00F05AFE00F08EFEFE
:102710000A48006868B108480068C06AE16A8842EF
:1027200007D24FF0805009490860BFF34F8FBFF3C5
:102730006F8F10BD3C0000202C00002048000020BE
:102740005800002044000020E000002004ED00E0DC
:1027500010B500F041FE10480068D0B90F4800F0F5
:1027600005FE0F4800F002FE0C480E4908600C48B8
:102770000D49086000220C210A2001F085F9064964
:1027800008600846006820B108A10348006800F00E
:10279000FDFE00F04BFE10BD70000020A8010020DF
:1027A000BC010020680000206C000020546D7251B4
:1027B0000000000010B516E000F00EFE0C48C068E6
:1027C000C468201D00F0BEFD0A480068401E09498B
:1027D000086009480068401E0749086000F026FEAE
:1027E000204600F05FF8044800680028E4D110BDDE
:1027F000800100203C0000203800002070B5044615
:102800000D46206C70B1216CE0680144E160D4E9B0
:102810000210884201D32168E1602846226CE168F9
:10282000FDF72EFD70BD2DE9F04104460F4615461B
:102830004FF00008A66B206C48B9206800282CD106
:10284000A06801F0EFFC80460020A06025E07DB983
:102850003946226C6068FDF713FD216C60680844FE
:102860006060D4E90101884217D32068606014E0F9
:102870003946226CE068FDF703FD216CE068411ADF
:10288000E1602168E068884203D2216CA068411AA7
:10289000E160022D01D106B1761E701CA063404696
:1028A000BDE8F08110B50446206B00F0DDFD204648
:1028B00000F0DAFD10BD00000146084A12681268F7
:1028C0000AB9012200E000220A600A6822B9034A1C
:1028D0001268D268106800E000207047680000208D
:1028E00030B54FF49633174800F007042CB1C01DE3
:1028F00020F00700134C041B1B1B0246124C2260E5
:102900000024114D6C60D018083820F007000F4CDF
:10291000206000240D4D2D686C600C4D2D682C60DE
:102920001146441A4C60094C24680C60084D4C68F0
:102930002C60084D4C682C604FF00044064D2C6014
:1029400030BD0000D00100207C0000208400002069
:102950008C000020880000209000002000BFFFF7BE
:1029600029FF064800680128F9D94FF08050044932
:102970000860BFF34F8FBFF36F8FF0E7E0000020D8
:1029800004ED00E02DE9F04106460D461746984655
:10299000069C0DB9246000E02760E66325640121F0
:1029A000204601F09FF884F850800020A064BDE824
:1029B000F0812DE9F05F82460E4690469B460A9FC5
:1029C0000C9C4FEA8801A522206BFDF76BFCA8F157
:1029D0000100216B01EB800929F0070909F00700CC
:1029E00008B9012000E0002050B900BF502080F35A
:1029F0001188BFF34F8FBFF36F8F00BF00BFFEE79B
:102A000086B1002507E0715D04F134004155705D29
:102A100000B902E06D1C0A2DF5D300BF00213D2056
:102A2000015502E0002084F83400052F00D304276C
:102A3000E762A7640020E064201D00F0A4FC04F11C
:102A4000180000F0A0FC2461C7F10500A0616462D9
:102A50000020206584F854005A465146484600F04C
:102A6000A5FB20600B9808B10B980460BDE8F09FAF
:102A700010B5002407E004EB84010F4A02EB81004B
:102A800000F074FC641C052CF5D30C4800F06EFCBF
:102A90000B4800F06BFC0B4800F068FC0A4800F0A3
:102AA00065FC0A4800F062FC0448094908600448D3
:102AB0000849086010BD0000E0000020440100202B
:102AC000580100206C0100208001002094010020AA
:102AD000300000203400002010B50146164800E008
:102AE000006803688B42FBD30246436813448B4261
:102AF00004D143684C682344436001460A464B684E
:102B000013440468A34211D10C4C03682468A34207
:102B100008D04B680468646823444B6003681B68F2
:102B20000B6005E0054B1B680B6001E003680B6060
:102B3000884200D0016010BD7C000020840000208D
:102B40002DE9F04104460D4616461F464FF0000899
:102B500065602461B5420CD8F01BA169884202D39C
:102B60004FF0010811E0211D0948006800F00EFC3B
:102B70000BE0BE4204D2BD4202D34FF0010804E094
:102B8000211D0448006800F001FC4046BDE8F081CA
:102B90006C0000206800002070B5054600F01CFCA9
:102BA000A86B08B9012400E0002400F03FFC204697
:102BB00070BD70B5054600F00FFCA86BE96B88424C
:102BC00001D1012400E0002400F030FC204670BD5B
:102BD0002DE9F3410D460098846C002754B900BFDD
:102BE000502080F31188BFF34F8FBFF36F8F00BF6A
:102BF00000BFFEE7A06BE16B884201D2012000E03C
:102C0000002050B900BF502080F31188BFF34F8FD0
:102C1000BFF36F8F00BF00BFFEE7A06BE16B884280
:102C20001BD294F945602A4669462046FFF7FBFD12
:102C30000746701C60B9606A08B9012000E00020F6
:102C400050B904F1240001F051FB28B1012703E041
:102C5000701C40B284F8450000BF3846BDE8FC81D6
:102C6000F8B505460F461A480068C068C468201DBC
:102C700000F068FB94F8280000F00400E8B1A069B7
:102C800041192B463A462046FFF75AFFD8B100209B
:102C900003462A4601460090204601F021FC0646E4
:102CA00056B900BF502080F31188BFF34F8FBFF398
:102CB0006F8F00BF00BFFEE705E094F8280020F00A
:102CC000010084F828002046216A8847F8BD0000EA
:102CD0006800002070B586B08BE003980028FBDB0D
:102CE000059C606908B9012000E0002010B9201D92
:102CF00000F028FB02A800F0DDF8054603980A283A
:102D000075D2DFE800F009050739416306083A4249
:102D100000BF00BF00BF00BF94F8280040F00100D2
:102D200084F828000498A269811803462A462046A0
:102D3000FFF706FFF8B12046216A884794F828007B
:102D400000F00400B8B1002000900498A169421876
:102D500000231946204601F0C3FB064656B900BFC2
:102D6000502080F31188BFF34F8FBFF36F8F00BFE8
:102D700000BFFEE700BF3BE000BF94F8280020F052
:102D8000010084F8280033E000BF94F8280040F0E8
:102D9000010084F828000498A061A06908B101200E
:102DA00000E0002050B900BF502080F31188BFF32D
:102DB0004F8FBFF36F8F00BF00BFFEE7A0694119BF
:102DC0002B462A462046FFF7BBFE11E094F8280068
:102DD00000F0020018B9204600F046FB05E094F828
:102DE000280020F0010084F8280001E0FFE700BF80
:102DF00000BF002203A90448006801F02FF8002852
:102E00007FF46BAF06B070BD70000020F8B50546CA
:102E10000C4600F037FD684600F04CF80646009876
:102E200020BB44B9B54206D801F0ACFA3146284679
:102E3000FFF716FF1CE03CB10E480068006808B9B7
:102E4000012000E000200446A91B22460A48006831
:102E500000F0B2FB01F096FA50B94FF080500749EC
:102E60000860BFF34F8FBFF36F8F01E001F08AFA64
:102E7000F8BD00006C0000207000002004ED00E0B0
:102E80000A490968096809B9012100E0002121B156
:102E90004FF0FF31064A116006E004490968C9682D
:102EA000C868034A41681160704700003000002084
:102EB0005C00002070B5044601F00AF90546074899
:102EC0000068854204D200F00BF80120206001E088
:102ED0000020206001480560284670BD7800002071
:102EE0002DE9F84334E025480068C06805682348A8
:102EF0000068C068C468201D00F024FA2046216ADA
:102F0000884794F8280000F0040008B3A069461927
:102F1000AE4207D966602461211D1848006800F0A0
:102F200035FA15E0002003462A4601460090204667
:102F300001F0D6FA074657B900BF502080F3118838
:102F4000BFF34F8FBFF36F8F00BF00BFFEE700BF1F
:102F50000A480068006808B9012000E00020002845
:102F6000C1D00648D0F800800548006803490860D1
:102F70000348C0F80080BDE8F88300006800002026
:102F80006C0000200E480068401C08B9012000E0D9
:102F9000002050B900BF502080F31188BFF34F8F3D
:102FA000BFF36F8F00BF00BFFEE700BF502080F36C
:102FB0001188BFF34F8FBFF36F8F00BF00BFFEE7D5
:102FC0009400002008B500BF6846FFF775FC044672
:102FD00020460099FFF71AFFFFF77CFEF4E770B573
:102FE000044600F0F9F994F945501AE0A06C38B1A4
:102FF00000212046FFF7ECFD88B100F0B7FB0EE0A2
:10300000606A08B9012000E0002038B904F124000A
:1030100001F06CF918B100F0A9FB00E003E0681EB4
:1030200045B2002DE2DC00BFFF2084F8450000F02F
:10303000FDF900F0D1F994F9445010E0206908B985
:10304000012000E0002048B904F1100001F04EF921
:1030500008B100F08BFB681E45B200E001E0002DD6
:10306000ECDC00BFFF2084F8440000F0DFF970BD05
:103070002DE9F04104464FF0000800F003FC4648FB
:10308000006808B9FFF72CFC44480068204000287D
:103090006BD1D4B1083404F00700B0B104F00700DC
:1030A000C0F10800044404F0070008B9012000E062
:1030B000002050B900BF502080F31188BFF34F8F1C
:1030C000BFF36F8F00BF00BFFEE7002C4DD0344828
:1030D0000068844249D8334E3046056801E02E46E8
:1030E0002D686868A04202D228680028F7D12A48D3
:1030F0000068854239D0306800F1080828683060DF
:103100006868001B102819D92F1907F0070008B9A3
:10311000012000E0002050B900BF502080F311884A
:10312000BFF34F8FBFF36F8F00BF00BFFEE768682C
:10313000001B78606C603846FFF7CEFC1849686861
:103140000968081A1649086008460068164909689F
:10315000884203D212480068134908600F49686822
:103160000968084368600020286001F00BF908F046
:10317000070008B9012000E0002050B900BF50202E
:1031800080F31188BFF34F8FBFF36F8F00BF00BF75
:10319000FEE74046BDE8F08184000020900000205A
:1031A000880000207C0000208C000020001F4FF0D1
:1031B00080730360001F21F001030360001F054BB3
:1031C000036014380260001F6FF0020303602038B0
:1031D00070470000852F00081CB5044600F0FCF87D
:1031E0000D4802210023CA01CDE900100BA10E48B1
:1031F00000F02EFF0D48032100234FF48072CDE92B
:1032000000100BA10D4800F023FF0D48006800F0EE
:1032100027FA00F00BF91CBD180000206C65643023
:103220005F7461736B000000C12400081C00002063
:103230006C6564315F7461736B0000009D2500084C
:1032400014000020F0B52DED028B83B005460E462C
:10325000384905FB01F000EE100AF8EE400A300193
:1032600000EE100AB8EE400A80EE801AB0EE418AF5
:10327000BCEEC80A10EE100A84B200EE104AB8EE96
:10328000400A38EE400AF3EE000A20EE200ABCEEB7
:10329000C00A10EE107A4FF6FF7000EA0414E0192D
:1032A00084B22548006840F00100234908602248A4
:1032B0001430006840F010001F49143108600120EC
:1032C000022100230A46CDE900104FF4C0611B48DB
:1032D000FDF7A2FB072209211848FDF712FB072280
:1032E0000A211648FDF70DFB15480481808920F45A
:1032F0000040134988810846808940F00800888191
:103300000846808940F0040088810846808940F0A2
:10331000200088810223252203210846FEF736F883
:103320000748808940F400500549888103B0BDEC0E
:10333000028BF0BD40420F003038024000000240D6
:103340000010014001460A69D1E901309860D1E9D5
:10335000010358605068884201D18868506000209D
:1033600008611068401E10601068704700F1080185
:1033700041604FF0FF31816000F10801C1600161DF
:1033800000210160704700210161704710B50246BD
:103390000B685C1C0CB9106907E002F1080000E042
:1033A0004068446824689C42FAD944684C604C6880
:1033B000A160886041600A611468641C146010BDDB
:1033C00042684A6093688B609368596091600861B5
:1033D00003685B1C0360704700BF502080F31188B6
:1033E000BFF34F8FBFF36F8F00BF0E480068401CC4
:1033F0000C49086008460068012812D10A48006894
:10340000C0B208B9012000E0002050B900BF502030
:1034100080F31188BFF34F8FBFF36F8F00BF00BFE2
:10342000FEE770479400002004ED00E00D480068BE
:1034300050B900BF502080F31188BFF34F8FBFF306
:103440006F8F00BF00BFFEE706480068401E0549B9
:1034500008600846006820B9002080F3118800BF8A
:1034600000BF70479400002070B506463546002E18
:103470003FD0083D2C461F4960680968084008B1E4
:10348000012000E0002050B900BF502080F31188D7
:10349000BFF34F8FBFF36F8F00BF00BFFEE7206801
:1034A00008B9012000E0002050B900BF502080F38F
:1034B0001188BFF34F8FBFF36F8F00BF00BFFEE7D0
:1034C0000C4960680968084098B1206888B90949C2
:1034D000606809688843606000F0D4F90649606854
:1034E00009680844044908602046FFF7F5FA00F02F
:1034F00049FF70BD900000208800002000204FF0A0
:10350000E02108618861024848610720086170472E
:103510003F90020070B5FCF79DFE0446102C16D3B8
:1035200004F1E02090F8F05315480078854201DB63
:10353000012000E0002050B900BF502080F3118826
:10354000BFF34F8FBFF36F8F00BF00BFFEE70D4883
:10355000006800F4E0600C490968884201D8012045
:1035600000E0002050B900BF502080F31188BFF365
:103570004F8FBFF36F8F00BF00BFFEE770BD00002D
:10358000980000200CED00E09C0000200246002086
:103590000BE0084B53F8303033B9064B43F830108A
:1035A00003EBC0035A6002E0401C0828F1D300BFBF
:1035B00070470000A00000202DE9F04105460E46AE
:1035C00017462C46FFF708FF94F94400401C10B939
:1035D000002084F8440094F94500401C10B90020F4
:1035E00084F84500FFF722FFA06B28B93A46314620
:1035F00004F1240000F0DCF82046FFF7F0FCBDE801
:10360000F081000070B504460025D4B1124800686E
:1036100008B9012000E0002050B900BF502080F31D
:103620001188BFF34F8FBFF36F8F00BF00BFFEE75E
:1036300000F028F900212046FEF7E2FF00F0A2FE8C
:1036400005463DB94FF0805004490860BFF34F8FE5
:10365000BFF36F8F70BD00006400002004ED00E038
:1036600070B50546FFF7B8FE15B93048006800E0B0
:1036700028460446201DFFF765FE78B9E06A00EB96
:1036800080002B4951F8200040B994F82C100120FB
:10369000884028490968814326480160A06A18B11A
:1036A00004F11800FFF74EFE23480068401C224931
:1036B00008601E480068844209D1211D1F48FFF799
:1036C0007FFE1F480068401C1D49086009E01D4836
:1036D0000068401E1B4908602046FFF7E3F8FFF72B
:1036E000CFFBFFF7A3FE18480068E8B10F48006859
:1036F000844219D11548006808B9012000E0002073
:1037000050B900BF502080F31188BFF34F8FBFF333
:103710006F8F00BF00BFFEE74FF080500C4908607C
:10372000BFF34F8FBFF36F8F70BD00002C000020E0
:10373000E00000204400002058000020800100200C
:10374000380000203C0000204800002064000020D9
:1037500004ED00E00349096801600349096841601C
:103760007047000054000020400000200120014963
:10377000086070475000002070B504460D4654B9EB
:1037800000BF502080F31188BFF34F8FBFF36F8FBE
:1037900000BF00BFFEE70548016818312046FFF76B
:1037A000F5FD01212846FEF72BFF70BD2C000020FF
:1037B00070B505460E46144655B900BF502080F33B
:1037C0001188BFF34F8FBFF36F8F00BF00BFFEE7BD
:1037D0000648016818312846FFF7F2FD0CB14FF09A
:1037E000FF3621463046FEF70BFF70BD2C0000204F
:1037F0001CB51D4800210B468222CDE900101BA1FB
:103800001C4800F025FC0446012C02D100F03CFECF
:103810000446012C15D100BF502080F31188BFF35E
:103820004F8FBFF36F8F00BF4FF0FF30124908601A
:1038300001201249086000201149086000F070F86A
:1038400010E0601C08B1012000E0002050B900BF6A
:10385000502080F31188BFF34F8FBFF36F8F00BFED
:1038600000BFFEE71CBD00006000002049444C453D
:10387000000000005D2900085C00002048000020D6
:103880004000002002480068401C01490860704761
:10389000640000201D48006818B101201C49086020
:1038A00032E000201A4908601A480068B0FA80F037
:1038B000C0F11F0101EB8100174A52F8200008B146
:1038C000012000E0002050B900BF502080F3118893
:1038D000BFF34F8FBFF36F8F00BF00BFFEE701EB59
:1038E00081020D4B03EB820042685268426000F196
:1038F00008024368934202D14268526842604268BB
:10390000D268064B1A6000BF7047000064000020B8
:103910005000002044000020E00000202C00002087
:103920001CB5524800685249884201D0012000E08D
:10393000002050B900BF502080F31188BFF34F8F93
:10394000BFF36F8F00BF00BFFEE7484800684849DB
:10395000491E884201D0012000E0002050B900BF7C
:10396000502080F31188BFF34F8FBFF36F8F00BFDC
:1039700000BFFEE73F49084600780190FF200A4655
:1039800010700846007800909DF8000000F0F000EC
:103990009DF80020904201D1012000E0002050B9A4
:1039A00000BF502080F31188BFF34F8FBFF36F8F9C
:1039B00000BF00BFFEE79DF8000000F050002E4A57
:1039C000107007202D4A106009E02C480068401E46
:1039D0002A4A10609DF800004006000E00909DF8F5
:1039E000000000F080008028EFD024480068C0F17B
:1039F0000700042801D1012000E0002050B900BFD9
:103A0000502080F31188BFF34F8FBFF36F8F00BF3B
:103A100000BFFEE7194800680002184A106010460F
:103A2000008800F4E0601060124A019810700F489E
:103A30002030006840F470000C49203108600846CE
:103A4000006840F070400860FFF758FD00200C4906
:103A50000860FCF7C7FB0B48006840F0404009498C
:103A60000860FCF7ABFB00201CBD000000ED00E08F
:103A700071C20F4100E400E0980000209C0000208B
:103A80009400002034EF00E02DE9F84305460E468F
:103A900090460DB1012000E0002050B900BF502039
:103AA00080F31188BFF34F8FBFF36F8F00BF00BF4C
:103AB000FEE70EB9002701E005FB06F707F1540009
:103AC000FFF7D6FA04464CB1A14609F15409434622
:103AD0004A46314628460094FEF754FF2046BDE88A
:103AE000F883000070B505460E462C4654B900BF59
:103AF000502080F31188BFF34F8FBFF36F8F00BF4B
:103B000000BFFEE7FFF768FCD4E90F12206801FB55
:103B10000200A0600020A06320686060E06B401E8F
:103B2000226C216800FB0211E160FF2084F8440050
:103B300084F845009EB9206908B9012000E0002002
:103B4000A8B904F1100000F0D1FB80B14FF0805013
:103B500009490860BFF34F8FBFF36F8F07E004F18F
:103B60001000FFF703FC04F12400FFF7FFFBFFF751
:103B70005DFC012070BD000004ED00E02DE9FF4771
:103B800082B0064688461D464FF00009344654B9B7
:103B900000BF502080F31188BFF34F8FBFF36F8FAA
:103BA00000BF00BFFEE7B8F1000F01D1206C08B9DB
:103BB000012000E0002050B900BF502080F31188A0
:103BC000BFF34F8FBFF36F8F00BF00BFFEE7022D23
:103BD00002D1E06B012801D1012000E0002050B9A2
:103BE00000BF502080F31188BFF34F8FBFF36F8F5A
:103BF00000BF00BFFEE700F05BFA08B9049808B9FF
:103C0000012000E0002050B900BF502080F311884F
:103C1000BFF34F8FBFF36F8F00BF00BFFEE700BF42
:103C2000FFF7DAFBA06BE16B884201D3022D3FD195
:103C3000D4F838A02A4641462046FEF7F4FD074650
:103C4000A06C90B1022D02D1BAF1000F2AD1294601
:103C50002046FEF7BDFF28B34FF080503C49086076
:103C6000BFF34F8FBFF36F8F1CE0606A08B901206C
:103C700000E0002068B904F1240000F037FB88B1AF
:103C80004FF0805032490860BFF34F8FBFF36F8F02
:103C900008E03FB14FF080502D490860BFF34F8FCF
:103CA000BFF36F8FFFF7C2FB012006B0BDE8F087BE
:103CB000049818B9FFF7BAFB0020F6E7B9F1000F36
:103CC00004D16846FFF746FD4FF00109FFF7AEFB50
:103CD000FFF7D8FDFFF780FB94F94400401C10B9B2
:103CE000002084F8440094F94500401C10B90020DD
:103CF00084F84500FFF79AFB04A9684600F062F9D2
:103D0000F8B92046FEF755FFA8B104F11000049958
:103D1000FFF732FD2046FFF762F900F033FB002881
:103D20007FF47EAF4FF0805009490860BFF34F8F9A
:103D3000BFF36F8F74E72046FFF751F900F022FBC5
:103D40006EE72046FFF74BF900F01CFB0020ACE7C4
:103D500004ED00E02DE9F05F80468A4615461E46D8
:103D6000444654B900BF502080F31188BFF34F8FF1
:103D7000BFF36F8F00BF00BFFEE7BAF1000F01D1A4
:103D8000206C08B9012000E0002050B900BF50208D
:103D900080F31188BFF34F8FBFF36F8F00BF00BF59
:103DA000FEE7022E02D1E06B012801D1012000E0E4
:103DB000002050B900BF502080F31188BFF34F8F0F
:103DC000BFF36F8F00BF00BFFEE7FFF7A3FB00BF8D
:103DD0005021EFF3118081F31188BFF34F8FBFF3B0
:103DE0006F8F00BF0746A06BE16B884201D3022EA4
:103DF0002BD194F945B0324651462046FEF713FDCB
:103E00000BF10100C8B9A06C40B131462046FEF765
:103E1000DFFEB8B1B5B10120286013E0606A08B9CF
:103E2000012000E0002068B904F1240000F05EFAEF
:103E300040B13DB10120286004E00BF1010040B227
:103E400084F845004FF0010901E04FF0000900BF80
:103E500087F3118800BF4846BDE8F09F2DE9F74180
:103E600083B005460E464FF000082C4654B900BFFB
:103E7000502080F31188BFF34F8FBFF36F8F00BFC7
:103E800000BFFEE70EB9206C08B9012000E0002059
:103E900050B900BF502080F31188BFF34F8FBFF39C
:103EA0006F8F00BF00BFFEE700F002F908B9059868
:103EB00008B9012000E0002050B900BF502080F375
:103EC0001188BFF34F8FBFF36F8F00BF00BFFEE7B6
:103ED00000BFFFF781FAA76BF7B131462046FEF726
:103EE0008DFC781EA063206908B9012000E0002045
:103EF00060B904F1100000F0F9F938B14FF08050CA
:103F00002F490860BFF34F8FBFF36F8FFFF78EFA13
:103F1000012006B0BDE8F081059818B9FFF786FAD0
:103F20000020F6E7B8F1000F04D101A8FFF712FC5A
:103F30004FF00108FFF77AFAFFF7A4FCFFF74CFAFD
:103F400094F94400401C10B9002084F8440094F90E
:103F50004500401C10B9002084F84500FFF766FAC0
:103F600005A901A800F02EF8F0B92046FEF714FECE
:103F7000A0B104F124000599FFF7FEFB2046FFF7EE
:103F80002EF800F0FFF90028A3D14FF080500C4923
:103F90000860BFF34F8FBFF36F8F9AE72046FFF79C
:103FA0001EF800F0EFF994E72046FFF718F800F04C
:103FB000E9F92046FEF7F0FD00288AD00020A8E7A6
:103FC00004ED00E070B505460C4655B900BF502021
:103FD00080F31188BFF34F8FBFF36F8F00BF00BF17
:103FE000FEE754B900BF502080F31188BFF34F8F14
:103FF000BFF36F8F00BF00BFFEE7FFF7EDF9124878
:1040000002686868131A2068401C08B9002617E087
:104010000E4928680968884204D06868904201D82F
:1040200001260DE02068984207D92068C01A206058
:104030002846FFF78FFB002602E0002020600126C3
:10404000FFF7F4F9304670BD400000205400002016
:104050002DE9FF4F85B0804689461746DDE912AB52
:10406000B800FFF705F8064656B15820FFF700F8EC
:1040700004460CB1266304E03046FFF7F5F900E092
:1040800000247CB10020CDE900ABCDE902403A46E6
:1040900049464046089BFEF78CFC2046FEF7FCFA9A
:1040A000012501E04FF0FF35284609B0BDE8F08F4B
:1040B0000549096809B9012005E00449096809B9F9
:1040C000022000E00020704748000020640000202B
:1040D0000149086870470000400000202DE9F041C8
:1040E0004FF0000844480068002877D14348006832
:1040F000451C4248056015BB41480068006808B986
:10410000012000E0002050B900BF502080F311884A
:10411000BFF34F8FBFF36F8F00BF00BFFEE738487C
:1041200007683848006836490860364807603648EE
:104130000068401C34490860FEF7A2FE00BF334807
:10414000006885423CD300BF2D480068006808B96C
:10415000012000E0002020B14FF0FF302B49086023
:104160002DE027480068C068C4686668B54202D27E
:104170002648066023E0201DFFF7E4F8A06A18B186
:1041800004F11800FFF7DEF894F82C1001208840A5
:104190001F49096808431E490860E16A01EB810173
:1041A0001C4A02EB8100211DFFF70AF91A49E06A57
:1041B0000968C96A8842C7D34FF00108C4E700BF45
:1041C00015480068C06A00EB8000124951F82000D1
:1041D000012801D94FF0010805E0FFE70F4800680A
:1041E000401C0E4908600E48006808B14FF00108F5
:1041F0004046BDE8F081000064000020400000203F
:104200003000002034000020540000205C0000201A
:1042100044000020E00000202C0000204C00002082
:104220005000002070B505462C460026002D55D0C4
:104230002B480068844201D1012000E0002050B9E1
:1042400000BF502080F31188BFF34F8FBFF36F8FF3
:1042500000BF00BFFEE7E06C50B900BF502080F304
:104260001188BFF34F8FBFF36F8F00BF00BFFEE712
:10427000E06C401EE064A16CE06A88422ED0E06CE5
:1042800060BB201DFFF75EF878B9E06A00EB8000A4
:10429000144951F8200040B994F82C1001208840AE
:1042A00011490968814310480160A06CE062E06A2E
:1042B000C0F10500A06194F82C10012088400A4943
:1042C0000968084308490860E16A01EB8101054A71
:1042D00002EB8100211DFFF773F80126304670BD07
:1042E0002C000020E00000204400002070B50646AD
:1042F000F068C46854B900BF502080F31188BFF340
:104300004F8FBFF36F8F00BF00BFFEE704F11800AF
:10431000FFF718F815480068A8B9201DFFF712F834
:1043200094F82C100120884011490968084310496D
:104330000860E16A01EB81010E4A02EB8100211D58
:10434000FFF73EF804E004F118010B48FFF738F8D6
:104350000A49E06A0968C96A884204D9012501202E
:104360000749086000E00025284670BD6400002071
:1043700044000020E00000206C0100202C00002000
:104380005000002070B5002400263648006850B95F
:1043900000BF502080F31188BFF34F8FBFF36F8FA2
:1043A00000BF00BFFEE7FFF717F82E480068401E69
:1043B0002C4908600846006800284FD12A48006848
:1043C00000284BD024E02948C068C46804F11800D4
:1043D000FEF7B8FF201DFEF7B5FF94F82C10012062
:1043E000884023490968084321490860E16A01EBD4
:1043F0008101204A02EB8100211DFEF7E1FF1E49E9
:10440000E06A0968C96A884202D301201B49086032
:104410001648006808B9012000E000200028D2D02A
:104420000CB1FEF72DFD1648056865B100BFFFF71A
:1044300055FE10B10120114908606D1E002DF6D106
:1044400000200F4908600D48006838B10126300788
:104450000C490860BFF34F8FBFF36F8FFEF7E6FF85
:10446000304670BD640000203C0000206C0100203C
:1044700044000020E00000202C000020500000201C
:104480004C00002004ED00E01CB50024FEF760F9AC
:104490000E48006858B10E48022100234FF4827282
:1044A000CDE900100BA10D48FFF7D2FD044654B929
:1044B00000BF502080F31188BFF34F8FBFF36F8F81
:1044C00000BF00BFFEE720461CBD000070000020BA
:1044D00074000020546D722053766300C52F0008CD
:1044E0002DE9FE4304460D4616461F46DDF828809A
:1044F0004FF0000954B900BF502080F31188BFF37A
:104500004F8FBFF36F8F00BF00BFFEE714480068F6
:1045100010B3009501960294062D15DAFFF7C8FD39
:10452000022808D10023424669460D480068FFF77B
:1045300025FB814610E000231A46694608480068BA
:10454000FFF71CFB814607E000233A466946044812
:104550000068FFF7FFFB81464846BDE8FE83000088
:10456000700000208445000800000020A00000002A
:10457000B81B000824460008A000002030310100CC
:10458000C81B000800000000000000000000000040
:10459000000000000000000000000000000000001B
:1045A000000000000000000000000000000000000B
:1045B00000000000000000000000000000000000FB
:1045C00000000000000000000000000000000000EB
:1045D00000000000000000000000000000000000DB
:1045E00000000000000000000000000000000000CB
:1045F00000000000000000000000000000000000BB
:1046000000000000000000000000000000000000AA
:104610000000000000000000AAAAAAAA00000000F2
:044620000000000096
:040000050800018965
:00000001FF
