:020000040800F2
:10000000300500205D02000805120008DF09000825
:1000100001120008E50700080D18000800000000A4
:100020000000000000000000000000009D0100082A
:10003000E907000800000000F9010008BD130008EE
:1000400077020008770200087702000877020008AC
:10005000770200087702000877020008770200089C
:10006000770200087702000877020008770200088C
:10007000770200087702000877020008770200087C
:10008000770200087702000877020008770200086C
:10009000770200087702000877020008770200085C
:1000A000770200087702000877020008770200084C
:1000B000770200087702000877020008770200083C
:1000C000770200087702000877020008770200082C
:1000D000770200087702000877020008770200081C
:1000E000770200087702000877020008770200080C
:1000F00077020008770200087702000877020008FC
:1001000077020008770200087702000877020008EB
:1001100077020008770200087702000877020008DB
:1001200077020008770200087702000877020008CB
:1001300077020008770200087702000877020008BB
:1001400077020008770200087702000877020008AB
:10015000770200087702000877020008770200089B
:10016000770200087702000877020008770200088B
:1001700077020008770200087702000800000000FC
:100180007702000877020008DFF80CD000F006FBC9
:10019000004800472D220008300500202C4B19682C
:1001A0000868B0E8F04F80F30988BFF36F8F4FF015
:1001B000000080F3118870470000000008480068C4
:1001C000006880F308884FF0000080F3148862B65E
:1001D00061B6BFF34F8FBFF36F8F00DF00BF00BF6B
:1001E00008ED00E0DFF80C00016841F470010160E7
:1001F000704700BF88ED00E0EFF30980BFF36F8F19
:10020000134B1A681EF0100F08BF20ED108A20E96A
:10021000F04F106009B44FF0500080F31188BFF325
:100220004F8FBFF36F8F02F0C9F84FF0000080F3DB
:10023000118809BC19680868B0E8F04F1EF0100F6B
:1002400008BFB0EC108A80F30988BFF36F8F704746
:100250002C000020EFF3058070470000064880471F
:1002600006480047FEE7FEE7FEE7FEE7FEE7FEE79B
:10027000FEE7FEE7FEE7FEE7F1130008890100084C
:100280002DE9FE4F804681EA0300C00F0C46009026
:1002900021F0004123F00045B8EB0200A94105D24E
:1002A0004046214690461C460B46024623F000403D
:1002B000104347D0270DC7F30A00C3F30A51029039
:1002C000401A019040286BDAC3F3130040F4801BFE
:1002D0000098924620B10023D2EB030A63EB0B0B8C
:1002E00001985946C0F14002504600F098F9064680
:1002F0000D4650465946019A00F0B0F910EB08003F
:100300006141002487EA115284EAE7731A4340D01E
:10031000009A62B3019A012A4FEA075215DC001BCA
:1003200061EB02014FF0004202EA0752CDE90042C0
:10033000001C41F5801132462B4600F0B0F903B0A5
:10034000BDE8F08F40462146F9E7001B61EB020152
:10035000001C41F5801300185B412018A2F500171E
:1003600047EB030140EAD570B6196D4111E06D0805
:100370004FEA360645EAC0754FEA0752001B61EBAB
:100380000201001C41F5801149084FEA30000019B4
:10039000514132462B4603B0BDE8F04F00F070B932
:1003A0000098012240000023D0EB020263EBE073CF
:1003B000009821464FEAE074B8EB000061EB0401BD
:1003C000E9E783F000435BE781F0004158E72DE95E
:1003D000FE4F81EA030404F0004421F00041009440
:1003E0004FF0000B23F0004350EA01045ED052EAC4
:1003F00003045BD0C3F30A54C1F30A552C44A4F29E
:10040000F3340194A0FB0254C1F3130141F48011B1
:10041000C3F3130343F4801301FB024400FB034EB8
:10042000840A970A44EA815447EA8357A4FB076881
:1004300002958D0A05FB07854FEA932C04FB0C54AB
:100440002705029D4FEA065847EA1637B5EB08051F
:100450006EEB070C870E920E47EA811742EA831271
:10046000A7FB0201B6EB0B0164EB00042B0D43EA82
:100470000C335E1844EB1C50DA465146E7FB020190
:10048000C5F313044FEA0B3343EA14534FEA043223
:10049000019C43EA0603A4F10C040294009CCDE9FC
:1004A00000B400F0FCF803B0BDE8F08F0020014676
:1004B000F9E72DE9F04D81EA030404F0004B21F047
:1004C000004514464FF0000A23F0004150EA0502AF
:1004D00020D054EA01021DD0C5F30A570246C5F3E5
:1004E0001303C1F31300C1F30A5640F4801543F41B
:1004F0008013A7EB0608101BD64608F2FD3873EBF5
:10050000050002D308F1010801E092185B41B8F13F
:10051000000F03DA00200146BDE8F08D00204FF403
:100520008011064684460EE0171B73EB050705D3C2
:10053000121B63EB050306434CEA010C49084FEA22
:10054000300092185B4150EA0107EDD152EA0300F6
:1005500012D082EA040083EA0501084305D0101B8B
:10056000AB4106D20122002306E000224FF00043F7
:1005700002E06FF0010253101AEB06004CEB085139
:1005800010EB0A0041EB0B01BDE8F04D00F078B82C
:1005900030B50B46014600202022012409E021FA53
:1005A00002F59D4205D303FA02F5491B04FA02F550
:1005B0002844151EA2F10102F1DC30BD2DE9F05FE7
:1005C0000546002092469B468846064681464024C2
:1005D0001BE0284641464746224600F02FF8534686
:1005E0005A46C01A914110D311461846224600F0CF
:1005F00016F82D1A67EB01084F462246012000210C
:1006000000F00DF817EB00094E41201EA4F1010483
:10061000DFDC484631462A464346BDE8F09F202AA3
:1006200004DB203A00FA02F1002070479140C2F149
:10063000200320FA03F3194390407047202A04DB7B
:10064000203A21FA02F00021704721FA02F3D0404B
:10065000C2F120029140084319467047202A06DB68
:10066000CB17203A41FA02F043EAE07306E041FA80
:1006700002F3D040C2F1200291400843194670476E
:1006800010B5141E73F1000408DA401C41F100019A
:1006900092185B411A4301D120F0010010BD2DE9F1
:1006A000F04D92469B4611B1B1FA81F202E0B0FAE8
:1006B00080F220329046FFF7B2FF04460F4640EA30
:1006C0000A0041EA0B0153465A46084313D011462B
:1006D00053EA010019D0C8F140025046FFF7AEFFBF
:1006E00005460E46504659464246FFF798FF0843D6
:1006F00005D0012004E020463946BDE8F08D0020F9
:10070000054346EAE0762C4337430A986305E40A3A
:10071000A0EB08000022FD0A44EA47540A3002D543
:1007200000200146E9E7010510196941DDE90845A6
:1007300000196941BDE8F04DA2E7C1F30A52C1F3C7
:10074000130140F2FF3341F480119A4202DA002093
:100750000146704740F233439A42A2F2334202DC30
:100760005242FFF76BBFFFF75ABF000030B5041EBF
:1007700071F1000404DB4FF00044404264EB0101DE
:10078000141E73F1000405DB1C464FF00043524277
:1007900063EB0403994208BF904230BD064C074DFD
:1007A00006E0E06840F0010394E807009847103441
:1007B000AC42F6D3FFF7ECFC90250008B02500080A
:1007C00010B5A82001F09EFC4FF4E131542001F057
:1007D00055FD00F011FB00F009FC00F03FFA00F0BD
:1007E0002DFB10BD00BFFEE7704730B5CC1000F107
:1007F000200353F824304C07E50E0F24AC40A343EC
:10080000CD1000F1200444F82530CC1000F1200375
:1008100053F824304C07E40E02FA04F42343CD10BD
:1008200000F1200444F8253030BDF0B50A4600211F
:100830000023002400BF3DE0012505FA01F31568FF
:1008400005EA03049C4234D105684F000326BE40EC
:10085000B543056015794E00B5400668354305601F
:100860001579012D02D01579022D16D185684F001A
:100870000326BE40B543856055794E00B540866875
:1008800035438560456801268E40B543456045681F
:1008900096798E40B6B235434560C5684F00032651
:1008A000BE40B543C560D5794E00B540C6683543F6
:1008B000C560491C1029BFD3F0BDF0B5002300244A
:1008C0004D07ED0E02FA05F3CE1000F1200555F8A4
:1008D00026504E07F70E0F26BE40B543CF1000F14D
:1008E000200646F82750CE1000F1200555F8265076
:1008F00045EA0304CE1000F1200545F82640F0BD7E
:100900002DE9F0470C46DDE90867002100258C46FB
:1009100000BF60E04FF0010808FA01F504EA050C99
:10092000AC4557D1D0F800804FEA410A4FF0030997
:1009300009FA0AF928EA0908C0F80080D0F800800E
:100940004FEA410902FA09F948EA0908C0F80080AB
:10095000012A01D0022A27D1D0F808804FEA410AA3
:100960004FF0030909FA0AF928EA0908C0F80880D3
:10097000D0F808804FEA410906FA09F948EA09085F
:10098000C0F80880D0F804904FF0010808FA01F888
:1009900029EA0809C0F80490D0F8048003FA01F9A4
:1009A00048EA0908C0F80480D0F80C804FEA410AF0
:1009B0004FF0030909FA0AF928EA0908C0F80C807F
:1009C000D0F80C804FEA410907FA09F948EA09080A
:1009D000C0F80C80491C10299CD3BDE8F08700BFEB
:1009E000FEE7000010B500200F4908600F480068BE
:1009F00020F440400D4908600846006840F48040FB
:100A0000086000200A49C1F89C02022001F0B4FBF2
:100A1000012005490860022001F0AEFB00200449D6
:100A2000C1F8980210BD00009882404200040240C4
:100A3000008040421CB50121022000F0E5FBC020EF
:100A4000009001208DF8040000208DF8060003209E
:100A50008DF8050001208DF8070069460448FFF76E
:100A6000E4FE0120034908600349C1F89C021CBD53
:100A700000040240988240420080404210B50020AD
:100A80000F4908600F48006820F440400D49086095
:100A90000846006840F48040086001200A49C1F817
:100AA0009C02022001F068FB012005490860022039
:100AB00001F062FB00200449C1F8980210BD00005B
:100AC00098824042000402400080404270B50546D2
:100AD00000241648006820F4404014490860084685
:100AE00000680860002616E0002011490860022016
:100AF00001F042FB01200F49C1F898026006040E84
:100B00000B487C38006808B1601CC4B2012001F0B9
:100B100033FB701CC6B2082EE6DB15B9FFF7AEFF3B
:100B200001E0FFF75FFF204670BD000000040240B7
:100B300098824042008040422DE9F04106460F462F
:100B400014461D4600F0B6F8002141EA4601C8B23D
:100B500000F050F800F0FAF820B100F0D1F80120D0
:100B6000BDE8F081384600F045F800F0EFF800F0FD
:100B7000A1F8012101EB4601C8B200F03BF800F0FA
:100B8000E5F80DE0012C04D10020FFF79FFF28704D
:100B900003E00120FFF79AFF2870601EC4B26D1CAD
:100BA000002CEFD100F0ACF80020D9E770B5044676
:100BB0000D4600F07FF8002141EA4401C8B200F080
:100BC00019F800F0C3F8284600F014F800F0BEF859
:100BD00000F070F8012101EB4401C8B200F00AF8FE
:100BE00000F0B4F80020FFF771FF064600F088F827
:100BF000304670BD70B504461548006820F440408A
:100C0000134908600846006840F4804008600020EE
:100C100010490860002517E0E0090E49091D086029
:100C20006006040E022001F0A7FA01200A49C1F86B
:100C30009802022001F0A0FA002006490860022074
:100C400001F09AFA681CC5B2082DE5DB70BD000002
:100C500000040240988240420080404270B5002467
:100C6000002500BF13E000F025F8002141EA44010F
:100C7000C8B2FFF7BFFF00F069F805461DB921466D
:100C800006A000F0C5FD00F03BF8601CC4B2FF2CCC
:100C9000E9DB07A000F0BCFD70BD00004949435FDF
:100CA00041444452203D202523780D0A00000000D5
:100CB0000D0A000010B50F48006820F440400D49AF
:100CC00008600846006840F48040086001200A4936
:100CD00008600A49C1F89802042001F04DFA00208A
:100CE00005490860042001F047FA00200349C1F8D3
:100CF000980210BD000402409C82404200804042A5
:100D000010B50F48006820F440400D4908600846BF
:100D1000006840F48040086000200A4908600A49E1
:100D2000C1F89C02042001F027FA0120054908605F
:100D30000549C1F89C02042001F01EFA10BD000014
:100D400000040240988240420080404210B50024D6
:100D50001348006820F440401149086008460068C4
:100D6000086001200F49086001F006FA01200E49D1
:100D7000C1F8980201F000FA07E0601CC4B2FA2C36
:100D800003DDFFF7BDFF012010BD06488038006875
:100D90000028F2D10349091F086000BFF4E70000F2
:100DA000000402409C8240420080404270B50446EC
:100DB0000D461646FFF77EFF002141EA4401C8B206
:100DC000FFF718FFFFF7C2FF18B1FFF799FF0120E7
:100DD00070BD2846FFF70EFFFFF7B8FF3046FFF75C
:100DE00009FFFFF7B3FF18B1FFF78AFF0120EFE714
:100DF000FFF786FF0020EBE71CB50C48006840F0C9
:100E000004000A490860012000210B460246CDE992
:100E100000104FF4C0410648FFF772FD012005495C
:100E200008600549C1F8B8021CBD00003038024016
:100E300000080240B40241420000414200B58BB0BC
:100E4000634800F031FB634800F02EFB624800F07D
:100E50002BFB624800F028FB01214FF0011000F04D
:100E600003FA01210C2000F0DFF90121192000F024
:100E7000CBF902208DF8280000208DF82A008DF88B
:100E80002B0003208DF829000220099009A954485D
:100E9000FFF7CBFC2020099009A95248FFF7C5FCB9
:100EA0004FF48050099009A94F48FFF7BEFC4FF45A
:100EB0008070099009A94A48FFF7B7FC02220C216B
:100EC0004948FFF7FAFC032205214648FFF7F5FCE5
:100ED000022201214248FFF7F0FC0122082140488C
:100EE000FFF7EBFCA720ADF818000020ADF82000BC
:100EF000ADF81A0040F2E730079000208DF822008C
:100F000006A9364800F040FC06A9314800F03CFC38
:100F10005320ADF8180006A92E4800F035FC06A9AC
:100F20002D4800F031FC6020ADF804000120ADF840
:100F300006000020ADF81000ADF80800ADF8140070
:100F40006420039001A9254800F076FB082123487E
:100F500000F0B0FB0121214800F07EFA01211F487A
:100F600000F086FA01A91A4800F066FB082118482B
:100F700000F0A0FB0121164800F06EFA0121144890
:100F800000F076FA0121124800F07EFA01A911481A
:100F900000F052FB08210F4800F08CFB01210D48A6
:100FA00000F05AFA01210B4800F062FA01A90A4840
:100FB00000F08AFB0821084800F0D8FB0121064810
:100FC00000F04AFA0121044800F052FA0BB000BDCB
:100FD0000000014000080040000C004000400140BB
:100FE0000000024000100240000C024010B5002436
:100FF000FFF720FD80226B216820FFF7D7FE6420D9
:1010000001F09EF800226B216820FFF7CFFE03203D
:1010100000F061F8002000F055F84FF47A7000F00D
:1010200081F8002238216820FFF7C0FE00226A21E3
:101030006820FFF7BBFE002223216820FFF7B6FEE1
:10104000822237216820FFF7B1FE75216820FFF763
:10105000ADFD0446712C0DD101226B216820FFF7F4
:10106000A5FE00226C216820FFF7A0FE322000F0D0
:1010700059F801E0012010BD0020FCE77CB50446D2
:101080006B46062243216820FFF756FD0546BDB991
:101090009DF801009DF8001040EA012000B2208078
:1010A0009DF803009DF8021040EA012000B2608024
:1010B0009DF805009DF8041040EA012000B2A080D0
:1010C00028467CBD10B50446E006020E1C216820AF
:1010D000FFF76CFE10BD10B50446E006020E1B21A2
:1010E0006820FFF763FE10BD70B504460025BC2CD8
:1010F00001DB012510E0622C01DB02250CE02A2C2B
:1011000001DB032508E0142C01DB042504E00A2C94
:1011100001DB052500E006252A461A216820FFF795
:1011200045FE70BD70B50446B4F57A7F01DD4FF41D
:101130007A74042C00DA04244FF47A7090FBF4F0F3
:10114000401EC5B22A4619216820FFF72FFE05462A
:10115000264604EBD671C1F34F00FFF7C5FF70BD03
:101160002DE9F0410746884614461D46284600F002
:1011700033F8C5F1040007FA00F60F20284100EA11
:101180000800064306F00F06E21704EBD262521184
:10119000920002F1E022D2F800212146E31704EB8D
:1011A000D3635B11A4EB431C012303FA0CF31A4332
:1011B0002046E31704EBD3635B119B0003F1E023AC
:1011C000C3F800210348005D40EA061001490855B4
:1011D000BDE8F08100E400E00146072323EA0102B4
:1011E0001202054B18684FF6FF031840034B1843D3
:1011F0001043014B186070470CED00E00000FA0549
:1012000000BFFEE77047000029B1064A126802439A
:10121000044B1A6004E0034A12688243014B1A60CF
:10122000704700003038024029B1064A1268024374
:10123000044B1A6004E0034A12688243014B1A60AF
:10124000704700004038024029B1064A1268024344
:10125000044B1A6004E0034A12688243014B1A608F
:10126000704700002038024029B1064A1268024344
:10127000044B1A6004E0034A12688243014B1A606F
:10128000704700004438024029B1064A1268024300
:10129000044B1A6004E0034A12688243014B1A604F
:1012A00070470000243802400CB5002001900090E7
:1012B0003448006840F480303249086000BF31484B
:1012C000006800F4003000900198401C01900098E4
:1012D00018B90198B0F5A04FF1D12A48006800F480
:1012E000003010B10120009001E000200090009833
:1012F000012846D123484030006840F08050214901
:10130000403108602048006840F440401E490860B1
:101310001C48083000681B4908310860084600680E
:1013200040F4004008600846006840F4A05008609F
:101330001648091F0860081F006840F08070091FE8
:10134000086000BF0F48006800F000700028F9D066
:1013500040F205700E4908600A480830006820F025
:1013600003000849083108600846006840F00200A0
:10137000086000BF03480830006800F00C0008282F
:10138000F8D10CBD003802400070004019544007ED
:10139000003C0240042808D14FF0E021096941F0E7
:1013A00004014FF0E022116107E04FF0E0210969EC
:1013B00021F004014FF0E0221161704710B500BF29
:1013C000502080F31188BFF34F8FBFF36F8F00BFA2
:1013D00001F03AF818B14FF080500449086000BF9E
:1013E000002080F3118800BF10BD000004ED00E074
:1013F00010B51548006840F47000134908601348A0
:10140000006840F001001149086000200F490831D0
:1014100008600E4800680E4908400C4908600D48F5
:10142000091D0860081F006820F48020091F08605B
:10143000002006490C310860FFF736FF4FF00060CE
:1014400001498039086010BD88ED00E00038024095
:10145000FFFFF6FE1030002421B1028842F0800226
:10146000028004E002884FF67F731A4002807047C2
:1014700021B1028842F00102028004E002884FF6A6
:10148000FE731A400280704731B1B0F8442042F434
:101490000042A0F8442005E0B0F84420C2F30E0258
:1014A000A0F844207047000010B504465548844217
:1014B00008D101210846FFF7E7FE00210120FFF7D0
:1014C000E3FE9DE0B4F1804F08D101210846FFF70B
:1014D000BBFE00210120FFF7B7FE91E04A4884429D
:1014E00008D101210220FFF7AFFE00210220FFF703
:1014F000ABFE85E04548844208D101210420FFF776
:10150000A3FE00210420FFF79FFE79E040488442BB
:1015100008D101210820FFF797FE00210820FFF7DE
:1015200093FE6DE03B48844208D101211020FFF773
:101530008BFE00211020FFF787FE61E036488442D1
:1015400008D101212020FFF77FFE00212020FFF796
:101550007BFE55E03148844208D101210220FFF78B
:1015600093FE00210220FFF78FFE49E02C488442C1
:1015700009D101210804FFF787FE00214FF48030D4
:10158000FFF782FE3CE02748844209D1012148044C
:10159000FFF77AFE00214FF40030FFF775FE2FE0D1
:1015A0002148844209D101218804FFF76DFE002102
:1015B0004FF48020FFF768FE22E01C48844208D1E7
:1015C00001214020FFF740FE00214020FFF73CFEB4
:1015D00016E01748844208D101218020FFF734FE2D
:1015E00000218020FFF730FE0AE01248844207D134
:1015F00001218015FFF728FE0021A015FFF724FE2A
:1016000010BD000000000140000400400008004040
:10161000000C004000100040001400400004014095
:1016200000400140004401400048014000180040D3
:10163000001C00400020004070B500240022002360
:10164000058C4FF6FE7635400584028C8388048B2A
:101650004FF68F752C40B51E2C400D882C43751EFF
:101660002A408D892A434D882A43104DA84202D032
:101670000F4DA84213D14FF6F7752A40CD892A4362
:101680004FF6FB752A408D882A434FF6FF652B40A5
:101690004FF6FF552B400D8A2B434D8A2B438380F9
:1016A00004838D684563028470BD00000000014022
:1016B000000401400A460021018B4FF6F7731940E0
:1016C000114301837047000070B5002400220023FD
:1016D000058C4FF6EF7635400584028C8388048BA9
:1016E00048F6FF752C404FF6FF452C400D884FF60D
:1016F000FF7606EA05252C434FF6DF752A408D89D3
:1017000006EA05152A434D8806EA05152A43154DB4
:10171000A84202D0144DA8421DD14FF67F752A4031
:10172000CD894FF6FF7606EA05152A434FF6BF75B9
:101730002A408D8806EA05152A434FF6FF352B40CF
:101740004FF2FF752B400D8A06EA85052B434D8A23
:1017500006EA85052B43838004838D6885630284B4
:1017600070BD000000000140000401400A46002155
:10177000018B4FF2FF7319404FF6FF7303EA022308
:10178000194301837047000000220288184B9842D9
:101790000ED0184B98420BD0B0F1804F08D0164BAA
:1017A000984205D0154B984202D0154B984204D16F
:1017B0004FF68F731A404B881A43124B984207D04A
:1017C000114B984204D04FF6FF431A400B891A433D
:1017D00002804B68C3620B880385054B984202D098
:1017E000044B984201D18B7A038601238382704790
:1017F00000000140000401400004004000080040D7
:10180000000C0040001000400014004000BFFEE744
:101810000FB4054B10B503A9044A029800F0DAF89A
:1018200010BC5DF814FB000011220008200000200D
:1018300002E008C8121F08C1002AFAD17047704799
:10184000002001E001C1121F002AFBD170470000F7
:101850002DE9FF5F82B00021DDE90430020DDDF8E3
:1018600040B0034318D044F61050A2F2FF32424376
:101870001514119801281FD0A5EB0B00401C5FEA3E
:10188000000A4FF000064E4FDFF83891B046504640
:1018900015D5CAF1000413E0119801244AA30128C8
:1018A00001D16FEA0B010298119AC0E90031C0E939
:1018B000024206B0BDE8F09FCBF10000DFE704462E
:1018C0000021404A491842EB0450CDE9001012E0D3
:1018D000E00707D032463B4640464946FEF777FDD3
:1018E0008046894632463B4610461946FEF76FFD54
:1018F00006460F466410002CEAD1DDE90401DDE95B
:101900000023BAF1000F06DAFEF761FD42464B46AE
:10191000FEF75DFD05E0FEF7CCFD42464B46FEF7C7
:10192000C8FD04460E460022284BFEF71FFF03D8D1
:101930004FF0FF30014607E00022254B204631469C
:10194000FEF79EFCFEF7F9FE102409E0002C0ADBEE
:101950000A220023FEF732FE039B30321A55641E22
:1019600050EA0102F2D1641C039AC4F11103144439
:10197000119A012A03D0012208430DD10AE008433D
:1019800004D000204FF0110B119072E7A3EB0B0570
:101990006D1E0DE05B4504DD4FF0000205F1010511
:1019A00004E003DA4FF00002A5F10105002AECD0B3
:1019B00002981199C0E90231C0E9004579E70000B9
:1019C000000014400000F03F300000000000F04331
:1019D0000000E03F2DE9FF4F95B09B468946064643
:1019E00000250FE2252877D100242746F84A012157
:1019F000059400E0044316F8013F203B01FA03F090
:101A00001042F7D130782A2811D06FF02F033078A8
:101A1000A0F13002092A16D8059A44F0020402EB1C
:101A2000820203EB42021044761C0590EFE759F85E
:101A3000042B0592002A03DA504244F40054059026
:101A400044F00204761C30782E2816D116F8010FC7
:101A500044F004042A280DD06FF02F023078A0F152
:101A60003003092B09D807EB870302EB4303C718A0
:101A7000761CF3E759F8047B761C30786C280FD07D
:101A800006DC4C2817D068280DD06A2814D104E051
:101A9000742810D07A280FD10DE044F400140AE025
:101AA00044F4801401E044F440147278824202D17C
:101AB00004F58014761C761C307866280BD013DC75
:101AC000582877D009DC002875D04528F6D046285C
:101AD000F4D047281AD19DE118E0632835D0642856
:101AE00079D0652812D195E1702873D008DC672879
:101AF000F1D069286FD06E280DD06F2806D1B5E0DF
:101B000073282CD0752875D0782874D05A46179928
:101B100090476D1C75E1C4F30250022809D00328D8
:101B20000DD0D9F8001004280DD00D6009F104097A
:101B300067E1D9F80010EA17C1E90052F6E7D9F8D1
:101B400000100D80F2E70D70F0E719F8041B8DF816
:101B5000001000208DF80100EA46012003E059F84A
:101B600004AB4FF0FF3061074FF0000102D40DE0ED
:101B700008F101018846B9420FDA8045F8DB1AF80E
:101B800008100029F4D108E008F1010188468142DB
:101B9000FADB1AF808100029F6D105985B46A0EB8D
:101BA000080721463846179A00F094FA284400EBBB
:101BB000080507E04DE029E10DE01AF8010B5A464F
:101BC00017999047B8F10108F7D25B46214638468D
:101BD000179A13E142E00A220092C4F302524FF036
:101BE000000A022A08D059F804CB032A4FEAEC7104
:101BF0000AD00DE029E02AE009F1070121F00702EF
:101C0000F2E802C1914609E00FFA8CFC4FEAEC7150
:101C1000042A03D14FFA8CFC4FEAEC71002907DA51
:101C20000A460021DCF1000C61EB02012D2202E0EA
:101C3000220504D52B228DF80420012203E0E207BF
:101C400001D02022F7E7904659E00A2102E0102255
:101C50000DE010214FF0000A00910BE010224FF030
:101C6000000A44F004040827009203E008224FF021
:101C7000000A0092C4F30252022A05D059F804CB9C
:101C80000021032A08D009E009F1070121F0070229
:101C9000F2E802C1914605E01FFA8CFC042A01D14A
:101CA0000CF0FF0C4FF00008220728D5702806D052
:101CB000009B83F0100353EA0A0305D00EE0402294
:101CC0008DF80420012208E05CEA010206D03022EF
:101CD0008DF804208DF8050002229046009B83F0C9
:101CE000080353EA0A030AD15CEA010201D1620740
:101CF00005D530228DF804204FF001087F1E5828AA
:101D000004D034A003900EA802900DE036A0F9E7AD
:101D100053466046009AFEF751FC84460398825C65
:101D20000298401E029002705CEA0100F0D1029815
:101D300006A9081A00F1200A600702D524F48034AD
:101D400000E00127574502DDA7EB0A0000E0002074
:101D500000EB0A01009005984144401A0590E00309
:101D600006D45B462146179A059800F0B3F905445E
:101D7000002706E001A85A46C05D179990476D1CE0
:101D80007F1C4745F6DBE0030CD55B462146179ADE
:101D9000059800F09FF9054404E030205A46179951
:101DA00090476D1C0099481E00900029F5DC08E062
:101DB000029802995A460078491C02911799904757
:101DC0006D1CBAF10001AAF1010AF1DC65E1000025
:101DD0000928010030313233343536373839616201
:101DE00063646566000000003031323334353637C5
:101DF00038394142434445460000000000F058F99C
:101E00000544761C307800287FF4ECAD19B02846E4
:101E1000BDE8F08F620700D4062709F1070222F01F
:101E2000070CFCE80223E14603F000485FEA080CD7
:101E300002D00FF2702C0DE05FEA045C02D50FF2C5
:101E4000682C07E05FEAC47C02D00FF2602C01E04E
:101E5000AFF2700C4FF0FF3823F00043CDF850C0C4
:101E600065280CD006DC452809D046281DD0472817
:101E70003DD13DE0662818D067287ED138E00021AA
:101E8000112F01DB112000E0781CCDE9000106A92B
:101E90000EA8FFF7DDFCDDE90F010E9A039100218A
:101EA000009207F1010A04914DE04FF000400097C5
:101EB000CDE9011006A90EA8FFF7CAFCDDE90F0263
:101EC00003920E9B11990022DDF80CA0009304925E
:101ED00011B9791C00EB010AB7EB0A0004D4C0F178
:101EE000FF3007F1010A0490AAEB0700019044E0DB
:101EF000012F00DA01270021112F01DD112000E060
:101F00003846CDE9000106A90EA8FFF7A1FCDDE9DE
:101F10000F010E9A0391002104910092BA46210705
:101F20000CD40399514500DA8A46BAF1010F05DD58
:101F3000009AAAF10101515C302908D0B84202DAB6
:101F400010F1040F06DA0121CDE9011015E0AAF124
:101F50000101E9E7002805DC049901440491AAEB9A
:101F6000000102E0411C514500DD8A460499401AF7
:101F7000401C01904FF000400290200704D40198CB
:101F8000504501DBCDF8048000208DF84F00029809
:101F90000DF14F07B0F1004F25D02B200E90029885
:101FA0004FF0020800280CDA404202902D200E90DB
:101FB00007E00A210298FEF7EBFA3031029007F8A9
:101FC000011DB8F10001A8F10108F2DC0298002817
:101FD000EFD1791E0E980870307800F0200040F0A4
:101FE000450007F8020D12A8C01B00F1070814985D
:101FF000007800B1012000EB0A01019801EBE071CB
:1020000005984144401A401E0590E00306D45B4603
:102010002146179A059800F05DF805441498007859
:1020200018B15A46179990476D1CE00324D55B46BA
:102030002146179A059800F04DF805441CE00498D5
:10204000002807DBDDE90301884203DD0098405CDE
:10205000179901E0179930205A469047049805F1E6
:102060000105401C04900198401E019004D12E20CF
:102070005A46179990476D1CBAF10001AAF1010A5E
:10208000DDDC05E017F8010B5A46179990476D1CE7
:10209000B8F10001A8F10108F4DC5B462146179A6B
:1020A0000598ABE62D0000002B000000200000008A
:1020B0002DE9F041044600251E461746880404D445
:1020C00005E039462020B0476D1C641EF9D528462E
:1020D000BDE8F0812DE9F041044600251E469046FA
:1020E000C80301D5302700E02027880404D505E087
:1020F00041463846B0476D1C641EF9D52846BDE8F8
:10210000F081000010B504466FF00400FFF742F9BB
:10211000E11704EB5171C1F3C701074A1170104672
:10212000007800EB4001C1EBC0104FF6FF7101EAEF
:10213000C0000249088010BD2600002028000020B1
:1021400070B504464FF4077094FBF0F0C6B24FF43C
:10215000077094FBF0F100FB114085B205E04FF4ED
:10216000077000F02FF8701EC6B2002EF7D115B11F
:10217000284600F027F870BD0146114A12784A43FC
:102180004FF0E0235A6100229A611A46126942F028
:1021900001021A6100BF4FF0E022106900F0010255
:1021A0001AB100F48032002AF5D04FF0E022126913
:1021B00022F001024FF0E0231A6100229A61704779
:1021C000260000200146114A12884A434FF0E023BE
:1021D0005A6100229A611A46126942F001021A619C
:1021E00000BF4FF0E022106900F001021AB100F4C4
:1021F0008032002AF5D04FF0E022126922F001026D
:102200004FF0E0231A6100229A61704728000020F5
:1022100000BF054A128802F04002002AF9D0C2B27B
:10222000014B9A80704700000010014010B5FEF786
:10223000C7FA0448FEF722FF4FF47A70FFF780FFD9
:10224000002010BD000000200A490968096809B98A
:10225000012100E0002121B14FF0FF31064A116059
:1022600006E004490968C968C868034A4168116002
:1022700070470000300000205C000020F0B52DED1C
:10228000028B83B005460E46384905FB01F000EE8F
:10229000100AF8EE400A300100EE100AB8EE400ACB
:1022A00080EE801AB0EE418ABCEEC80A10EE100A29
:1022B00084B200EE104AB8EE400A38EE400AF3EE5F
:1022C000000A20EE200ABCEEC00A10EE107A4FF68B
:1022D000FF7000EA0414E01984B22548006840F059
:1022E00001002349086022481430006840F01000C3
:1022F0001F49143108600120022100230A46CDE95C
:1023000000104FF4C0611B48FEF7FAFA07220921BA
:102310001848FEF76AFA07220A211648FEF765FAFE
:1023200015480481808920F40040134988810846BB
:10233000808940F0080088810846808940F00400C8
:1023400088810846808940F0200088810223252268
:1023500003210846FEF704FF0748808940F4005037
:102360000549888103B0BDEC028BF0BD40420F00EF
:1023700030380240000002400010014001460A6966
:10238000D1E901309860D1E9010358605068884272
:1023900001D188685060002008611068401E1060FC
:1023A0001068704742684A6093688B609368596010
:1023B0009160086103685B1C036070471D480068FA
:1023C00018B101201C49086032E000201A49086059
:1023D0001A480068B0FA80F0C0F11F0101EB8100DB
:1023E000174A52F8200008B1012000E0002050B93F
:1023F00000BF502080F31188BFF34F8FBFF36F8F62
:1024000000BF00BFFEE701EB81020D4B03EB820032
:1024100042685268426000F108024368934202D168
:102420004268526842604268D268064B1A6000BF38
:10243000704700006400002050000020440000208D
:10244000680000202C0000202DE9F0414FF000082A
:1024500044480068002877D143480068451C42483A
:10246000056015BB41480068006808B9012000E01C
:10247000002050B900BF502080F31188BFF34F8F68
:10248000BFF36F8F00BF00BFFEE7384807683848CA
:102490000068364908603648076036480068401CC6
:1024A00034490860FFF7D0FE00BF3348006885421A
:1024B0003CD300BF2D480068006808B9012000E047
:1024C000002020B14FF0FF302B4908602DE0274855
:1024D0000068C068C4686668B54202D226480660D3
:1024E00023E0201DFFF74AFFA06A18B104F118008D
:1024F000FFF744FF94F82C10012088401F49096819
:1025000008431E490860E16A01EB81011C4A02EBA5
:102510008100211DFFF746FF1A49E06A0968C96A70
:102520008842C7D34FF00108C4E700BF15480068D0
:10253000C06A00EB8000124951F82000012801D93F
:102540004FF0010805E0FFE70F480068401C0E4906
:1025500008600E48006808B14FF001084046BDE829
:10256000F0810000640000204000002030000020C6
:1025700034000020540000205C00002044000020B3
:10258000680000202C0000204C000020500000209B
:10259000B025000800000020680000003018000886
:1025A0001826000868000020C80400004018000831
:1025B000000000000000000000000000000000001B
:1025C000000000000000000000000000000000000B
:1025D00000000000000000000000000000000000FB
:1025E00000000000000000000000000000000000EB
:1025F00000000000000000000000000000000000DB
:1026000000000000000000000000000000000000CA
:082610000000000000000000C2
:040000050800018965
:00000001FF
