:020000040800F2
:100000003004002045010008C708000899060008D0
:10001000C308000879050008D10D000800000000A1
:100020000000000000000000000000006D0A000851
:100030007D0500080000000075090008810B00081C
:100040005F0100085F0100085F0100085F01000810
:100050005F0100085F0100085F0100085F01000800
:100060005F0100085F0100085F0100085F010008F0
:100070005F0100085F0100085F0100085F010008E0
:100080005F0100085F0100085F0100085F010008D0
:100090005F0100085F0100085F0100085F010008C0
:1000A0005F0100085F0100085F0100085F010008B0
:1000B0005F0100085F0100085F0100085F010008A0
:1000C0005F0100085F0100085F0100085F01000890
:1000D0005F0100085F0100085F0100085F01000880
:1000E0005F0100085F0100085F0100085F01000870
:1000F0005F0100085F0100085F0100085F01000860
:100100005F0100085F0100085F0100085F0100084F
:100110005F0100085F0100085F0100085F0100083F
:100120005F0100085F0100085F0100085F0100082F
:10013000DFF80CD000F002FA00480047D5130008A1
:10014000300400200648804706480047FEE7FEE7E7
:10015000FEE7FEE7FEE7FEE7FEE7FEE7FEE7FEE777
:10016000850B0008310100082DE9FE4F804681EA29
:100170000300C00F0C46009021F0004123F0004521
:10018000B8EB0200A94105D24046214690461C46E4
:100190000B46024623F00040104347D0270DC7F31B
:1001A0000A00C3F30A510290401A019040286BDA0A
:1001B000C3F3130040F4801B0098924620B1002343
:1001C000D2EB030A63EB0B0B01985946C0F14002D6
:1001D000504600F025F906460D4650465946019A0C
:1001E00000F03DF910EB08006141002487EA11524C
:1001F00084EAE7731A4340D0009A62B3019A012A55
:100200004FEA075215DC001B61EB02014FF0004280
:1002100002EA0752CDE90042001C41F58011324646
:100220002B4600F03DF903B0BDE8F08F4046214673
:10023000F9E7001B61EB0201001C41F58013001877
:100240005B412018A2F5001747EB030140EAD57087
:10025000B6196D4111E06D084FEA360645EAC075E2
:100260004FEA0752001B61EB0201001C41F58011AF
:1002700049084FEA30000019514132462B4603B07D
:10028000BDE8F04F00F0FDB80098012240000023C7
:10029000D0EB020263EBE073009821464FEAE07472
:1002A000B8EB000061EB0401E9E783F000435BE792
:1002B00081F0004158E72DE9F04D81EA030404F094
:1002C000004B21F0004514464FF0000A23F0004196
:1002D00050EA050220D054EA01021DD0C5F30A57A6
:1002E0000246C5F31303C1F31300C1F30A5640F4E9
:1002F000801543F48013A7EB0608101BD64608F2BE
:10030000FD3873EB050002D308F1010801E09218F3
:100310005B41B8F1000F03DA00200146BDE8F08D23
:1003200000204FF48011064684460EE0171B73EB45
:10033000050705D3121B63EB050306434CEA010CCA
:1003400049084FEA300092185B4150EA0107EDD1AD
:1003500052EA030012D082EA040083EA050108434E
:1003600005D0101BAB4106D20122002306E000227B
:100370004FF0004302E06FF0010253101AEB060049
:100380004CEB085110EB0A0041EB0B01BDE8F04DBE
:1003900000F077B80EB5C10F80EAE0700844CA07D4
:1003A000002140F233438DE80E000A460B4600F070
:1003B00077F803B000BD70B5C1F30A5201F00045F3
:1003C0000024C1F3130140F2FF3341F480119A423B
:1003D00001DA002070BD40F233439A42A2F2334268
:1003E00003DC524200F02BF800E090402C43F1D0A7
:1003F000404270BD30B50B4601460020202201244A
:1004000009E021FA02F59D4205D303FA02F5491BE2
:1004100004FA02F52844151EA2F10102F1DC30BDF8
:10042000202A04DB203A00FA02F1002070479140B4
:10043000C2F1200320FA03F3194390407047202AA9
:1004400004DB203A21FA02F00021704721FA02F37E
:10045000D040C2F120029140084319467047202A3B
:1004600006DBCB17203A41FA02F043EAE07306E0DC
:1004700041FA02F3D040C2F12002914008431946EC
:10048000704710B5141E73F1000408DA401C41F1E6
:10049000000192185B411A4301D120F0010010BD08
:1004A0002DE9F04D92469B4611B1B1FA81F202E07E
:1004B000B0FA80F220329046FFF7B2FF04460F46B2
:1004C00040EA0A0041EA0B0153465A46084313D05A
:1004D000114653EA010019D0C8F140025046FFF717
:1004E000AEFF05460E46504659464246FFF798FF76
:1004F000084305D0012004E020463946BDE8F08DD0
:100500000020054346EAE0762C4337430A9863050A
:10051000E40AA0EB08000022FD0A44EA47540A302E
:1005200002D500200146E9E7010510196941DDE91E
:10053000084500196941BDE8F04DA2E7064C074D9A
:1005400006E0E06840F0010394E8070098471034A3
:10055000AC42F6D3FFF7F0FDD8140008F8140008F9
:1005600010B500F04BFB00F099F800F0F5FD00F03D
:1005700065FE00F013F910BD00BFFEE770472DE9DE
:10058000F041024600250026002000230024002719
:1005900091F803C00CF00F0591F803C00CF0100C9B
:1005A000BCF1000F03D091F802C04CEA050591F8A8
:1005B00000C0BCF1000F31D0146800202BE04FF0D8
:1005C000010C0CFA00F3B1F800C00CEA03069E42DD
:1005D00020D183004FF00F0C0CFA03F7BC4305FA4F
:1005E00003FC4CEA040491F803C0BCF1280F06D1C7
:1005F0004FF0010C0CFA00FCC2F814C00AE091F8AC
:1006000003C0BCF1480F05D14FF0010C0CFA00FCFF
:10061000C2F810C0401C0828D1D31460B1F800C043
:10062000BCF1FF0F34DD546800202EE000F1080C0F
:100630004FF0010808FA0CF3B1F800C00CEA030609
:100640009E4221D183004FF00F0C0CFA03F7BC43FC
:1006500005FA03FC4CEA040491F803C0BCF1280F2E
:1006600005D100F1080C08FA0CF8C2F8148091F8D2
:1006700003C0BCF1480F07D100F1080C4FF001088E
:1006800008FA0CF8C2F81080401C0828CED3546039
:10069000BDE8F0810161704700BFFEE708B50121A8
:1006A000112000F069F94FF40050ADF8000010205F
:1006B0008DF8030003208DF8020069460448FFF717
:1006C0005EFF4FF400510248FFF7E4FF08BD000051
:1006D000001001401CB50446062269463B2000F08C
:1006E00081F89DF801009DF8001040EA012000B259
:1006F00020809DF803009DF8021040EA012000B21E
:1007000060809DF805009DF8041040EA012000B2C9
:10071000A0801CBD1CB5044606226946432000F09B
:1007200061F89DF801009DF8001040EA012000B238
:1007300020809DF803009DF8021040EA012000B2DD
:1007400060809DF805009DF8041040EA012000B289
:10075000A0801CBD08B500200090012269467520CC
:1007600000F040F89DF80000682804D0054800F02B
:1007700031FB002008BD9DF8001003A000F02AFB0B
:100780000120F7E7901400084D50553630353020E1
:100790004944203D2025640D0A00000070B5002466
:1007A000002500BF06E0002500E06D1CB5F57A7F4E
:1007B000FBDB641CB4F57A7FF5DB00216B2000F0D5
:1007C00069F80721192000F065F806211A2000F0C9
:1007D00061F800211C2000F05DF818211B2000F0BA
:1007E00059F870BD2DE9F04107460C46154600F05A
:1007F000ABFDD02000F07EFD00F0CEFD384600F0CD
:1008000079FD00F0C9FD00F09FFDD12000F072FDE0
:1008100000F0C2FD002606E0012000F043FD20703C
:10082000641C701CC6B2681EB042F5DC002000F0EB
:1008300039FD207000F0A0FDBDE8F0812DE9F84FF2
:100840008246022269464120FFF7CCFF9DF8010055
:100850009DF8001040EA01200FFA80FB43F290302F
:100860005844FFF797FD80460022084BFFF723FD11
:1008700006460022064BFFF718FD0446FFF79BFDD6
:1008800000B2AAF80000BDE8F88F000000807140B7
:1008900000002A4070B505460C4600F055FDD020FA
:1008A00000F028FD00F078FD284600F023FD00F060
:1008B00073FD204600F01EFD00F06EFD00F05CFDB3
:1008C00070BD00BFFEE7704708B54FF4A06000F0B0
:1008D00047F825208DF8000001208DF801008DF8E3
:1008E00002008DF80300684600F002F808BD000021
:1008F00070B5002100230F22C47804B3154C24687E
:1009000004F4E064C4F5E064210AC1F10403CA40C0
:10091000447804FA03F184781440214309010E4C11
:100920000678A155047804F01F050124AC40057831
:100930006D11AD0005F1E025C5F8004109E004782E
:1009400004F01F050124AC40044D0678761145F8EB
:10095000264070BD0CED00E000E400E080E100E026
:1009600002490143024A1160704700000000FA0585
:100970000CED00E07047000029B1064A926902437D
:10098000044B9A6104E0034A92698243014B9A61E5
:10099000704700000010024030B500210022002402
:1009A00000232D4D6D6805F00C0121B1042905D0FF
:1009B000082923D105E0294D056022E0274D056077
:1009C0001FE0254D6D6805F47012234D6D6805F428
:1009D0008034022505EB92421CB9214D5543056038
:1009E0000BE01D4D6D6805F400351DB11C4D5543E0
:1009F000056002E0194D5543056002E0174D0560A2
:100A000000BF00BF144D6D6805F0F0010909154DD8
:100A10006B5C0568DD4045600F4D6D6805F4E06175
:100A2000090A104D6B5C4568DD4085600A4D6D68B4
:100A300005F46051C90A0B4D6B5C4568DD40C5602B
:100A4000054D6D6805F44041890B074D6B5CC56829
:100A5000B5FBF3F5056130BD0010024000127A00CD
:100A600000093D001400002024000020704710B54C
:100A700000F002F810BD00000CB5002001900090BD
:100A80003348006840F480303149086000BF304886
:100A9000006800F4003000900198401C019000981C
:100AA00018B90198B0F5A06FF1D12948006800F499
:100AB000003010B10120009001E00020009000986B
:100AC000012843D12348006840F010002149086004
:100AD0000846006820F0030008600846006840F0FF
:100AE000020008601A484068194948600846406892
:100AF00048600846406840F48060486008464068A6
:100B000020F47C1048600846406840F4E8104860D3
:100B10000846006840F08070086000BF0C4800681C
:100B200000F000700028F9D00948406820F0030068
:100B3000074948600846406840F00200486000BF2E
:100B40000348406800F00C000828F9D10CBD0000F3
:100B50000010024000200240042808D14FF0E0219C
:100B6000096941F004014FF0E022116107E04FF004
:100B7000E021096921F004014FF0E0221161704782
:100B80007047000010B51348006840F0010011499B
:100B9000086008464068104908400E494860084609
:100BA00000680E4908400B4908600846006820F4B8
:100BB000802008600846406820F4FE0048604FF43A
:100BC0001F008860FFF753FF4FF000600449086082
:100BD00010BD0000001002400000FFF8FFFFF6FE0D
:100BE00008ED00E021B1828942F40052828104E0E4
:100BF00082894DF6FF731A408281704700B585B037
:100C0000012144F20500FFF7B7FE4FF40070ADF884
:100C1000100018208DF8130003208DF8120004A98D
:100C20001848FFF7ACFC4FF48060ADF810000420CA
:100C30008DF8130003208DF8120004A91148FFF766
:100C40009EFC4FF4E13000900020ADF80400ADF8B8
:100C50000600ADF80800ADF80C000C20ADF80A0055
:100C60006946094800F044F8FFF72EFE012240F2E1
:100C70002551054800F017F801210348FFF7B2FF9E
:100C800005B000BD000801400038014002460020C8
:100C9000B1F5007F00D100BF13880B400BB10120DC
:100CA00000E000207047F0B5034600240026002530
:100CB000002040F66A17B94200D100BF1846C1F3C0
:100CC000421401F01F06012707FA06F5012C01D195
:100CD0000C3004E0022C01D1103000E014301AB1C5
:100CE00007682F43076002E00768AF430760F0BD65
:100CF0002DE9F04786B005460E460024A24600BF07
:100D0000A1460027B08900B100BF2F462C8A4CF6BF
:100D1000FF700440F08804432C82AC894EF6F31037
:100D20000440B08831890843718908430443AC8189
:100D3000AC8A4FF6FF400440B0890443AC8201A85E
:100D4000FFF72AFE1F48874202D1DDF810A001E01C
:100D5000DDF80CA0A88900F4004040B10AEBCA00FD
:100D600000EB0A1031684900B0FBF1F807E00AEB2C
:100D7000CA0000EB0A1031688900B0FBF1F864206A
:100D8000B8FBF0F004012009642101FB1089A88957
:100D900000F4004040B1322000EBC900B0FBF1F09C
:100DA00000F00700044308E0322000EB0910642142
:100DB000B0FBF1F000F00F0004432C8106B0BDE859
:100DC000F087000000380140C1F3080282807047BC
:100DD00000BFFEE70FB4054B10B503A9044A029803
:100DE00000F018F810BC5DF814FB0000E9110008D1
:100DF0002C00002002E008C8121F08C1002AFAD106
:100E000070477047002001E001C1121F002AFBD18A
:100E1000704700002DE9FF4F8BB08846054600263D
:100E200006E025280BD0DDE90D1290476D1C761CDD
:100E300028780028F5D10FB03046BDE8F08F0024A7
:100E4000A146A2460122AE4900E0044315F8013F45
:100E5000203B02FA03F00842F7D128782A2810D064
:100E60006FF02F022878A0F13001092915D809EB7D
:100E7000890102EB410144F0020400EB01096D1C01
:100E8000F0E758F8041B5FEA010903D544F4005465
:100E9000C9F1000944F002046D1C28782E2817D1EE
:100EA00015F8010F44F004042A280ED06FF02F0229
:100EB0002878A0F1300109290AD80AEB8A0102EB4F
:100EC000410100EB010A6D1CF2E758F804AB6D1C00
:100ED00028786C280FD006DC4C2817D068280DD055
:100EE0006A2814D104E0742810D07A280FD10DE0BC
:100EF00044F400140AE044F4801401E044F4401483
:100F00006978814202D104F580146D1C6D1C28782B
:100F1000692865D006DC00288DD0632827D0642896
:100F200006D15DE06E2808D073282AD0752877D0C6
:100F3000DDE90D129047761CE0E0C4F30250022870
:100F400009D003280DD0D8F8001004280DD00E6069
:100F500008F10408D2E0D8F80010F217C1E90062E5
:100F6000F6E7D8F800100E80F2E70E70F0E718F8F8
:100F7000041B8DF8001000208DF80100EB460120C5
:100F800003E058F804BB4FF0FF3061074FF0000753
:100F900001D40AE07F1C57450DDA8742FADB1BF8C3
:100FA00007100029F6D106E07F1C8742FCDB1BF806
:100FB00007100029F8D1DDE90D23A9EB07008146D0
:100FC000214600F0B1F83044C61904E0DDE90D1205
:100FD0001BF8010B90477F1EF8D22146484688E057
:100FE00058F8040BC4F302514FF00A0B032900D147
:100FF00000B2042900D140B2002802DA40422D217B
:1010000002E0210505D52B218DF82410012104E0F3
:1010100006E0E10710D02021F6E708AF089113E0C1
:1010200058F8040BC4F302514FF00A0B032900D106
:1010300080B2042900D1C0B20021EEE75946FFF783
:10104000D9F9303107F8011D0028F7D1ADEB0700C1
:1010500000F1200B600702D524F4803401E04FF04A
:10106000010ADA4502DDAAEB0B0000E0002082460F
:1010700000EB0B0108980144A9EB01000A90E00382
:1010800006D4DDE90D2321460A9800F04DF8064408
:101090004FF0000908E009A911F80900DDE90D1277
:1010A000904709F10109761C08998945F3DBE003B3
:1010B0000CD5DDE90D2321460A9800F035F80644E9
:1010C00004E0DDE90D1230209047761CBAF10001F2
:1010D000AAF1010AF5DC05E0DDE90D1217F8010BB4
:1010E0009047761CBBF10001ABF1010BF4DC0A98D0
:1010F0002146DDE90D2300F005F806446D1C97E656
:10110000092801002DE9F041044600251E46174636
:10111000880404D405E039462020B0476D1C641EC5
:10112000F9D52846BDE8F0812DE9F04104460025B7
:101130001E469046C80301D5302700E020278804CA
:1011400004D505E041463846B0476D1C641EF9D50C
:101150002846BDE8F081000010B56FF00400FFF7ED
:10116000FBFC0A4800680A49B0FBF1F00949087025
:101170000846007800EB4001C1EBC0104FF6FF714C
:1011800001EAC0000449088010BD000000000020F2
:1011900000127A00280000202A0000200146114A8F
:1011A00012884A434FF0E0235A6100229A611A469E
:1011B000126942F001021A6100BF4FF0E02210698B
:1011C00000F001021AB100F48032002AF5D04FF08D
:1011D000E022126922F001024FF0E0231A6100229E
:1011E0009A6170472A00002070B504460D46E1B2AE
:1011F0000548FFF7E9FD00BF80210348FFF746FDE2
:101200000028F9D0204670BD0038014010B580207C
:101210000949086000F02AF840200749091F0860C2
:1012200000F024F840200449086000F01FF88020F6
:101230000149091F086010BD140C014008B50121C7
:101240000820FFF799FBC020ADF8000003208DF8BF
:10125000020014208DF8030069460348FFF78FF958
:1012600000F08AF808BD0000000C0140002001E0F9
:10127000411CC8B20A28FBDB7047000010B5802073
:1012800007490860FFF7F2FF402005490860FFF7B3
:10129000EDFF40200249091D0860FFF7E7FF10BD80
:1012A000100C014070B505460024002616E06006CB
:1012B000040E40200E490860FFF7D8FF0C4808389C
:1012C000006800F0800008B1601CC4B240200849EA
:1012D000091D0860FFF7CAFF701CC6B2082EE6DBC6
:1012E00015B9FFF7CBFF01E0FFF790FF204670BD77
:1012F000100C014070B50446002520E004F0800089
:1013000018B180200F49086003E080200D49091DB5
:101310000860FFF7ABFF40200A490860FFF7A6FF0F
:1013200040200849091D0860072D02D18020091FAF
:1013300008606006040EFFF799FF681CC5B2082D0F
:10134000DCDB70BD100C014010B58020094908603D
:1013500040200860FFF78AFF80200649091D0860C9
:10136000FFF784FF40200349091D0860FFF77EFF57
:1013700010BD0000100C014010B580200549086028
:101380004020091F0860FFF771FF80200149091FF5
:10139000086010BD140C014010B580200C49086095
:1013A000FFF764FF40200A490860FFF75FFF084825
:1013B0000838006800F0800008B1012400E0002433
:1013C00040200349091D0860FFF750FF204610BD6B
:1013D000100C014086B0FFF7C3F8FFF7BBF920B946
:1013E00015A0FFF7F7FC00BFFEE723E004A8FFF716
:1013F00071F9BDF91430BDF91220BDF9101014A017
:10140000FFF7E8FC02A8FFF785F9BDF90C30BDF93C
:101410000A20BDF9081015A0FFF7DCFC01A8FFF7B2
:101420000DFABDF9041017A0FFF7D4FC4FF47A7041
:10143000FFF7B4FEDAE70000BCECB2E2B2BBB5BD28
:101440004D505536303530A3ACCDA3BBFA0000006B
:101450000D0ABCD3CBD9B6C8A3BA20253864253829
:10146000642538642020202000000000CDD3C2DD98
:10147000D2C7A3BA202538642538642538642020D3
:1014800020200000CEC2B6C8A3BA20256400000008
:101490004D5055363035302064656374656374652E
:1014A00064206572726F72210D0ABCECB2E2B2BBAD
:1014B000B5BD4D505536303530C4A3BFE9A3ACC7D8
:1014C000EBBCECB2E9C4A3BFE9D3EBBFAAB7A2B0AF
:1014D000E5B5C4BDD3CFDF00F8140008000000203C
:1014E00030000000F40D000828150008300000202E
:1014F00000040000040E000800A24A0400000000DE
:1015000000000000010203040607080900000000B3
:101510000102030401020304060708090204060885
:081520000000000000000000C3
:0400000508000131BD
:00000001FF
